S01700006275696C642F697269732F6D61696E2E7372656343
S11300000C9469000C9488000C9488000C9488006B
S11300100C9488000C9488000C9488000C9488003C
S11300200C9488000C9488000C9488000C9488002C
S11300300C9488000C94BF010C9488000C94AB01C0
S11300400C9488000C9488000C9488000C9488000C
S11300500C9488000C9488000C9488000C948800FC
S11300600C9488000C9488000C9488000C948800EC
S11300700C9488000C9488000C9488000C948800DC
S11300800C9488000C9488000C9488000C948800CC
S11300900C9488000C9488000C9488000C948800BC
S11300A00C9488000C9488000C9488000C948800AC
S11300B00C9488000C9488000C9488000C9488009C
S11300C00C9488000C9488000C94880000020E069E
S11300D00C0411241FBECFEFD1E2DEBFCDBF12E06E
S11300E0A0E0B2E0E4E2FAE000E00BBF02C0079057
S11300F00D92A030B107D9F712E0A0E0B2E001C040
S11301001D92AE32B107E1F70E94CA030C941105A7
S11301100C9400008FB7F894992708958FBF089521
S11301207FB7F8946091B2002091040230910502E7
S11301304091060250910702B99B11C08091B3000F
S11301409091B200280F311D411D511D2F5F3F4F6B
S11301504F4F5F4F290F311D411D511D04C0260F04
S1130160311D411D511D872F99278FBFCA01B90128
S11301700895282F9FB7F894E82FFF27E85FFD4FD5
S113018080818F3F81F4E0912D02E21771F40BC05E
S11301902093240204C0FF27E85FFD4F20832093AF
S11301A02D0220E007C025E005C0809124028F3F86
S11301B091F7EECF892F99278FBF822F9927089522
S11301C0DF92EF92FF920F931F938FB7F894282F2B
S11301D03327D22E9091B3008091B20047B3981781
S11301E011F041FF02C02FBF71C080910B02882320
S11301F0E1F10E949000E0900002F0900102009171
S113020002021091030220912702309128024091AA
S1130210290250912A026E197F09800B910B6217F3
S113022073078407950720F010920B0271E01EC03B
S11302302E0D3F1D401F511F809104029091050215
S1130240A0910602B0910702281B390B4A0B5B0BE5
S1130250273E31054105510540F4822F223010F02C
S113026070E005C070E082E002C070E086EE682FA6
S113027061508091B60083FDFCCF8091B200681775
S113028009F46F5F20910402309105024091060247
S113029050910702DA01C9010196A11DB11D860F13
S11302A0911DA11DB11D82179307A407B50710F472
S11302B0622F60958091B60083FDFCCF6093B300FC
S11302C0DFBE772319F080E00E94B9001F910F91DF
S11302D0FF90EF90DF900895AFB7F894BB27E1E06B
S11302E0E0930B0260930002709301028093020278
S11302F0909303022093270230932802409329020B
S113030050932A02AFBF0E94E0000895DF92EF925B
S1130310FF920F931F93D82E7A018B010E949000B5
S113032029E0D29EF0011124E45FFD4F60837183C4
S113033082839383E482F5820683178380858E7F8C
S11303408260808781E00E94B9001F910F91FF9025
S1130350EF90DF9008951F920F920FB60F92112421
S11303608F938091B0008093B0008091B60081FD9E
S1130370FCCF8F910F900FBE0F901F9018951F9276
S11303800F920FB60F9211242F933F934F935F93C5
S11303906F937F938F939F93AF93BF93EF93FF9349
S11303A08091B0008093B0008091B60081FDFCCFB5
S11303B08091B30099270196AA27BB2720910402B4
S11303C0309105024091060250910702280F391F0F
S11303D04A1F5B1F209304023093050240930602D8
S11303E05093070278940E94E000FF91EF91BF912F
S11303F0AF919F918F917F916F915F914F913F91B9
S11304002F910F900FBE0F901F901895AF92BF922F
S1130410CF92DF92EF92FF920F931F935B016C01D7
S11304206091140261FF1FC020910C0230910D02F3
S113043040910E0250910F02E0901002F0901102D0
S11304400091120210911302D601C501821B930B75
S1130450A40BB50B8E159F05A007B10720F0ECE0A7
S1130460F2E090E021C0E5E1F2E060911D0261FF5D
S11304708FC02091150230911602409117025091BD
S11304801802E0901902F0901A0200911B021091D8
S11304901C02A21AB30AC40AD50AAE14BF04C006C9
S11304A0D10608F475C091E060FF04C080858D7F9B
S11304B0808708C02E0D3F1D401F511F20833183AC
S11304C042835383992321F0913009F061C034C0F1
S11304D08FB7F894992722B132E0232722B98FBF2E
S11304E0479A4598439A80911E0290911F02009763
S11304F031F441984098469881E090E008C08130FA
S1130500910551F4419A4098469882E090E0909386
S11305101F0280931E023CC08230910531F4419841
S1130520409A469883E090E0F2CF039789F51092C1
S11305301F0210921E022CC02FB7F894332782B1E9
S1130540892782B92FBF80912B0290912C0280328F
S11305509105D0F48E31910511F4449A03C04F975C
S113056009F444982FB7F894332788B194E0892785
S113057088B92FBF80912B0290912C020196909301
S11305802C0280932B0204C010922C0210922B0296
S113059081E00E94B9001F910F91FF90EF90DF90CE
S11305A0CF90BF90AF900895AF92BF92CF92DF9259
S11305B0EF92FF920F931F930E9490005B016C01D6
S11305C08FB7F894992710920B028FBF8091140271
S11305D081FF28C080910C0290910D02A0910E021F
S11305E0B0910F02A6019501281B390B4A0B5B0B36
S11305F0DA01C901209110023091110240911202D6
S113060050911302281B390B4A0B5B0B2F3F8FEFC2
S113061038078FEF48078FE7580721F079018A01DF
S113062061E009C08FEFE82E8FEFF82E8FEF082FCF
S11306308FE7182F60E080911D0281FF24C0809114
S1130640150290911602A0911702B0911802A6010A
S11306509501281B390B4A0B5B0BDA01C901209168
S1130660190230911A0240911B0250911C02281B5E
S1130670390B4A0B5B0B2E153F05400751071CF441
S113068079018A0102C06623D9F01E141F041006E2
S113069011062CF0C601B5010E94060211C0E092B9
S11306A02002F0922102009322021093230281E09F
S11306B080930A02A8019701C601B5010E946C014A
S11306C01F910F91FF90EF90DF90CF90BF90AF906C
S11306D00895EF92FF920F931F9380910A0288234B
S11306E061F5209120023091210240912202509123
S11306F02302EFB7F894FF27609100027091010282
S11307008091020290910302E0902702F090280267
S11307100091290210912A026E0D7F1D801F911FE6
S1130720EFBF209320023093210240932202509382
S1130730230210920A020E946C010E9490000E94FF
S113074006021F910F91FF90EF900895809124026B
S11307508F3FE9F0282F3327F901E85FFD4F8081AF
S1130760809324028F3F11F480932D028FEF8083B6
S11307702F3F69F0222319F0213021F005C00E9497
S1130780690302C00E94D40281E090E0089580E0F1
S113079090E008951F931FB7F89414BE88E10FB634
S11307A0F89480936000109260000FBE42E050E025
S11307B06FEF70E088E092E00E940A058FEF80936B
S11307C0240280932D0281E08093810080E2809353
S11307D0B60083E08093B1008091840090918500FD
S11307E04AE720918400309185002817390708F4DE
S11307F04150442311F0C901F4CF9091B20080918B
S1130800B2008917E1F32091840030918500909122
S1130810B2008091B2008917E1F380918400909135
S11308208500821B930B409625E0969587952A9523
S1130830E1F790932602809325021092B1008091F3
S1130840B10080938100809181008093B600109262
S1130850B20010928500109284008FEF87BB87B39B
S113086086BB8091B6008571E1F70A9A099A089AC5
S1130870129A119A109A18B88FEF87B90C98149895
S11308800E94A6038823E1F78091B60080628093DA
S1130890B6008091B60081FDFCCF82E08093B00069
S11308A08091B60080FDFCCF83E08093B1008091FD
S11308B0B60083FDFCCF86EE8093B3008091700078
S11308C08260809370000E94E0000E94A603882347
S11308D0E1F7812F99278FBF789410922C02109200
S11308E02B0210921F0210921E02389A399A3A9AD9
S11308F03B9A3C9A3D9A3E9A3F9A48EE53E060E018
S113090070E080E00E94860145E050E060E070E025
S113091081E00E9486018FB7F894482F552757C06D
S113092080917000992783709070892B19F4E5E009
S1130930F0E014C08091B6008A71E1F78091B300B1
S11309409091B200891B8C3038F08091B200853FC1
S113095018F4E3E0F0E002C0E2E0F0E080916E0021
S1130960867009F580916F008E72E9F480917100B0
S11309708E72C9F40CB407FC16C08091C100887152
S113098091F48091C900887171F48091BC0082FD5A
S11309900AC080917A0087FF03C081E090E005C01F
S11309A085E090E002C080E090E023B78E1708F461
S11309B0E82FFF27E453FF4FE491207F2160E22BCF
S11309C0E3BF78948895F89483B78E7F83BF809132
S11309D024028F3F09F4A4CF282F3327F901E85FBD
S11309E0FD4F8081809324028F3F11F480932D0268
S11309F08FEF80832F3F09F493CF4FBF222321F041
S1130A00213009F088CF03C00E94690384CF0E947B
S1130A10D40281CFDC0101C06D9341505040E0F716
S1070A200895FFCF63
S9030000FC
