S01700006275696C642F697269732F6D61696E2E7372656343
S11300000C947F010C949E010C949E010C949E010F
S11300100C949E010C949E010C949E010C949E01E0
S11300200C949E010C949E010C949E010C949E01D0
S11300300C949E010C9427090C949E010C94740A50
S11300400C9405140C943B140C94300A0C943B0A45
S11300500C94460A0C949E010C949E010C949E01EF
S11300600C947B090C941A070C949E010C949D0724
S11300700C949E010C949E010C949E010C94F40823
S11300800C94D3080C94DE080C94E9080C9407092A
S11300900C94B6080C949E010C94C8080C949E0110
S11300A00C949E010C949E010C949E010C949E0150
S11300B00C949E010C949E010C949E010C949E0140
S11300C00C949E010C949E010C949E017D16611764
S11300D0E317E517F5171A186D165F186D187B18D6
S11300E0AE1800193119B619D919251A551B4D1C0A
S11300F0B11BC51B7516761C00002110422063300D
S11301008440A550C660E770088129914AA16BB16B
S11301108CC1ADD1CEE1EFF1311210027332522213
S1130120B5529442F772D662399318837BB35AA3BB
S1130130BDD39CC3FFF3DEE36224433420040114E3
S1130140E664C774A44485546AA54BB5288509950B
S1130150EEE5CFF5ACC58DD55336722611163006B3
S1130160D776F6669556B4465BB77AA7199738875B
S1130170DFF7FEE79DD7BCC7C448E5588668A77873
S11301804008611802282338CCC9EDD98EE9AFF9AB
S1130190488969990AA92BB9F55AD44AB77A966A53
S11301A0711A500A333A122AFDDBDCCBBFFB9EEBFB
S11301B0799B588B3BBB1AABA66C877CE44CC55C23
S11301C0222C033C600C411CAEED8FFDECCDCDDD4B
S11301D02AAD0BBD688D499D977EB66ED55EF44EF3
S11301E0133E322E511E700E9FFFBEEFDDDFFCCF9B
S11301F01BBF3AAF599F788F8891A981CAB1EBA1EF
S11302000CD12DC14EF16FE18010A100C230E3206A
S11302100450254046706760B9839893FBA3DAB312
S11302203DC31CD37FE35EF3B1029012F322D232BA
S11302303542145277625672EAB5CBA5A8958985E2
S11302406EF54FE52CD50DC5E234C324A01481040A
S11302506674476424540544DBA7FAB79987B897B2
S11302605FE77EF71DC73CD7D326F2369106B0165A
S113027057667676154634564CD96DC90EF92FE972
S1130280C899E9898AB9ABA94458654806782768AA
S1130290C018E1088238A3287DCB5CDB3FEB1EFB52
S11302A0F98BD89BBBAB9ABB754A545A376A167AFA
S11302B0F10AD01AB32A923A2EFD0FED6CDD4DCD22
S11302C0AABD8BADE89DC98D267C076C645C454C4A
S11302D0A23C832CE01CC10C1FEF3EFF5DCF7CDFF2
S11302E09BAFBABFD98FF89F176E367E554E745E9A
S11302F0932EB23ED10EF01E00020E060C04112401
S11303001FBECFEFD1E2DEBFCDBF12E0A0E0B2E06E
S1130310E8E4F7E400E00BBF02C007900D92A038B8
S1130320B107D9F716E0A0E8B2E001C01D92A336E8
S1130330B107E1F70E94BB1C0C94A3230C940000AA
S11303408FB7F894992708958FBF08959FB7F894AD
S1130350282F332720FF02C0129801C0129A21FFD0
S113036002C0119801C0119A22FF02C0109801C066
S1130370109A892F99278FBF0895FC01808182519B
S1130380E80FF11D84858A3029F4662319F081E091
S11303900E94A6010895282F9FB7F894E82FFF27FD
S11303A0EA54FD4F80818F3F81F4E0915106E217BA
S11303B071F40BC020936D0504C0FF27EA54FD4F70
S11303C020832093510620E007C025E005C08091DA
S11303D06D058F3F91F7EECF892F99278FBF822F1D
S11303E099270895882319F08CB5806402C08CB5D0
S11303F08F7B8CBD08950F931F93982F1FB7F8948C
S113040080919802823099F580916F02891779F56D
S113041080916D0220E030E08F3F11F421E030E064
S1130420232BF1F49FEF90936F028F3F19F42FEF7A
S113043030E00DC0282F3327F901E15EFC4F8081A5
S113044080936D028F3F11F490936E0290832093FA
S1130450210381E08093980283E10E94CB0105C0CF
S11304608FEF80936F021092980201E001C000E0C8
S1130470812F99278FBF1FB7F89480919802882302
S113048011F40E94F201812F99278FBF90E001306F
S113049009F491E081E09827892F99271F910F9102
S11304A00895882319F08CB5806802C08CB58F77C5
S11304B08CBD08950F931F9380E00E94F2010FB743
S11304C0F8941127229A2398219A8CB580618CBDC7
S11304D080E00E9451028DB581608DBD8CB5877F0F
S11304E08CBD8CB58B7F8CBD8CB58E7F8CBD81E033
S11304F00E94F2010FBF1F910F9108958FB7F894D6
S113050020911703309118034091190350911A0355
S1130510E0918400F0918500B09B08C02F5F3F4FAD
S11305204F4F5F4FE0918400F091850099278FBF72
S1130530C901772766279F0144275527622B732B10
S1130540842B952B0895FC0180A9826080AB0895CB
S11305508C960895FC0182819927982F8827218100
S11305603327822B932B25E0969587952A95E1F7DF
S1130570817090700895AC01EFB7F89420918400D5
S113058030918500C901841B950B03968617970744
S113059020F0B9016D5F7F4F02C0640F751F6115B4
S11305A0710511F461E070E061507040709389004E
S11305B06093880082E086BB80916F0082608093A4
S11305C06F008E2F99278FBF0895CF93DF93EC018F
S11305D00E94AA02882339F18A8129819927982FB8
S11305E088273327822B932B87749C7C81549848CB
S11305F0D1F48F814E812FB7F8943327609167022D
S1130600709168022FBF20E09927982F88275527DB
S1130610842B952B8617970709F021E081E0282782
S1130620822F992702C080E090E0DF91CF91089556
S113063080910A03823031F481E080930A038EE0D2
S11306400E94CB010895EF92FF920F931F937C01B8
S11306508FB7F894992700914C0410914D040F5EC4
S11306601E4F10934D0400934C04015111408FBF51
S113067080E10E94CB01C801B7010E9435208A5D48
S11306809E4F1F910F91FF90EF900895EF920F935B
S11306901F93AE2D99E0899FF0011124EB55FC4F77
S11306A04083518362837383048315832683378352
S11306B0A17080858E7F8A2B826080878AE00E9469
S11306C0CB011F910F91EF9008957FB7F89460913B
S11306D0B2002091B1023091B2024091B302509124
S11306E0B402B99B11C08091B3009091B200280F5D
S11306F0311D411D511D2F5F3F4F4F4F5F4F290F3C
S1130700311D411D511D04C0260F311D411D511DB8
S1130710872F99278FBFCA01B90108951F931FB767
S1130720F89480914906882339F40E94CB018823E8
S113073019F481E080934906812F99278FBF1F9177
S11307400895382FFA01422F2D3118F082E090E0FD
S113075008956683872F992785833387218780911E
S1130760850290918602892B19F085E090E0089526
S11307702FB7F894332785E080938802109289027A
S1130780F0938402E093830282E090E090938602E7
S11307908093850210928B0210928A02445F4093E8
S11307A087022FBF9FB7F89480912703882311F005
S11307B020E006C081E0809327031092280321E003
S11307C0892F99278FBF222329F00E948E0380E06E
S11307D090E00895109286021092850281E090E0E4
S11307E00895CF93DF93DB01FB0135968183892F35
S11307F09927EB018D8384E6868380919C039091F5
S11308009D03892B19F085E090E029C070939D0326
S113081060939C03448380916602882319F480E0EA
S113082090E01DC08681EB016D817727762F6627C6
S113083021813327622B732B10926602242FAD0182
S11308400E94A1039927282F882339F081E08093FF
S1130850660210929D0310929C03822F9927DF91C8
S1130860CF910895AF92BF92CF92DF92EF92FF9211
S11308700F931F93F82E5A016B010E946503AB017D
S1130880BC0131E0E32E960185018F2D0E944603C1
S11308901F910F91FF90EF90DF90CF90BF90AF909A
S11308A00895DF92EF92FF920F931F938FB7F894FE
S11308B0282F3327D22E9091B3008091B20047B3F2
S11308C0981711F041FF02C02FBF71C0809111032E
S11308D08823E1F10E946503E090A902F090AA0246
S11308E00091AB021091AC02209173053091740514
S11308F040917505509176056E197F09800B910B17
S1130900621773078407950720F01092110371E0B2
S11309101EC02E0D3F1D401F511F8091B1029091AA
S1130920B202A091B302B091B402281B390B4A0B56
S11309305B0B273E31054105510540F4822F2230DF
S113094010F070E005C070E082E002C070E086EE56
S1130950682F61508091B60083FDFCCF8091B20076
S1130960681709F46F5F2091B1023091B20240918F
S1130970B3025091B402DA01C9010196A11DB11D5F
S1130980860F911DA11DB11D82179307A407B507FA
S113099010F4622F60958091B60083FDFCCF6093C4
S11309A0B300DFBE772319F089E00E94CB011F91C9
S11309B00F91FF90EF90DF900895AFB7F894BB27A5
S11309C0E1E0E09311036093A9027093AA0280937B
S11309D0AB029093AC02209373053093740540935B
S11309E0750550937605AFBF0E9451040895809118
S11309F047048A3021F480910C03843021F081E093
S1130A0080938002089582E00E94CB0110928002BC
S1130A1008952FB7F89433278093C600E0ECF0E0F4
S1130A208081806480832FBF0895FC016115710566
S1130A3019F481E090E008958091220390912303BA
S1130A40892B19F085E090E0089570935B0560931D
S1130A505A05F0932303E093220310920E0310929D
S1130A600D0381E080930F038091C0008064809324
S1130A70C0008091C10080648093C100808121E026
S1130A8030E030930E0320930D030E94090580E0AB
S1130A9090E008958FB7F8949927209191022E7FC2
S1130AA0209391022EE72093CC028FBF61E070E087
S1130AB08CEC92E00E94150599270895E8EFF0E088
S1130AC06927660FF11DE60FF11DC895982F802D3B
S1130AD03196C89590250895982F80918C0288238B
S1130AE089F5992379F531E030938C0280915F0286
S1130AF080938D0220918102822F81708093AF02B6
S1130B00809164029091650290938F0280938E028B
S1130B10809182028093900232273170267EE32FE7
S1130B20FF27EE0FFF1FE05AFD4F808191819093C4
S1130B30650280936402232B2093810285E00E9446
S1130B40CB0108958091810280FF02C08B7F01C098
S1130B508D7F8093810208950F931F93082F162F82
S1130B6080910C038130D9F0813038F0823009F45F
S1130B704AC0833009F027C159C0002309F457C182
S1130B80109253051092520510924F04109266056C
S1130B90109210031092A1031092A00338C10023F5
S1130BA009F045C18091A0039091A1030E945E05C4
S1130BB09093A1038093A00382E080930C0310938D
S1130BC06605143409F0FFC024C18695869503C0D8
S1130BD0809181028695817009F0F5C0809181022F
S1130BE0992311F0846001C0826080938102809116
S1130BF08102877E886080938102109282028FEF47
S1130C0080935F0214C1002309F0DDC060931003D8
S1130C108091A0039091A1030E945E059093A1038B
S1130C208093A00383E080930C0301C180914F045F
S1130C308F3F09F4C8C0002309F460C0823008F46F
S1130C40C2C0E0915205EE2309F4EAC04E2F415090
S1130C50E42FFF27EE5AFA4F82819927382F222753
S1130C60442311F4E2E002C0E42FE150FF27EE5ADE
S1130C70FA4F82819927282B392B8091A0039091D8
S1130C80A1032817390709F09EC080E00E946C0573
S1130C90309110038091900320919103982F9F5FCE
S1130CA0963008F090E0921771F0E82FFF27E05794
S1130CB0FC4F32838F5F80939003863010F0109244
S1130CC090030E948E0310925305109252051092C5
S1130CD00C0310924F0410926605109210031092A8
S1130CE0A1031092A003809191028D7F80939102C1
S1130CF080918002882309F49AC081C0823008F46C
S1130D004EC0E0915305FF27EE5AFA4F8281482FD7
S1130D105527342F20918102822F869586958695BA
S1130D20837099278130910519F00297F9F40EC068
S1130D30277E206120938102442311F485E001C0C1
S1130D4080E08093820230935F0210C0809182021F
S1130D50833360F4E0916402F0916502E80FF11DC1
S1130D604083809182028F5F809382028091530539
S1130D70E82FFF27EE5AFA4F62818F5F8093530565
S1130D80833010F01092530577278091A00390913F
S1130D90A1030E945E059093A1038093A003809118
S1130DA05205E82FFF27EE5AFA4F12838F5F809384
S1130DB05205833010F01092520580914F048F5FDA
S1130DC080934F0434C01092530510925205109230
S1130DD00C0310924F0410926605109210031092A7
S1130DE0A1031092A003809191028D7F80939102C0
S1130DF081E00E946C0580918002882331F084E0B8
S1130E0080930C030E94F70412C0002381F081E058
S1130E100ACF80918102982F917080FDD6CED8CED2
S1130E20809156059927382F222742E01DCF1F9124
S1130E300F9108951F920F920FB60F9211242F93C2
S1130E403F934F935F936F937F938F939F93AF934E
S1130E50BF93EF93FF938091C00087FF42C06091DE
S1130E60C600E091A203F091A303309719F1809199
S1130E70470690914806E80FF91F60830196909306
S1130E8048068093470620915606309157068217EC
S1130E90930738F11092A3031092A20380914604A1
S1130EA08330F9F08091C1008F778093C100109254
S1130EB0460417C06E3719F460E081E010C08091D9
S1130EC091026D3721F48260809391020AC081FF00
S1130ED005C08D7F8093910280E2682780E00E94A4
S1130EE0AC05FF91EF91BF91AF919F918F917F914D
S1130EF06F915F914F913F912F910F900FBE0F9083
S1130F001F901895982F8D57823068F48091910224
S1130F1081608093910280E2892780934E048DE75B
S1130F208093CC0202C09093CC0261E070E08CEC20
S1130F3092E00E9415059927089578941F920F92C4
S1130F400FB60F921124FF920F931F932F933F9389
S1130F504F935F936F937F938F939F93AF93BF93BD
S1130F60CF93DF93EF93FF9320910D0330910E0302
S1130F7080915A0590915B052817390780F4E09118
S1130F802203F0912303E20FF31F80812F5F3F4F71
S1130F9030930E0320930D030E940905D1C01092D3
S1130FA023031092220310920F038091C1008F7BC0
S1130FB08093C100FFB6F8948091910280FF0EC027
S1130FC08E7F8093910280914E048093CC0261E0E5
S1130FD070E08CEC92E00E941505AFC0809147044C
S1130FE0843009F48CC0853040F4823021F18330A0
S1130FF0B8F5813009F09CC00DC0863009F48DC06D
S1131000863008F483C0873009F48EC0883009F034
S11310108FC091C0809120030E948207082F83E033
S11310208093470460912003809154069091550663
S11310300E945E0510C0809171050E948207082FEE
S113104083E08093470460917105809154069091E8
S113105055060E945E05909355068093540666C01B
S1131060E091A403FF27EE0FFF1FEA5DFC4F808190
S11310700E948207082F1091A403C12FDD27FE01CF
S1131080EE0FFF1FEA5DFC4F608180915406909142
S113109055060E945E059093550680935406209150
S11310A01E032F5F20931E03113039F580918802AF
S11310B0E0918302F0918402E80FF11DE0818F5FDB
S11310C08093880290918702981730F482E080938D
S11310D0270340E050E002C04E2F5527DE01AA0F3F
S11310E0BB1FFD01EB5DFC4F8081823031F02F3F4F
S11310F021F0AA5DBC4F4C9319C084E012C08091CA
S113110054060E948207082F85E00BC08091550683
S11311100E948207082F86E004C00E944A05082F17
S113112087E08093470402C088E003C0002329F0CD
S113113089E0809347040E948E038F2D99278FBFE7
S1131140FF91EF91DF91CF91BF91AF919F918F91DB
S11311507F916F915F914F913F912F911F910F91CB
S1131160FF900F900FBE0F901F9018951F920F9233
S11311700FB60F9211248F938091C80087FF02C08D
S11311808091CE008F910F900FBE0F901F901895F5
S113119078941F920F920FB60F9211240F900FBEE6
S11311A00F901F90189578941F920F920FB60F927C
S11311B011240F900FBE0F901F90189578941F92D2
S11311C00F920FB60F9211240F900FBE0F901F9025
S11311D0189578941F920F920FB60F9211240F90C6
S11311E00FBE0F901F90189578941F920F920FB610
S11311F00F9211248F939F93809196009091970062
S11312009F918F910F900FBE0F901F901895789417
S11312101F920F920FB60F9211242F933F938F9327
S11312209F932FB7F894332780919E0390919F0347
S1131230019690939F0380939E032FBF9F918F915C
S11312403F912F910F900FBE0F901F9018951F92F2
S11312500F920FB60F9211242F933F934F935F93E6
S11312606F937F938F939F93AF93BF93EF93FF936A
S11312708091B0008093B0008091B60081FDFCCFD6
S11312808091B30099270196AA27BB272091B10228
S11312903091B2024091B3025091B402280F391F29
S11312A04A1F5B1F2093B1023093B2024093B302F2
S11312B05093B40278940E945104FF91EF91BF912E
S11312C0AF919F918F917F916F915F914F913F91DA
S11312D02F910F900FBE0F901F9018951F93182FEA
S11312E081E00E94F2011EBD0DB407FEFDCF8EB554
S11312F099271F9108951F920F920FB60F921124F0
S11313008F929F92AF92BF92CF92DF92EF92FF9211
S11313100F931F932F933F934F935F936F937F93F9
S11313208F939F93AF93BF93CF93DF93EF93FF93E9
S11313302EB5E0914104F0914204309739F0809148
S1131340980390919903E80FF91F208380919803E3
S1131350909199030196909399038093980380E068
S11313600E945102C0919803D091990380919F02E9
S11313709091A002C817D90708F044C00091110643
S11313801091120680904104909042042AE0A22E0B
S1131390B12CAC0EBD1E8A159B0508F45C016401DA
S11313A0CC0EDD1E7801EC0EFD1E15C001151105D5
S11313B019F0F701808101C080E00E946E09811458
S11313C0910411F0F601808321960894C11CD11C6C
S11313D00894E11CF11CC5010197C817D90730F323
S11313E081E00E9451020115110531F00C0F1D1FFF
S11313F0F80180818EBD01C01EBCD0939903C093B7
S1131400980311C0109242041092410410921206E3
S1131410109211061092A00210929F02109299034A
S1131420109298038EB5FF91EF91DF91CF91BF9108
S1131430AF919F918F917F916F915F914F913F9168
S11314402F911F910F91FF90EF90DF90CF90BF905D
S1131450AF909F908F900F900FBE0F901F90189594
S113146078941F920F920FB60F9211240F900FBE13
S11314700F901F90189578941F920F920FB60F92A9
S113148011240F900FBE0F901F90189578941F92FF
S11314900F920FB60F9211242F933F938F939F9324
S11314A0AF93BF932FB7F89433278091170390918C
S11314B01803A0911903B0911A030196A11DB11D3F
S11314C08093170390931803A0931903B0931A03FE
S11314D02FBFBF91AF919F918F913F912F910F900B
S11314E00FBE0F901F9018951F920F920FB60F9278
S11314F011248F938091B0008093B0008091B60046
S113150081FDFCCF8F910F900FBE0F901F90189507
S113151021E02093240320934304209184003091FC
S11315208500BC01C9010E94BB0208950F931F935B
S1131530CF93DF93182F0FB7F894809198028823E4
S113154011F40E945A02802F99278FBF8FB7F89405
S1131550C82FDD272C2F80919802882361F481E025
S1131560809398021093210383E10E94CB01CFBFA3
S113157080E090E021C0E12FFF27E15EFC4F8081F5
S11315808F3F89F4E0916E02E11789F40CC0109347
S11315906D0204C0FF27E15EFC4F108310936E02BE
S11315A080E090E002C085E090E02FBF05C080910C
S11315B06D028F3F79F7EBCFDF91CF911F910F91A0
S11315C008958FB7F894282F3327922F80916F02B4
S11315D0882331F480919802823011F42FBF13C014
S11315E09FBF8FB7F894282F3327809198028823C0
S11315F069F482E08093980210926F022FBF0E94D8
S11316005A02209A289A81E090E008952FBF80E042
S11316100E94960A80E090E008951F93982F1FB7C8
S1131620F89480919602823099F580916C02891722
S113163079F580916A0220E030E08F3F11F421E0D7
S113164030E0232BF1F49FEF90936C028F3F19F459
S11316502FEF30E00DC0282F3327F901ED52FD4F55
S1131660808180936A028F3F11F490936B02908380
S11316702093D00281E0809396028BE00E94CB01FC
S113168005C08FEF80936C021092960221E001C096
S113169020E0812F99278FBF90E0213009F491E059
S11316A081E09827892F99271F91089580937705C2
S11316B0882311F484E001C081E080930A038EE062
S11316C00E94CB010895809194028C3118F04CE172
S11316D050E002C0482F55278CE1E0E2F6E0119279
S11316E08A95E9F7909194028091920220E030E08B
S11316F0A0E2B6E00FC0E82FFF27EE5AFB4FE081CF
S1131700992329F08F5F8A3F09F480E09150ED938B
S11317102F5F3F4F2417350771F7909394028093FE
S113172092024CE164E176E08FEF9FEF0E94F103B7
S1131730882319F088E00E94CB0108951F93182F85
S113174080919502813049F4809194028D3728F07C
S113175082E0809395020E94630B8FB7F894282F40
S11317603327909194029A3FA8F480919302E82F32
S1131770FF27EE5AFB4F10838F5F809393028A3FBB
S113178011F4109293029F5F909394022FBF80E014
S113179090E003C02FBF8FEF9FEF1F910895662342
S11317A059F480919402882319F00E94630B0895E0
S11317B081E080939502089588E00E94CB0108950A
S11317C0EF92FF920F931F93CF93DF93182F7B0118
S11317D0042FE82FFF27EE0FFF1FE456FC4F118262
S11317E0108210926602A0919C03B0919D03109701
S11317F021F08091720580FF0EC081E08093660223
S113180003C087E00E94CB011123C9F4602FC701F4
S11318100E94CF0B14C0FD01359624813327ED01BE
S11318206D817727762F662781819927682B792BFD
S1131830AD0186810E94A103882331F3E2CFDF91B9
S1131840CF911F910F91FF90EF9008958FB7F89467
S1131850282F332780919502823021F42FBF80E016
S113186090E0089590E080919402882309F491E037
S1131870992321F02FBF81E090E0089582E08093C6
S113188095022FBF0E94630B80E090E00895CF93F0
S1131890DF93FC018FE38287809199028F5F8093AD
S11318A09902DF011196ED018A83809197028823C2
S11318B019F085E090E022C080A591A5892B71F0F4
S11318C0ED0129813327322F2227818199278062D4
S11318D0282B392B2183232F33272983F093510479
S11318E0E093500410924B0410924A0481E08093D8
S11318F097028CE00E94CB0180E090E0DF91CF91D1
S113190008951F93CF93DF93182FFA01A22F2D313F
S113191018F086E090E08EC0EA0121968981218149
S1131920B0E09927582F44273327422B532BCA0161
S113193087749C7C8154984809F4B1E0BB2349F432
S1131940CA0180739070816498688183892F992774
S11319508983A35FA0832FB7F8943327809167020C
S1131960909168022FBF8087892F992781872FB78D
S1131970F8943327809169022FBF992784831582B5
S113198013876683872F992787838FB7F894282F27
S1131990332780919602882371F482E08093960223
S11319A010926C022FBFCF010E94470C9927182F69
S11319B0882399F00FC02FBFF093D202E093D10295
S11319C08FB7F894C82FDD272C2F80919602882397
S11319D099F406C080E00E940D0B812F99272AC03C
S11319E081E0809396021092D0028BE00E94CB019A
S11319F0CFBF80E090E01EC08091D3028F3F89F476
S1131A00E0916B02EE2369F010C010926A0204C0E8
S1131A10FF27ED52FD4F108210926B0280E090E0A0
S1131A2002C085E090E02FBF05C080916A028F3F1D
S1131A3079F7EBCFDF91CF911F9108950F931F9307
S1131A40CF93DF93182FEB01042FE82FFF27EE0F1E
S1131A50FF1FE559FA4F1182108210927002E09133
S1131A606B05F0916C05309721F080911D0380FF88
S1131A700EC081E08093700203C085E10E94CB0117
S1131A801123B9F4602FCE010E94BD0112C0208140
S1131A902D50332767817727762F662786819927EC
S1131AA0682B792BAF0183850E94810C882341F335
S1131AB0E4CFDF91CF911F910F9108954F925F92E0
S1131AC06F927F928F929F92AF92BF92CF92DF924A
S1131AD0EF92FF920F931F93CF93DF932C0180918A
S1131AE09E02882309F085C180911306853009F090
S1131AF080C10E94E10A882309F47BC180915705C3
S1131B00882309F076C160E3862E912C840C951C01
S1131B10F20180A982FD02C090E003C0F20192A903
S1131B209F7080915C03981781F090935C032898D0
S1131B3085EC8EBD0DB407FEFDCF8EB590689EBDBD
S1131B400DB407FEFDCF8EB5289AE2012196898156
S1131B50F201218140E09927982F88273327822B8F
S1131B60932B87749C7C8154984809F441E0442366
S1131B7001F1289886E88EBD0DB407FEFDCF8EB521
S1131B801EBC0DB407FEFDCF8EB5289A99278F7120
S1131B909070209116034091D402240F312D311DF1
S1131BA043E0359527954A95E1F7281739070CF452
S1131BB020C1289882EC8EBD0DB407FEFDCF8EB5F2
S1131BC089E08EBD0DB407FEFDCF8EB5289A0E9424
S1131BD07E027B018C01D4018C9184FD03C0E0E082
S1131BE0F0E005C0F20180818550E80FF11D2898CE
S1131BF081E88EBD0DB407FEFDCF8EB51EBC0DB4BD
S1131C0007FEFDCF8EB5289A8F71893079F0289818
S1131C1082EC8EBD0DB407FEFDCF8EB586E08EBD81
S1131C200DB407FEFDCF8EB5289AE3C08FB7F894A4
S1131C3099272F9A20918400309185008FBF2F9887
S1131C40289880E68EBDD2019C910DB407FEFDCF8D
S1131C508EB59EBD792F7250773010F4672F01C076
S1131C6067E0DE01962F4D910DB407FEFDCF8EB5D2
S1131C704EBD9150C1F76150C60FD11D6F5F2196C3
S1131C802E193F092E553F4F3901882477FC809443
S1131C90982C6E0C7F1C801E911E309719F4972F80
S1131CA0961B42C02081E1808281A3809927AA27C4
S1131CB0BB27BA2FA92F982F8827332744275527C6
S1131CC0522F442733272227FF2400271127870177
S1131CD0FF24EE242E293F29402B512BBB24CC2456
S1131CE0DD242A293B294C295D29822B932BA42B03
S1131CF0B52B86199709A809B9098383292F3A2F87
S1131D004B2F552722839D014427552721838B2F51
S1131D109927AA27BB278083C2CF28810DB407FE49
S1131D20FDCF21968EB52EBD9150B8F70DB407FEA8
S1131D30FDCF8EB5289A289882EC8EBD0DB407FE8F
S1131D40FDCF8EB586E08EBD0DB407FEFDCF8EB5FA
S1131D50289A3097D1F12081E1808281A38099274C
S1131D60AA27BB27BA2FA92F982F882733274427C0
S1131D705527522F442733272227FF2400271127D2
S1131D808701FF24EE242E293F29402B512BBB240D
S1131D90CC24DD242A293B294C295D29822B932B31
S1131DA0A42BB52B860D971DA81DB91D8383292F40
S1131DB03A2F4B2F552722839D01442755272183F2
S1131DC08B2F9927AA27BB278083C2010E94A302D5
S1131DD0C2010E94A802FC01608271828282938205
S1131DE086E08093130684E080939E0280E090E076
S1131DF002C085E090E0DF91CF911F910F91FF9099
S1131E00EF90DF90CF90BF90AF909F908F907F9096
S1131E106F905F904F900895AF92BF92CF92DF92F0
S1131E20EF92FF920F931F93CF93DF938091570507
S1131E30882309F4FEC00E94E10A882309F4F9C04A
S1131E408FB7F8949927C0911B03D0911C038FBFBF
S1131E501092570528988FE88EBD0DB407FEFDCF6C
S1131E608EB51EBC0DB407FEFDCF8EB5289A982FF3
S1131E7080919E02833011F0873031F485E08093A5
S1131E80130688E080939E02A92EBB24A2FE5FC0A5
S1131E9080919E02863019F410929E0203C088231A
S1131EA009F055C0943009F041C0289886E88EBDE9
S1131EB00DB407FEFDCF8EB51EBC0DB407FEFDCFDD
S1131EC02EB5289A2F718091D402982F96959695C5
S1131ED0322F391B830F8093D402E091AD02F0912D
S1131EE0AE0280A98B7F886080AB22AB0E947E0209
S1131EF06B017C010091AD021091AE02C8010E94F9
S1131F00A302C8010E94A802FC01CC19DD0927978D
S1131F10CE01AA2797FDA095BA2F8C0D9D1DAE1D4D
S1131F20BF1D80839183A283B3830EC0E091AD0271
S1131F30F091AE0280A9877F80ABE091AD02F09171
S1131F40AE0280A98D7F80AB85E080939E02A3FEC4
S1131F5070C080919E02843009F04EC085E0809369
S1131F60130610929E028091B002833019F41092ED
S1131F70B0025FC0C0915206D0915306CE010E94B8
S1131F80AA02882389F18A8129819927982F882791
S1131F903327822B932B87749C7C8154984821F59A
S1131FA08F812E819927982F88273327822B932B73
S1131FB08F5F9F4FC9F090E080914304882309F418
S1131FC091E0992389F012E01093240381E0809337
S1131FD0430480918400909185006CEC7AE00E9427
S1131FE0BB021093B00225C01092B00210920B03F2
S1131FF080E00E94560B1DC08530D9F42091160351
S1132000289886E88EBD0DB407FEFDCF8EB51EBCA4
S11320100DB407FEFDCF8EB5289A8F71922F969539
S11320209695891B280F2093160389E080939E02BE
S113203008C090919E02992309F4E5C2993009F0F1
S113204012C2289880E28EBD0DB407FEFDCF8EB576
S11320501EBC0DB407FEFDCF8EB5482F5527433067
S113206008F496C3842F99278A970CF091C31EBC59
S1132070E091AD02F091AE024083142F125017305C
S113208010F4912F01C097E0BF016F5F7F4F292F9C
S1132090FB0140E050E00DB407FEFDCF8EB51EBC41
S11320A0808381914827042E4295407F4025052E48
S11320B0542F42954F700426469554274527440FC4
S11320C0440F440F4025215031F79150DB01A90FF3
S11320D0B11D9F5F1196E091AD02F091AE02818136
S11320E08770823009F421E0222349F020E030E0B7
S11320F08091B002823081F421E030E00DC08FB7CE
S1132100F894282F332760E080914C05833008F43D
S113211061E02FBF262F3327232B09F45CC0191B42
S1132120912F18C00DB407FEFDCF8EB51EBC8C9345
S11321308D914827042E4295407F4025052E542F2B
S113214042954F700426469554274527440F440F63
S1132150440F4025915030F70DB407FEFDCF8EB5E6
S11321601EBC9A012827022E2295207F2025032EAB
S1132170322F22952F700226269532272327220FED
S1132180220F220F20250DB407FEFDCF8EB51EBCF5
S11321902827022E2295207F2025032E322F2295D8
S11321A02F700226269532272327220F220F220F73
S11321B020250DB407FEFDCF8EB5E091AD02F09160
S11321C0AE0281AB289A15E01093130610929E027A
S11321D0232B31F014C20DB407FEFDCF8EB5D8C247
S11321E0E090AD02F090AE0267010894C11CD11CCE
S11321F0F701818190E0282F332727703070223037
S1132200310509F491E08091B002992319F18230EB
S113221009F024C1F7019381E0915206F09153062D
S11322208381981709F01AC12230310509F016C1CB
S113223080916F008D7F80936F001092430480A97A
S1132240816080AB1092B00210920B0380E00E9478
S1132250560B04C18823C9F4C7010E94E5028823F0
S1132260A1F010935D0382E080935E0310925F03FC
S1132270F7018381809360038DE593E00E945E0DF6
S1132280882319F483E08093B002009184001091B4
S11322908500C7010E94E502882311F0045E1C4FEB
S11322A010939B0300939A0380918400909185007E
S11322B09801281B390B12161306A4F480910B0302
S11322C0882369F490E080914304882309F491E021
S11322D0992341F0C9010E94880A80E801C08068FE
S11322E080930B03F601808527819927582F442773
S11322F03327422B532B8091B502282F3327F90122
S1132300EE0FFF1FE45AFA4F8081918170914404CB
S11323108417950769F4F901E65BF94F8081871703
S113232009F467C0872F8F5F8093440480831DC0A6
S113233000E010E080E090E0CCE5D5E0EAE4F6E0EF
S1132340DF01682F9C01888199818417950779F4AE
S11323502093B502909144048C91891709F449C0E3
S1132360892F8F5F809344048C9300E829C0808177
S1132370972F981B091710F4092F122F6F5FC901AB
S1132380019611962296319685309105D1F66530E5
S1132390B9F41093B502A12FBB27FD01EE0FFF1F67
S11323A0E45AFA4F51834083809144048F5F8093B1
S11323B04404FD01E65BF94F8083A85AB94F1C928F
S11323C090914404892F8F778F3779F40F3768F011
S11323D0EAE4F6E0292F207880818F67891320832F
S11323E0319636E0EF34F307B9F78091B502282F20
S11323F03327F6019281A22FBB27FD01E85AF94F3A
S1132400808180FF07C0FD01E35BFA4F808198174C
S113241029F102C081608083A35BBA4F9C93DFB62D
S1132420F89480914C058330B0F4E0917005E80F86
S1132430E33008F0E350FF27EE0FFF1FED55FD4F8B
S113244000811181F182E0828F5F80934C058FE0DF
S11324500E94CB0178018D2D99278FBFF092AE0297
S1132460E092AD02C3C0892F8150833008F09CC034
S113247081508230E0F4309113063130C1F420E011
S113248080914304882309F421E0222381F02F98CA
S113249083E08093240330934304809184009091DB
S11324A085006BE273E00E94BB0282E068C0933057
S11324B009F042C080911306833009F097C00E944E
S11324C0E10A8823C9F128988FE88EBD0DB407FE70
S11324D0FDCF8EB51EBC0DB407FEFDCF8EB5289A78
S11324E08091810080648093810080E286BB80912A
S11324F06F00806280936F009091CF02289888ECDF
S11325008EBD0DB407FEFDCF8EB590669EBD0DB495
S113251007FEFDCF8EB5289A289882EC8EBD0DB4A7
S113252007FEFDCF8EB586E08EBD0DB407FEFDCF50
S11325308EB5289A84E023C080919E028150823017
S113254000F5809113068530E1F40E94E10A8823A6
S1132550C1F0289882EC8EBD0DB407FEFDCF8EB578
S113256083E08EBD0DB407FEFDCF8EB5289A809111
S11325706F008F7D80936F001092570583E08093E6
S1132580130690919E02913041F48091130683309A
S1132590B1F52F9A9093130625C0923039F58091A6
S11325A01306833061F51EC0973001F50E94E10ADD
S11325B08823E1F09091CF02289888EC8EBD0DB469
S11325C007FEFDCF8EB590669EBD0DB407FEFDCF10
S11325D08EB5289A80911306853021F484E0809387
S11325E0130604C088E080939E0204C080919E027A
S11325F0883029F410929E028DE00E94CB018091D4
S11326009E02882309F5809113068530D1F48091C8
S113261057058823B1F48091B002882391F4809106
S11326200B03882371F490E080914304882309F418
S113263091E0992331F00E94180380919E0288232F
S113264019F481E10E94CB0180914304823009F0A6
S113265092C010924304C0902403F2E0CF1609F410
S113266066C023E0C21609F46AC031E0C31609F05B
S113267082C020919A0330919B03809184009091B1
S1132680850040910B03403829F410920B030E94FB
S1132690180371C08901081B190B47FF03C01016EA
S11326A01106ECF0C091D502D091D6028091B0020F
S11326B08823A9F4CE010E945E0D9927882351F442
S11326C088A98E7F88ABC092B002D0935306C09382
S11326D0520629C09927F82E882329F102C075E0F3
S11326E0F72E20910B03822F99278F77019759F4A6
S11326F02078226020930B0380E198E00E9423035A
S11327000E94880A38C027FF0AC0101611063CF43C
S113271080E880930B03C8010E94880A02C01092CB
S11327200B038F2D09C083E080930B0324C0109208
S1132730B00210920B0380E00E94560B1CC08091E3
S11327401306823019F4C092130613C080919E02BE
S1132750863079F410929E02289881E88EBD0DB4DB
S113276007FEFDCF8EB51EBC0DB407FEFDCF8EB5A2
S1132770289A0E94F1138FB7F894282F3327809159
S1132780CE02813061F081E08093CE022FBF4ECB28
S1132790289A85E08093130610929E0230CF1092FF
S11327A0CE022FBFDF91CF911F910F91FF90EF9039
S11327B0DF90CF90BF90AF9008958FB7F894282FF3
S11327C033278091CE0281508093CE02803811F05D
S11327D02FBF089581E08093CE022FBF0E940C0F7B
S11327E008958FB7F894282F33278091CE02882339
S11327F029F080688093CE022FBF089581E08093F2
S1132800CE022FBF0E940C0F089578941F920F924E
S11328100FB60F9211242F933F934F935F936F93AF
S11328207F938F939F93AF93BF93EF93FF93E6E8C8
S1132830F0E080819181208131818FB7F8949927CC
S113284030931C0320931B0321E0209357058FBF73
S11328500E94F113FF91EF91BF91AF919F918F91DE
S11328607F916F915F914F913F912F910F900FBE88
S11328700F901F90189578941F920F920FB60F9295
S113288011242F933F934F935F936F937F938F9371
S11328909F93AF93BF93EF93FF9380916F008D7FCE
S11328A080936F0078949FB7F894809143048130AB
S11328B019F482E080934304892F99278FBF0E94E3
S11328C0F113FF91EF91BF91AF919F918F917F9100
S11328D06F915F914F913F912F910F900FBE0F9089
S11328E01F9018952F923F924F925F926F927F9212
S11328F08F929F92AF92BF92CF92DF92EF92FF920C
S11329000F931F93CF93DF93CDB7DEB724970FB602
S1132910F894DEBF0FBECDBF5B016C0188249924FF
S1132920E5EAF3E0782D608561FF8AC12081318179
S113293042815381E480F58006811781D601C50167
S1132940821B930BA40BB50B8E159F05A007B10733
S113295008F476C160FF03C06D7F608708C02E0D48
S11329603F1D401F511F20833183428353837230A4
S113297009F4F4C0733030F4772359F0713009F05E
S113298068C185C0733009F4EDC0743009F061C1C9
S113299054C10E9465037B018C016093E602BB274E
S11329A0A92F982F872F8093E502C801AA27BB2758
S11329B08093E402812F9927AA27BB278093E302FF
S11329C00E9465035B016C010E947E02EA18FB0809
S11329D00C091D092AE0EE0CFF1C001F111F2A958B
S11329E0D1F7E60EF71E081F191F8AE08093E7024D
S11329F0E092EB02BB27A12F902F8F2D8093EA0248
S1132A00C801AA27BB278093E902E12EFF240027EF
S1132A101127E092E80247ED52E0809107038061BC
S1132A20809307038FEF8093DD028093DE028DE3B2
S1132A308093E20280916B0590916C05892B19F5C6
S1132A4050936C0540936B0586E18093D702809187
S1132A507002882309F4FDC01092700229E06FEF20
S1132A607FEF8DE30E94810C9927282F882309F496
S1132A70F0C081E08093700210926C0510926B0597
S1132A80222309F4E6C081E00E94A601E2C00E946C
S1132A90650369837A838B839C83A0909A02B090A8
S1132AA09B02C0909C02D0909D02A60EB71EC81E29
S1132AB0D91ED601C501EAE0B695A79597958795E5
S1132AC0EA95D1F787700E94A601612C7CEF772EDE
S1132AD07FEF872E7FEF972E6A207B208C209D200E
S1132AE080E094E0A0E0B0E0680E791E8A1E9B1E90
S1132AF0130124012A183B084C085D0861E0E62E06
S1132B009201810149815A816B817C8183E00E9419
S1132B1046035F924F923F922F92DF92CF92BF92E1
S1132B20AF929F928F927F926F9289819A81AB81AB
S1132B30BC81BF93AF939F938F9380E092E09F9368
S1132B408F930E94C8200E94260CADB7BEB7529640
S1132B500FB6F894BEBF0FBEADBF7BC08CE00E9421
S1132B60CB0177C04798459880914F0690915006C5
S1132B70009731F441984098469881E090E008C06D
S1132B808130910551F4419A4098469882E090E052
S1132B909093500680934F0636C08230910531F4ED
S1132BA04198409A469883E090E0F2CF83309105B3
S1132BB031F4419A409A469884E090E0E9CF843019
S1132BC0910531F441984098469A85E090E0E0CF31
S1132BD08530910531F4419A4098469A86E090E018
S1132BE0D7CF8630910531F44198409A469A87E0D0
S1132BF090E0CECF079739F4419A409A469A1092C2
S1132C00500610924F06439A80E0429A42988F5F92
S1132C108F30D9F70E946503AB01BC01EE2408ECA8
S1132C2010E020E030E084E00E9446034398809165
S1132C30D1038D7F8093D1030CC0479A459A09C074
S1132C400894811C911C3996B6E08B16910409F006
S1132C5069CE8AE00E94CB0124960FB6F894DEBFB9
S1132C600FBECDBFDF91CF911F910F91FF90EF90D9
S1132C70DF90CF90BF90AF909F908F907F906F9098
S1132C805F904F903F902F9008952F923F924F92D4
S1132C905F926F927F928F929F92AF92BF92CF92E8
S1132CA0DF92EF92FF920F931F93CF93DF93CDB7F1
S1132CB0DEB729970FB6F894DEBF0FBECDBFE82F5D
S1132CC0FF27E631F10508F020C6EA59FF4FEE0F61
S1132CD0FF1F0590F491E02D0994809172058823DB
S1132CE009F413C690E011E0C7C180911D03882345
S1132CF009F40BC690E011E0D7C58FB7F894109291
S1132D0049062091470440E0283009F441E030E0CE
S1132D10293009F431E0442311F4332351F01092A3
S1132D204704E091A403FF27EE0FFF1FEB5DFC4F68
S1132D30108299278FBF442311F4332331F19FB7B5
S1132D40F894809171058F5F8093710580912003C1
S1132D50833479F42091910380919003821779F060
S1132D60822F8F5F80939103863048F010929103F5
S1132D7006C0A0E0442309F4A1E071E002C0A0E091
S1132D8070E0892F99278FBF06C0222311F010E02D
S1132D906CC0A0E070E08FB7F8949927209180026E
S1132DA08FBF222341F08FB7F89499272AE020930C
S1132DB047048FBF42C08FB7F894992760912503C9
S1132DC0409127038FBF8FB7F894282F332750E003
S1132DD09091900380919103981709F451E02FBFCB
S1132DE0552341F5662331F55FB7F89482E080936B
S1132DF025038FB7F894282F332740E09091900350
S1132E0080919103981709F441E02FBF442311F0F6
S1132E1080E006C0E0919103FF27E057FC4F8281D8
S1132E208093260383E4809320031092A403852FC8
S1132E3099270EC04150423010F010E00BC08FB7FC
S1132E40F894992725E42093200321E02093A403F8
S1132E508FBF11E0772349F08FB7F8949927A09397
S1132E6089028FBF84E00E94CB018FB7F894E82ECB
S1132E70FF24809147048A3021F40E94F704EFBEB6
S1132E8044C5EFBE112309F440C52FB7F894332786
S1132E90109255061092540610921E0381E08093FE
S1132EA047042FBF0E944A05882309F42EC58FB713
S1132EB0F894992729E0209347048FBF0E948E033A
S1132EC024C58091C1008F7B8093C1008091C10093
S1132ED08F778093C1001092460410920F03809163
S1132EE0C10088608093C1008091C100806180939B
S1132EF0C1008091C10080688093C10080919502D7
S1132F00882309F002C581E792E0909360068093DC
S1132F105F068FB7F894992721E0209395028FBF1D
S1132F2081E00E94CB0181E392E00E94DF200E94B5
S1132F30260C2FB7F89433278091CE028F5F8093AD
S1132F40CE022FBF80910A038823D9F480919E0278
S1132F508823B9F480911306813049F490E080917C
S1132F604304882309F491E0992359F002C0853081
S1132F7041F083E080939E020E94F11385E08093E8
S1132F800A030E94DD1310929A0210929B0210927F
S1132F909C0210929D0240E054E060E070E081E009
S1132FA00E9432041092500610924F061092A20210
S1132FB01092A102389A399A3A9A3B9A3C9A3D9ACD
S1132FC03E9A3F9AA2C483E093C08091C100877F58
S1132FD08093C1008091C1008F7E8093C1008FB720
S1132FE0F894992710929502CFC3109286021092FA
S1132FF085028FB7F8949927409189028FBF8091F9
S11330008A02811143E020918302309184028091ED
S11330108B02882309F079C480916602882309F021
S113302074C460919C0370919D036217730709F047
S11330306CC450C08FB7F894992720918E023091B8
S11330408F024091AF028FBF8FB7F894E42FFF2710
S1133050EE0FFF1FE05AFD4F318320832091810240
S1133060442311F02B7F01C02D7F20938102109205
S11330708C0299278FBF49C420917205812F822326
S1133080C1F0E92FFF27EE0FFF1FE456FC4F4081EC
S1133090518111821082812F8095282320937205FB
S11330A0992339F463E0CA010E94CF0B110F91E018
S11330B0E3CF9F5F983008F028C4110FDDCF8091D3
S11330C06602E82FFF27EE0FFF1FE456FC4F6081D6
S11330D0718141E00E94E00B18C44CE164E176E0A8
S11330E08FEF9FEF0E94F103882309F40EC488E058
S11330F00E94CB010AC48091CD02882361F52091FE
S11331006705309168054091690550916A05EFB7EC
S1133110F894FF276091A9027091AA028091AB02F2
S11331209091AC02E0907305F090740500917505E0
S1133130109176056E0D7F1D801F911FEFBF2093A8
S11331406705309368054093690550936A051092AA
S1133150CD020E94DD040E9465033FC00E94650306
S11331605B016C018FB7F8949927109211038FBFFC
S11331702FEF3FEF4FEF5FE760E0E5EAF3E0808594
S113318081FF1CC080819181A281B3818601750178
S1133190E81AF90A0A0B1B0BD801C701E480F58071
S11331A006811781E81AF90A0A0B1B0BE216F306CB
S11331B0040715071CF4A801970161E0399603E0A0
S11331C0EB3DF007E1F6662309F49FC312161306DC
S11331D0140615062CF0C601B5010E94721495C39D
S11331E020936705309368054093690550936A05F9
S11331F081E08093CD02C601B5010E94DD0485C340
S11332002FB7F89433278091D00280936C0282E028
S1133210809396022FBF80916C02882309F075C3B6
S11332208091D1029091D2020E94470C082F11275D
S1133230002309F46AC380E00E940D0B2091D1029F
S11332403091D20280917002882309F05EC36091AC
S11332506B0570916C056217730709F056C3402F14
S113326050C3E0915004F091510420A531A5109170
S11332709702123041F52115310519F080A980FF1C
S113328002C084E01BC080914A0490914B040196D3
S113329090934B0480934A048217930770F481E05F
S11332A08093970242A553A54115510571F06627F5
S11332B0772782E00E94320428C385E08093970236
S11332C01091970226C0113021F582E08093970275
S11332D040915004509151042FB7F89433278091B2
S11332E0CE028F5F8093CE022FBF80910A03882382
S11332F069F4509349044093480481E080930A039D
S1133300109245048EE00E94CB0197C00E94DD1309
S11333109AC0143008F4F9C2232B51F0E091500400
S1133320F091510480914A0490914B0491A780A795
S113333010929702E0905004F0905104F7018285B6
S11333408F3309F0E2C280E00E940D0B809170027D
S1133350882309F0DAC260916B0570916C056E15D3
S11333607F0509F0D2C21450412FCBC280910A03C9
S113337010920A038530A1F480915D0290915E025F
S1133380019709F0C2C20E946503AB01BC01EE249F
S113339000E014E020E030E080E00E944603B5C283
S11333A0863009F4B2C2873009F4AFC280930A03AD
S11333B0ACC22FB7F89433278091CE028F5F8093ED
S11333C0CE022FBF40910A03413071F5809145042C
S11333D08F5F80934504863038F5209148043091FE
S11333E0490480910B038823C1F490E08091430445
S11333F0882309F491E0992381F03093D602209335
S1133400D50240930B038BED91E10E9423030E94AC
S1133410880A1092770583E004C085E080937705DD
S113342082E080930A0309C010920A030E94DD130C
S113343080917705882321F406C00E94DD1365C2BC
S11334408C5F809397028CE053CE8FB7F894282F2B
S1133450332780914C05882309F456C2E091700506
S1133460FF27EE0FFF1FED55FD4F408051802FBF0A
S1133470F2018285978126818F3309F0E0C063854C
S1133480892F9927582F4427822F9927482B592B66
S11334908FB7F894992720916702309168028FBF03
S11334A04217530721F04F5F5F4F09F0E2C06D33BD
S11334B009F0DFC0F201808182519CE0E92EF12CF9
S11334C04E0C5F1CD201A80FB11D04EF1FEF400E7C
S11334D0511E8C918A3009F0CCC0F20180A981FF81
S11334E0C8C0FD012181E2808381A4809927AA2795
S11334F0BB276624782E892E9A2E332744275527F6
S1133500522F442733272227FF240027112787011E
S1133510FF24EE242E293F29402B512BBB24CC24FD
S1133520DD242A293B294C295D29622A732A842A0D
S1133530952AF0E06F16F0E07F06F0E08F06F0E8E1
S11335409F0609F496C0C2010E94A802FC01A08053
S1133550B180C280D3800E947E027B018C010E94D4
S11335606503AE18BF08C00AD10AAAE0D594C7946F
S1133570B794A794AA95D1F7FAE095948794779491
S11335806794FA95D1F7660E771E881E991EA60CCD
S1133590B71CC81CD91CF2018485E5842685678480
S11335A0332744275527542F432F322F2227992777
S11335B0AA27BB27B82FAA2799278827FF240027E3
S11335C011278701FF24EE248E299F29A02BB12BDC
S11335D077248824992486299729A829B929282B6E
S11335E0392B4A2B5B2BDA01C9018A199B09AC09D7
S11335F0BD0980939A0290939B02A0939C02B0937E
S11336009D02DF92CF92BF92AF925F934F933F930D
S11336102F93BF93AF939F938F9388E392E09F93ED
S11336208F930E94C8200E94260C0DB71EB7025F1C
S11336301F4F0FB6F8941EBF0FBE0DBF1AC0892FBF
S11336409927582F4427822F9927482B592B8FB716
S1133650F894992720916702309168028FBF42172E
S1133660530719F04F5F5F4F21F48FB7F8949927F0
S11336708FBF9FB7F89480917005E82FFF27EE0F56
S1133680FF1FED55FD4F518240828F5F809370057F
S1133690833010F01092700580914C058150809316
S11336A04C05892F99278FBFD0CE2FB72983F89443
S11336B0209012033090130340901403509015038C
S11336C0662477248824AEE4AA2EF3E8BF2ECC2403
S11336D0DD24EE24FF2400E010E0222D332D442DC0
S11336E0552D662D772D882D90E00E94B41E2A83D7
S11336F03B834C835D836E837F8388879987822E87
S1133700932EA42EB52E2401350100E20E94B21F8F
S1133710A22EB32EC42ED52EA30192015695479501
S1133720379527952A0D3B1D4C1D5D1D57FF05C080
S11337305F772F5F3F4F4F4F5F4F209312033093BC
S1133740130340931403509315036981862F99271B
S11337508FBF8FB7F894992730934D0420934C046E
S113376013C08FB7F8949927109242041092410421
S113377010921206109211061092A00210929F024B
S1133780109299031092980375CC2FB7F8943327AD
S11337908091210380936F0282E0809398022FBF6F
S11337A080916F02882309F0B0C0209A289A8091F2
S11337B01306882309F075C08EEF91E001970196F6
S11337C00197E1F716982F9886E090E0019701960B
S11337D00197E1F7169A289883EC8EBD0DB407FE85
S11337E0FDCF8EB51EBC0DB407FEFDCF8EB5289A55
S11337F0289882EC8EBD0DB407FEFDCF8EB588E00F
S11338008EBD0DB407FEFDCF8EB5289A8EEF91E0E4
S1133810019701960197E1F728988EEC8EBD0DB4BF
S113382007FEFDCF8EB58DE48EBD0DB407FEFDCF32
S11338308EB5289A289889EC8EBD0DB407FEFDCF6D
S11338408EB587EC8EBD0DB407FEFDCF8EB5289ADC
S1133850289885EC8EBD0DB407FEFDCF8EB580E8AB
S11338608EBD0DB407FEFDCF8EB5289A10925C0371
S11338708BE08093CF02289888EC8EBD0DB407FEB0
S1133880FDCF8EB58BE68EBD0DB407FEFDCF8EB594
S1133890289A2F9A81E08093130680E00E94FB010E
S11338A034C00E94F11331C020911D03812F822363
S11338B0C1F0E92FFF27EE0FFF1FE559FA4F4081B2
S11338C0518111821082812F8095282320931D031A
S11338D0992339F463E0CA010E94BD01110F91E0FC
S11338E0E3CF9F5F983088F4110FDECF8091700290
S11338F0E82FFF27EE0FFF1FE559FA4F6081718112
S113390041E00E941E0D01C02FBF29960FB6F89406
S1133910DEBF0FBECDBFDF91CF911F910F91FF90FE
S1133920EF90DF90CF90BF90AF909F908F907F905B
S11339306F905F904F903F902F90089580916D0508
S11339408F3FB1F0282F3327F901EA54FD4F8081CE
S113395080936D058F3F11F4809351068FEF808320
S11339602F3F31F0822F0E94451681E090E00895A8
S113397080E090E00895FF920F931F93FFB6F894B0
S113398014BE88E10FB6F894809360001092600032
S11339900FBE46E150E06FEF70E086EB92E00E94CC
S11339A0C1208FEF80936D058093510656985E98E1
S11339B054985C9880916F008F7D80936F00209A5B
S11339C0289A279A2F980E9A169A89E293E0909350
S11339D0AE028093AD02109216038AE58093D4025E
S11339E081E08093810080E28093B60083E080933D
S11339F0B10080918400909185004AE72091840071
S1133A00309185002817390708F44150442311F0F8
S1133A10C901F4CF9091B2008091B2008917E1F30B
S1133A2020918400309185009091B2008091B20081
S1133A308917E1F38091840090918500821B930B98
S1133A40409635E0969587953A95E1F790936F0502
S1133A5080936E051092B1008091B1008093810033
S1133A60809181008093B6001092B200109285007C
S1133A70109284008FEF87BB87B386BB8091B6001A
S1133A808571E1F70A9A099A089A129A119A109A7A
S1133A9018B88FEF87B90C9814981092850010927B
S1133AA0840080916F00816080936F008091810019
S1133AB0887F826080938100109295001092940018
S1133AC08091710081608093710080919100887F62
S1133AD08260809391000E949E1C8823E1F78FEFFF
S1133AE080931F0380E00E94960A20915D0230912A
S1133AF05E022F5F3F4FC901AA27BB2780931203A1
S1133B0090931303A0931403B093150388E795E0EF
S1133B109093A4028093A302C3969093A6028093E9
S1133B20A5028EED95E09093A8028093A7028FEFF3
S1133B309FEF90935D0580935C0590935F05809360
S1133B405E0590936105809360059093630580936F
S1133B506205909365058093640580915D0282956A
S1133B60807F809399028FEF8093D3028091B60077
S1133B7080628093B6008091B60081FDFCCF82E024
S1133B808093B0008091B60080FDFCCF83E08093E9
S1133B90B1008091B60083FDFCCF86EE8093B30024
S1133BA0809170008260809370000E94510412E042
S1133BB006E060916E0570916F05882799272CE0C7
S1133BC0660F771F881F991F2A95D1F720E031EEE1
S1133BD040E050E00E944920215030402093C4002E
S1133BE0832F99278093C5001093C0000093C200CF
S1133BF01092C1002093CC008093CD001093C80094
S1133C000093CA001092C90084E490E0909359058F
S1133C1080935805109225031092270310924704AD
S1133C2010921E03109220031092710510925506F3
S1133C3010925406109249061092A4031092530550
S1133C401092520510920C0310924F0410926605C4
S1133C50109210031092A1031092A00310929103EA
S1133C60109290030E949E1C8823E1F78F2D9927C0
S1133C708FBF789481E00E94CB018FB7F894482FCE
S1133C80552757C080917000992783709070892BB5
S1133C9019F4E5E0F0E014C08091B6008A71E1F710
S1133CA08091B3009091B200891B8C3038F08091E0
S1133CB0B200853F18F4E3E0F0E002C0E2E0F0E097
S1133CC080916E00867009F580916F008E72E9F420
S1133CD0809171008E72C9F40CB407FC16C08091F7
S1133CE0C100887191F48091C900887171F4809148
S1133CF0BC0082FD0AC080917A0087FF03C081E086
S1133D0090E005C085E090E002C080E090E023B739
S1133D108E1708F4E82FFF27E850FD4FE491207F29
S1133D202160E22BE3BF78948895F89483B78E7F63
S1133D3083BF80916D058F3F09F4A4CF282F3327CB
S1133D40F901EA54FD4F808180936D058F3F11F492
S1133D50809351068FEF80832F3F09F493CF4FBF99
S1133D60822F0E94451689CFACE2B0E0EAEBFEE177
S1133D700C948A20222E332E442E552E662E772E16
S1133D80882E992EFE013196A8E01192AA95E9F7A2
S1133D9029823A824B825C826D827E828F829886EF
S1133DA0FE013996B8E01192BA95E9F7A986BA8668
S1133DB0CB86DC86ED86FE860F87188B89819A81F7
S1133DC0AB81BC8189A79AA7ABA7BCA77C018D0155
S1133DD08FEF9FEFA0E0B0E0E822F9220A231B2333
S1133DE089A59AA5ABA5BCA51D01442455248985A4
S1133DF09A85AB85BC858DA39EA3AFA3B8A75C01B0
S1133E006D018FEF9FEFA0E0B0E0A822B922CA2293
S1133E10DB228DA19EA1AFA1B8A53D0188249924E0
S1133E20C801B701A60195010E946B2069A37AA37A
S1133E308BA39CA3C801B701A40193010E946B202A
S1133E407B018C01C201B101A60195010E946B2086
S1133E505B016C01C201B101A40193010E946B20BA
S1133E603B014C01EA0CFB1C0C1D1D1D89A19AA1F0
S1133E70ABA1BCA19D01442755272E0D3F1D401F1A
S1133E80511F2A153B054C055D0540F480E090E088
S1133E90A1E0B0E0680E791E8A1E9B1ECA01AA2703
S1133EA0BB27860D971DA81DB91D8D8F9E8FAF8FC3
S1133EB0B8A3A9013327222789A19AA1ABA1BCA148
S1133EC0A070B070280F391F4A1F5B1F298F3A8FCB
S1133ED04B8F5C8FA98CBA8CCB8CDC8CED8CFE8CDC
S1133EE00F8D18A1FE01719698E011929A95E9F749
S1133EF0ED8AFE8A0F8B188F2D813E814F81588564
S1133F006DA17EA18FA198A50E946B203B014C015D
S1133F102D853E854F85588969A57AA58BA59CA5D5
S1133F200E946B202D893E894F89588D260F371F9B
S1133F30481F591F260D371D481D591D2D8B3E8BBB
S1133F404F8B588F6D887E888F88988C2A2D3B2DB7
S1133F504C2D5D2D662D772D882D992DE2E1AC96A3
S1133F600C94A620A0E1B0E0E8EBFFE10C948A20D9
S1133F70222E332E442E552E662E772E882E992EE1
S1133F80002309F466C088E0FE01319611928A95F7
S1133F90E9F729833A834B835C836D837E838F8225
S1133FA09887E0E2E01B1E16CCF52D813E814F81FF
S1133FB05885602F772767FD7095DA01C901062EB1
S1133FC004C0B695A795979587950A94D2F78D87DF
S1133FD09E87AF87B88B04C0220F331F441F551F21
S1133FE0EA95D2F789819A81AB81BC8104C0B695E8
S1133FF0A795979587956A95D2F7282B392B4A2B45
S11340005B2B29873A874B875C8729843A844B84C6
S11340105C846D847E848F8498881BC01D861E8674
S11340201F86188A2E2F332727FD3095309521952A
S11340303F4F8D819E81AF81B88504C0B695A79509
S1134040979587952A95D2F789879A87AB87BC87F6
S1134050DCCF222D332D442D552D662D772D882D23
S1134060992DE2E160960C94A620AA1BBB1B51E19A
S113407007C0AA1FBB1FA617B70710F0A61BB70BD4
S1134080881F991F5A95A9F780959095BC01CD0179
S11340900895A1E21A2EAA1BBB1BFD010DC0AA1F85
S11340A0BB1FEE1FFF1FA217B307E407F50720F09D
S11340B0A21BB30BE40BF50B661F771F881F991F18
S11340C01A9469F760957095809590959B01AC0161
S11340D0BD01CF010895629FD001739FF001829FBB
S11340E0E00DF11D649FE00DF11D929FF00D839F83
S11340F0F00D749FF00D659FF00D9927729FB00D20
S1134100E11DF91F639FB00DE11DF91FBD01CF0132
S1134110112408952F923F924F925F926F927F9253
S11341208F929F92AF92BF92CF92DF92EF92FF92C3
S11341300F931F93CF93DF93CDB7DEB7CA1BDB0B6F
S11341400FB6F894DEBF0FBECDBF09942A88398814
S113415048885F846E847D848C849B84AA84B9841B
S1134160C884DF80EE80FD800C811B81AA81B98127
S1134170CE0FD11D0FB6F894DEBF0FBECDBFED013B
S11341800895DC0101C06D9341505040E0F708955B
S1134190A2E0B0E0EEECF0E20C949A20FE01379637
S11341A061917191FA83E983AF0180915F069091E7
S11341B060060E941221E2E022960C94B6200F932E
S11341C01F93CF93DF938C01E0915F06F09160061B
S11341D0838181FF1FC0C0E0D0E00AC0FD012085BB
S11341E03185BD01F9010995892B11F0CFEFDFEF7E
S11341F0F80181918F01A0915F06B0916006882338
S113420069F7FD0120853185BD018AE0F901099531
S1134210892B11F0CFEFDFEFCE01DF91CF911F910A
S11342200F910895ABE0B0E0E8E1F1E20C948C204A
S11342303C014B016A01FC0117821682838181FDD6
S113424003C08FEF9FEFDAC1F3013381F40133FD33
S1134250859133FF81914F01882309F4CCC18532C4
S113426039F433FD859133FF81914F01853229F46F
S1134270B30199270E941823E7CF00E04424552472
S11342804AE00032B0F48B3269F08C3228F4803288
S113429051F0833271F40BC08D3239F0803349F41C
S11342A0016028C00260046025C0086023C000616A
S11342B021C007FD29C0282F20532A3078F406FF97
S11342C006C0549EC0011124522E580E13C0449EA1
S11342D0C0011124422E480E00620CC08E3221F41B
S11342E006FD89C1006406C08C3611F4006802C062
S11342F0883651F4F40133FD859133FF81914F01E8
S1134300882309F46FC0BDCF982F8554833018F0EB
S11343108052833038F424E030E0C20ED31E8FE3A1
S113432089830FC0933631F0933799F0933509F0B0
S11343305BC023C0F6018081898322E030E0C20E95
S1134340D31E7E010894E11CF11C51E0A52EB12C72
S113435012C0F601E080F18006FD03C06FEF7FEF2D
S113436002C0652D772722E030E0C20ED31EC701BC
S11343700E940D235C010F7713C0F601E080F180E9
S113438006FD03C06FEF7FEF02C0652D772722E0A3
S113439030E0C20ED31EC7010E9402235C010068F4
S11343A003FF07C01BC0B30180E290E00E94182302
S11343B04A94842D9927A816B906A8F30FC0F701CB
S11343C007FD859107FF81917F01B30199270E9421
S11343D0182341104A940894A108B108A114B10407
S11343E071F706C190E03EC0943611F0993691F50C
S11343F007FF0AC0F601608171818281938124E004
S113440030E0C20ED31E0DC0F601808191819C0163
S1134410B901882777FD8095982F42E050E0C40EBB
S1134420D51E4FE6B42EB02297FF09C09095809513
S1134430709561957F4F8F4F9F4F50E8B52A8E013D
S11344400F5F1F4F2AE030E0A8010E944523A82EE9
S1134450A01A4DC0953731F43FEEF32EF0222AE036
S113446030E023C029EFF22EF0229F3661F090371E
S113447020F4983509F0BFC012C0903739F098374E
S113448009F0B9C005C028E030E00FC080E1F82A87
S1134490F4FE02C094E0F92A20E130E006C0F4FE04
S11344A002C0E6E0FE2A20E132E0F7FE0AC0F6018F
S11344B0608171818281938144E050E0C40ED51EF5
S11344C00BC0F60180819181AC01BA01882799273C
S11344D0E2E0F0E0CE0EDF1E8E010F5F1F4FA80159
S11344E00E944523A82EA01A8FE7B82EBF20B6FE3F
S11344F010C0FEEFBF22A51460F42B2D332724FF38
S11345001AC022FF02C0052D09C02FEEB222052DCC
S113451001C00A2D2B2D332724FF0EC0FE01EA0D06
S1134520F11D8081803319F439EEB32209C00F5F85
S113453022FF06C004C0052D822F867809F00F5F84
S1134540EB2CFF24E3FC14C0E0FE0FC0041510F0B4
S11345505A2C0BC0542C501A5A0C042D06C0B3010B
S113456080E290E00E9418230F5F0415C0F304C09A
S1134570041510F4401A01C04424E4FE10C0B30131
S113458080E390E00E941823E2FE1EC0E1FE03C017
S113459088E590E002C088E790E0B3010CC08E2D5E
S11345A0867891F0E1FE02C08BE201C080E2B7FCA4
S11345B08DE2B30199270E94182306C0B30180E35A
S11345C090E00E9418235A94A514C0F3AA94FE0103
S11345D0EA0DF11D8181B30199270E941823AA20B5
S11345E039F0F4CFB30180E290E00E9418234A949A
S11345F04420C1F729CEF30186819781E0E12B960F
S11346000C94A820FC010590615070400110D8F76B
S1134610809590958E0F9F1F0895FC016150704006
S113462001900110D8F7809590958E0F9F1F0895E3
S11346300F931F93CF93DF938C01EB018B81992709
S113464081FF1BC082FF0DC02E813F818C819D8123
S11346502817390764F4E881F9810193F983E88321
S113466006C0E885F985802F0995892B31F48E8160
S11346709F8101969F838E8302C00FEF1FEFC801B5
S1134680DF91CF911F910F910895FA01AA27283045
S113469051F1203181F1E8946F936E7F6E5F7F4F0B
S11346A08F4F9F4FAF4FB1E03ED0B4E03CD0670F87
S11346B0781F891F9A1FA11D680F791F8A1F911DDA
S11346C0A11D6A0F711D811D911DA11D20D009F42A
S11346D068943F912AE0269F11243019305D31936C
S11346E0DEF6CF010895462F4770405D4193B3E055
S11346F00FD0C9F7F6CF462F4F70405D4A3318F0FC
S1134700495D31FD4052419302D0A9F7EACFB4E0AC
S1134710A6959795879577956795BA95C9F7009764
S11347206105710508959B01AC010A2E0694579505
S1134730479537952795BA95C9F7620F731F841F5C
S10B4740951FA01D0895FFCF91
S11347486C6F63616C3A20256C752C206E657874E7
S11347583A20256C752C20676C6F62616C3A2025B1
S11347686C752C2064656C74613A20256C750A0A92
S113477800426F6F746564006F66667365743A20EF
S1134788256C642C20676C6F62616C3A20256C641C
S11347982C206C6F63616C256C640A0A000100FFAD
S11347A8DB030E04DB0301010022FFFFFFFFFFFF11
S11347B80100000002000000009E0B000000000041
S9030000FC
