S01700006275696C642F697269732F6D61696E2E7372656343
S11300000C947F010C949E010C949E010C949E010F
S11300100C949E010C949E010C949E010C949E01E0
S11300200C949E010C949E010C949E010C949E01D0
S11300300C949E010C9452090C949E010C949F0AFA
S11300400C94E6130C941C140C945B0A0C94660A2E
S11300500C94710A0C949E010C949E010C949E01C4
S11300600C94A6090C9445070C949E010C94C807A3
S11300700C949E010C949E010C949E010C941F09F7
S11300800C94FE080C9409090C9414090C9432097C
S11300900C94E1080C949E010C94F3080C949E01BA
S11300A00C949E010C949E010C949E010C949E0150
S11300B00C949E010C949E010C949E010C949E0140
S11300C00C949E010C949E010C949E0143162717D8
S11300D0B417B617C617EB17331630183E184C185A
S11300E07F18D11802198B19AE19FA19561B4E1C18
S11300F0B21BC61B3B16771C000021104220633044
S11301008440A550C660E770088129914AA16BB16B
S11301108CC1ADD1CEE1EFF1311210027332522213
S1130120B5529442F772D662399318837BB35AA3BB
S1130130BDD39CC3FFF3DEE36224433420040114E3
S1130140E664C774A44485546AA54BB5288509950B
S1130150EEE5CFF5ACC58DD55336722611163006B3
S1130160D776F6669556B4465BB77AA7199738875B
S1130170DFF7FEE79DD7BCC7C448E5588668A77873
S11301804008611802282338CCC9EDD98EE9AFF9AB
S1130190488969990AA92BB9F55AD44AB77A966A53
S11301A0711A500A333A122AFDDBDCCBBFFB9EEBFB
S11301B0799B588B3BBB1AABA66C877CE44CC55C23
S11301C0222C033C600C411CAEED8FFDECCDCDDD4B
S11301D02AAD0BBD688D499D977EB66ED55EF44EF3
S11301E0133E322E511E700E9FFFBEEFDDDFFCCF9B
S11301F01BBF3AAF599F788F8891A981CAB1EBA1EF
S11302000CD12DC14EF16FE18010A100C230E3206A
S11302100450254046706760B9839893FBA3DAB312
S11302203DC31CD37FE35EF3B1029012F322D232BA
S11302303542145277625672EAB5CBA5A8958985E2
S11302406EF54FE52CD50DC5E234C324A01481040A
S11302506674476424540544DBA7FAB79987B897B2
S11302605FE77EF71DC73CD7D326F2369106B0165A
S113027057667676154634564CD96DC90EF92FE972
S1130280C899E9898AB9ABA94458654806782768AA
S1130290C018E1088238A3287DCB5CDB3FEB1EFB52
S11302A0F98BD89BBBAB9ABB754A545A376A167AFA
S11302B0F10AD01AB32A923A2EFD0FED6CDD4DCD22
S11302C0AABD8BADE89DC98D267C076C645C454C4A
S11302D0A23C832CE01CC10C1FEF3EFF5DCF7CDFF2
S11302E09BAFBABFD98FF89F176E367E554E745E9A
S11302F0932EB23ED10EF01E00020E060C04112401
S11303001FBECFEFD1E2DEBFCDBF12E0A0E0B2E06E
S1130310EAE4F7E400E00BBF02C007900D92A035B9
S1130320B107D9F716E0A0E5B2E001C01D92AA32E8
S1130330B107E1F70E94BC1C0C94A4230C940000A8
S11303408FB7F894992708958FBF08959FB7F894AD
S1130350282F332720FF02C0129801C0129A21FFD0
S113036002C0119801C0119A22FF02C0109801C066
S1130370109A892F99278FBF0895FC01808182519B
S1130380E80FF11D84858A3029F4662319F081E091
S11303900E94A6010895282F9FB7F894E82FFF27FD
S11303A0EA57FD4F80818F3F81F4E0911806E217F0
S11303B071F40BC02093340504C0FF27EA57FD4FA6
S11303C020832093180620E007C025E005C0809113
S11303D034058F3F91F7EECF892F99278FBF822F56
S11303E099270895CF93DF93FC018FE3828780914F
S11303F069028F5F80936902DF011196ED018A83A0
S113040080916702882319F085E090E022C080A5DE
S113041091A5892B71F0ED0129813327322F2227F1
S1130420818199278062282B392B2183232F33271D
S11304302983F0931804E093170410921204109285
S1130440110481E0809367028CE00E94CB0180E07C
S113045090E0DF91CF910895882319F08CB58064E2
S113046002C08CB58F7B8CBD08950F931F93982F7A
S11304701FB7F89480916802823099F58091400208
S1130480891779F580913E0220E030E08F3F11F426
S113049021E030E0232BF1F49FEF909340028F3F53
S11304A019F42FEF30E00DC0282F3327F901E15163
S11304B0FD4F808180933E028F3F11F490933F0261
S11304C090832093F10281E08093680283E10E948B
S11304D0CB0105C08FEF809340021092680201E0C7
S11304E001C000E0812F99278FBF1FB7F894809136
S11304F06802882311F40E942C02812F99278FBF50
S113050090E0013009F491E081E09827892F992740
S11305101F910F910895882319F08CB5806802C04B
S11305208CB58F778CBD08950F931F9380E00E9444
S11305302C020FB7F8941127229A2398219A8CB58C
S113054080618CBD80E00E948B028DB581608DBD81
S11305508CB5877F8CBD8CB58B7F8CBD8CB58E7F25
S11305608CBD81E00E942C020FBF1F910F91089552
S11305708FB7F8942091E7023091E8024091E902A4
S11305805091EA02E0918400F0918500B09B08C08C
S11305902F5F3F4F4F4F5F4FE0918400F0918500F4
S11305A099278FBFC901772766279F0144275527BD
S11305B0622B732B842B952B0895FC0180A98260F8
S11305C080AB08958C960895FC0182819927982F19
S11305D0882721813327822B932B75E09695879565
S11305E07A95E1F7817090700895AC01EFB7F894B3
S11305F02091840030918500C901841B950B0396DA
S11306008617970720F0B9016D5F7F4F02C0640F12
S1130610751F6115710511F461E070E0615070405F
S1130620709389006093880082E086BB80916F009C
S1130630826080936F008E2F99278FBF08958093D7
S11306403E05882311F484E001C081E08093DA023E
S11306508EE00E94CB010895CF93DF93EC010E94BA
S1130660E402882339F18A8129819927982F8827E0
S11306703327822B932B87749C7C81549848D1F424
S11306808F814E812FB7F89433276091380270918F
S113069039022FBF20E09927982F88275527842BCC
S11306A0952B8617970709F021E081E02827822FF0
S11306B0992702C080E090E0DF91CF91089521E076
S11306C02093F40220930A04209184003091850041
S11306D0BC01C9010E94F5020895EF92FF920F93A5
S11306E01F937C018FB7F8949927009113041091FC
S11306F014040F5E1E4F109314040093130401514D
S113070011408FBF80E10E94CB01C801B7010E9454
S113071036208A5D9E4F1F910F91FF90EF900895B0
S1130720EF920F931F93AE2D99E0899FF00111244E
S1130730EB58FC4F40835183628373830483158396
S113074026833783A17080858E7F8A2B8260808781
S11307508AE00E94CB011F910F91EF9008957FB71B
S1130760F8946091B200209181023091820240910C
S1130770830250918402B99B11C08091B30090917F
S1130780B200280F311D411D511D2F5F3F4F4F4FA8
S11307905F4F290F311D411D511D04C0260F311D0E
S11307A0411D511D872F99278FBFCA01B901089593
S11307B01F931FB7F89480911006882339F40E9480
S11307C0CB01882319F481E080931006812F9927A7
S11307D08FBF1F910895382FFA01422F2D3118F041
S11307E082E090E008956683872F99278583338775
S11307F021878091550290915602892B19F085E04A
S113080090E008952FB7F894332785E08093580239
S113081010925902F0935402E093530282E090E064
S1130820909356028093550210925B0210925A02E2
S1130830445F409357022FBF9FB7F8948091F7020B
S1130840882311F020E006C081E08093F702109223
S1130850F80221E0892F99278FBF222329F00E94D3
S1130860D80380E090E00895109256021092550249
S113087081E090E00895CF93DF93DB01FB0135968F
S11308808183892F9927EB018D8384E68683809168
S11308906C0390916D03892B19F085E090E029C0D9
S11308A070936D0360936C034483809137028823B3
S11308B019F480E090E01DC08681EB016D817727FB
S11308C0762F662721813327622B732B10923702F0
S11308D0242FAD010E94EB039927282F882339F098
S11308E081E08093370210926D0310926C03822F83
S11308F09927DF91CF910895DF92EF92FF920F93A2
S11309001F938FB7F894282F3327D22E9091B300DA
S11309108091B20047B3981711F041FF02C02FBF76
S113092071C08091E1028823E1F10E94AF03E0905D
S11309307902F0907A0200917B0210917C0220915E
S11309403A0530913B0540913C0550913D056E19A7
S11309507F09800B910B621773078407950720F0BA
S11309601092E10271E01EC02E0D3F1D401F511F69
S11309708091810290918202A0918302B0918402BD
S1130980281B390B4A0B5B0B273E310541055105EA
S113099040F4822F223010F070E005C070E082E055
S11309A002C070E086EE682F61508091B60083FD2E
S11309B0FCCF8091B200681709F46F5F2091810227
S11309C0309182024091830250918402DA01C9017C
S11309D00196A11DB11D860F911DA11DB11D821788
S11309E09307A407B50710F4622F60958091B600B1
S11309F083FDFCCF6093B300DFBE772319F089E059
S1130A000E94CB011F910F91FF90EF90DF9008950A
S1130A10AFB7F894BB27E1E0E093E1026093790279
S1130A2070937A0280937B0290937C0220933A0520
S1130A3030933B0540933C0550933D05AFBF0E9466
S1130A407C04089580910E048A3021F48091DC02A4
S1130A50843021F081E080935002089582E00E9466
S1130A60CB011092500208952FB7F8943327809346
S1130A70C600E0ECF0E08081806480832FBF08959D
S1130A80FC016115710519F481E090E008958091ED
S1130A90F2029091F302892B19F085E090E0089519
S1130AA07093220560932105F093F302E093F20220
S1130AB01092DE021092DD0281E08093DF028091C9
S1130AC0C00080648093C0008091C10080648093E2
S1130AD0C100808121E030E03093DE022093DD020A
S1130AE00E94340580E090E008958FB7F894992728
S1130AF0209161022E7F209361022EE720939C02B5
S1130B008FBF61E070E08CE992E00E944005992774
S1130B100895E8EFF0E06927660FF11DE60FF11D77
S1130B20C895982F802D3196C89590250895982FB3
S1130B3080915C02882389F5992379F531E030931B
S1130B405C028091300280935D0220915102822FD9
S1130B50817080937F028091350290913602909348
S1130B605F0280935E02809152028093600232277A
S1130B703170267EE32FFF27EE0FFF1FEF5CFD4F42
S1130B80808191819093360280933502232B2093A8
S1130B90510285E00E94CB0108958091510280FFAB
S1130BA002C08B7F01C08D7F8093510208950F9303
S1130BB01F93082F162F8091DC028130D9F08130E9
S1130BC038F0823009F44AC0833009F027C159C093
S1130BD0002309F457C110921A05109219051092B6
S1130BE0160410922D051092E002109271031092D7
S1130BF0700338C1002309F045C1809170039091BE
S1130C0071030E948905909371038093700382E0BD
S1130C108093DC0210932D05143409F0FFC024C125
S1130C208695869503C0809151028695817009F05E
S1130C30F5C080915102992311F0846001C0826053
S1130C408093510280915102877E88608093510283
S1130C50109252028FEF8093300214C1002309F0E6
S1130C60DDC06093E00280917003909171030E9453
S1130C708905909371038093700383E08093DC0271
S1130C8001C1809116048F3F09F4C8C0002309F400
S1130C9060C0823008F4C2C0E0911905EE2309F463
S1130CA0EAC04E2F4150E42FFF27E75EFA4F8281BE
S1130CB09927382F2227442311F4E2E002C0E42FBD
S1130CC0E150FF27E75EFA4F82819927282B392BC1
S1130CD080917003909171032817390709F09EC021
S1130CE080E00E9497053091E0028091600320919A
S1130CF06103982F9F5F963008F090E0921771F08F
S1130D00E82FFF27E05AFC4F32838F5F8093600304
S1130D10863010F0109260030E94D80310921A05D6
S1130D20109219051092DC021092160410922D05EF
S1130D301092E0021092710310927003809161028C
S1130D408D7F8093610280915002882309F49AC0B8
S1130D5081C0823008F44EC0E0911A05FF27E75E97
S1130D60FA4F8281482F5527342F20915102822F28
S1130D70869586958695837099278130910519F01B
S1130D800297F9F40EC0277E206120935102442378
S1130D9011F485E001C080E0809352023093300268
S1130DA010C080915202833360F4E0913502F091D7
S1130DB03602E80FF11D4083809152028F5F8093C9
S1130DC0520280911A05E82FFF27E75EFA4F6281ED
S1130DD08F5F80931A05833010F010921A057727DD
S1130DE080917003909171030E948905909371031F
S1130DF08093700380911905E82FFF27E75EFA4F6F
S1130E0012838F5F80931905833010F010921905B7
S1130E10809116048F5F8093160434C010921A05D3
S1130E20109219051092DC021092160410922D05EE
S1130E301092E0021092710310927003809161028B
S1130E408D7F8093610281E00E949705809150021A
S1130E50882331F084E08093DC020E94220512C0D2
S1130E60002381F081E00ACF80915102982F917084
S1130E7080FDD6CED8CE80911D059927382F222704
S1130E8042E01DCF1F910F9108951F920F920FB64C
S1130E900F9211242F933F934F935F936F937F93FC
S1130EA08F939F93AF93BF93EF93FF938091C00071
S1130EB087FF42C06091C600E0917203F091730312
S1130EC0309719F180910E0690910F06E80FF91FE3
S1130ED06083019690930F0680930E0620911D0661
S1130EE030911E068217930738F110927303109203
S1130EF0720380910D048330F9F08091C1008F77E3
S1130F008093C10010920D0417C06E3719F460E08D
S1130F1081E010C0809161026D3721F4826080937A
S1130F2061020AC081FF05C08D7F8093610280E267
S1130F30682780E00E94D705FF91EF91BF91AF91A0
S1130F409F918F917F916F915F914F913F912F91DD
S1130F500F900FBE0F901F901895982F8D578230C9
S1130F6068F48091610281608093610280E2892744
S1130F70809315048DE780939C0202C090939C0299
S1130F8061E070E08CE992E00E94400599270895A1
S1130F9078941F920F920FB60F921124FF920F9321
S1130FA01F932F933F934F935F936F937F938F93ED
S1130FB09F93AF93BF93CF93DF93EF93FF932091CE
S1130FC0DD023091DE0280912105909122052817DF
S1130FD0390780F4E091F202F091F302E20FF31F7B
S1130FE080812F5F3F4F3093DE022093DD020E9409
S1130FF03405D1C01092F3021092F2021092DF0273
S11310008091C1008F7B8093C100FFB6F8948091DA
S1131010610280FF0EC08E7F80936102809115046F
S113102080939C0261E070E08CE992E00E944005AC
S1131030AFC080910E04843009F48CC0853040F434
S1131040823021F18330B8F5813009F09CC00DC0A5
S1131050863009F48DC0863008F483C0873009F4E3
S11310608EC0883009F08FC091C08091F0020E9438
S1131070AD07082F83E080930E046091F002809105
S11310801B0690911C060E94890510C080913805AA
S11310900E94AD07082F83E080930E046091380509
S11310A080911B0690911C060E94890590931C0652
S11310B080931B0666C0E0917403FF27EE0FFF1FA9
S11310C0EA50FD4F80810E94AD07082F10917403F0
S11310D0C12FDD27FE01EE0FFF1FEA50FD4F608197
S11310E080911B0690911C060E94890590931C0612
S11310F080931B062091EE022F5F2093EE021130A5
S113110039F580915802E0915302F0915402E80FAE
S1131110F11DE0818F5F80935802909157029817D8
S113112030F482E08093F70240E050E002C04E2F9A
S11311305527DE01AA0FBB1FFD01EB50FD4F808137
S1131140823031F02F3F21F0AA50BD4F4C9319C08B
S113115084E012C080911B060E94AD07082F85E031
S11311600BC080911C060E94AD07082F86E004C0C6
S11311700E947505082F87E080930E0402C088E062
S113118003C0002329F089E080930E040E94D80351
S11311908F2D99278FBFFF91EF91DF91CF91BF9151
S11311A0AF919F918F917F916F915F914F913F91FB
S11311B02F911F910F91FF900F900FBE0F901F90D2
S11311C018951F920F920FB60F9211248F9380914E
S11311D0C80087FF02C08091CE008F910F900FBE90
S11311E00F901F90189578941F920F920FB60F923C
S11311F011240F900FBE0F901F90189578941F9292
S11312000F920FB60F9211240F900FBE0F901F90E4
S1131210189578941F920F920FB60F9211240F9085
S11312200FBE0F901F90189578941F920F920FB6CF
S11312300F9211240F900FBE0F901F901895789461
S11312401F920F920FB60F9211248F939F93809148
S11312509600909197009F918F910F900FBE0F90E1
S11312601F90189578941F920F920FB60F92112425
S11312702F933F938F939F932FB7F89433278091A5
S11312806E0390916F03019690936F0380936E03A6
S11312902FBF9F918F913F912F910F900FBE0F9071
S11312A01F9018951F920F920FB60F9211242F932F
S11312B03F934F935F936F937F938F939F93AF93DA
S11312C0BF93EF93FF938091B0008093B00080911F
S11312D0B60081FDFCCF8091B30099270196AA271F
S11312E0BB27209181023091820240918302509168
S11312F08402280F391F4A1F5B1F209381023093F9
S11313008202409383025093840278940E947C0466
S1131310FF91EF91BF91AF919F918F917F916F91C9
S11313205F914F913F912F910F900FBE0F901F909F
S113133018951F93182F81E00E942C021EBD0DB436
S113134007FEFDCF8EB599271F9108951F920F9226
S11313500FB60F9211248F929F92AF92BF92CF92A9
S1131360DF92EF92FF920F931F932F933F934F932C
S11313705F936F937F938F939F93AF93BF93CF9319
S1131380DF93EF93FF932EB5E0910804F0910904E5
S1131390309739F08091680390916903E80FF91F41
S11313A02083809168039091690301969093690367
S11313B08093680380E00E948B02C0916803D091FF
S11313C0690380916F0290917002C817D90708F0E1
S11313D044C00091D8051091D905809008049090DC
S11313E009042AE0A22EB12CAC0EBD1E8A159B0561
S11313F008F45C016401CC0EDD1E7801EC0EFD1EC8
S113140015C00115110519F0F701808101C080E0B4
S11314100E9499098114910411F0F60180832196A8
S11314200894C11CD11C0894E11CF11CC50101974E
S1131430C817D90730F381E00E948B02011511050A
S113144031F00C0F1D1FF80180818EBD01C01EBC40
S1131450D0936903C093680311C0109209041092D9
S113146008041092D9051092D805109270021092B7
S11314706F0210926903109268038EB5FF91EF9189
S1131480DF91CF91BF91AF919F918F917F916F9198
S11314905F914F913F912F911F910F91FF90EF908A
S11314A0DF90CF90BF90AF909F908F900F900FBE22
S11314B00F901F90189578941F920F920FB60F9269
S11314C011240F900FBE0F901F90189578941F92BF
S11314D00F920FB60F9211240F900FBE0F901F9012
S11314E0189578941F920F920FB60F9211242F9390
S11314F03F938F939F93AF93BF932FB7F894332762
S11315008091E7029091E802A091E902B091EA0289
S11315100196A11DB11D8093E7029093E802A09368
S1131520E902B093EA022FBFBF91AF919F918F91CF
S11315303F912F910F900FBE0F901F9018951F92FF
S11315400F920FB60F9211248F938091B000809365
S1131550B0008091B60081FDFCCF8F910F900FBE3B
S11315600F901F9018951F93982F1FB7F894809190
S11315706602823099F580913D02891779F5809150
S11315803B0220E030E08F3F11F421E030E0232BD8
S1131590F1F49FEF90933D028F3F19F42FEF30E069
S11315A00DC0282F3327F901ED55FD4F808180931D
S11315B03B028F3F11F490933C0290832093A0024E
S11315C081E0809366028BE00E94CB0105C08FEF1F
S11315D080933D021092660221E001C020E0812F39
S11315E099278FBF90E0213009F491E081E098279A
S11315F0892F99271F9108951F93CF93DF93182F55
S1131600FA01A22F2D3118F086E090E08EC0EA0195
S1131610219689812181B0E09927582F44273327C7
S1131620422B532BCA0187749C7C8154984809F43B
S1131630B1E0BB2349F4CA01807390708164986857
S11316408183892F99278983A35FA0832FB7F89477
S1131650332780913802909139022FBF8087892FD8
S1131660992781872FB7F894332780913A022FBFA7
S113167099278483158213876683872F9927878305
S11316808FB7F894282F332780916602882371F44A
S113169082E08093660210923D022FBFCF010E9428
S11316A0F2019927182F882399F00FC02FBFF093C8
S11316B0A202E093A1028FB7F894C82FDD272C2F44
S11316C080916602882399F406C080E00E94B30AE0
S11316D0812F99272AC081E0809366021092A0028C
S11316E08BE00E94CB01CFBF80E090E01EC08091D0
S11316F0A3028F3F89F4E0913C02EE2369F010C00D
S113170010923B0204C0FF27ED55FD4F108210924A
S11317103C0280E090E002C085E090E02FBF05C06D
S113172080913B028F3F79F7EBCFDF91CF911F91EF
S113173008950F931F93CF93DF93182FEB01042F7A
S1131740E82FFF27EE0FFF1FEE5CFA4F1182108285
S113175010924102E0913205F0913305309721F067
S11317608091ED0280FF0EC081E08093410203C0AE
S113177085E10E94CB011123B9F4602FCE010E94B0
S1131780BD0112C020812D50332767817727762F22
S1131790662786819927682B792BAF0183850E9460
S11317A0FC0A882341F3E4CFDF91CF911F910F917D
S11317B008950F931F93CF93DF93182F0FB7F894C7
S11317C080916802882311F40E949402802F992743
S11317D08FBF8FB7F894C82FDD272C2F8091680214
S11317E0882361F481E0809368021093F10283E11D
S11317F00E94CB01CFBF80E090E021C0E12FFF2702
S1131800E151FD4F80818F3F89F4E0913F02E11760
S113181089F40CC010933E0204C0FF27E151FD4F30
S1131820108310933F0280E090E002C085E090E0D6
S11318302FBF05C080913E028F3F79F7EBCFDF9138
S1131840CF911F910F9108958FB7F894282F3327C4
S1131850922F80914002882331F480916802823073
S113186011F42FBF13C09FBF8FB7F894282F3327CD
S113187080916802882369F482E080936802109260
S113188040022FBF0E949402209A289A81E090E09F
S113189008952FBF80E00E94D90B80E090E0089566
S11318A04F925F926F927F928F929F92AF92BF926C
S11318B0CF92DF92EF92FF920F931F93CF93DF9318
S11318C02C0180916E02882309F085C18091DA058C
S11318D0853009F080C10E94240C882309F47BC15F
S11318E080911E05882309F076C160E3862E912C31
S11318F0840C951CF20180A982FD02C090E003C013
S1131900F20192A99F7080912C03981781F0909313
S11319102C03289885EC8EBD0DB407FEFDCF8EB543
S113192090689EBD0DB407FEFDCF8EB5289AE201E6
S113193021968981F201218140E09927982F8827F7
S11319403327822B932B87749C7C8154984809F409
S113195041E0442301F1289886E88EBD0DB407FECA
S1131960FDCF8EB51EBC0DB407FEFDCF8EB5289AF3
S113197099278F7190702091E6024091A402240F60
S1131980312D311D43E0359527954A95E1F7281708
S113199039070CF420C1289882EC8EBD0DB407FEE3
S11319A0FDCF8EB589E08EBD0DB407FEFDCF8EB59B
S11319B0289A0E94B8027B018C01D4018C9184FD89
S11319C003C0E0E0F0E005C0F20180818550E80F3B
S11319D0F11D289881E88EBD0DB407FEFDCF8EB5AC
S11319E01EBC0DB407FEFDCF8EB5289A8F718930C9
S11319F079F0289882EC8EBD0DB407FEFDCF8EB52C
S1131A0086E08EBD0DB407FEFDCF8EB5289AE3C0E7
S1131A108FB7F89499272F9A2091840030918500EC
S1131A208FBF2F98289880E68EBDD2019C910DB46B
S1131A3007FEFDCF8EB59EBD792F7250773010F41E
S1131A40672F01C067E0DE01962F4D910DB407FEAC
S1131A50FDCF8EB54EBD9150C1F76150C60FD11D5B
S1131A606F5F21962E193F092E553F4F3901882467
S1131A7077FC8094982C6E0C7F1C801E911E3097EE
S1131A8019F4972F961B42C02081E1808281A380A4
S1131A909927AA27BB27BA2FA92F982F882733273E
S1131AA044275527522F442733272227FF24002772
S1131AB011278701FF24EE242E293F29402B512B87
S1131AC0BB24CC24DD242A293B294C295D29822BE3
S1131AD0932BA42BB52B86199709A809B9098383DD
S1131AE0292F3A2F4B2F552722839D014427552711
S1131AF021838B2F9927AA27BB278083C2CF2881D4
S1131B000DB407FEFDCF21968EB52EBD9150B8F7CA
S1131B100DB407FEFDCF8EB5289A289882EC8EBDB1
S1131B200DB407FEFDCF8EB586E08EBD0DB407FE65
S1131B30FDCF8EB5289A3097D1F12081E180828142
S1131B40A3809927AA27BB27BA2FA92F982F8827C4
S1131B50332744275527522F442733272227FF248E
S1131B60002711278701FF24EE242E293F29402B2B
S1131B70512BBB24CC24DD242A293B294C295D2963
S1131B80822B932BA42BB52B860D971DA81DB91D55
S1131B908383292F3A2F4B2F552722839D014427D6
S1131BA0552721838B2F9927AA27BB278083C2011E
S1131BB00E94DD02C2010E94E202FC016082718285
S1131BC08282938286E08093DA0584E080936E02B9
S1131BD080E090E002C085E090E0DF91CF911F911A
S1131BE00F91FF90EF90DF90CF90BF90AF909F90B8
S1131BF08F907F906F905F904F90089580916402D2
S1131C008C3118F04CE150E002C0482F55278CE18C
S1131C10E7EEF5E011928A95E9F7909164028091DC
S1131C20620220E030E0A7EEB5E00FC0E82FFF2706
S1131C30E75EFB4FE081992329F08F5F8A3F09F427
S1131C4080E09150ED932F5F3F4F2417350771F7D4
S1131C5090936402809362024CE16BED75E08FEF28
S1131C609FEF0E943B04882319F088E00E94CB0177
S1131C7008951F93182F80916502813049F4809153
S1131C8064028D3728F082E0809365020E94FE0D85
S1131C908FB7F894282F3327909164029A3FA8F4C1
S1131CA080916302E82FFF27E75EFB4F10838F5F6D
S1131CB0809363028A3F11F4109263029F5F9093B2
S1131CC064022FBF80E090E003C02FBF8FEF9FEF2F
S1131CD01F9108958FB7F894282F332780916502B8
S1131CE0823021F42FBF80E090E0089590E080914D
S1131CF06402882309F491E0992321F02FBF81E045
S1131D0090E0089582E0809365022FBF0E94FE0D4B
S1131D1080E090E00895662359F48091640288235A
S1131D2019F00E94FE0D089581E0809365020895E4
S1131D3088E00E94CB010895EF92FF920F931F93C6
S1131D40CF93DF93182F7B01042FE82FFF27EE0F8B
S1131D50FF1FE459FC4F1182108210923702A091A8
S1131D606C03B0916D03109721F08091390580FFC9
S1131D700EC081E08093370203C087E00E94CB014C
S1131D801123C9F4602FC7010E948B0E14C0FD01FA
S1131D90359624813327ED016D817727762F6627C9
S1131DA081819927682B792BAD0186810E94EB03F1
S1131DB0882331F3E2CFDF91CF911F910F91FF90F0
S1131DC0EF9008958091DA02823031F481E08093BB
S1131DD0DA028EE00E94CB010895AF92BF92CF92B7
S1131DE0DF92EF92FF920F931F93CF93DF93809133
S1131DF01E05882309F4FEC00E94240C882309F4DC
S1131E00F9C08FB7F8949927C091EB02D091EC02F6
S1131E108FBF10921E0528988FE88EBD0DB407FE63
S1131E20FDCF8EB51EBC0DB407FEFDCF8EB5289A2E
S1131E30982F80916E02833011F0873031F485E061
S1131E408093DA0588E080936E02A92EBB24A2FE5B
S1131E505FC080916E02863019F410926E0203C046
S1131E60882309F055C0943009F041C0289886E8C9
S1131E708EBD0DB407FEFDCF8EB51EBC0DB407FE9E
S1131E80FDCF2EB5289A2F718091A402982F969594
S1131E909695322F391B830F8093A402E0917D0223
S1131EA0F0917E0280A98B7F886080AB22AB0E9478
S1131EB0B8026B017C0100917D0210917E02C80181
S1131EC00E94DD02C8010E94E202FC01CC19DD0976
S1131ED02797CE01AA2797FDA095BA2F8C0D9D1D9B
S1131EE0AE1DBF1D80839183A283B3830EC0E09196
S1131EF07D02F0917E0280A9877F80ABE0917D0214
S1131F00F0917E0280A98D7F80AB85E080936E0284
S1131F10A3FE70C080916E02843009F04EC085E04B
S1131F208093DA0510926E0280918002833019F456
S1131F30109280025FC0C0911906D0911A06CE019A
S1131F400E94E402882389F18A8129819927982FA4
S1131F5088273327822B932B87749C7C8154984841
S1131F6021F58F812E819927982F88273327822B5B
S1131F70932B8F5F9F4FC9F090E080910A048823D0
S1131F8009F491E0992389F012E01093F40281E0BE
S1131F9080930A0480918400909185006CEC7AE02F
S1131FA00E94F5021093800225C0109280021092C4
S1131FB0DB0280E00E941F031DC08530D9F420910C
S1131FC0E602289886E88EBD0DB407FEFDCF8EB5D7
S1131FD01EBC0DB407FEFDCF8EB5289A8F71922FCB
S1131FE096959695891B280F2093E60289E08093A5
S1131FF06E0208C090916E02992309F4E5C29930EB
S113200009F012C2289880E28EBD0DB407FEFDCF00
S11320108EB51EBC0DB407FEFDCF8EB5482F5527D7
S1132020433008F496C3842F99278A970CF091C300
S11320301EBCE0917D02F0917E024083142F125069
S1132040173010F4912F01C097E0BF016F5F7F4FED
S1132050292FFB0140E050E00DB407FEFDCF8EB503
S11320601EBC808381914827042E4295407F4025E1
S1132070052E542F42954F70042646955427452724
S1132080440F440F440F4025215031F79150DB0198
S1132090A90FB11D9F5F1196E0917D02F0917E0220
S11320A081818770823009F421E0222349F020E005
S11320B030E080918002823081F421E030E00DC074
S11320C08FB7F894282F332760E08091130583306D
S11320D008F461E02FBF262F3327232B09F45CC0BB
S11320E0191B912F18C00DB407FEFDCF8EB51EBC71
S11320F08C938D914827042E4295407F4025052ED0
S1132100542F42954F700426469554274527440F73
S1132110440F440F4025915030F70DB407FEFDCF16
S11321208EB51EBC9A012827022E2295207F2025D9
S1132130032E322F22952F7002262695322723272D
S1132140220F220F220F20250DB407FEFDCF8EB5DE
S11321501EBC2827022E2295207F2025032E322FF5
S113216022952F700226269532272327220F220F2D
S1132170220F20250DB407FEFDCF8EB5E0917D0220
S1132180F0917E0281AB289A15E01093DA05109243
S11321906E02232B31F014C20DB407FEFDCF8EB5B1
S11321A0D8C2E0907D02F0907E0267010894C11CC1
S11321B0D11CF701818190E0282F332727703070DC
S11321C02230310509F491E080918002992319F1BC
S11321D0823009F024C1F7019381E0911906F0914E
S11321E01A068381981709F01AC12230310509F0C3
S11321F016C180916F008D7F80936F0010920A0446
S113220080A9816080AB109280021092DB0280E092
S11322100E941F0304C18823C9F4C7010E942C0330
S11322208823A1F010932D0382E080932E03109253
S11322302F03F7018381809330038DE293E00E94A2
S1132240500C882319F483E0809380020091840069
S113225010918500C7010E942C03882311F0045EAD
S11322601C4F10936B0300936A0380918400909138
S113227085009801281B390B12161306A4F48091CB
S1132280DB02882369F490E080910A04882309F42E
S113229091E0992341F0C9010E945F0380E801C0E5
S11322A080688093DB02F601808527819927582F67
S11322B044273327422B532B80918502282F332721
S11322C0F901EE0FFF1FED5DFA4F8081918170914E
S11322D00B048417950769F4F901EF5EF94F8081C7
S11322E0871709F467C0872F8F5F80930B0480835F
S11322F01DC000E010E080E090E0C3E2D5E0E1E141
S1132300F6E0DF01682F9C01888199818417950785
S113231079F42093850290910B048C91891709F428
S113232049C0892F8F5F80930B048C9300E829C0E8
S11323308081972F981B091710F4092F122F6F5FB4
S1132340C901019611962296319685309105D1F6F0
S11323506530B9F410938502A12FBB27FD01EE0F60
S1132360FF1FED5DFA4F5183408380910B048F5F13
S113237080930B04FD01EF5EF94F8083A15EB94F9A
S11323801C9290910B04892F8F778F3779F40F3734
S113239068F0E1E1F6E0292F207880818F678913C6
S11323A02083319636E0E631F307B9F78091850250
S11323B0282F3327F6019281A22FBB27FD01E15E6E
S11323C0F94F808180FF07C0FD01EC5EFA4F8081E8
S11323D0981729F102C081608083AC5EBA4F9C9348
S11323E0DFB6F894809113058330B0F4E09137059B
S11323F0E80FE33008F0E350FF27EE0FFF1FED581E
S1132400FD4F00811181F182E0828F5F809313057B
S11324108FE00E94CB0178018D2D99278FBFF09218
S11324207E02E0927D02C3C0892F8150833008F080
S11324309CC081508230E0F43091DA053130C1F42F
S113244020E080910A04882309F421E0222381F00A
S11324502F9883E08093F40230930A0480918400DF
S1132460909185006BE273E00E94F50282E068C0FF
S1132470933009F042C08091DA05833009F097C0A7
S11324800E94240C8823C9F128988FE88EBD0DB4CE
S113249007FEFDCF8EB51EBC0DB407FEFDCF8EB575
S11324A0289A8091810080648093810080E286BBB9
S11324B080916F00806280936F0090919F022898B2
S11324C088EC8EBD0DB407FEFDCF8EB590669EBD23
S11324D00DB407FEFDCF8EB5289A289882EC8EBDE8
S11324E00DB407FEFDCF8EB586E08EBD0DB407FE9C
S11324F0FDCF8EB5289A84E023C080916E0281506E
S1132500823000F58091DA058530E1F40E94240CD4
S11325108823C1F0289882EC8EBD0DB407FEFDCF50
S11325208EB583E08EBD0DB407FEFDCF8EB5289A1F
S113253080916F008F7D80936F0010921E0583E061
S11325408093DA0590916E02913041F48091DA051E
S11325508330B1F52F9A9093DA0525C0923039F57E
S11325608091DA05833061F51EC0973001F50E9431
S1132570240C8823E1F090919F02289888EC8EBD6A
S11325800DB407FEFDCF8EB590669EBD0DB407FE5B
S1132590FDCF8EB5289A8091DA05853021F484E048
S11325A08093DA0504C088E080936E0204C08091B1
S11325B06E02883029F410926E028DE00E94CB01E5
S11325C080916E02882309F58091DA058530D1F473
S11325D080911E058823B1F480918002882391F4B0
S11325E08091DB02882371F490E080910A048823AF
S11325F009F491E0992331F00E94E20E80916E0279
S1132600882319F481E10E94CB0180910A0482306D
S113261009F092C010920A04C090F402F2E0CF16BE
S113262009F466C023E0C21609F46AC031E0C31697
S113263009F082C020916A0330916B038091840079
S1132640909185004091DB02403829F41092DB021E
S11326500E94E20E71C08901081B190B47FF03C0D9
S113266010161106ECF0C091A502D091A60280913B
S113267080028823A9F4CE010E94500C9927882354
S113268051F488A98E7F88ABC0928002D0931A0639
S1132690C093190629C09927F82E882329F102C06E
S11326A025E0F22E2091DB02822F99278F77019764
S11326B059F4207822602093DB0280E198E00E94A4
S11326C06D030E945F0338C027FF0AC0101611066D
S11326D03CF480E88093DB02C8010E945F0302C0DF
S11326E01092DB028F2D09C083E08093DB0224C0AB
S11326F0109280021092DB0280E00E941F031CC033
S11327008091DA05823019F4C092DA0513C0809101
S11327106E02863079F410926E02289881E88EBD9C
S11327200DB407FEFDCF8EB51EBC0DB407FEFDCF64
S11327308EB5289A0E94D2138FB7F894282F332786
S113274080919E02813061F081E080939E022FBFD0
S11327504ECB289A85E08093DA0510926E0230CF32
S113276010929E022FBFDF91CF911F910F91FF9086
S1132770EF90DF90CF90BF90AF9008958FB7F8940B
S1132780282F332780919E02815080939E028038A7
S113279011F02FBF089581E080939E022FBF0E9405
S11327A0ED0E08958FB7F894282F332780919E0259
S11327B0882329F0806880939E022FBF089581E0CA
S11327C080939E022FBF0E94ED0E089578941F926D
S11327D00F920FB60F9211242F933F934F935F9351
S11327E06F937F938F939F93AF93BF93EF93FF93D5
S11327F0E6E8F0E080819181208131818FB7F894FF
S113280099273093EC022093EB0221E020931E05DC
S11328108FBF0E94D213FF91EF91BF91AF919F910F
S11328208F917F916F915F914F913F912F910F9075
S11328300FBE0F901F90189578941F920F920FB6A9
S11328400F9211242F933F934F935F936F937F9332
S11328508F939F93AF93BF93EF93FF9380916F00F8
S11328608D7F80936F0078949FB7F89480910A04C9
S1132870813019F482E080930A04892F99278FBF4D
S11328800E94D213FF91EF91BF91AF919F918F91CD
S11328907F916F915F914F913F912F910F900FBE58
S11328A00F901F901895AF92BF92CF92DF92EF9244
S11328B00F931F935B016C010E94AF03AB01BC013A
S11328C0EE249601850183E00E9490031F910F91ED
S11328D0EF90DF90CF90BF90AF9008958F929F922A
S11328E0AF92BF92CF92DF92EF92FF920F931F931A
S11328F0CF93DF935B016C01C0E0D0E0E5E7F3E048
S11329007C2F608561FF71C12081318142815381B7
S1132910E480F58006811781D601C501821B930BE3
S1132920A40BB50B8E159F05A007B10708F45DC174
S113293060FF03C06D7F608708C02E0D3F1D401FE0
S1132940511F2083318342835383723009F4D5C0ED
S1132950733030F4772359F0713009F04CC197C0CB
S1132960733009F4CEC0743009F045C13BC10E94F4
S1132970AF037B018C016093B602BB27A12F902F7C
S11329808F2D8093B502C801AA27BB278093B40278
S1132990812F9927AA27BB278093B302809116061B
S11329A090911706AA27BB278093BA02892F9A2FE2
S11329B0AB2FBB278093B9021092B8021092B702D2
S11329C00E94AF035B016C010E94B802EA18FB0885
S11329D00C091D093AE0EE0CFF1C001F111F3A956B
S11329E0D1F7E60EF71E081F191F8AE08093BB0279
S11329F0E092BF02BB27A12F902F8F2D8093BE02A0
S1132A00C801AA27BB278093BD02E12EFF2400271B
S1132A101127E092BC0247EA52E08091D70280611C
S1132A208093D7028FEF8093AD028093AE028DE343
S1132A308093B2028091320590913305892B19F568
S1132A4050933305409332058AE18093A702809125
S1132A504102882309F4CFC0109241022DE06FEFA8
S1132A607FEF8DE30E94FC0A9927282F882309F41D
S1132A70C2C081E080934102109233051092320566
S1132A80222309F4B8C081E00E94A601B4C00E94C8
S1132A90AF034B015C01C0906A02D0906B02E090DE
S1132AA06C02F0906D02C60ED71EE81EF91ED70107
S1132AB0C6011AE0B695A795979587951A95D1F70B
S1132AC087700E94A6019701860100701C7F005048
S1132AD01C4F2F4F3F4F0C191D092E093F09B1E020
S1132AE0EB2EB501A40181E00E94900368EC70E034
S1132AF080E090E00E9453147EC08CE00E94CB01E1
S1132B007AC080E092E00E94E0200E946A0E47981A
S1132B1045988091160690911706009731F44198D4
S1132B204098469881E090E008C08130910551F4C6
S1132B30419A4098469882E090E0909317068093DB
S1132B40160636C08230910531F44198409A469871
S1132B5083E090E0F2CF8330910531F4419A409ABA
S1132B60469884E090E0E9CF8430910531F44198AF
S1132B704098469A85E090E0E0CF8530910531F4A5
S1132B80419A4098469A86E090E0D7CF86309105E6
S1132B9031F44198409A469A87E090E0CECF079767
S1132BA039F4419A409A469A1092170610921606E2
S1132BB0439A80E0429A42988F5F8F30D9F70E94FF
S1132BC0AF03AB01BC01EE2408EC10E020E030E0E0
S1132BD084E00E94900343988091A1038D7F8093A9
S1132BE0A10309C0479A459A06C021963996C53073
S1132BF0D10509F085CE8AE00E94CB01DF91CF9107
S1132C001F910F91FF90EF90DF90CF90BF90AF9006
S1132C109F908F9008952F923F924F925F926F9260
S1132C207F928F929F92AF92BF92CF92DF92EF9258
S1132C30FF920F931F93CF93DF93CDB7DEB72B97FC
S1132C400FB6F894DEBF0FBECDBFE82FFF27E631E5
S1132C50F10508F05BC6EA59FF4FEE0FFF1F059020
S1132C60F491E02D099480913905882309F44EC626
S1132C7090E011E0D2C18091ED02882309F446C6A8
S1132C8090E011E012C68FB7F894109210062091CC
S1132C900E0440E0283009F441E030E0293009F422
S1132CA031E0442311F4332351F010920E04E091E7
S1132CB07403FF27EE0FFF1FEB50FD4F108299277F
S1132CC08FBF442311F4332331F19FB7F8948091DB
S1132CD038058F5F809338058091F002833479F44E
S1132CE02091610380916003821779F0822F8F5FB6
S1132CF080936103863048F01092610306C0A0E01F
S1132D00442309F4A1E071E002C0A0E070E0892F3F
S1132D1099278FBF06C0222311F010E06CC0A0E0F9
S1132D2070E08FB7F8949927209150028FBF222327
S1132D3041F08FB7F89499272AE020930E048FBFAF
S1132D4042C08FB7F89499276091F5024091F70239
S1132D508FBF8FB7F894282F332750E090916003EA
S1132D6080916103981709F451E02FBF552341F571
S1132D70662331F55FB7F89482E08093F5028FB74C
S1132D80F894282F332740E09091600380916103E9
S1132D90981709F441E02FBF442311F080E006C0E6
S1132DA0E0916103FF27E05AFC4F82818093F60291
S1132DB083E48093F00210927403852F99270EC048
S1132DC04150423010F010E00BC08FB7F8949927AF
S1132DD025E42093F00221E0209374038FBF11E0D7
S1132DE0772349F08FB7F8949927A09359028FBF9E
S1132DF084E00E94CB018FB7F894E82EFF248091E1
S1132E000E048A3021F40E942205EFBE7FC5EFBE76
S1132E10112309F47BC52FB7F894332710921C06AD
S1132E2010921B061092EE0281E080930E042FBFD5
S1132E300E947505882309F469C58FB7F89499270A
S1132E4029E020930E048FBF0E94D8035FC58091B0
S1132E50C1008F7B8093C1008091C1008F778093E4
S1132E60C10010920D041092DF028091C1008860AD
S1132E708093C1008091C10080618093C1008091E2
S1132E80C10080688093C10080916502882309F0A5
S1132E903DC582E492E090932706809326068FB77F
S1132EA0F894992721E0209365028FBF81E00E9466
S1132EB0CB012FB7F894332780919E028F5F8093C4
S1132EC09E022FBF8091DA028823D9F480916E028A
S1132ED08823B9F48091DA05813049F490E0809137
S1132EE00A04882309F491E0992359F002C085303B
S1132EF041F083E080936E020E94D21385E08093B8
S1132F00DA020E94BE1310926A0210926B021092AF
S1132F106C0210926D020E94AF03AB01BC01EE245F
S1132F2000E014E020E030E081E00E949003809112
S1132F302E0290912F02019731F468EC70E080E04A
S1132F4090E00E94531410921706109216061092E5
S1132F50720210927102389A399A3A9A3B9A3C9AC0
S1132F603D9A3E9A3F9AD2C483E093C08091C100B7
S1132F70877F8093C1008091C1008F7E8093C100C0
S1132F808FB7F894992710926502FFC310925602E6
S1132F90109255028FB7F8949927409159028FBF28
S1132FA080915A02811143E02091530230915402DE
S1132FB080915B02882309F0A9C480913702882399
S1132FC009F0A4C460916C0370916D0362177307D8
S1132FD009F09CC450C08FB7F894992720915E02E1
S1132FE030915F0240917F028FBF8FB7F894E42F36
S1132FF0FF27EE0FFF1FEF5CFD4F318320832091ED
S11330005102442311F02B7F01C02D7F20935102E4
S113301010925C0299278FBF79C420913905812FC2
S11330208223C1F0E92FFF27EE0FFF1FE459FC4F65
S11330304081518111821082812F80952823209311
S11330403905992339F463E0CA010E948B0E110FEC
S113305091E0E3CF9F5F983008F058C4110FDDCFA3
S113306080913702E82FFF27EE0FFF1FE459FC4F32
S11330706081718141E00E949C0E48C44CE16BED7B
S113308075E08FEF9FEF0E943B04882309F43EC450
S113309088E00E94CB013AC480919D02882361F5A7
S11330A020912E0530912F05409130055091310526
S11330B0EFB7F894FF276091790270917A028091BA
S11330C07B0290917C02E0903A05F0903B050091E0
S11330D03C0510913D056E0D7F1D801F911FEFBFB4
S11330E020932E0530932F054093300550933105DE
S11330F010929D020E9408050E94AF033FC00E94E7
S1133100AF035B016C018FB7F89499271092E10229
S11331108FBF2FEF3FEF4FEF5FE760E0E5E7F3E0AE
S1133120808581FF1CC080819181A281B381860149
S11331307501E81AF90A0A0B1B0BD801C701E480D0
S1133140F58006811781E81AF90A0A0B1B0BE216AF
S1133150F306040715071CF4A801970161E03996EA
S113316003E0E23AF007E1F6662309F4CFC312164E
S11331701306140615062CF0C601B5010E946E1440
S1133180C5C320932E0530932F05409330055093EB
S1133190310581E080939D02C601B5010E940805B6
S11331A0B5C32FB7F89433278091A00280933D02D2
S11331B082E0809366022FBF80913D02882309F04C
S11331C0A5C38091A1029091A2020E94F201082F4E
S11331D01127002309F49AC380E00E94B30A2091C6
S11331E0A1023091A20280914102882309F08EC38A
S11331F060913205709133056217730709F086C335
S1133200402F80C3E0911704F091180420A531A544
S113321010916702123061F52115310519F080A96A
S113322080FF02C084E01FC08091110490911204B9
S1133230019690931204809311048217930790F4DB
S113324081E08093670202A513A50115110591F091
S11332500E94AF03AB01BC0122273327B1E0EB2E60
S113326082E070C085E0809367021091670226C0F7
S1133270113021F582E08093670240911704509148
S113328018042FB7F894332780919E028F5F8093A0
S11332909E022FBF8091DA02882369F450931004B0
S11332A040930F0481E08093DA0210920C048EE0C4
S11332B00E94CB0197C00E94BE139AC0143008F438
S11332C025C3232B51F0E0911704F0911804809149
S11332D011049091120491A780A710926702E090C4
S11332E01704F0901804F70182858F3309F00EC398
S11332F080E00E94B30A80914102882309F006C34A
S113330060913205709133056E157F0509F0FEC298
S11333101450412FF7C28091DA021092DA028530FC
S1133320A1F480912E0290912F02019709F0EEC230
S11333300E94AF03AB01BC01EE2400E018E220E0E0
S113334030E080E00E949003E1C2863009F4DEC2DE
S1133350873009F4DBC28093DA02D8C22FB7F8941D
S1133360332780919E028F5F80939E022FBF4091EE
S1133370DA02413071F580910C048F5F80930C0464
S1133380863038F520910F04309110048091DB02CF
S11333908823C1F490E080910A04882309F491E021
S11333A0992381F03093A6022093A5024093DB0277
S11333B08BED91E10E946D030E945F0310923E0524
S11333C083E004C085E080933E0582E08093DA02C6
S11333D009C01092DA020E94BE1380913E05882330
S11333E021F406C00E94BE1391C28C5F80936702D1
S11333F08CE04FCE8FB7F894282F33278091130594
S1133400882309F482C2E0913705FF27EE0FFF1FDE
S1133410ED58FD4F0190F081E02DFB87EA872FBF27
S11334208285978126818F3309F008C16385892FAE
S11334309927582F4427822F9927482B592B8FB728
S1133440F894992720913802309139028FBF42179E
S1133450530721F04F5F5F4F09F00AC16D3309F044
S113346007C1EA85FB85808182513C96DF01A80F64
S1133470B11D3C97FB87EA878C918A3009F0F8C02C
S113348080A981FFF5C0FD012181E2808381A480B0
S11334909927AA27BB276624782E892E9A2E3327AC
S11334A044275527522F442733272227FF24002758
S11334B011278701FF24EE242E293F29402B512B6D
S11334C0BB24CC24DD242A293B294C295D29622AEA
S11334D0732A842A952AF0E06F16F0E07F06F0E064
S11334E08F06F0E89F0609F4C3C08A859B850E9475
S11334F0E202FC0120803180428053800E94B802A5
S11335007B018C010E94AF032E183F08400A510A28
S11335103AE055944794379427943A95D1F72AE0A2
S113352095948794779467942A95D1F7660E771EBD
S1133530881E991E260C371C481C591CEA85FB85DD
S113354084852585A684E784BB24CC24DD24DC2C57
S1133550CB2CBA2CAA249927AA27BB27B82FAA2791
S113356099278827332744275527A901332722275A
S1133570822B932BA42BB52BFF24002711278E29F4
S11335809F29A02BB12BA82AB92ACA2ADB2A808911
S1133590E18822896388332744275527542F432FF2
S11335A0322F22279927AA27BB27B82FAA27992782
S11335B08827FF24002711278701FF24EE248E2962
S11335C09F29A02BB12B7724882499248629972915
S11335D0A829B929282B392B4A2B5B2B30931706A2
S11335E020931606D601C50182199309A409B509C9
S11335F080936A0290936B02A0936C02B0936D0265
S11336005F924F923F922F92DF92CF92BF92AF92EE
S1133610BF93AF939F938F9389E092E09F938F938F
S11336200E94C9200E946A0E0DB71EB7025F1F4F89
S11336300FB6F8941EBF0FBE0DBF1AC0892F99276D
S1133640582F4427822F9927482B592B8FB7F8944A
S1133650992720913802309139028FBF42175307BE
S113366019F04F5F5F4F21F48FB7F89499278FBFFC
S11336709FB7F89480913705E82FFF27EE0FFF1FBF
S1133680ED58FD4F2A853B85318320838F5F8093DE
S11336903705833010F0109237058091130581505F
S11336A080931305892F99278FBFA4CE3FB7398301
S11336B0F8942090E2023090E3024090E4025090AB
S11336C0E5026624772488248EE4A82E03E8B02E2D
S11336D0CC24DD24EE24FF2400E010E0222D332D41
S11336E0442D552D662D772D882D90E00E94B51E12
S11336F02A833B834C835D836E837F83888799878A
S1133700822E932EA42EB52E2401350100E20E94B0
S1133710B31FA22EB32EC42ED52EA301920156950B
S11337204795379527952A0D3B1D4C1D5D1D57FF69
S113373005C05F772F5F3F4F4F4F5F4F2093E202EB
S11337403093E3024093E4025093E5026981862FAB
S113375099278FBF8FB7F894992730931404209337
S1133760130413C08FB7F894992710920904109288
S113377008041092D9051092D80510927002109284
S11337806F02109269031092680345CC2FB7F89426
S113379033278091F1028093400282E08093680293
S11337A02FBF80914002882309F0B0C0209A289A44
S11337B08091DA05882309F075C08EEF91E00197B6
S11337C001960197E1F716982F9886E090E001970B
S11337D001960197E1F7169A289883EC8EBD0DB4F3
S11337E007FEFDCF8EB51EBC0DB407FEFDCF8EB512
S11337F0289A289882EC8EBD0DB407FEFDCF8EB5B5
S113380088E08EBD0DB407FEFDCF8EB5289A8EEFED
S113381091E0019701960197E1F728988EEC8EBD0F
S11338200DB407FEFDCF8EB58DE48EBD0DB407FE3D
S1133830FDCF8EB5289A289889EC8EBD0DB407FE6D
S1133840FDCF8EB587EC8EBD0DB407FEFDCF8EB5D2
S1133850289A289885EC8EBD0DB407FEFDCF8EB551
S113386080E88EBD0DB407FEFDCF8EB5289A109268
S11338702C038BE080939F02289888EC8EBD0DB4B6
S113388007FEFDCF8EB58BE68EBD0DB407FEFDCFD2
S11338908EB5289A2F9A81E08093DA0580E00E9401
S11338A0350234C00E94D21331C02091ED02812F21
S11338B08223C1F0E92FFF27EE0FFF1FEE5CFA4FC2
S11338C04081518111821082812F80952823209379
S11338D0ED02992339F463E0CA010E94BD01110F7E
S11338E091E0E3CF9F5F983088F4110FDECF809191
S11338F04102E82FFF27EE0FFF1FEE5CFA4F6081B5
S1133900718141E00E94990B01C02FBF2B960FB625
S1133910F894DEBF0FBECDBFDF91CF911F910F9101
S1133920FF90EF90DF90CF90BF90AF909F908F90DB
S11339307F906F905F904F903F902F90089580916B
S113394034058F3FB1F0282F3327F901EA57FD4F93
S11339508081809334058F3F11F4809318068FEF94
S113396080832F3F31F0822F0E940B1681E090E07C
S1133970089580E090E00895FF920F931F93FFB69F
S1133980F89414BE88E10FB6F89480936000109206
S113399060000FBE46E150E06FEF70E086E892E011
S11339A00E94C2208FEF80933405809318065698A6
S11339B05E9854985C9880916F008F7D80936F001F
S11339C0209A289A279A2F980E9A169A89EF92E0AD
S11339D090937E0280937D021092E6028AE58093A2
S11339E0A40281E08093810080E28093B60083E0AA
S11339F08093B10080918400909185004AE72091E2
S1133A008400309185002817390708F44150442375
S1133A1011F0C901F4CF9091B2008091B2008917DE
S1133A20E1F320918400309185009091B20080915F
S1133A30B2008917E1F38091840090918500821B84
S1133A40930B4096F5E096958795FA95E1F7909358
S1133A503605809335051092B1008091B1008093B2
S1133A608100809181008093B6001092B200109280
S1133A708500109284008FEF87BB87B386BB80914B
S1133A80B6008571E1F70A9A099A089A129A119A6E
S1133A90109A18B88FEF87B90C9814981092850073
S1133AA01092840080916F00816080936F008091F8
S1133AB08100887F8260809381001092950010922B
S1133AC094008091710081608093710080919100D5
S1133AD0887F8260809391000E949F1C8823E1F775
S1133AE08FEF8093EF0280E00E94D90B20912E0289
S1133AF030912F022F5F3F4FC901AA27BB27809324
S1133B00E2029093E302A093E402B093E5028FE310
S1133B1095E09093740280937302C3969093760217
S1133B208093750285EA95E09093780280937702FA
S1133B308FEF9FEF909324058093230590932605A0
S1133B4080932505909328058093270590932A0553
S1133B508093290590932C0580932B0580912E0248
S1133B608295807F809369028FEF8093A302809176
S1133B70B60080628093B6008091B60081FDFCCFD0
S1133B8082E08093B0008091B60080FDFCCF83E09A
S1133B908093B1008091B60083FDFCCF86EE8093C4
S1133BA0B300809170008260809370000E947C0456
S1133BB012E006E060913505709136058827992753
S1133BC0ECE0660F771F881F991FEA95D1F720E074
S1133BD031EE40E050E00E944A20215030402093D2
S1133BE0C400832F99278093C5001093C0000093CD
S1133BF0C2001092C1002093CC008093CD0010939A
S1133C00C8000093CA001092C90084E490E0909325
S1133C10200580931F051092F5021092F70210926E
S1133C200E041092EE021092F002109238051092D7
S1133C301C0610921B061092100610927403109228
S1133C401A05109219051092DC02109216041092B3
S1133C502D051092E00210927103109270031092DD
S1133C606103109260030E949F1C8823E1F78F2D4B
S1133C7099278FBF789481E00E94CB018FB7F89485
S1133C80482F552757C080917000992783709070F2
S1133C90892B19F4E5E0F0E014C08091B6008A7134
S1133CA0E1F78091B3009091B200891B8C3038F019
S1133CB08091B200853F18F4E3E0F0E002C0E2E056
S1133CC0F0E080916E00867009F580916F008E722D
S1133CD0E9F4809171008E72C9F40CB407FC16C02B
S1133CE08091C100887191F48091C900887171F448
S1133CF08091BC0082FD0AC080917A0087FF03C0D6
S1133D0081E090E005C085E090E002C080E090E0B2
S1133D1023B78E1708F4E82FFF27E850FD4FE491EE
S1133D20207F2160E22BE3BF78948895F89483B7D1
S1133D308E7F83BF809134058F3F09F4A4CF282F51
S1133D403327F901EA57FD4F8081809334058F3F73
S1133D5011F4809318068FEF80832F3F09F493CFDB
S1133D604FBF822F0E940B1689CFACE2B0E0EBEB81
S1133D70FEE10C948B20222E332E442E552E662EDB
S1133D80772E882E992EFE013196A8E01192AA95DD
S1133D90E9F729823A824B825C826D827E828F822D
S1133DA09886FE013996B8E01192BA95E9F7A9868A
S1133DB0BA86CB86DC86ED86FE860F87188B8981D2
S1133DC09A81AB81BC8189A79AA7ABA7BCA77C01C8
S1133DD08D018FEF9FEFA0E0B0E0E822F9220A23E3
S1133DE01B2389A59AA5ABA5BCA51D014424552474
S1133DF089859A85AB85BC858DA39EA3AFA3B8A7FF
S1133E005C016D018FEF9FEFA0E0B0E0A822B92222
S1133E10CA22DB228DA19EA1AFA1B8A53D018824B1
S1133E209924C801B701A60195010E946C2069A3D9
S1133E307AA38BA39CA3C801B701A40193010E9498
S1133E406C207B018C01C201B101A60195010E9485
S1133E506C205B016C01C201B101A40193010E94B9
S1133E606C203B014C01EA0CFB1C0C1D1D1D89A19F
S1133E709AA1ABA1BCA19D01442755272E0D3F1D3E
S1133E80401F511F2A153B054C055D0540F480E099
S1133E9090E0A1E0B0E0680E791E8A1E9B1ECA0164
S1133EA0AA27BB27860D971DA81DB91D8D8F9E8F30
S1133EB0AF8FB8A3A9013327222789A19AA1ABA167
S1133EC0BCA1A070B070280F391F4A1F5B1F298F37
S1133ED03A8F4B8F5C8FA98CBA8CCB8CDC8CED8C9D
S1133EE0FE8C0F8D18A1FE01719698E011929A959F
S1133EF0E9F7ED8AFE8A0F8B188F2D813E814F8161
S1133F0058856DA17EA18FA198A50E946C203B01CC
S1133F104C012D853E854F85588969A57AA58BA5C9
S1133F209CA50E946C202D893E894F89588D260FAF
S1133F30371F481F591F260D371D481D591D2D8B2E
S1133F403E8B4F8B588F6D887E888F88988C2A2D56
S1133F503B2D4C2D5D2D662D772D882D992DE2E17D
S1133F60AC960C94A720A0E1B0E0E9EBFFE10C943F
S1133F708B20222E332E442E552E662E772E882EFD
S1133F80992E002309F466C088E0FE01319611924F
S1133F908A95E9F729833A834B835C836D837E8317
S1133FA08F829887E0E2E01B1E16CCF52D813E81BE
S1133FB04F815885602F772767FD7095DA01C90115
S1133FC0062E04C0B695A795979587950A94D2F7BF
S1133FD08D879E87AF87B88B04C0220F331F441F81
S1133FE0551FEA95D2F789819A81AB81BC8104C0BF
S1133FF0B695A795979587956A95D2F7282B392B6F
S11340004A2B5B2B29873A874B875C8729843A8420
S11340104B845C846D847E848F8498881BC01D8649
S11340201E861F86188A2E2F332727FD309530953C
S113403021953F4F8D819E81AF81B88504C0B6958F
S1134040A795979587952A95D2F789879A87AB87FD
S1134050BC87DCCF222D332D442D552D662D772D95
S1134060882D992DE2E160960C94A720AA1BBB1B16
S113407051E107C0AA1FBB1FA617B70710F0A61B64
S1134080B70B881F991F5A95A9F780959095BC0185
S1134090CD010895A1E21A2EAA1BBB1BFD010DC080
S11340A0AA1FBB1FEE1FFF1FA217B307E407F507E4
S11340B020F0A21BB30BE40BF50B661F771F881FC0
S11340C0991F1A9469F760957095809590959B0156
S11340D0AC01BD01CF010895629FD001739FF0012F
S11340E0829FE00DF11D649FE00DF11D929FF00D84
S11340F0839FF00D749FF00D659FF00D9927729FBB
S1134100B00DE11DF91F639FB00DE11DF91FBD0145
S1134110CF01112408952F923F924F925F926F9294
S11341207F928F929F92AF92BF92CF92DF92EF9243
S1134130FF920F931F93CF93DF93CDB7DEB7CA1BC4
S1134140DB0B0FB6F894DEBF0FBECDBF09942A88EF
S1134150398848885F846E847D848C849B84AA8497
S1134160B984C884DF80EE80FD800C811B81AA8124
S1134170B981CE0FD11D0FB6F894DEBF0FBECDBFEF
S1134180ED010895DC0101C06D9341505040E0F70A
S11341900895A2E0B0E0EFECF0E20C949B20FE0165
S11341A0379661917191FA83E983AF018091260674
S11341B0909127060E941321E2E022960C94B720E6
S11341C00F931F93CF93DF938C01E0912606F09118
S11341D02706838181FF1FC0C0E0D0E00AC0FD0133
S11341E020853185BD01F9010995892B11F0CFEFA7
S11341F0DFEFF80181918F01A0912606B091270687
S1134200882369F7FD0120853185BD018AE0F90124
S11342100995892B11F0CFEFDFEFCE01DF91CF911C
S11342201F910F910895ABE0B0E0E9E1F1E20C9445
S11342308D203C014B016A01FC01178216828381A7
S113424081FD03C08FEF9FEFDAC1F3013381F401E5
S113425033FD859133FF81914F01882309F4CCC14B
S1134260853239F433FD859133FF81914F018532D5
S113427029F4B30199270E941923E7CF00E04424CD
S113428055244AE00032B0F48B3269F08C3228F4C1
S1134290803251F0833271F40BC08D3239F08033A7
S11342A049F4016028C00260046025C0086023C08E
S11342B0006121C007FD29C0282F20532A3078F43B
S11342C006FF06C0549EC0011124522E580E13C07E
S11342D0449EC0011124422E480E00620CC08E324E
S11342E021F406FD89C1006406C08C3611F400680F
S11342F002C0883651F4F40133FD859133FF819176
S11343004F01882309F46FC0BDCF982F85548330A3
S113431018F08052833038F424E030E0C20ED31E0B
S11343208FE389830FC0933631F0933799F0933537
S113433009F05BC023C0F6018081898322E030E06C
S1134340C20ED31E7E010894E11CF11C51E0A52E7F
S1134350B12C12C0F601E080F18006FD03C06FEFBE
S11343607FEF02C0652D772722E030E0C20ED31E16
S1134370C7010E940E235C010F7713C0F601E08091
S1134380F18006FD03C06FEF7FEF02C0652D772734
S113439022E030E0C20ED31EC7010E9403235C0159
S11343A0006803FF07C01BC0B30180E290E00E94D5
S11343B019234A94842D9927A816B906A8F30FC087
S11343C0F70107FD859107FF81917F01B3019927CB
S11343D00E94192341104A940894A108B108A11419
S11343E0B10471F706C190E03EC0943611F09936DD
S11343F091F507FF0AC0F601608171818281938182
S113440024E030E0C20ED31E0DC0F60180819181FC
S11344109C01B901882777FD8095982F42E050E0F0
S1134420C40ED51E4FE6B42EB02297FF09C0909556
S11344308095709561957F4F8F4F9F4F50E8B52AB7
S11344408E010F5F1F4F2AE030E0A8010E9446232F
S1134450A82EA01A4DC0953731F43FEEF32EF0226A
S11344602AE030E023C029EFF22EF0229F3661F0DB
S1134470903720F4983509F0BFC012C0903739F056
S1134480983709F0B9C005C028E030E00FC080E1DA
S1134490F82AF4FE02C094E0F92A20E130E006C0D4
S11344A0F4FE02C0E6E0FE2A20E132E0F7FE0AC094
S11344B0F601608171818281938144E050E0C40EF1
S11344C0D51E0BC0F60180819181AC01BA01882709
S11344D09927E2E0F0E0CE0EDF1E8E010F5F1F4F42
S11344E0A8010E944623A82EA01A8FE7B82EBF2049
S11344F0B6FE10C0FEEFBF22A51460F42B2D3327A7
S113450024FF1AC022FF02C0052D09C02FEEB222DB
S1134510052D01C00A2D2B2D332724FF0EC0FE01CB
S1134520EA0DF11D8081803319F439EEB32209C0FC
S11345300F5F22FF06C004C0052D822F867809F084
S11345400F5FEB2CFF24E3FC14C0E0FE0FC0041546
S113455010F05A2C0BC0542C501A5A0C042D06C0BF
S1134560B30180E290E00E9419230F5F0415C0F3A9
S113457004C0041510F4401A01C04424E4FE10C021
S1134580B30180E390E00E941923E2FE1EC0E1FE25
S113459003C088E590E002C088E790E0B3010CC056
S11345A08E2D867891F0E1FE02C08BE201C080E29C
S11345B0B7FC8DE2B30199270E94192306C0B30109
S11345C080E390E00E9419235A94A514C0F3AA949E
S11345D0FE01EA0DF11D8181B30199270E9419237F
S11345E0AA2039F0F4CFB30180E290E00E941923AD
S11345F04A944420C1F729CEF30186819781E0E1F2
S11346002B960C94A920FC01059061507040011078
S1134610D8F7809590958E0F9F1F0895FC016150E7
S1134620704001900110D8F7809590958E0F9F1FD0
S113463008950F931F93CF93DF938C01EB018B812C
S1134640992781FF1BC082FF0DC02E813F818C8181
S11346509D812817390764F4E881F9810193F9836E
S1134660E88306C0E885F985802F0995892B31F404
S11346708E819F8101969F838E8302C00FEF1FEF6F
S1134680C801DF91CF911F910F910895FA01AA27D4
S1134690283051F1203181F1E8946F936E7F6E5F81
S11346A07F4F8F4F9F4FAF4FB1E03ED0B4E03CD02F
S11346B0670F781F891F9A1FA11D680F791F8A1F12
S11346C0911DA11D6A0F711D811D911DA11D20D079
S11346D009F468943F912AE0269F11243019305D33
S11346E03193DEF6CF010895462F4770405D419324
S11346F0B3E00FD0C9F7F6CF462F4F70405D4A3371
S113470018F0495D31FD4052419302D0A9F7EACF38
S1134710B4E0A6959795879577956795BA95C9F767
S113472000976105710508959B01AC010A2E06945A
S11347305795479537952795BA95C9F7620F731F13
S10D4740841F951FA01D0895FFCFEC
S113474A4C4544424C494E4B006F66667365743A55
S113475A20256C642C20676C6F62616C3A20256C8E
S113476A642C206C6F63616C256C640A0A00010076
S113477AFFA203D503A20301010022FFFFFFFFFFEB
S113478AFF010000000200000000390E00000000D2
S9030000FC
