S01700006275696C642F697269732F6D61696E2E7372656343
S11300000C947F010C949E010C949E010C949E010F
S11300100C949E010C949E010C949E010C949E01E0
S11300200C949E010C949E010C949E010C949E01D0
S11300300C949E010C9436090C949E010C94830A32
S11300400C9458150C948E150C943F0A0C944A0A7F
S11300500C94550A0C949E010C949E010C949E01E0
S11300600C948A090C9429070C949E010C94AC07F7
S11300700C949E010C949E010C949E010C94030913
S11300800C94E2080C94ED080C94F8080C941609EE
S11300900C94C5080C949E010C94D7080C949E01F2
S11300A00C949E010C949E010C949E010C949E0150
S11300B00C949E010C949E010C949E010C949E0140
S11300C00C949E010C949E010C949E01FD15E11666
S11300D079177B178B17B017ED15F517031811183F
S11300E044189618C71850197319BF19331B2B1CC1
S11300F08F1BA31BF515541C0000211042206330F4
S11301008440A550C660E770088129914AA16BB16B
S11301108CC1ADD1CEE1EFF1311210027332522213
S1130120B5529442F772D662399318837BB35AA3BB
S1130130BDD39CC3FFF3DEE36224433420040114E3
S1130140E664C774A44485546AA54BB5288509950B
S1130150EEE5CFF5ACC58DD55336722611163006B3
S1130160D776F6669556B4465BB77AA7199738875B
S1130170DFF7FEE79DD7BCC7C448E5588668A77873
S11301804008611802282338CCC9EDD98EE9AFF9AB
S1130190488969990AA92BB9F55AD44AB77A966A53
S11301A0711A500A333A122AFDDBDCCBBFFB9EEBFB
S11301B0799B588B3BBB1AABA66C877CE44CC55C23
S11301C0222C033C600C411CAEED8FFDECCDCDDD4B
S11301D02AAD0BBD688D499D977EB66ED55EF44EF3
S11301E0133E322E511E700E9FFFBEEFDDDFFCCF9B
S11301F01BBF3AAF599F788F8891A981CAB1EBA1EF
S11302000CD12DC14EF16FE18010A100C230E3206A
S11302100450254046706760B9839893FBA3DAB312
S11302203DC31CD37FE35EF3B1029012F322D232BA
S11302303542145277625672EAB5CBA5A8958985E2
S11302406EF54FE52CD50DC5E234C324A01481040A
S11302506674476424540544DBA7FAB79987B897B2
S11302605FE77EF71DC73CD7D326F2369106B0165A
S113027057667676154634564CD96DC90EF92FE972
S1130280C899E9898AB9ABA94458654806782768AA
S1130290C018E1088238A3287DCB5CDB3FEB1EFB52
S11302A0F98BD89BBBAB9ABB754A545A376A167AFA
S11302B0F10AD01AB32A923A2EFD0FED6CDD4DCD22
S11302C0AABD8BADE89DC98D267C076C645C454C4A
S11302D0A23C832CE01CC10C1FEF3EFF5DCF7CDFF2
S11302E09BAFBABFD98FF89F176E367E554E745E9A
S11302F0932EB23ED10EF01E00020E060C04112401
S11303001FBECFEFD1E2DEBFCDBF12E0A0E0B2E06E
S1130310E4E0F7E400E00BBF02C007900D92AE34B6
S1130320B107D9F716E0AEE4B2E001C01D92A332E2
S1130330B107E1F70E94991C0C9481230C940000EE
S11303408FB7F894992708958FBF08959FB7F894AD
S1130350282F332720FF02C0129801C0129A21FFD0
S113036002C0119801C0119A22FF02C0109801C066
S1130370109A892F99278FBF0895282F9FB7F89433
S1130380E82FFF27EC57FD4F80818F3F81F4E091E8
S11303901106E21771F40BC020932D0504C0FF274A
S11303A0EC57FD4F20832093110620E007C025E081
S11303B005C080912D058F3F91F7EECF892F9927A6
S11303C08FBF822F99270895EF920F931F93AE2D1D
S11303D099E0899FF0011124E958FC4F408351832F
S11303E0628373830483158326833783A170808596
S11303F08E7F8A2B826080878AE00E94BD011F91D4
S11304000F91EF9008957FB7F8946091B200209116
S11304107F02309180024091810250918202B99B07
S113042011C08091B3009091B200280F311D411D7D
S1130430511D2F5F3F4F4F4F5F4F290F311D411DFE
S1130440511D04C0260F311D411D511D872F9927B1
S11304508FBFCA01B9010895CF93DF93FC018FE3E5
S11304608287809167028F5F80936702DF01119614
S1130470ED018A8380916502882319F085E090E07C
S113048022C080A591A5892B71F0ED012981332724
S1130490322F2227818199278062282B392B2183AF
S11304A0232F33272983F0931104E093100410922F
S11304B00B0410920A0481E0809365028CE00E9490
S11304C0BD0180E090E0DF91CF910895882319F079
S11304D08CB5806402C08CB58F7B8CBD08950F935E
S11304E01F93982F1FB7F89480916602823099F574
S11304F080913D02891779F580913B0220E030E03C
S11305008F3F11F421E030E0232BF1F49FEF90931F
S11305103D028F3F19F42FEF30E00DC0282F332711
S1130520F901E351FD4F808180933B028F3F11F429
S113053090933C0290832093EF0281E080936602C3
S113054083E10E94BD0105C08FEF80933D021092AC
S1130550660201E001C000E0812F99278FBF1FB719
S1130560F89480916602882311F40E946602812F18
S113057099278FBF90E0013009F491E081E098273A
S1130580892F99271F910F910895882319F08CB50D
S1130590806802C08CB58F778CBD08950F931F932C
S11305A080E00E9466020FB7F8941127229A2398DC
S11305B0219A8CB580618CBD80E00E94C5028DB506
S11305C081608DBD8CB5877F8CBD8CB58B7F8CBDD8
S11305D08CB58E7F8CBD81E00E9466020FBF1F9197
S11305E00F9108958FB7F8942091E5023091E602B7
S11305F04091E7025091E802E0918400F091850077
S1130600B09B08C02F5F3F4F4F4F5F4FE091840076
S1130610F091850099278FBFC901772766279F012D
S113062044275527622B732B842B952B0895FC01AB
S113063080A9826080AB08958C960895FC01828124
S11306409927982F882721813327822B932B75E0B4
S1130650969587957A95E1F7817090700895AC012D
S1130660EFB7F8942091840030918500C901841B70
S1130670950B03968617970720F0B9016D5F7F4F9E
S113068002C0640F751F6115710511F461E070E01B
S113069061507040709389006093880082E086BB4B
S11306A080916F00826080936F008E2F99278FBF97
S11306B0089580933705882311F484E001C081E014
S11306C08093D8028EE00E94BD010895CF93DF93FA
S11306D0EC010E941E03882339F18A81298199271C
S11306E0982F88273327822B932B87749C7C8154E3
S11306F09848D1F48F814E812FB7F89433276091B5
S11307003502709136022FBF20E09927982F882751
S11307105527842B952B8617970709F021E081E054
S11307202827822F992702C080E090E0DF91CF91A3
S11307300895EF92FF920F931F937C018FB7F89463
S1130740992700910C0410910D040F5E1E4F109315
S11307500D0400930C04015111408FBF80E10E94ED
S1130760BD01C801B7010E9413208A5D9E4F1F91ED
S11307700F91FF90EF9008951F931FB7F894809105
S11307800906882339F40E94BD01882319F481E005
S113079080930906812F99278FBF1F910895382FC1
S11307A0FA01422F2D3118F082E090E0089566831B
S11307B0872F9927858333872187809153029091CE
S11307C05402892B19F085E090E008952FB7F8942E
S11307D0332785E08093560210925702F093520219
S11307E0E093510282E090E090935402809353028C
S11307F01092590210925802445F409355022FBF41
S11308009FB7F8948091F502882311F020E006C088
S113081081E08093F5021092F60221E0892F992756
S11308208FBF222329F00E94BC0380E090E008954A
S1130830109254021092530281E090E00895CF93F5
S1130840DF93DB01FB0135968183892F9927EB0127
S11308508D8384E6868380916E0390916F03892B48
S113086019F085E090E029C070936F0360936E03E4
S1130870448380913402882319F480E090E01DC001
S11308808681EB016D817727762F662721813327B7
S1130890622B732B10923402242FAD010E94CF03DC
S11308A09927282F882339F081E08093340210920D
S11308B06F0310926E03822F9927DF91CF910895D1
S11308C0DF92EF92FF920F931F938FB7F894282F24
S11308D03327D22E9091B3008091B20047B398177A
S11308E011F041FF02C02FBF71C08091DF02882345
S11308F0E1F10E940302E0907702F0907802009107
S1130900790210917A022091330530913405409197
S11309103505509136056E197F09800B910B6217CE
S113092073078407950720F01092DF0271E01EC060
S11309302E0D3F1D401F511F80917F029091800218
S1130940A0918102B0918202281B390B4A0B5B0BE8
S1130950273E31054105510540F4822F223010F025
S113096070E005C070E082E002C070E086EE682F9F
S113097061508091B60083FDFCCF8091B20068176E
S113098009F46F5F20917F023091800240918102CF
S113099050918202DA01C9010196A11DB11D860F91
S11309A0911DA11DB11D82179307A407B50710F46B
S11309B0622F60958091B60083FDFCCF6093B300F5
S11309C0DFBE772319F089E00E94BD011F910F91CA
S11309D0FF90EF90DF900895AFB7F894BB27E1E064
S11309E0E093DF0260937702709378028093790238
S11309F090937A0220933305309334054093350560
S1130A0050933605AFBF0E94600408958091070497
S1130A108A3021F48091DA02843021F081E08093DD
S1130A204E02089582E00E94BD0110924E02089584
S1130A302FB7F89433278093C600E0ECF0E0808170
S1130A40806480832FBF0895FC016115710519F43A
S1130A5081E090E008958091F0029091F102892B59
S1130A6019F085E090E0089570931B0560931A05D2
S1130A70F093F102E093F0021092DC021092DB0298
S1130A8081E08093DD028091C00080648093C00087
S1130A908091C10080648093C100808121E030E0B6
S1130AA03093DC022093DB020E94180580E090E082
S1130AB008958FB7F894992720915F022E7F209391
S1130AC05F022EE720939A028FBF61E070E08AE90B
S1130AD092E00E94240599270895E8EFF0E0692741
S1130AE0660FF11DE60FF11DC895982F802D3196E4
S1130AF0C89590250895982F80915A02882389F5E6
S1130B00992379F531E030935A0280912D02809334
S1130B105B0220914F02822F817080937D0280912D
S1130B2032029091330290935D0280935C02809133
S1130B30500280935E0232273170267EE32FFF2716
S1130B40EE0FFF1FE25DFD4F808191819093330290
S1130B5080933202232B20934F0285E00E94BD0133
S1130B60089580914F0280FF02C08B7F01C08D7F6A
S1130B7080934F0208950F931F93082F162F80918F
S1130B80DA028130D9F0813038F0823009F44AC079
S1130B90833009F027C159C0002309F457C11092CA
S1130BA013051092120510920F041092260510924C
S1130BB0DE02109273031092720338C1002309F00D
S1130BC045C180917203909173030E946D059093C7
S1130BD073038093720382E08093DA0210932605F4
S1130BE0143409F0FFC024C18695869503C0809112
S1130BF04F028695817009F0F5C080914F029923C8
S1130C0011F0846001C0826080934F0280914F0292
S1130C10877E886080934F02109250028FEF8093FA
S1130C202D0214C1002309F0DDC06093DE0280911F
S1130C307203909173030E946D05909373038093E4
S1130C40720383E08093DA0201C180910F048F3F25
S1130C5009F4C8C0002309F460C0823008F4C2C09B
S1130C60E0911205EE2309F4EAC04E2F4150E42F1F
S1130C70FF27EE5EFA4F82819927382F22274423DB
S1130C8011F4E2E002C0E42FE150FF27EE5EFA4FD8
S1130C9082819927282B392B8091720390917303B9
S1130CA02817390709F09EC080E00E947B05309127
S1130CB0DE028091620320916303982F9F5F963038
S1130CC008F090E0921771F0E82FFF27EE59FC4FDF
S1130CD032838F5F80936203863010F01092620338
S1130CE00E94BC0310921305109212051092DA02AE
S1130CF010920F04109226051092DE0210927303D4
S1130D001092720380915F028D7F80935F028091C5
S1130D104E02882309F49AC081C0823008F44EC080
S1130D20E0911305FF27EE5EFA4F8281482F552785
S1130D30342F20914F02822F869586958695837055
S1130D4099278130910519F00297F9F40EC0277E96
S1130D50206120934F02442311F485E001C080E018
S1130D608093500230932D0210C08091500283333F
S1130D7060F4E0913202F0913302E80FF11D4083F8
S1130D80809150028F5F8093500280911305E82F69
S1130D90FF27EE5EFA4F62818F5F809313058330E5
S1130DA010F01092130577278091720390917303CA
S1130DB00E946D05909373038093720380911205D2
S1130DC0E82FFF27EE5EFA4F12838F5F80931205A0
S1130DD0833010F01092120580910F048F5F80937E
S1130DE00F0434C010921305109212051092DA0207
S1130DF010920F04109226051092DE0210927303D3
S1130E001092720380915F028D7F80935F0281E074
S1130E100E947B0580914E02882331F084E0809308
S1130E20DA020E94060512C0002381F081E00ACF95
S1130E3080914F02982F917080FDD6CED8CE8091AC
S1130E4016059927382F222742E01DCF1F910F91B5
S1130E5008951F920F920FB60F9211242F933F9370
S1130E604F935F936F937F938F939F93AF93BF93AE
S1130E70EF93FF938091C00087FF42C06091C6004A
S1130E80E0917403F0917503309719F1809107068E
S1130E9090910806E80FF91F608301969093080665
S1130EA08093070620911606309117068217930740
S1130EB038F1109275031092740380910604833004
S1130EC0F9F08091C1008F778093C10010920604DD
S1130ED017C06E3719F460E081E010C080915F02A2
S1130EE06D3721F4826080935F020AC081FF05C0E0
S1130EF08D7F80935F0280E2682780E00E94BB05BB
S1130F00FF91EF91BF91AF919F918F917F916F91DD
S1130F105F914F913F912F910F900FBE0F901F90B3
S1130F201895982F8D57823068F480915F02816004
S1130F3080935F0280E2892780930E048DE780937B
S1130F409A0202C090939A0261E070E08AE992E00A
S1130F500E9424059927089578941F920F920FB642
S1130F600F921124FF920F931F932F933F934F934C
S1130F705F936F937F938F939F93AF93BF93CF931D
S1130F80DF93EF93FF932091DB023091DC02809199
S1130F901A0590911B052817390780F4E091F00297
S1130FA0F091F102E20FF31F80812F5F3F4F3093E6
S1130FB0DC022093DB020E941805D1C01092F102DA
S1130FC01092F0021092DD028091C1008F7B809319
S1130FD0C100FFB6F89480915F0280FF0EC08E7F3F
S1130FE080935F0280910E0480939A0261E070E026
S1130FF08AE992E00E942405AFC0809107048430FE
S113100009F48CC0853040F4823021F18330B8F586
S1131010813009F09CC00DC0863009F48DC0863043
S113102008F483C0873009F48EC0883009F08FC07B
S113103091C08091EE020E949107082F83E0809373
S113104007046091EE0280911406909115060E94A7
S11310506D0510C0809131050E949107082F83E02F
S113106080930704609131058091140690911506D0
S11310700E946D05909315068093140666C0E09156
S11310807603FF27EE0FFF1FEC50FD4F80810E9477
S11310909107082F10917603C12FDD27FE01EE0F73
S11310A0FF1FEC50FD4F608180911406909115064E
S11310B00E946D0590931506809314062091EC020E
S11310C02F5F2093EC02113039F580915602E091A4
S11310D05102F0915202E80FF11DE0818F5F80937D
S11310E0560290915502981730F482E08093F502ED
S11310F040E050E002C04E2F5527DE01AA0FBB1F6F
S1131100FD01ED50FD4F8081823031F02F3F21F001
S1131110AC50BD4F4C9319C084E012C080911406AA
S11311200E949107082F85E00BC0809115060E944C
S11311309107082F86E004C00E945905082F87E014
S11311408093070402C088E003C0002329F089E0EB
S1131150809307040E94BC038F2D99278FBFFF91B2
S1131160EF91DF91CF91BF91AF919F918F917F913B
S11311706F915F914F913F912F911F910F91FF902C
S11311800F900FBE0F901F9018951F920F920FB6DD
S11311900F9211248F938091C80087FF02C0809121
S11311A0CE008F910F900FBE0F901F9018957894DA
S11311B01F920F920FB60F9211240F900FBE0F9033
S11311C01F90189578941F920F920FB60F921124C6
S11311D00F900FBE0F901F90189578941F920F9246
S11311E00FB60F9211240F900FBE0F901F901895F9
S11311F078941F920F920FB60F9211240F900FBE86
S11312000F901F90189578941F920F920FB60F921B
S113121011248F939F9380919600909197009F91B2
S11312208F910F900FBE0F901F90189578941F9276
S11312300F920FB60F9211242F933F938F939F9386
S11312402FB7F8943327809170039091710301961E
S113125090937103809370032FBF9F918F913F915F
S11312602F910F900FBE0F901F9018951F920F9201
S11312700FB60F9211242F933F934F935F936F9365
S11312807F938F939F93AF93BF93EF93FF9380913B
S1131290B0008093B0008091B60081FDFCCF8091B6
S11312A0B30099270196AA27BB2720917F0230918A
S11312B080024091810250918202280F391F4A1FF7
S11312C05B1F20937F0230938002409381025093EE
S11312D0820278940E946004FF91EF91BF91AF91D4
S11312E09F918F917F916F915F914F913F912F913A
S11312F00F900FBE0F901F9018951F93182F81E029
S11313000E9466021EBD0DB407FEFDCF8EB599275F
S11313101F9108951F920F920FB60F9211248F926E
S11313209F92AF92BF92CF92DF92EF92FF920F9370
S11313301F932F933F934F935F936F937F938F9359
S11313409F93AF93BF93CF93DF93EF93FF932EB508
S1131350E0910104F0910204309739F080916A031E
S113136090916B03E80FF91F208380916A03909199
S11313706B03019690936B0380936A0380E00E9451
S1131380C502C0916A03D0916B0380916D02909164
S11313906E02C817D90708F044C00091D105109116
S11313A0D20580900104909002042AE0A22EB12C70
S11313B0AC0EBD1E8A159B0508F45C016401CC0EBD
S11313C0DD1E7801EC0EFD1E15C00115110519F086
S11313D0F701808101C080E00E947D09811491049D
S11313E011F0F601808321960894C11CD11C089445
S11313F0E11CF11CC5010197C817D90730F381E03E
S11314000E94C5020115110531F00C0F1D1FF801D2
S113141080818EBD01C01EBCD0936B03C0936A0350
S113142011C010920204109201041092D20510927D
S1131430D10510926E0210926D0210926B031092FD
S11314406A038EB5FF91EF91DF91CF91BF91AF9178
S11314509F918F917F916F915F914F913F912F91C8
S11314601F910F91FF90EF90DF90CF90BF90AF90BE
S11314709F908F900F900FBE0F901F9018957894A7
S11314801F920F920FB60F9211240F900FBE0F9060
S11314901F90189578941F920F920FB60F921124F3
S11314A00F900FBE0F901F90189578941F920F9273
S11314B00FB60F9211242F933F938F939F93AF9363
S11314C0BF932FB7F89433278091E5029091E602F9
S11314D0A091E702B091E8020196A11DB11D80938D
S11314E0E5029093E602A093E702B093E8022FBFCF
S11314F0BF91AF919F918F913F912F910F900FBE0C
S11315000F901F9018951F920F920FB60F921124EF
S11315108F938091B0008093B0008091B60081FDDC
S1131520FCCF8F910F900FBE0F901F90189521E064
S11315302093F202209303042091840030918500CB
S1131540BC01C9010E942F030895EF920F931F93CA
S1131550FC0180818251E80FF11D84858A30E9F411
S1131560662319F081E00E94A6010E940302AB01E8
S1131570BC01EE2400E411E020E030E083E00E94AE
S1131580E40181E090E0A0E0B0E080935E039093FA
S11315905F03A0936003B09361031F910F91EF90D9
S11315A008950F931F93CF93DF93182F0FB7F894D9
S11315B080916602882311F40E94CE02802F99271D
S11315C08FBF8FB7F894C82FDD272C2F8091660228
S11315D0882361F481E0809366021093EF0283E133
S11315E00E94BD01CFBF80E090E021C0E12FFF2722
S11315F0E351FD4F80818F3F89F4E0913C02E11774
S113160089F40CC010933B0204C0FF27E351FD4F43
S1131610108310933C0280E090E002C085E090E0EB
S11316202FBF05C080913B028F3F79F7EBCFDF914D
S1131630CF911F910F9108958FB7F894282F3327D6
S1131640922F80913D02882331F48091660282308A
S113165011F42FBF13C09FBF8FB7F894282F3327DF
S113166080916602882369F482E080936602109276
S11316703D022FBF0E94CE02209A289A81E090E07A
S113168008952FBF80E00E94D10A80E090E0089581
S11316901F93982F1FB7F89480916402823099F5B4
S11316A080913A02891779F58091380220E030E080
S11316B08F3F11F421E030E0232BF1F49FEF90935E
S11316C03A028F3F19F42FEF30E00DC0282F332753
S11316D0F901EF55FD4F8081809338028F3F11F45B
S11316E090933902908320939E0281E08093640258
S11316F08BE00E94BD0105C08FEF80933A021092E7
S1131700640221E001C020E0812F99278FBF90E07F
S1131710213009F491E081E09827892F99271F91BE
S113172008951F93CF93DF93182FFA01A22F2D3121
S113173018F086E090E08EC0EA012196898121812B
S1131740B0E09927582F44273327422B532BCA0143
S113175087749C7C8154984809F4B1E0BB2349F414
S1131760CA0180739070816498688183892F992756
S11317708983A35FA0832FB7F89433278091350220
S1131780909136022FBF8087892F992781872FB7A1
S1131790F8943327809137022FBF992784831582C9
S11317A013876683872F992787838FB7F894282F09
S11317B0332780916402882371F482E08093640269
S11317C010923A022FBFCF010E942C029927182FA2
S11317D0882399F00FC02FBFF093A002E0939F02DB
S11317E08FB7F894C82FDD272C2F809164028823AB
S11317F099F406C080E00E94480B812F99272AC0E3
S113180081E08093640210929E028BE00E94BD01ED
S1131810CFBF80E090E01EC08091A1028F3F89F489
S1131820E0913902EE2369F010C01092380204C02E
S1131830FF27EF55FD4F10821092390280E090E0AF
S113184002C085E090E02FBF05C0809138028F3F31
S113185079F7EBCFDF91CF911F9108950F931F93E9
S1131860CF93DF93182FEB01042FE82FFF27EE0F00
S1131870FF1FE55DFA4F1182108210923E02E09143
S11318802B05F0912C05309721F08091EB0280FF1D
S11318900EC081E080933E0203C085E10E94BD0139
S11318A01123B9F4602FCE010E94A50A12C0208131
S11318B02D50332767817727762F662786819927CE
S11318C0682B792BAF0183850E94910B882341F308
S11318D0E4CFDF91CF911F910F910895809162021F
S11318E08C3118F04CE150E002C0482F55278CE1B0
S11318F0E0EEF5E011928A95E9F790916202809109
S1131900600220E030E0A0EEB5E00FC0E82FFF2732
S1131910EE5EFB4FE081992329F08F5F8A3F09F443
S113192080E09150ED932F5F3F4F2417350771F7F7
S113193090936202809360024CE164ED75E08FEF56
S11319409FEF0E941F04882319F088E00E94BD01C4
S113195008951F93182F80916302813049F4809178
S113196062028D3728F082E0809363020E946E0C3D
S11319708FB7F894282F3327909162029A3FA8F4E6
S113198080916102E82FFF27EE5EFB4F10838F5F8B
S1131990809361028A3F11F4109261029F5F9093D9
S11319A062022FBF80E090E003C02FBF8FEF9FEF54
S11319B01F910895662359F480916202882319F0D7
S11319C00E946E0C089581E080936302089588E07C
S11319D00E94BD010895EF92FF920F931F93CF933E
S11319E0DF93182F7B01042FE82FFF27EE0FFF1F33
S11319F0E259FC4F1182108210923402A0916E03BE
S1131A00B0916F03109721F08091320580FF0EC0D2
S1131A1081E08093340203C087E00E94BD0111235A
S1131A20C9F4602FC7010E94DA0C14C0FD01359679
S1131A3024813327ED016D817727762F66278181F5
S1131A409927682B792BAD0186810E94CF038823C7
S1131A5031F3E2CFDF91CF911F910F91FF90EF907F
S1131A6008958FB7F894282F33278091630282302A
S1131A7021F42FBF80E090E0089590E0809162020D
S1131A80882309F491E0992321F02FBF81E090E0AD
S1131A90089582E0809363022FBF0E946E0C80E061
S1131AA090E008958091D802823031F481E08093EF
S1131AB0D8028EE00E94BD0108958F929F92AF924A
S1131AC0BF92CF92DF92EF92FF920F931F93CF9327
S1131AD0DF935B016C01C0E0D0E0E7E7F3E07C2F2B
S1131AE0608561FF29C12081318142815381E48075
S1131AF0F58006811781D601C501821B930BA40BC7
S1131B00B50B8E159F05A007B10708F415C160FF3A
S1131B1003C06D7F608708C02E0D3F1D401F511FFD
S1131B202083318342835383713009F499C0713027
S1131B3038F0723009F4C8C0733009F003C1C8C06A
S1131B400E9403027B018C016093B402BB27A92F7E
S1131B50982F872F8093B302C801AA27BB278093AD
S1131B60B202812F9927AA27BB278093B1028091C3
S1131B700F0690911006AA27BB278093B802892FDD
S1131B809A2FAB2FBB278093B7021092B602109204
S1131B90B5020E9403025B016C010E94F202EA1882
S1131BA0FB080C091D09FAE0EE0CFF1C001F111FB5
S1131BB0FA95D1F7E60EF71E081F191F8AE08093E5
S1131BC0B902E092BD02BB27A12F902F8F2D8093E5
S1131BD0BC02C801AA27BB278093BB02E12EFF24C5
S1131BE000271127E092BA0245EA52E08091D5021B
S1131BF080618093D5028FEF8093AB028093AC0217
S1131C008DE38093B00280912B0590912C05892B54
S1131C1019F550932C0540932B058AE18093A50276
S1131C2080913E02882309F48DC010923E022DE07B
S1131C306FEF7FEF8DE30E94910B9927282F882364
S1131C4009F480C081E080933E0210922C0510922A
S1131C502B05222309F476C081E00E94A60172C0FC
S1131C600E9403024B015C01C0906802D09069029B
S1131C70E0906A02F0906B02C60ED71EE81EF91EB1
S1131C80D701C6015AE0B695A795979587955A95B9
S1131C90D1F787700E94A6019701860100701C7F0E
S1131CA000501C4F2F4F3F4F0C191D092E093F099F
S1131CB041E0E42EB501A40181E00E94E40180E04A
S1131CC092E00E94BD203EC08CE00E94BD013AC05B
S1131CD020915E0330915F03409160035091610352
S1131CE080912B0290912C02AA27BB272817390731
S1131CF04A075B0711F44798479A23303105410599
S1131D00510569F481E090E0A0E0B0E080935E03C7
S1131D1090935F03A0936003B093610313C02F5F9C
S1131D203F4F4F4F5F4F20935E0330935F034093C9
S1131D3060035093610306C021963996C430D105DF
S1131D4009F0CDCE8AE00E94BD01DF91CF911F91B1
S1131D500F91FF90EF90DF90CF90BF90AF909F9046
S1131D608F9008954F925F926F927F928F929F927D
S1131D70AF92BF92CF92DF92EF92FF920F931F9395
S1131D80CF93DF932C0180916C02882309F085C1E5
S1131D908091D305853009F080C10E941C0B8823F3
S1131DA009F47BC180911705882309F076C160E3AB
S1131DB0862E912C840C951CF20180A982FD02C010
S1131DC090E003C0F20192A99F7080912A039817B2
S1131DD081F090932A03289885EC8EBD0DB407FEFC
S1131DE0FDCF8EB590689EBD0DB407FEFDCF8EB5B8
S1131DF0289AE20121968981F201218140E0992704
S1131E00982F88273327822B932B87749C7C8154AB
S1131E10984809F441E0442301F1289886E88EBDEE
S1131E200DB407FEFDCF8EB51EBC0DB407FEFDCF6D
S1131E308EB5289A99278F7190702091E402409171
S1131E40A202240F312D311D43E0359527954A9583
S1131E50E1F7281739070CF420C1289882EC8EBDCD
S1131E600DB407FEFDCF8EB589E08EBD0DB407FE1F
S1131E70FDCF8EB5289A0E94F2027B018C01D40119
S1131E808C9184FD03C0E0E0F0E005C0F2018081A4
S1131E908550E80FF11D289881E88EBD0DB407FE2A
S1131EA0FDCF8EB51EBC0DB407FEFDCF8EB5289AAE
S1131EB08F71893079F0289882EC8EBD0DB407FEBD
S1131EC0FDCF8EB586E08EBD0DB407FEFDCF8EB579
S1131ED0289AE3C08FB7F89499272F9A2091840009
S1131EE0309185008FBF2F98289880E68EBDD2014F
S1131EF09C910DB407FEFDCF8EB59EBD792F725017
S1131F00773010F4672F01C067E0DE01962F4D9102
S1131F100DB407FEFDCF8EB54EBD9150C1F7615093
S1131F20C60FD11D6F5F21962E193F092E553F4FC5
S1131F303901882477FC8094982C6E0C7F1C801EB9
S1131F40911E309719F4972F961B42C02081E1808F
S1131F508281A3809927AA27BB27BA2FA92F982F5C
S1131F608827332744275527522F442733272227EE
S1131F70FF24002711278701FF24EE242E293F295F
S1131F80402B512BBB24CC24DD242A293B294C296A
S1131F905D29822B932BA42BB52B86199709A809AD
S1131FA0B9098383292F3A2F4B2F552722839D016B
S1131FB04427552721838B2F9927AA27BB27808362
S1131FC0C2CF28810DB407FEFDCF21968EB52EBD5C
S1131FD09150B8F70DB407FEFDCF8EB5289A289816
S1131FE082EC8EBD0DB407FEFDCF8EB586E08EBDAE
S1131FF00DB407FEFDCF8EB5289A3097D1F120811C
S1132000E1808281A3809927AA27BB27BA2FA92F11
S1132010982F8827332744275527522F44273327BF
S11320202227FF24002711278701FF24EE242E29CD
S11320303F29402B512BBB24CC24DD242A293B29C6
S11320404C295D29822B932BA42BB52B860D971D30
S1132050A81DB91D8383292F3A2F4B2F552722837F
S11320609D014427552721838B2F9927AA27BB2716
S11320708083C2010E941703C2010E941C03FC0159
S1132080608271828282938286E08093D30584E0A9
S113209080936C0280E090E002C085E090E0DF91E4
S11320A0CF911F910F91FF90EF90DF90CF90BF9051
S11320B0AF909F908F907F906F905F904F90089516
S11320C0AF92BF92CF92DF92EF92FF920F931F9342
S11320D0CF93DF9380911705882309F4FEC00E94F3
S11320E01C0B882309F4F9C08FB7F8949927C09181
S11320F0E902D091EA028FBF1092170528988FE861
S11321008EBD0DB407FEFDCF8EB51EBC0DB407FE0B
S1132110FDCF8EB5289A982F80916C02833011F0F0
S1132120873031F485E08093D30588E080936C0296
S1132130A92EBB24A2FE5FC080916C02863019F4E4
S113214010926C0203C0882309F055C0943009F042
S113215041C0289886E88EBD0DB407FEFDCF8EB52C
S11321601EBC0DB407FEFDCF2EB5289A2F718091A9
S1132170A202982F96959695322F391B830F809340
S1132180A202E0917B02F0917C0280A98B7F88609F
S113219080AB22AB0E94F2026B017C0100917B02B6
S11321A010917C02C8010E941703C8010E941C03FD
S11321B0FC01CC19DD092797CE01AA2797FDA0952C
S11321C0BA2F8C0D9D1DAE1DBF1D80839183A283EC
S11321D0B3830EC0E0917B02F0917C0280A9877FDB
S11321E080ABE0917B02F0917C0280A98D7F80AB73
S11321F085E080936C02A3FE70C080916C028430F1
S113220009F04EC085E08093D30510926C02809152
S11322107E02833019F410927E025FC0C0911206D0
S1132220D0911306CE010E941E03882389F18A816E
S113223029819927982F88273327822B932B8774FA
S11322409C7C8154984821F58F812E819927982F61
S113225088273327822B932B8F5F9F4FC9F090E001
S113226080910304882309F491E0992389F012E012
S11322701093F20281E08093030480918400909192
S113228085006CEC7AE00E942F0310937E0225C037
S113229010927E021092D90280E00E9459031DC060
S11322A08530D9F42091E402289886E88EBD0DB4D7
S11322B007FEFDCF8EB51EBC0DB407FEFDCF8EB557
S11322C0289A8F71922F96959695891B280F2093A3
S11322D0E40289E080936C0208C090916C02992317
S11322E009F4E4C2993009F011C2289880E28EBD45
S11322F00DB407FEFDCF8EB51EBC0DB407FEFDCF99
S11323008EB5482F5527433008F495C3842F992759
S11323108A970CF090C31EBCE0917B02F0917C0282
S11323204083542F5250573010F4452F01C047E0DA
S1132330DF011196242FFD0160E070E00DB407FE6B
S1132340FDCF8EB51EBC992781936827062E629512
S1132350607F6025072E762F62956F70062666953E
S113236076276727660F660F660F6025215031F7C1
S11323704150A40FB11D4F5F1196E0917B02F09183
S11323807C02818190E08770823009F491E0992386
S113239049F020E030E080917E02823081F421E037
S11323A030E00DC08FB7F894282F332790E0809148
S11323B00C05833008F491E02FBF292F3327232BFA
S11323C009F45CC0952F941B18C00DB407FEFDCF13
S11323D08EB51EBC8C938D916827062E6295607F06
S11323E06025072E762F62956F70062666957627F0
S11323F06727660F660F660F6025915030F70DB49E
S113240007FEFDCF8EB51EBC9B012827022E229508
S1132410207F2025032E322F22952F700226269509
S113242032272327220F220F220F20250DB407FE67
S1132430FDCF8EB51EBC2827022E2295207F202595
S1132440032E322F22952F7002262695322723271A
S1132450220F220F220F20250DB407FEFDCF8EB5CB
S1132460E0917B02F0917C0281AB289A15E01093F5
S1132470D30510926C02232B31F014C20DB407FE65
S1132480FDCF8EB5D8C2E0907B02F0907C0267014C
S11324900894C11CD11CF701818190E0282F3327B7
S11324A0277030702230310509F491E080917E026A
S11324B0992319F1823009F024C1F7019381E09145
S11324C01206F09113068381981709F01AC122307D
S11324D0310509F016C180916F008D7F80936F00E4
S11324E01092030480A9816080AB10927E02109246
S11324F0D90280E00E94590304C18823C9F4C701AA
S11325000E9466038823A1F010932B0382E080933A
S11325102C0310922D03F701838180932E038BE209
S113252093E00E94B20E882319F483E080937E0224
S11325300091840010918500C7010E9466038823DE
S113254011F0045E1C4F10936D0300936C03809193
S11325508400909185009801281B390B12161306EC
S1132560A4F48091D902882369F490E08091030453
S1132570882309F491E0992341F0C9010E94970A44
S113258080E801C080688093D902F60180852781A4
S11325909927582F44273327422B532B80918302AA
S11325A0282F3327F901EE0FFF1FE45EFA4F8081D5
S11325B09181709104048417950769F4F901E65F29
S11325C0F94F8081871709F467C0872F8F5F809345
S11325D0040480831DC000E010E080E090E0CCE1C2
S11325E0D5E0EAE0F6E0DF01682F9C01888199815B
S11325F08417950779F420938302909104048C91B5
S1132600891709F449C0892F8F5F809304048C9340
S113261000E829C08081972F981B091710F4092F0F
S1132620122F6F5FC901019611962296319685305B
S11326309105D1F66530B9F410938302A12FBB271D
S1132640FD01EE0FFF1FE45EFA4F5183408380913A
S113265004048F5F80930404FD01E65FF94F8083D7
S1132660A85EB94F1C9290910404892F8F778F37FD
S113267079F40F3768F0EAE0F6E0292F20788081BA
S11326808F6789132083319636E0EF30F307B9F76B
S113269080918302282F3327F6019281A22FBB2732
S11326A0FD01E85EF94F808180FF07C0FD01E35F13
S11326B0FA4F8081981729F102C081608083A35F5B
S11326C0BA4F9C93DFB6F89480910C058330B0F434
S11326D0E0913005E80FE33008F0E350FF27EE0FF8
S11326E0FF1FEF58FD4F00811181F182E0828F5F5F
S11326F080930C058FE00E94BD0178018D2D9927F0
S11327008FBFF0927C02E0927B02C3C0892F81507C
S1132710833008F09CC081508230E0F43091D305BE
S11327203130C1F420E080910304882309F421E0CE
S1132730222381F02F9883E08093F20230930304E4
S113274080918400909185006BE273E00E942F03D6
S113275082E068C0933009F042C08091D305833091
S113276009F097C00E941C0B8823C9F128988FE8B0
S11327708EBD0DB407FEFDCF8EB51EBC0DB407FE95
S1132780FDCF8EB5289A809181008064809381006A
S113279080E286BB80916F00806280936F0090918D
S11327A09D02289888EC8EBD0DB407FEFDCF8EB532
S11327B090669EBD0DB407FEFDCF8EB5289A28986D
S11327C082EC8EBD0DB407FEFDCF8EB586E08EBDC6
S11327D00DB407FEFDCF8EB5289A84E023C0809106
S11327E06C028150823000F58091D3058530E1F48C
S11327F00E941C0B8823C1F0289882EC8EBD0DB476
S113280007FEFDCF8EB583E08EBD0DB407FEFDCF70
S11328108EB5289A80916F008F7D80936F001092FF
S1132820170583E08093D30590916C02913041F4B5
S11328308091D3058330B1F52F9A9093D30525C0A9
S1132840923039F58091D305833061F51EC09730FD
S113285001F50E941C0B8823E1F090919D022898B9
S113286088EC8EBD0DB407FEFDCF8EB590669EBD7F
S11328700DB407FEFDCF8EB5289A8091D30585301F
S113288021F484E08093D30504C088E080936C0233
S113289004C080916C02883029F410926C028DE09F
S11328A00E94BD0180916C02882309F58091D305B3
S11328B08530D1F4809117058823B1F480917E028C
S11328C0882391F48091D902882371F490E0809157
S11328D00304882309F491E0992331F00E94520DF6
S11328E080916C02882319F481E10E94BD018091DA
S11328F00304823009F092C010920304C090F202E3
S1132900F2E0CF1609F466C023E0C21609F46AC0E7
S113291031E0C31609F082C020916C0330916D033D
S113292080918400909185004091D902403829F427
S11329301092D9020E94520D71C08901081B190B13
S113294047FF03C010161106ECF0C091A302D0910A
S1132950A40280917E028823A9F4CE010E94B20EC3
S11329609927882351F488A98E7F88ABC0927E0270
S1132970D0931306C093120629C09927F82E8823F2
S113298029F102C075E0F72E2091D902822F9927F0
S11329908F77019759F4207822602093D90280E13F
S11329A098E00E9499030E94970A38C027FF0AC042
S11329B0101611063CF480E88093D902C8010E94E5
S11329C0970A02C01092D9028F2D09C083E0809328
S11329D0D90224C010927E021092D90280E00E9493
S11329E059031CC08091D305823019F4C092D305D9
S11329F013C080916C02863079F410926C0228988E
S1132A0081E88EBD0DB407FEFDCF8EB51EBC0DB49E
S1132A1007FEFDCF8EB5289A0E9444158FB7F8940F
S1132A20282F332780919C02813061F081E08093CC
S1132A309C022FBF4FCB289A85E08093D305109238
S1132A406C0230CF10929C022FBFDF91CF911F9167
S1132A500F91FF90EF90DF90CF90BF90AF900895CB
S1132A608FB7F894282F332780919C02815080934C
S1132A709C02803811F02FBF089581E080939C025E
S1132A802FBF0E94601008958FB7F894282F332722
S1132A9080919C02882329F0806880939C022FBF38
S1132AA0089581E080939C022FBF0E9460100895D6
S1132AB078941F920F920FB60F9211242F933F9385
S1132AC04F935F936F937F938F939F93AF93BF9332
S1132AD0EF93FF93E6E8F0E08081918120813181DA
S1132AE08FB7F89499273093EA022093E90221E002
S1132AF0209317058FBF0E944415FF91EF91BF915A
S1132B00AF919F918F917F916F915F914F913F9181
S1132B102F910F900FBE0F901F90189578941F92CD
S1132B200F920FB60F9211242F933F934F935F93FD
S1132B306F937F938F939F93AF93BF93EF93FF9381
S1132B4080916F008D7F80936F0078949FB7F89485
S1132B5080910304813019F482E080930304892F67
S1132B6099278FBF0E944415FF91EF91BF91AF91B8
S1132B709F918F917F916F915F914F913F912F9191
S1132B800F900FBE0F901F9018952F923F924F9267
S1132B905F926F927F928F929F92AF92BF92CF92E9
S1132BA0DF92EF92FF920F931F93CF93DF93CDB7F2
S1132BB0DEB72B970FB6F894DEBF0FBECDBFE82F5C
S1132BC0FF27E631F10508F07EC6EA59FF4FEE0F04
S1132BD0FF1F0590F491E02D09948091320588231C
S1132BE009F471C690E011E0DDC18091EB02882305
S1132BF009F469C690E011E035C68FB7F8941092D5
S1132C0009062091070440E0283009F441E030E04F
S1132C10293009F431E0442311F4332351F01092A4
S1132C200704E0917603FF27EE0FFF1FED50FD4FE1
S1132C30108299278FBF442311F4332331F19FB7B6
S1132C40F894809131058F5F809331058091EE0275
S1132C50833479F42091630380916203821779F0BD
S1132C60822F8F5F80936303863048F01092630352
S1132C7006C0A0E0442309F4A1E071E002C0A0E092
S1132C8070E0892F99278FBF06C0222311F010E02E
S1132C906CC0A0E070E08FB7F894992720914E02A1
S1132CA08FBF222341F08FB7F89499272AE020930D
S1132CB007048FBF42C08FB7F89499276091F3023D
S1132CC04091F5028FBF8FB7F894282F332750E037
S1132CD09091620380916303981709F451E02FBF28
S1132CE0552341F5662331F55FB7F89482E080936C
S1132CF0F3028FB7F894282F332740E090916203B2
S1132D0080916303981709F441E02FBF442311F025
S1132D1080E006C0E0916303FF27EE59FC4F8281F7
S1132D208093F40283E48093EE0210927603852F5D
S1132D3099270EC04150423010F010E00BC08FB7FD
S1132D40F894992725E42093EE0221E0209376035A
S1132D508FBF11E0772349F08FB7F8949927A09398
S1132D6057028FBF84E00E94BD018FB7F894E82E0C
S1132D70FF24809107048A3021F40E940605EFBEE7
S1132D80A2C5EFBE112309F49EC52FB7F8943327CB
S1132D9010921506109214061092EC0281E08093B2
S1132DA007042FBF0E945905882309F48CC58FB7E7
S1132DB0F894992729E0209307048FBF0E94BC034D
S1132DC082C58091C1008F7B8093C1008091C10036
S1132DD08F778093C100109206041092DD028091D7
S1132DE0C10088608093C1008091C100806180939C
S1132DF0C1008091C10080688093C100809163020A
S1132E00882309F060C58FE392E0909320068093B5
S1132E101F068FB7F894992721E0209363028FBF90
S1132E2081E00E94BD0181E090E0A0E0B0E08093E9
S1132E305E0390935F03A0936003B09361032FB785
S1132E40F894332780919C028F5F80939C022FBF5C
S1132E508091D8028823D9F480916C028823B9F434
S1132E608091D305813049F490E080910304882354
S1132E7009F491E0992359F002C0853041F083E0D0
S1132E8080936C020E94441585E08093D8020E94CE
S1132E903015109268021092690210926A02109220
S1132EA06B020E940302AB01BC01EE2400E014E0BB
S1132EB020E030E081E00E94E40180912B029091B7
S1132EC02C02019759F40E940302AB01BC0100E4F7
S1132ED011E020E030E083E00E94E401109210064B
S1132EE010920F061092700210926F023F9A479A46
S1132EF0EAC483E093C08091C100877F8093C100BE
S1132F008091C1008F7E8093C1008FB7F894992778
S1132F101092630217C410925402109253028FB796
S1132F20F8949927409157028FBF809158028111DC
S1132F3043E020915102309152028091590288233A
S1132F4009F0C1C480913402882309F0BCC46091A3
S1132F506E0370916F036217730709F0B4C450C015
S1132F608FB7F894992720915C0230915D024091CB
S1132F707D028FBF8FB7F894E42FFF27EE0FFF1F5A
S1132F80E25DFD4F3183208320914F02442311F0F1
S1132F902B7F01C02D7F20934F0210925A02992754
S1132FA08FBF91C420913205812F8223C1F0E92F74
S1132FB0FF27EE0FFF1FE259FC4F40815181118220
S1132FC01082812F8095282320933205992339F488
S1132FD063E0CA010E94DA0C110F91E0E3CF9F5F16
S1132FE0983008F070C4110FDDCF80913402E82FBF
S1132FF0FF27EE0FFF1FE259FC4F6081718141E012
S11330000E94EB0C60C44CE164ED75E08FEF9FEF20
S11330100E941F04882309F456C488E00E94BD015D
S113302052C480919B02882361F520912705309139
S113303028054091290550912A05EFB7F894FF27F8
S113304060917702709178028091790290917A026E
S1133050E0903305F0903405009135051091360564
S11330606E0D7F1D801F911FEFBF209327053093A6
S113307028054093290550932A0510929B020E942B
S1133080EC040E9403023FC00E9403025B016C0136
S11330908FB7F89499271092DF028FBF2FEF3FEF7D
S11330A04FEF5FE760E0E7E7F3E0808581FF1CC056
S11330B080819181A281B38186017501E81AF90AA0
S11330C00A0B1B0BD801C701E480F5800681178128
S11330D0E81AF90A0A0B1B0BE216F3060407150794
S11330E01CF4A801970161E0399603E0EB39F0077D
S11330F0E1F6662309F4E7C312161306140615064F
S11331002CF0C601B5010E945D0DDDC32093270597
S1133110309328054093290550932A0581E0809334
S11331209B02C601B5010E94EC04CDC32FB7F894ED
S1133130332780919E0280933A0282E08093640256
S11331402FBF80913A02882309F0BDC380919F026A
S11331509091A0020E942C02082F1127002309F449
S1133160B2C380E00E94480B20919F023091A002DC
S113317080913E02882309F0A6C360912B057091CB
S11331802C056217730709F09EC3402F98C3E09182
S11331901004F091110420A531A51091650212309C
S11331A061F52115310519F080A980FF02C084E082
S11331B01FC080910A0490910B04019690930B0414
S11331C080930A048217930790F481E08093650248
S11331D002A513A50115110591F00E940302AB018C
S11331E0BC0122273327B1E0EB2E82E070C085E0DA
S11331F0809365021091650226C0113021F582E0AA
S11332008093650240911004509111042FB7F894F3
S1133210332780919C028F5F80939C022FBF809103
S1133220D802882369F4509309044093080481E088
S11332308093D802109205048EE00E94BD0197C0CD
S11332400E9430159AC0143008F43DC3232B51F06A
S1133250E0911004F091110480910A0490910B0400
S113326091A780A710926502E0901004F0901104D9
S1133270F70182858F3309F026C380E00E94480B52
S113328080913E02882309F01EC360912B05709142
S11332902C056E157F0509F016C31450412F0FC37A
S11332A08091D8021092D8028530A1F480912B022B
S11332B090912C02019709F006C30E940302AB010E
S11332C0BC01EE2400E816E120E030E080E00E943A
S11332D0E401F9C2863009F4F6C2873009F4F3C276
S11332E08093D802F0C22FB7F894332780919C02C0
S11332F08F5F80939C022FBF4091D802413071F5BB
S1133300809105048F5F80930504863038F5209101
S11333100804309109048091D9028823C1F490E013
S113332080910304882309F491E0992381F0309378
S1133330A4022093A3024093D9028BED91E10E9451
S113334099030E94970A1092370583E004C085E030
S11333508093370582E08093D80209C01092D80286
S11333600E94301580913705882321F406C00E94FD
S11333703015A9C28C5F809365028CE04FCE8FB765
S1133380F894282F332780910C05882309F49AC2D6
S1133390E0913005FF27EE0FFF1FEF58FD4F01901E
S11333A0F081E02DFB87EA872FBF828597812681F4
S11333B08F3309F020C16385892F9927582F44271B
S11333C0822F9927482B592B8FB7F894992720914E
S11333D03502309136028FBF4217530721F04F5FF9
S11333E05F4F09F022C16D3309F01FC1EA85FB85E7
S11333F0808182513C96DF01A80FB11D3C97FB8769
S1133400EA878C918A3009F010C180A981FF0DC12F
S1133410FD012181E2808381A4809927AA27BB270B
S11334206624782E892E9A2E332744275527522F27
S1133430442733272227FF24002711278701FF244D
S1133440EE242E293F29402B512BBB24CC24DD24F0
S11334502A293B294C295D29622A732A842A952A20
S1133460F0E06F16F0E07F06F0E08F06F0E89F06CC
S113347009F4DBC08A859B850E941C03FC01208023
S11334803180428053800E94F2027B018C010E94B1
S113349003022E183F08400A510A3AE05594479413
S11334A0379427943A95D1F72AE0959487947794A2
S11334B067942A95D1F7660E771E881E991E260CEE
S11334C0371C481C591CEA85FB8584852585A68400
S11334D0E784BB24CC24DD24DC2CCB2CBA2CAA24FA
S11334E09927AA27BB27B82FAA27992788273327E4
S11334F044275527A90133272227822B932BA42B5A
S1133500B52BFF24002711278E299F29A02BB12B2F
S1133510A82AB92ACA2ADB2A8089E18822896388F1
S1133520332744275527542F432F322F22279927F7
S1133530AA27BB27B82FAA2799278827FF24002763
S113354011278701FF24EE248E299F29A02BB12B5C
S113355077248824992486299729A829B929282BEE
S1133560392B4A2B5B2B3093100620930F06D60180
S1133570C50182199309A409B5098093680290933F
S11335806902A0936A02B0936B025F924F923F92DA
S11335902F92DF92CF92BF92AF92BF93AF939F933C
S11335A08F9386E092E09F938F930E94A6200E94BF
S11335B0310D0E940302AB01BC01EE2400E411E0D2
S11335C020E030E083E00E94E40181E090E0A0E0AC
S11335D0B0E080935E0390935F03A0936003B09385
S11335E061030DB71EB7025F1F4F0FB6F8941EBFDD
S11335F00FBE0DBF1AC0892F9927582F4427822F39
S11336009927482B592B8FB7F89499272091350285
S1133610309136028FBF4217530719F04F5F5F4F47
S113362021F48FB7F89499278FBF9FB7F8948091AE
S11336303005E82FFF27EE0FFF1FEF58FD4F2A85B7
S11336403B85318320838F5F80933005833010F076
S11336501092300580910C05815080930C05892FC0
S113366099278FBF8CCE3FB73983F8942090E0021E
S11336703090E1024090E2025090E3026624772405
S11336808824AEE4AA2EF3E8BF2ECC24DD24EE2455
S1133690FF2400E010E0222D332D442D552D662DFE
S11336A0772D882D90E00E94921E2A833B834C83C1
S11336B05D836E837F8388879987822E932EA42EC1
S11336C0B52E2401350100E20E94901FA22EB32ED4
S11336D0C42ED52EA301920156954795379527956B
S11336E02A0D3B1D4C1D5D1D57FF05C05F772F5FE5
S11336F03F4F4F4F5F4F2093E0023093E1024093DE
S1133700E2025093E3026981862F99278FBF8FB716
S1133710F894992730930D0420930C0413C08FB7A9
S1133720F894992710920204109201041092D20581
S11337301092D10510926E0210926D0210926B03DA
S113374010926A032DCC2FB7F89433278091EF029F
S113375080933D0282E0809366022FBF80913D02F8
S1133760882309F0B0C0209A289A8091D305882331
S113377009F075C08EEF91E0019701960197E1F78A
S113378016982F9886E090E0019701960197E1F74B
S1133790169A289883EC8EBD0DB407FEFDCF8EB526
S11337A01EBC0DB407FEFDCF8EB5289A289882EC76
S11337B08EBD0DB407FEFDCF8EB588E08EBD0DB471
S11337C007FEFDCF8EB5289A8EEF91E00197019602
S11337D00197E1F728988EEC8EBD0DB407FEFDCF5E
S11337E08EB58DE48EBD0DB407FEFDCF8EB5289A3F
S11337F0289889EC8EBD0DB407FEFDCF8EB587ECFD
S11338008EBD0DB407FEFDCF8EB5289A289885ECA1
S11338108EBD0DB407FEFDCF8EB580E88EBD0DB410
S113382007FEFDCF8EB5289A10922A038BE0809371
S11338309D02289888EC8EBD0DB407FEFDCF8EB591
S11338408BE68EBD0DB407FEFDCF8EB5289A2F9A58
S113385081E08093D30580E00E946F0234C00E940F
S1133860441531C02091EB02812F8223C1F0E92F4E
S1133870FF27EE0FFF1FE55DFA4F40815181118252
S11338801082812F809528232093EB02992339F409
S113389063E0CA010E94A50A110F91E0E3CF9F5F84
S11338A0983088F4110FDECF80913E02E82FFF2775
S11338B0EE0FFF1FE55DFA4F6081718141E00E94C8
S11338C02E0C01C02FBF2B960FB6F894DEBF0FBE8F
S11338D0CDBFDF91CF911F910F91FF90EF90DF90BB
S11338E0CF90BF90AF909F908F907F906F905F909C
S11338F04F903F902F90089580912D058F3FB1F008
S1133900282F3327F901EC57FD4F808180932D0533
S11339108F3F11F4809311068FEF80832F3F31F096
S1133920822F0E94C51581E090E0089580E090E028
S11339300895FF920F931F93FFB6F89414BE88E185
S11339400FB6F89480936000109260000FBE46E1B9
S113395050E06FEF70E084E892E00E949F208FEFC8
S113396080932D058093110656985E9854985C9820
S113397080916F008F7D80936F00209A289A279AF8
S11339802F980E9A169A87EF92E090937C02809378
S11339907B021092E4028AE58093A20281E0809384
S11339A0810080E28093B60083E08093B10080912F
S11339B08400909185004AE720918400309185002D
S11339C02817390708F44150442311F0C901F4CFF2
S11339D09091B2008091B2008917E1F320918400A4
S11339E0309185009091B2008091B2008917E1F383
S11339F08091840090918500821B930B4096F5E0A2
S1133A0096958795FA95E1F790932F0580932E0567
S1133A101092B1008091B100809381008091810067
S1133A208093B6001092B200109285001092840028
S1133A308FEF87BB87B386BB8091B6008571E1F7B2
S1133A400A9A099A089A129A119A109A18B88FEF3A
S1133A5087B90C9814981092850010928400809174
S1133A606F00816080936F0080918100887F826005
S1133A7080938100109295001092940080917100BF
S1133A8081608093710080919100887F826080932F
S1133A9091000E947C1C8823E1F78FEF8093ED0254
S1133AA080E00E94D10A20912B0230912C022F5FDA
S1133AB03F4FC901AA27BB278093E0029093E102FC
S1133AC0A093E202B093E30288E395E0909372023C
S1133AD080937102C39690937402809373028EE96B
S1133AE095E090937602809375028FEF9FEF909309
S1133AF01D0580931C0590931F0580931E059093CC
S1133B0021058093200590932305809322059093AB
S1133B1025058093240580912B028295807F8093D4
S1133B2067028FEF8093A1028091B6008062809338
S1133B30B6008091B60081FDFCCF82E08093B00096
S1133B408091B60080FDFCCF83E08093B10080912A
S1133B50B60083FDFCCF86EE8093B30080917000A5
S1133B608260809370000E94600412E006E060911D
S1133B702E0570912F0588279927ECE0660F771F93
S1133B80881F991FEA95D1F720E031EE40E050E01C
S1133B900E942720215030402093C400832F99276E
S1133BA08093C5001093C0000093C2001092C1001E
S1133BB02093CC008093CD001093C8000093CA00DA
S1133BC01092C90084E490E090931905809318053D
S1133BD01092F3021092F502109207041092EC0274
S1133BE01092EE02109231051092150610921406EE
S1133BF01092090610927603109213051092120582
S1133C001092DA0210920F04109226051092DE022E
S1133C101092730310927203109263031092620362
S1133C200E947C1C8823E1F78F2D99278FBF7894FD
S1133C3081E00E94BD018FB7F894482F552757C0E3
S1133C4080917000992783709070892B19F4E5E0B6
S1133C50F0E014C08091B6008A71E1F78091B3005E
S1133C609091B200891B8C3038F08091B200853F6E
S1133C7018F4E3E0F0E002C0E2E0F0E080916E00CE
S1133C80867009F580916F008E72E9F4809171005D
S1133C908E72C9F40CB407FC16C08091C1008871FF
S1133CA091F48091C900887171F48091BC0082FD07
S1133CB00AC080917A0087FF03C081E090E005C0CC
S1133CC085E090E002C080E090E023B78E1708F40E
S1133CD0E82FFF27E850FD4FE491207F2160E22B7D
S1133CE0E3BF78948895F89483B78E7F83BF8091DF
S1133CF02D058F3F09F4A4CF282F3327F901EC5762
S1133D00FD4F808180932D058F3F11F48093110620
S1133D108FEF80832F3F09F493CF4FBF822F0E94F0
S1133D20C51589CFACE2B0E0E8E9FEE10C94682067
S1133D30222E332E442E552E662E772E882E992E23
S1133D40FE013196A8E01192AA95E9F729823A82F8
S1133D504B825C826D827E828F829886FE013996C8
S1133D60B8E01192BA95E9F7A986BA86CB86DC86C3
S1133D70ED86FE860F87188B89819A81AB81BC8181
S1133D8089A79AA7ABA7BCA77C018D018FEF9FEFF2
S1133D90A0E0B0E0E822F9220A231B2389A59AA512
S1133DA0ABA5BCA51D014424552489859A85AB8502
S1133DB0BC858DA39EA3AFA3B8A75C016D018FEF53
S1133DC09FEFA0E0B0E0A822B922CA22DB228DA195
S1133DD09EA1AFA1B8A53D0188249924C801B701CB
S1133DE0A60195010E94492069A37AA38BA39CA3F1
S1133DF0C801B701A40193010E9449207B018C01F1
S1133E00C201B101A60195010E9449205B016C0128
S1133E10C201B101A40193010E9449203B014C015C
S1133E20EA0CFB1C0C1D1D1D89A19AA1ABA1BCA110
S1133E309D01442755272E0D3F1D401F511F2A1554
S1133E403B054C055D0540F480E090E0A1E0B0E066
S1133E50680E791E8A1E9B1ECA01AA27BB27860DDF
S1133E60971DA81DB91D8D8F9E8FAF8FB8A3A90173
S1133E703327222789A19AA1ABA1BCA1A070B0705D
S1133E80280F391F4A1F5B1F298F3A8F4B8F5C8F76
S1133E90A98CBA8CCB8CDC8CED8CFE8C0F8D18A18C
S1133EA0FE01719698E011929A95E9F7ED8AFE8ADF
S1133EB00F8B188F2D813E814F8158856DA17EA176
S1133EC08FA198A50E9449203B014C012D853E8578
S1133ED04F85588969A57AA58BA59CA50E94492080
S1133EE02D893E894F89588D260F371F481F591F2A
S1133EF0260D371D481D591D2D8B3E8B4F8B588F1A
S1133F006D887E888F88988C2A2D3B2D4C2D5D2DB5
S1133F10662D772D882D992DE2E1AC960C948420A2
S1133F20A0E1B0E0E6E9FFE10C946820222E332EF4
S1133F30442E552E662E772E882E992E002309F4B2
S1133F4066C088E0FE01319611928A95E9F72983CB
S1133F503A834B835C836D837E838F829887E0E210
S1133F60E01B1E16CCF52D813E814F815885602FB4
S1133F70772767FD7095DA01C901062E04C0B6954E
S1133F80A795979587950A94D2F78D879E87AF87D3
S1133F90B88B04C0220F331F441F551FEA95D2F774
S1133FA089819A81AB81BC8104C0B695A795979508
S1133FB087956A95D2F7282B392B4A2B5B2B2987B7
S1133FC03A874B875C8729843A844B845C846D846C
S1133FD07E848F8498881BC01D861E861F86188A3F
S1133FE02E2F332727FD3095309521953F4F8D8116
S1133FF09E81AF81B88504C0B695A795979587959E
S11340002A95D2F789879A87AB87BC87DCCF222D84
S1134010332D442D552D662D772D882D992DE2E1D4
S113402060960C948420AA1BBB1B51E107C0AA1FF5
S1134030BB1FA617B70710F0A61BB70B881F991F45
S11340405A95A9F780959095BC01CD010895A1E2F8
S11340501A2EAA1BBB1BFD010DC0AA1FBB1FEE1FFE
S1134060FF1FA217B307E407F50720F0A21BB30B49
S1134070E40BF50B661F771F881F991F1A9469F7C5
S113408060957095809590959B01AC01BD01CF0121
S11340900895629FD001739FF001829FE00DF11D8E
S11340A0649FE00DF11D929FF00D839FF00D749FAE
S11340B0F00D659FF00D9927729FB00DE11DF91F5A
S11340C0639FB00DE11DF91FBD01CF0111240895B7
S11340D02F923F924F925F926F927F928F929F9214
S11340E0AF92BF92CF92DF92EF92FF920F931F9302
S11340F0CF93DF93CDB7DEB7CA1BDB0B0FB6F894B3
S1134100DEBF0FBECDBF09942A88398848885F84F2
S11341106E847D848C849B84AA84B984C884DF8063
S1134120EE80FD800C811B81AA81B981CE0FD11D47
S11341300FB6F894DEBF0FBECDBFED010895DC01CC
S113414001C06D9341505040E0F70895A2E0B0E003
S1134150ECEAF0E20C947820FE01379661917191BB
S1134160FA83E983AF0180911F06909120060E9493
S1134170F020E2E022960C9494200F931F93CF93A7
S1134180DF938C01E0911F06F0912006838181FF6B
S11341901FC0C0E0D0E00AC0FD0120853185BD010B
S11341A0F9010995892B11F0CFEFDFEFF801819127
S11341B08F01A0911F06B0912006882369F7FD01A5
S11341C020853185BD018AE0F9010995892B11F01B
S11341D0CFEFDFEFCE01DF91CF911F910F910895C3
S11341E0ABE0B0E0E6EFF0E20C946A203C014B0156
S11341F06A01FC0117821682838181FD03C08FEF5F
S11342009FEFDAC1F3013381F40133FD859133FF6C
S113421081914F01882309F4CCC1853239F433FDEF
S1134220859133FF81914F01853229F4B301992798
S11342300E94F622E7CF00E0442455244AE00032ED
S1134240B0F48B3269F08C3228F4803251F083322E
S113425071F40BC08D3239F0803349F4016028C009
S11342600260046025C0086023C0006121C007FD0E
S113427029C0282F20532A3078F406FF06C0549E04
S1134280C0011124522E580E13C0449EC0011124A3
S1134290422E480E00620CC08E3221F406FD89C104
S11342A0006406C08C3611F4006802C0883651F4EC
S11342B0F40133FD859133FF81914F01882309F483
S11342C06FC0BDCF982F8554833018F0805283304F
S11342D038F424E030E0C20ED31E8FE389830FC08C
S11342E0933631F0933799F0933509F05BC023C0CE
S11342F0F6018081898322E030E0C20ED31E7E0164
S11343000894E11CF11C51E0A52EB12C12C0F60159
S1134310E080F18006FD03C06FEF7FEF02C0652DE2
S1134320772722E030E0C20ED31EC7010E94EB22A1
S11343305C010F7713C0F601E080F18006FD03C035
S11343406FEF7FEF02C0652D772722E030E0C20EC9
S1134350D31EC7010E94E0225C01006803FF07C06E
S11343601BC0B30180E290E00E94F6224A94842D9F
S11343709927A816B906A8F30FC0F70107FD859180
S113438007FF81917F01B30199270E94F622411012
S11343904A940894A108B108A114B10471F706C1A4
S11343A090E03EC0943611F0993691F507FF0AC0AB
S11343B0F601608171818281938124E030E0C20E34
S11343C0D31E0DC0F601808191819C01B90188271B
S11343D077FD8095982F42E050E0C40ED51E4FE63D
S11343E0B42EB02297FF09C0909580957095619581
S11343F07F4F8F4F9F4F50E8B52A8E010F5F1F4F9D
S11344002AE030E0A8010E942323A82EA01A4DC060
S1134410953731F43FEEF32EF0222AE030E023C04A
S113442029EFF22EF0229F3661F0903720F4983570
S113443009F0BFC012C0903739F0983709F0B9C0FD
S113444005C028E030E00FC080E1F82AF4FE02C085
S113445094E0F92A20E130E006C0F4FE02C0E6E070
S1134460FE2A20E132E0F7FE0AC0F6016081718184
S11344708281938144E050E0C40ED51E0BC0F60146
S113448080819181AC01BA0188279927E2E0F0E0AC
S1134490CE0EDF1E8E010F5F1F4FA8010E94232343
S11344A0A82EA01A8FE7B82EBF20B6FE10C0FEEFCC
S11344B0BF22A51460F42B2D332724FF1AC022FF3A
S11344C002C0052D09C02FEEB222052D01C00A2D10
S11344D02B2D332724FF0EC0FE01EA0DF11D808130
S11344E0803319F439EEB32209C00F5F22FF06C0EE
S11344F004C0052D822F867809F00F5FEB2CFF2472
S1134500E3FC14C0E0FE0FC0041510F05A2C0BC0DD
S1134510542C501A5A0C042D06C0B30180E290E0CA
S11345200E94F6220F5F0415C0F304C0041510F4B2
S1134530401A01C04424E4FE10C0B30180E390E0BB
S11345400E94F622E2FE1EC0E1FE03C088E590E070
S113455002C088E790E0B3010CC08E2D867891F0FC
S1134560E1FE02C08BE201C080E2B7FC8DE2B30140
S113457099270E94F62206C0B30180E390E00E94CE
S1134580F6225A94A514C0F3AA94FE01EA0DF11D73
S11345908181B30199270E94F622AA2039F0F4CF31
S11345A0B30180E290E00E94F6224A944420C1F7CD
S11345B029CEF30186819781E0E12B960C94862025
S11345C0FC010590615070400110D8F780959095DA
S11345D08E0F9F1F0895FC016150704001900110DF
S11345E0D8F7809590958E0F9F1F08950F931F9372
S11345F0CF93DF938C01EB018B81992781FF1BC043
S113460082FF0DC02E813F818C819D81281739073F
S113461064F4E881F9810193F983E88306C0E885AD
S1134620F985802F0995892B31F48E819F8101961C
S11346309F838E8302C00FEF1FEFC801DF91CF91DC
S11346401F910F910895FA01AA27283051F12031C2
S113465081F1E8946F936E7F6E5F7F4F8F4F9F4F12
S1134660AF4FB1E03ED0B4E03CD0670F781F891F54
S11346709A1FA11D680F791F8A1F911DA11D6A0F22
S1134680711D811D911DA11D20D009F468943F91D5
S11346902AE0269F11243019305D3193DEF6CF01D4
S11346A00895462F4770405D4193B3E00FD0C9F79A
S11346B0F6CF462F4F70405D4A3318F0495D31FD07
S11346C04052419302D0A9F7EACFB4E0A69597955A
S11346D0879577956795BA95C9F700976105710530
S11346E008959B01AC010A2E06945795479537957A
S11346F02795BA95C9F7620F731F841F951FA01DD4
S10747000895FFCF46
S113470448656C6C6F006F66667365743A20256C3B
S1134714642C20676C6F62616C3A20256C642C20D5
S11347246C6F63616C256C640A0A000100FF9B03CF
S1134734CE039B0301010022FFFFFFFFFFFF0100E3
S111474400000200000000A90C0000000000AC
S9030000FC
