S01700006275696C642F697269732F6D61696E2E7372656343
S11300000C947F010C949E010C949E010C949E010F
S11300100C949E010C949E010C949E010C949E01E0
S11300200C949E010C949E010C949E010C949E01D0
S11300300C949E010C9418090C949E010C94650A6E
S11300400C94E6130C941C140C94210A0C942C0AA2
S11300500C94370A0C949E010C949E010C949E01FE
S11300600C946C090C940B070C949E010C948E0751
S11300700C949E010C949E010C949E010C94E50832
S11300800C94C4080C94CF080C94DA080C94F80867
S11300900C94A7080C949E010C94B9080C949E012E
S11300A00C949E010C949E010C949E010C949E0150
S11300B00C949E010C949E010C949E010C949E0140
S11300C00C949E010C949E010C949E0127160B1710
S11300D09D179F17AF17D417171619182718351817
S11300E06818BA18EB1874199719E3193F1B371CD1
S11300F09B1BAF1B1F16601C0000211042206330A5
S11301008440A550C660E770088129914AA16BB16B
S11301108CC1ADD1CEE1EFF1311210027332522213
S1130120B5529442F772D662399318837BB35AA3BB
S1130130BDD39CC3FFF3DEE36224433420040114E3
S1130140E664C774A44485546AA54BB5288509950B
S1130150EEE5CFF5ACC58DD55336722611163006B3
S1130160D776F6669556B4465BB77AA7199738875B
S1130170DFF7FEE79DD7BCC7C448E5588668A77873
S11301804008611802282338CCC9EDD98EE9AFF9AB
S1130190488969990AA92BB9F55AD44AB77A966A53
S11301A0711A500A333A122AFDDBDCCBBFFB9EEBFB
S11301B0799B588B3BBB1AABA66C877CE44CC55C23
S11301C0222C033C600C411CAEED8FFDECCDCDDD4B
S11301D02AAD0BBD688D499D977EB66ED55EF44EF3
S11301E0133E322E511E700E9FFFBEEFDDDFFCCF9B
S11301F01BBF3AAF599F788F8891A981CAB1EBA1EF
S11302000CD12DC14EF16FE18010A100C230E3206A
S11302100450254046706760B9839893FBA3DAB312
S11302203DC31CD37FE35EF3B1029012F322D232BA
S11302303542145277625672EAB5CBA5A8958985E2
S11302406EF54FE52CD50DC5E234C324A01481040A
S11302506674476424540544DBA7FAB79987B897B2
S11302605FE77EF71DC73CD7D326F2369106B0165A
S113027057667676154634564CD96DC90EF92FE972
S1130280C899E9898AB9ABA94458654806782768AA
S1130290C018E1088238A3287DCB5CDB3FEB1EFB52
S11302A0F98BD89BBBAB9ABB754A545A376A167AFA
S11302B0F10AD01AB32A923A2EFD0FED6CDD4DCD22
S11302C0AABD8BADE89DC98D267C076C645C454C4A
S11302D0A23C832CE01CC10C1FEF3EFF5DCF7CDFF2
S11302E09BAFBABFD98FF89F176E367E554E745E9A
S11302F0932EB23ED10EF01E00020E060C04112401
S11303001FBECFEFD1E2DEBFCDBF12E0A0E0B2E06E
S1130310ECE1F7E400E00BBF02C007900D92A636B3
S1130320B107D9F716E0A6E6B2E001C01D92AB33DF
S1130330B107E1F70E94A51C0C948D230C940000D6
S11303408FB7F894992708958FBF08959FB7F894AD
S1130350282F332720FF02C0129801C0129A21FFD0
S113036002C0119801C0119A22FF02C0109801C066
S1130370109A892F99278FBF0895FC01808182519B
S1130380E80FF11D84858A3029F4662319F081E091
S11303900E94A6010895282F9FB7F894E82FFF27FD
S11303A0E456FD4F80818F3F81F4E0912906E217E6
S11303B071F40BC02093450504C0FF27E456FD4F9C
S11303C020832093290620E007C025E005C0809102
S11303D045058F3F91F7EECF892F99278FBF822F45
S11303E099270895CF93DF93FC018FE3828780914F
S11303F07F028F5F80937F02DF011196ED018A8374
S113040080917D02882319F085E090E022C080A5C8
S113041091A5892B71F0ED0129813327322F2227F1
S1130420818199278062282B392B2183232F33271D
S11304302983F0932904E093280410922304109252
S1130440220481E080937D028CE00E94CB0180E055
S113045090E0DF91CF910895882319F08CB58064E2
S113046002C08CB58F7B8CBD08950F931F93982F7A
S11304701FB7F89480917E02823099F580915602DC
S1130480891779F58091540220E030E08F3F11F410
S113049021E030E0232BF1F49FEF909356028F3F3D
S11304A019F42FEF30E00DC0282F3327F901EB5F4B
S11304B0FC4F8081809354028F3F11F49093550236
S11304C090832093070381E080937E0283E10E945E
S11304D0CB0105C08FEF8093560210927E0201E09B
S11304E001C000E0812F99278FBF1FB7F894809136
S11304F07E02882311F40E942C02812F99278FBF3A
S113050090E0013009F491E081E09827892F992740
S11305101F910F910895882319F08CB5806802C04B
S11305208CB58F778CBD08950F931F9380E00E9444
S11305302C020FB7F8941127229A2398219A8CB58C
S113054080618CBD80E00E948B028DB581608DBD81
S11305508CB5877F8CBD8CB58B7F8CBD8CB58E7F25
S11305608CBD81E00E942C020FBF1F910F91089552
S11305708FB7F8942091FD023091FE024091FF0262
S113058050910003E0918400F0918500B09B08C075
S11305902F5F3F4F4F4F5F4FE0918400F0918500F4
S11305A099278FBFC901772766279F0144275527BD
S11305B0622B732B842B952B0895FC0180A98260F8
S11305C080AB08958C960895FC0182819927982F19
S11305D0882721813327822B932B75E09695879565
S11305E07A95E1F7817090700895AC01EFB7F894B3
S11305F02091840030918500C901841B950B0396DA
S11306008617970720F0B9016D5F7F4F02C0640F12
S1130610751F6115710511F461E070E0615070405F
S1130620709389006093880082E086BB80916F009C
S1130630826080936F008E2F99278FBF0895CF9388
S1130640DF93EC010E94E402882339F18A81298135
S11306509927982F88273327822B932B87749C7C88
S113066081549848D1F48F814E812FB7F894332761
S113067060914E0270914F022FBF20E09927982F6E
S113068088275527842B952B8617970709F021E097
S113069081E02827822F992702C080E090E0DF9133
S11306A0CF910895EF92FF920F931F937C018FB720
S11306B0F894992700912404109125040F5E1E4F8D
S11306C01093250400932404015111408FBF80E14D
S11306D00E94CB01C801B7010E941F208A5D9E4F72
S11306E01F910F91FF90EF9008957FB7F894609158
S11306F0B200209197023091980240919902509152
S11307009A02B99B11C08091B3009091B200280F56
S1130710311D411D511D2F5F3F4F4F4F5F4F290F1B
S1130720311D411D511D04C0260F311D411D511D98
S1130730872F99278FBFCA01B90108951F931FB747
S1130740F89480912106882339F40E94CB018823F0
S113075019F481E080932106812F99278FBF1F917F
S11307600895382FFA01422F2D3118F082E090E0DD
S113077008956683872F99278583338721878091FE
S11307806B0290916C02892B19F085E090E008953A
S11307902FB7F894332785E080936E0210926F028E
S11307A0F0936A02E093690282E090E090936C0215
S11307B080936B021092710210927002445F409316
S11307C06D022FBF9FB7F89480910D03882311F019
S11307D020E006C081E080930D0310920E0321E017
S11307E0892F99278FBF222329F00E949E0380E03E
S11307F090E0089510926C0210926B0281E090E0F8
S11308000895CF93DF93DB01FB0135968183892F14
S11308109927EB018D8384E68683809186039091EA
S11308208703892B19F085E090E029C07093870332
S113083060938603448380914D02882319F480E0F9
S113084090E01DC08681EB016D817727762F6627A6
S113085021813327622B732B10924D02242FAD017B
S11308600E94B1039927282F882339F081E08093CF
S11308704D021092870310928603822F9927DF91ED
S1130880CF910895DF92EF92FF920F931F938FB74A
S1130890F894282F3327D22E9091B3008091B20080
S11308A047B3981711F041FF02C02FBF71C0809168
S11308B0F7028823E1F10E947503E0908F02F09023
S11308C09002009191021091920220914B05309177
S11308D04C0540914D0550914E056E197F09800BD2
S11308E0910B621773078407950720F01092F702A3
S11308F071E01EC02E0D3F1D401F511F80919702B5
S113090090919802A0919902B0919A02281B390BF8
S11309104A0B5B0B273E31054105510540F4822FFC
S1130920223010F070E005C070E082E002C070E098
S113093086EE682F61508091B60083FDFCCF8091D4
S1130940B200681709F46F5F209197023091980202
S11309504091990250919A02DA01C9010196A11DB0
S1130960B11D860F911DA11DB11D82179307A40708
S1130970B50710F4622F60958091B60083FDFCCF1B
S11309806093B300DFBE772319F089E00E94CB01A6
S11309901F910F91FF90EF90DF900895AFB7F894F7
S11309A0BB27E1E0E093F70260938F02709390021B
S11309B0809391029093920220934B0530934C05BF
S11309C040934D0550934E05AFBF0E9442040895D5
S11309D080911F048A3021F48091F202843021F046
S11309E081E080936602089582E00E94CB01109218
S11309F0660208952FB7F89433278093C600E0EC7D
S1130A00F0E08081806480832FBF0895FC0161152C
S1130A10710519F481E090E00895809108039091A4
S1130A200903892B19F085E090E00895709333054C
S1130A3060933205F0930903E09308031092F402E3
S1130A401092F30281E08093F5028091C0008064EB
S1130A508093C0008091C10080648093C100808134
S1130A6021E030E03093F4022093F3020E94FA0470
S1130A7080E090E008958FB7F89499272091770249
S1130A802E7F209377022EE72093B2028FBF61E07E
S1130A9070E082EB92E00E94060599270895E8EF42
S1130AA0F0E06927660FF11DE60FF11DC895982F38
S1130AB0802D3196C89590250895982F80917202C3
S1130AC0882389F5992379F531E030937202809176
S1130AD046028093730220916702822F8170809373
S1130AE0950280914B0290914C02909375028093F1
S1130AF07402809168028093760232273170267ED8
S1130B00E32FFF27EE0FFF1FE95BFD4F80819181EB
S1130B1090934C0280934B02232B2093670285E031
S1130B200E94CB0108958091670280FF02C08B7FF1
S1130B3001C08D7F8093670208950F931F93082F40
S1130B40162F8091F2028130D9F0813038F0823052
S1130B5009F44AC0833009F027C159C0002309F4BD
S1130B6057C110922B0510922A0510922704109257
S1130B703E051092F60210928B0310928A0338C13C
S1130B80002309F045C180918A0390918B030E9450
S1130B904F0590938B0380938A0382E08093F20243
S1130BA010933E05143409F0FFC024C18695869540
S1130BB003C0809167028695817009F0F5C0809129
S1130BC06702992311F0846001C0826080936702F8
S1130BD080916702877E8860809367021092680222
S1130BE08FEF8093460214C1002309F0DDC06093A7
S1130BF0F60280918A0390918B030E944F05909393
S1130C008B0380938A0383E08093F20201C1809175
S1130C1027048F3F09F4C8C0002309F460C0823060
S1130C2008F4C2C0E0912A05EE2309F4EAC04E2F6D
S1130C304150E42FFF27E65DFA4F82819927382F30
S1130C402227442311F4E2E002C0E42FE150FF27FD
S1130C50E65DFA4F82819927282B392B80918A03EC
S1130C6090918B032817390709F09EC080E00E94F9
S1130C705D053091F60280917A0320917B03982FD1
S1130C809F5F963008F090E0921771F0E82FFF27ED
S1130C90E658FC4F32838F5F80937A03863010F0DE
S1130CA010927A030E949E0310922B0510922A053B
S1130CB01092F2021092270410923E051092F6024E
S1130CC010928B0310928A03809177028D7F809318
S1130CD0770280916602882309F49AC081C0823029
S1130CE008F44EC0E0912B05FF27E65DFA4F8281A0
S1130CF0482F5527342F20916702822F8695869599
S1130D008695837099278130910519F00297F9F43B
S1130D100EC0277E206120936702442311F485E0EE
S1130D2001C080E0809368023093460210C0809135
S1130D306802833360F4E0914B02F0914C02E80FB7
S1130D40F11D4083809168028F5F809368028091D7
S1130D502B05E82FFF27E65DFA4F62818F5F8093B2
S1130D602B05833010F010922B05772780918A038E
S1130D7090918B030E944F0590938B0380938A0379
S1130D8080912A05E82FFF27E65DFA4F12838F5FD3
S1130D9080932A05833010F010922A05809127044D
S1130DA08F5F8093270434C010922B0510922A057C
S1130DB01092F2021092270410923E051092F6024D
S1130DC010928B0310928A03809177028D7F809317
S1130DD0770281E00E945D0580916602882331F0EC
S1130DE084E08093F2020E94E80412C0002381F0A0
S1130DF081E00ACF80916702982F917080FDD6CE52
S1130E00D8CE80912E059927382F222742E01DCF76
S1130E101F910F9108951F920F920FB60F921124F4
S1130E202F933F934F935F936F937F938F939F93EE
S1130E30AF93BF93EF93FF938091C00087FF42C0AD
S1130E406091C600E0918C03F0918D03309719F105
S1130E5080911F0690912006E80FF91F6083019688
S1130E609093200680931F0620912E0630912F0622
S1130E708217930738F110928D0310928C0380919E
S1130E801E048330F9F08091C1008F778093C100F4
S1130E9010921E0417C06E3719F460E081E010C090
S1130EA0809177026D3721F48260809377020AC0C3
S1130EB081FF05C08D7F8093770280E2682780E000
S1130EC00E949D05FF91EF91BF91AF919F918F91EA
S1130ED07F916F915F914F913F912F910F900FBE32
S1130EE00F901F901895982F8D57823068F4809139
S1130EF0770281608093770280E2892780932604B9
S1130F008DE78093B20202C09093B20261E070E078
S1130F1082EB92E00E9406059927089578941F9227
S1130F200F920FB60F921124FF920F931F932F93DA
S1130F303F934F935F936F937F938F939F93AF935D
S1130F40BF93CF93DF93EF93FF932091F3023091FC
S1130F50F40280913205909133052817390780F403
S1130F60E0910803F0910903E20FF31F80812F5FE2
S1130F703F4F3093F4022093F3020E94FA04D1C04D
S1130F8010920903109208031092F5028091C10097
S1130F908F7B8093C100FFB6F8948091770280FF25
S1130FA00EC08E7F80937702809126048093B202D4
S1130FB061E070E082EB92E00E940605AFC0809190
S1130FC01F04843009F48CC0853040F4823021F150
S1130FD08330B8F5813009F09CC00DC0863009F427
S1130FE08DC0863008F483C0873009F48EC0883001
S1130FF009F08FC091C0809106030E947307082FE7
S113100083E080931F046091060380912C069091E5
S11310102D060E944F0510C0809149050E94730758
S1131020082F83E080931F046091490580912C066A
S113103090912D060E944F0590932D0680932C06C7
S113104066C0E0918E03FF27EE0FFF1FE45FFC4FA5
S113105080810E947307082F10918E03C12FDD2712
S1131060FE01EE0FFF1FE45FFC4F608180912C06B0
S113107090912D060E944F0590932D0680932C0687
S1131080209104032F5F20930403113039F58091DC
S11310906E02E0916902F0916A02E80FF11DE081AD
S11310A08F5F80936E0290916D02981730F482E006
S11310B080930D0340E050E002C04E2F5527DE011F
S11310C0AA0FBB1FFD01E55FFC4F8081823031F028
S11310D02F3F21F0A45FBC4F4C9319C084E012C091
S11310E080912C060E947307082F85E00BC0809125
S11310F02D060E947307082F86E004C00E943B055A
S1131100082F87E080931F0402C088E003C00023F7
S113111029F089E080931F040E949E038F2D992754
S11311208FBFFF91EF91DF91CF91BF91AF919F91CD
S11311308F917F916F915F914F913F912F911F916B
S11311400F91FF900F900FBE0F901F9018951F9254
S11311500F920FB60F9211248F938091C80087FFCE
S113116002C08091CE008F910F900FBE0F901F9000
S1131170189578941F920F920FB60F9211240F9026
S11311800FBE0F901F90189578941F920F920FB670
S11311900F9211240F900FBE0F901F901895789402
S11311A01F920F920FB60F9211240F900FBE0F9043
S11311B01F90189578941F920F920FB60F921124D6
S11311C00F900FBE0F901F90189578941F920F9256
S11311D00FB60F9211248F939F9380919600909154
S11311E097009F918F910F900FBE0F901F901895AD
S11311F078941F920F920FB60F9211242F933F935E
S11312008F939F932FB7F8943327809188039091FD
S11312108903019690938903809388032FBF9F913C
S11312208F913F912F910F900FBE0F901F901895A3
S11312301F920F920FB60F9211242F933F934F9347
S11312405F936F937F938F939F93AF93BF93EF932A
S1131250FF938091B0008093B0008091B60081FD2F
S1131260FCCF8091B30099270196AA27BB27209130
S11312709702309198024091990250919A02280F56
S1131280391F4A1F5B1F20939702309398024093A3
S1131290990250939A0278940E944204FF91EF912C
S11312A0BF91AF919F918F917F916F915F914F917A
S11312B03F912F910F900FBE0F901F9018951F9381
S11312C0182F81E00E942C021EBD0DB407FEFDCF35
S11312D08EB599271F9108951F920F920FB60F9202
S11312E011248F929F92AF92BF92CF92DF92EF928E
S11312F0FF920F931F932F933F934F935F936F939B
S11313007F938F939F93AF93BF93CF93DF93EF9389
S1131310FF932EB5E0911904F0911A04309739F037
S11313208091820390918303E80FF91F20838091B9
S113133082039091830301969093830380938203A5
S113134080E00E948B02C0918203D091830380913C
S1131350850290918602C817D90708F044C000910D
S1131360E9051091EA058090190490901A042AE086
S1131370A22EB12CAC0EBD1E8A159B0508F45C018F
S11313806401CC0EDD1E7801EC0EFD1E15C00115A6
S1131390110519F0F701808101C080E00E945F0906
S11313A08114910411F0F601808321960894C11CE4
S11313B0D11C0894E11CF11CC5010197C817D90779
S11313C030F381E00E948B020115110531F00C0FFE
S11313D01D1FF80180818EBD01C01EBCD093830304
S11313E0C093820311C010921A041092190410922F
S11313F0EA051092E9051092860210928502109275
S11314008303109282038EB5FF91EF91DF91CF9108
S1131410BF91AF919F918F917F916F915F914F9108
S11314203F912F911F910F91FF90EF90DF90CF90FC
S1131430BF90AF909F908F900F900FBE0F901F9012
S1131440189578941F920F920FB60F9211240F9053
S11314500FBE0F901F90189578941F920F920FB69D
S11314600F9211240F900FBE0F901F90189578942F
S11314701F920F920FB60F9211242F933F938F93C5
S11314809F93AF93BF932FB7F89433278091FD02B6
S11314909091FE02A091FF02B09100030196A11D5C
S11314A0B11D8093FD029093FE02A093FF02B093BE
S11314B000032FBFBF91AF919F918F913F912F91C7
S11314C00F900FBE0F901F9018951F920F920FB69A
S11314D00F9211248F938091B0008093B00080917B
S11314E0B60081FDFCCF8F910F900FBE0F901F901F
S11314F0189521E020930A0320931B042091840073
S113150030918500BC01C9010E94F50208950F9332
S11315101F93CF93DF93182F0FB7F89480917E0217
S1131520882311F40E949402802F99278FBF8FB7CC
S1131530F894C82FDD272C2F80917E02882361F434
S113154081E080937E021093070383E10E94CB0124
S1131550CFBF80E090E021C0E12FFF27EB5FFC4F7D
S113156080818F3F89F4E0915502E11789F40CC022
S11315701093540204C0FF27EB5FFC4F10831093B9
S1131580550280E090E002C085E090E02FBF05C0E6
S1131590809154028F3F79F7EBCFDF91CF911F9168
S11315A00F910895EF920F931F93AE2D99E0899FA9
S11315B0F0011124E157FC4F40835183628373830C
S11315C00483158326833783A17080858E7F8A2BBD
S11315D0826080878AE00E94CB011F910F91EF9077
S11315E008951F93982F1FB7F89480917C0282303E
S11315F099F580915302891779F58091510220E081
S113160030E08F3F11F421E030E0232BF1F49FEF21
S1131610909353028F3F19F42FEF30E00DC0282F21
S11316203327F901E754FD4F8081809351028F3FA6
S113163011F49093520290832093B60281E0809338
S11316407C028BE00E94CB0105C08FEF8093530294
S113165010927C0221E001C020E0812F99278FBFE6
S113166090E0213009F491E081E09827892F9927AF
S11316701F9108958FB7F894282F3327922F8091C4
S11316805602882331F480917E02823011F42FBFF8
S113169013C09FBF8FB7F894282F332780917E0201
S11316A0882369F482E080937E02109256022FBF51
S11316B00E949402209A289A81E090E008952FBF16
S11316C080E00E94870A80E090E008954F925F9244
S11316D06F927F928F929F92AF92BF92CF92DF923E
S11316E0EF92FF920F931F93CF93DF932C0180917E
S11316F08402882309F085C18091EB05853009F0C7
S113170080C10E943A0B882309F47BC180912F0584
S1131710882309F076C160E3862E912C840C951CF5
S1131720F20180A982FD02C090E003C0F20192A9F7
S11317309F7080914203981781F0909342032898F8
S113174085EC8EBD0DB407FEFDCF8EB590689EBDB1
S11317500DB407FEFDCF8EB5289AE201219689814A
S1131760F201218140E09927982F88273327822B83
S1131770932B87749C7C8154984809F441E044235A
S113178001F1289886E88EBD0DB407FEFDCF8EB515
S11317901EBC0DB407FEFDCF8EB5289A99278F7114
S11317A090702091FC024091BA02240F312D311D1A
S11317B043E0359527954A95E1F7281739070CF446
S11317C020C1289882EC8EBD0DB407FEFDCF8EB5E6
S11317D089E08EBD0DB407FEFDCF8EB5289A0E9418
S11317E0B8027B018C01D4018C9184FD03C0E0E03C
S11317F0F0E005C0F20180818550E80FF11D2898C2
S113180081E88EBD0DB407FEFDCF8EB51EBC0DB4B0
S113181007FEFDCF8EB5289A8F71893079F028980C
S113182082EC8EBD0DB407FEFDCF8EB586E08EBD75
S11318300DB407FEFDCF8EB5289AE3C08FB7F89498
S113184099272F9A20918400309185008FBF2F987B
S1131850289880E68EBDD2019C910DB407FEFDCF81
S11318608EB59EBD792F7250773010F4672F01C06A
S113187067E0DE01962F4D910DB407FEFDCF8EB5C6
S11318804EBD9150C1F76150C60FD11D6F5F2196B7
S11318902E193F092E553F4F3901882477FC809437
S11318A0982C6E0C7F1C801E911E309719F4972F74
S11318B0961B42C02081E1808281A3809927AA27B8
S11318C0BB27BA2FA92F982F8827332744275527BA
S11318D0522F442733272227FF240027112787016B
S11318E0FF24EE242E293F29402B512BBB24CC244A
S11318F0DD242A293B294C295D29822B932BA42BF7
S1131900B52B86199709A809B9098383292F3A2F7A
S11319104B2F552722839D014427552721838B2F45
S11319209927AA27BB278083C2CF28810DB407FE3D
S1131930FDCF21968EB52EBD9150B8F70DB407FE9C
S1131940FDCF8EB5289A289882EC8EBD0DB407FE83
S1131950FDCF8EB586E08EBD0DB407FEFDCF8EB5EE
S1131960289A3097D1F12081E1808281A380992740
S1131970AA27BB27BA2FA92F982F882733274427B4
S11319805527522F442733272227FF2400271127C6
S11319908701FF24EE242E293F29402B512BBB2401
S11319A0CC24DD242A293B294C295D29822B932B25
S11319B0A42BB52B860D971DA81DB91D8383292F34
S11319C03A2F4B2F552722839D01442755272183E6
S11319D08B2F9927AA27BB278083C2010E94DD028F
S11319E0C2010E94E202FC016082718282829382BF
S11319F086E08093EB0584E08093840280E090E0AD
S1131A0002C085E090E0DF91CF911F910F91FF908C
S1131A10EF90DF90CF90BF90AF909F908F907F908A
S1131A206F905F904F9008958091F002823031F46E
S1131A3081E08093F0028EE00E94CB0108958093B0
S1131A404F05882311F484E001C081E08093F00203
S1131A508EE00E94CB01089580917A028C3118F0B7
S1131A604CE150E002C0482F55278CE1E8EFF5E047
S1131A7011928A95E9F790917A028091780220E098
S1131A8030E0A8EFB5E00FC0E82FFF27E65DFB4F7D
S1131A90E081992329F08F5F8A3F09F480E0915017
S1131AA0ED932F5F3F4F2417350771F790937A0218
S1131AB0809378024CE16CEE75E08FEF9FEF0E940B
S1131AC00104882319F088E00E94CB0108951F9334
S1131AD0182F80917B02813049F480917A028D37EE
S1131AE028F082E080937B020E942C0D8FB7F8943B
S1131AF0282F332790917A029A3FA8F48091790293
S1131B00E82FFF27E65DFB4F10838F5F80937902F8
S1131B108A3F11F4109279029F5F90937A022FBF4B
S1131B2080E090E003C02FBF8FEF9FEF1F910895D7
S1131B30662359F480917A02882319F00E942C0DAF
S1131B40089581E080937B02089588E00E94CB0190
S1131B500895EF92FF920F931F93CF93DF93182F63
S1131B607B01042FE82FFF27EE0FFF1FEA57FC4FDE
S1131B701182108210924D02A0918603B0918703C6
S1131B80109721F080914A0580FF0EC081E0809378
S1131B904D0203C087E00E94CB011123C9F4602FDA
S1131BA0C7010E94980D14C0FD0135962481332786
S1131BB0ED016D817727762F662781819927682B20
S1131BC0792BAD0186810E94B103882331F3E2CFE2
S1131BD0DF91CF911F910F91FF90EF9008958FB7F0
S1131BE0F894282F332780917B02823021F42FBF71
S1131BF080E090E0089590E080917A02882309F4CF
S1131C0091E0992321F02FBF81E090E0089582E0D4
S1131C1080937B022FBF0E942C0D80E090E00895FA
S1131C201F93CF93DF93182FFA01A22F2D3118F0B1
S1131C3086E090E08EC0EA01219689812181B0E09E
S1131C409927582F44273327422B532BCA018774D3
S1131C509C7C8154984809F4B1E0BB2349F4CA013F
S1131C6080739070816498688183892F9927898310
S1131C70A35FA0832FB7F894332780914E029091ED
S1131C804F022FBF8087892F992781872FB7F89418
S1131C903327809150022FBF99278483158213879D
S1131CA06683872F992787838FB7F894282F332744
S1131CB080917C02882371F482E080937C021092EC
S1131CC053022FBFCF010E94F2019927182F8823B6
S1131CD099F00FC02FBFF093B802E093B7028FB70B
S1131CE0F894C82FDD272C2F80917C02882399F447
S1131CF006C080E00E94F10A812F99272AC081E062
S1131D0080937C021092B6028BE00E94CB01CFBF7D
S1131D1080E090E01EC08091B9028F3F89F4E09189
S1131D205202EE2369F010C01092510204C0FF2742
S1131D30E754FD4F10821092520280E090E002C0FE
S1131D4085E090E02FBF05C0809151028F3F79F765
S1131D50EBCFDF91CF911F9108950F931F93CF93F2
S1131D60DF93182FEB01042FE82FFF27EE0FFF1F3F
S1131D70ED5BFA4F1182108210925702E0914305F5
S1131D80F0914405309721F08091030380FF0EC049
S1131D9081E08093570203C085E10E94CB011123A7
S1131DA0B9F4602FCE010E94BD0112C020812D50D4
S1131DB0332767817727762F662786819927682BB3
S1131DC0792BAF0183850E94100E882341F3E4CF61
S1131DD0DF91CF911F910F910895AF92BF92CF924F
S1131DE0DF92EF92FF920F931F93CF93DF93809133
S1131DF02F05882309F4FEC00E943A0B882309F4B6
S1131E00F9C08FB7F8949927C0910103D0910203C8
S1131E108FBF10922F0528988FE88EBD0DB407FE52
S1131E20FDCF8EB51EBC0DB407FEFDCF8EB5289A2E
S1131E30982F80918402833011F0873031F485E04B
S1131E408093EB0588E080938402A92EBB24A2FE34
S1131E505FC080918402863019F41092840203C01A
S1131E60882309F055C0943009F041C0289886E8C9
S1131E708EBD0DB407FEFDCF8EB51EBC0DB407FE9E
S1131E80FDCF2EB5289A2F718091BA02982F96957E
S1131E909695322F391B830F8093BA02E0919302F7
S1131EA0F091940280A98B7F886080AB22AB0E9462
S1131EB0B8026B017C010091930210919402C80155
S1131EC00E94DD02C8010E94E202FC01CC19DD0976
S1131ED02797CE01AA2797FDA095BA2F8C0D9D1D9B
S1131EE0AE1DBF1D80839183A283B3830EC0E09196
S1131EF09302F091940280A9877F80ABE0919302D2
S1131F00F091940280A98D7F80AB85E08093840258
S1131F10A3FE70C080918402843009F04EC085E035
S1131F208093EB051092840280919602833019F419
S1131F30109296025FC0C0912A06D0912B06CE0162
S1131F400E94E402882389F18A8129819927982FA4
S1131F5088273327822B932B87749C7C8154984841
S1131F6021F58F812E819927982F88273327822B5B
S1131F70932B8F5F9F4FC9F090E080911B048823BF
S1131F8009F491E0992389F012E010930A0381E0A7
S1131F9080931B0480918400909185006CEC7AE01E
S1131FA00E94F5021093960225C010929602109298
S1131FB0F10280E00E941F0D1DC08530D9F42091EC
S1131FC0FC02289886E88EBD0DB407FEFDCF8EB5C1
S1131FD01EBC0DB407FEFDCF8EB5289A8F71922FCB
S1131FE096959695891B280F2093FC0289E080938F
S1131FF0840208C090918402992309F4E5C29930BF
S113200009F012C2289880E28EBD0DB407FEFDCF00
S11320108EB51EBC0DB407FEFDCF8EB5482F5527D7
S1132020433008F496C3842F99278A970CF091C300
S11320301EBCE0919302F09194024083142F12503D
S1132040173010F4912F01C097E0BF016F5F7F4FED
S1132050292FFB0140E050E00DB407FEFDCF8EB503
S11320601EBC808381914827042E4295407F4025E1
S1132070052E542F42954F70042646955427452724
S1132080440F440F440F4025215031F79150DB0198
S1132090A90FB11D9F5F1196E0919302F0919402F4
S11320A081818770823009F421E0222349F020E005
S11320B030E080919602823081F421E030E00DC05E
S11320C08FB7F894282F332760E08091240583305C
S11320D008F461E02FBF262F3327232B09F45CC0BB
S11320E0191B912F18C00DB407FEFDCF8EB51EBC71
S11320F08C938D914827042E4295407F4025052ED0
S1132100542F42954F700426469554274527440F73
S1132110440F440F4025915030F70DB407FEFDCF16
S11321208EB51EBC9A012827022E2295207F2025D9
S1132130032E322F22952F7002262695322723272D
S1132140220F220F220F20250DB407FEFDCF8EB5DE
S11321501EBC2827022E2295207F2025032E322FF5
S113216022952F700226269532272327220F220F2D
S1132170220F20250DB407FEFDCF8EB5E09193020A
S1132180F091940281AB289A15E01093EB0510921C
S11321908402232B31F014C20DB407FEFDCF8EB59B
S11321A0D8C2E0909302F090940267010894C11C95
S11321B0D11CF701818190E0282F332727703070DC
S11321C02230310509F491E080919602992319F1A6
S11321D0823009F024C1F7019381E0912A06F0913D
S11321E02B068381981709F01AC12230310509F0B2
S11321F016C180916F008D7F80936F0010921B0435
S113220080A9816080AB109296021092F10280E066
S11322100E941F0D04C18823C9F4C7010E941F0333
S11322208823A1F01093430382E080934403109227
S11322304503F70183818093460383E493E00E947E
S1132240660B882319F483E080939602009184003E
S113225010918500C7010E941F03882311F0045EBA
S11322601C4F109385030093840380918400909104
S113227085009801281B390B12161306A4F48091CB
S1132280F102882369F490E080911B04882309F407
S113229091E0992341F0C9010E94790A80E801C0C4
S11322A080688093F102F601808527819927582F51
S11322B044273327422B532B80919B02282F33270B
S11322C0F901EE0FFF1FEC5CFA4F80819181709150
S11322D01C048417950769F4F901EE5DF94F8081B8
S11322E0871709F467C0872F8F5F80931C0480834E
S11322F01DC000E010E080E090E0C4E3D5E0E2E23D
S1132300F6E0DF01682F9C01888199818417950785
S113231079F420939B0290911C048C91891709F401
S113232049C0892F8F5F80931C048C9300E829C0D7
S11323308081972F981B091710F4092F122F6F5FB4
S1132340C901019611962296319685309105D1F6F0
S11323506530B9F410939B02A12FBB27FD01EE0F4A
S1132360FF1FEC5CFA4F5183408380911C048F5F04
S113237080931C04FD01EE5DF94F8083A05DB94F8D
S11323801C9290911C04892F8F778F3779F40F3723
S113239068F0E2E2F6E0292F207880818F678913C4
S11323A02083319636E0E732F307B9F780919B0238
S11323B0282F3327F6019281A22FBB27FD01E05D70
S11323C0F94F808180FF07C0FD01EB5DFA4F8081EA
S11323D0981729F102C081608083AB5DBA4F9C934A
S11323E0DFB6F894809124058330B0F4E091480579
S11323F0E80FE33008F0E350FF27EE0FFF1FE75725
S1132400FD4F00811181F182E0828F5F809324056A
S11324108FE00E94CB0178018D2D99278FBFF09218
S11324209402E0929302C3C0892F8150833008F054
S11324309CC081508230E0F43091EB053130C1F41E
S113244020E080911B04882309F421E0222381F0F9
S11324502F9883E080930A0330931B0480918400B7
S1132460909185006BE273E00E94F50282E068C0FF
S1132470933009F042C08091EB05833009F097C096
S11324800E943A0B8823C9F128988FE88EBD0DB4B9
S113249007FEFDCF8EB51EBC0DB407FEFDCF8EB575
S11324A0289A8091810080648093810080E286BBB9
S11324B080916F00806280936F009091B50228989C
S11324C088EC8EBD0DB407FEFDCF8EB590669EBD23
S11324D00DB407FEFDCF8EB5289A289882EC8EBDE8
S11324E00DB407FEFDCF8EB586E08EBD0DB407FE9C
S11324F0FDCF8EB5289A84E023C080918402815058
S1132500823000F58091EB058530E1F40E943A0BAE
S11325108823C1F0289882EC8EBD0DB407FEFDCF50
S11325208EB583E08EBD0DB407FEFDCF8EB5289A1F
S113253080916F008F7D80936F0010922F0583E050
S11325408093EB0590918402913041F48091EB05E6
S11325508330B1F52F9A9093EB0525C0923039F56D
S11325608091EB05833061F51EC0973001F50E9420
S11325703A0B8823E1F09091B502289888EC8EBD3F
S11325800DB407FEFDCF8EB590669EBD0DB407FE5B
S1132590FDCF8EB5289A8091EB05853021F484E037
S11325A08093EB0504C088E08093840204C080918A
S11325B08402883029F4109284028DE00E94CB01B9
S11325C080918402882309F58091EB058530D1F44C
S11325D080912F058823B1F480919602882391F489
S11325E08091F102882371F490E080911B04882388
S11325F009F491E0992331F00E94140D8091840232
S1132600882319F481E10E94CB0180911B0482305C
S113261009F092C010921B04C0900A03F2E0CF1696
S113262009F466C023E0C21609F46AC031E0C31697
S113263009F082C020918403309185038091840045
S1132640909185004091F102403829F41092F102F2
S11326500E94140D71C08901081B190B47FF03C0A8
S113266010161106ECF0C091BB02D091BC0280910F
S113267096028823A9F4CE010E94660B9927882329
S113268051F488A98E7F88ABC0929602D0932B0612
S1132690C0932A0629C09927F82E882329F102C05D
S11326A085E0F82E2091F102822F99278F770197E8
S11326B059F4207822602093F10280E198E00E948E
S11326C052030E94790A38C027FF0AC01016110667
S11326D03CF480E88093F102C8010E94790A02C0A8
S11326E01092F1028F2D09C083E08093F10224C07F
S11326F0109296021092F10280E00E941F0D1CC0FD
S11327008091EB05823019F4C092EB0513C08091DF
S11327108402863079F410928402289881E88EBD70
S11327200DB407FEFDCF8EB51EBC0DB407FEFDCF64
S11327308EB5289A0E94D2138FB7F894282F332786
S11327408091B402813061F081E08093B4022FBFA4
S11327504ECB289A85E08093EB051092840230CF0B
S11327601092B4022FBFDF91CF911F910F91FF9070
S1132770EF90DF90CF90BF90AF9008958FB7F8940B
S1132780282F33278091B40281508093B40280387B
S113279011F02FBF089581E08093B4022FBF0E94EF
S11327A0ED0E08958FB7F894282F33278091B40243
S11327B0882329F080688093B4022FBF089581E0B4
S11327C08093B4022FBF0E94ED0E089578941F9257
S11327D00F920FB60F9211242F933F934F935F9351
S11327E06F937F938F939F93AF93BF93EF93FF93D5
S11327F0E6E8F0E080819181208131818FB7F894FF
S11328009927309302032093010321E020932F059D
S11328108FBF0E94D213FF91EF91BF91AF919F910F
S11328208F917F916F915F914F913F912F910F9075
S11328300FBE0F901F90189578941F920F920FB6A9
S11328400F9211242F933F934F935F936F937F9332
S11328508F939F93AF93BF93EF93FF9380916F00F8
S11328608D7F80936F0078949FB7F89480911B04B8
S1132870813019F482E080931B04892F99278FBF3C
S11328800E94D213FF91EF91BF91AF919F918F91CD
S11328907F916F915F914F913F912F910F900FBE58
S11328A00F901F901895AF92BF92CF92DF92EF9244
S11328B00F931F935B016C010E947503AB01BC0174
S11328C0EE249601850183E00E94D20A1F910F91A4
S11328D0EF90DF90CF90BF90AF9008958F929F922A
S11328E0AF92BF92CF92DF92EF92FF920F931F931A
S11328F0CF93DF935B016C01C0E0D0E0EFE8F3E03D
S11329007C2F608561FF55C12081318142815381D3
S1132910E480F58006811781D601C501821B930BE3
S1132920A40BB50B8E159F05A007B10708F441C190
S113293060FF03C06D7F608708C02E0D3F1D401FE0
S1132940511F2083318342835383713009F499C02A
S1132950713038F0723009F4CEC0733009F02FC1F1
S1132960CEC00E9475037B018C016093CC02BB270F
S1132970A12F902F8F2D8093CB02C801AA27BB27AC
S11329808093CA02812F9927AA27BB278093C90263
S11329908091270690912806AA27BB278093D0020E
S11329A0892F9A2FAB2FBB278093CF021092CE0290
S11329B01092CD020E9475035B016C010E94B80263
S11329C0EA18FB080C091D093AE0EE0CFF1C001F75
S11329D0111F3A95D1F7E60EF71E081F191F8AE05A
S11329E08093D102E092D502BB27A12F902F8F2D87
S11329F08093D402C801AA27BB278093D302E12E77
S1132A00FF2400271127E092D2024DEB52E080917F
S1132A10ED0280618093ED028FEF8093C302809377
S1132A20C4028DE38093C8028091430590914405CC
S1132A30892B19F550934405409343058AE180930B
S1132A40BD0280915702882309F4B9C0109257023D
S1132A502DE06FEF7FEF8DE30E94100E9927282F52
S1132A60882309F4ACC081E0809357021092440596
S1132A7010924305222309F4A2C081E00E94A6011A
S1132A809EC00E9475034B015C01C0908002D090EF
S1132A908102E0908202F0908302C60ED71EE81EE7
S1132AA0F91ED701C6011AE0B695A79597958795A3
S1132AB01A95D1F787700E94A601970186010070CC
S1132AC01C7F00501C4F2F4F3F4F0C191D092E091E
S1132AD03F09A1E0EA2EB501A40181E00E94D20AD7
S1132AE080E092E00E94C92060E471E080E090E020
S1132AF00E94531464C08CE00E94CB0160C080919A
S1132B007603909177039F938F93809144029091E1
S1132B1045029F938F9386E092E09F938F930E9448
S1132B20B2200E94EF0D8091440290914502AA27A1
S1132B30BB272DB73EB72A5F3F4F0FB6F8943EBF71
S1132B400FBE2DBF20917603309177034091780317
S1132B5050917903281739074A075B0761F4479AAC
S1132B60479885E192E09F938F930E94B2200E9440
S1132B70EF0D0F900F908091760390917703A091C1
S1132B807803B091790383309105A105B10529F447
S1132B9081E090E0A0E0B0E003C00196A11DB11D6A
S1132BA08093760390937703A0937803B09379038B
S1132BB006C021963996C430D10509F0A1CE8AE029
S1132BC00E94CB01DF91CF911F910F91FF90EF9065
S1132BD0DF90CF90BF90AF909F908F9008952F92E9
S1132BE03F924F925F926F927F928F929F92AF9299
S1132BF0BF92CF92DF92EF92FF920F931F93CF93E6
S1132C00DF93CDB7DEB72B970FB6F894DEBF0FBEB8
S1132C10CDBFE82FFF27E631F10508F060C6EA5979
S1132C20FF4FEE0FFF1F0590F491E02D0994809162
S1132C304A05882309F453C690E011E0D7C1809176
S1132C400303882309F44BC690E011E017C68FB73D
S1132C50F8941092210620911F0440E0283009F4D2
S1132C6041E030E0293009F431E0442311F4332306
S1132C7051F010921F04E0918E03FF27EE0FFF1F07
S1132C80E55FFC4F108299278FBF442311F433234F
S1132C9031F19FB7F894809149058F5F809349057E
S1132CA080910603833479F420917B0380917A0325
S1132CB0821779F0822F8F5F80937B03863048F0F0
S1132CC010927B0306C0A0E0442309F4A1E071E064
S1132CD002C0A0E070E0892F99278FBF06C022238D
S1132CE011F010E06CC0A0E070E08FB7F894992761
S1132CF0209166028FBF222341F08FB7F894992761
S1132D002AE020931F048FBF42C08FB7F8949927FD
S1132D1060910B0340910D038FBF8FB7F894282F58
S1132D20332750E090917A0380917B03981709F43C
S1132D3051E02FBF552341F5662331F55FB7F89471
S1132D4082E080930B038FB7F894282F332740E059
S1132D5090917A0380917B03981709F441E02FBF87
S1132D60442311F080E006C0E0917B03FF27E6587E
S1132D70FC4F828180930C0383E4809306031092BA
S1132D808E03852F99270EC04150423010F010E079
S1132D900BC08FB7F894992725E42093060321E00C
S1132DA020938E038FBF11E0772349F08FB7F894F7
S1132DB09927A0936F028FBF84E00E94CB018FB745
S1132DC0F894E82EFF2480911F048A3021F40E9495
S1132DD0E804EFBE84C5EFBE112309F480C52FB704
S1132DE0F894332710922D0610922C0610920403A7
S1132DF081E080931F042FBF0E943B05882309F4C0
S1132E006EC58FB7F894992729E020931F048FBFCC
S1132E100E949E0364C58091C1008F7B8093C10092
S1132E208091C1008F778093C10010921E0410928C
S1132E30F5028091C10088608093C1008091C10037
S1132E4080618093C1008091C10080688093C1003B
S1132E5080917B02882309F042C588E592E0909333
S1132E603806809337068FB7F894992721E020938A
S1132E707B028FBF81E00E94CB0181E090E0A0E063
S1132E80B0E08093760390937703A0937803B09394
S1132E9079032FB7F89433278091B4028F5F80931E
S1132EA0B4022FBF8091F0028823D9F48091840268
S1132EB08823B9F48091EB05813049F490E0809146
S1132EC01B04882309F491E0992359F002C085304A
S1132ED041F083E0809384020E94D21385E08093C2
S1132EE0F0020E94BE13109280021092810210928E
S1132EF08202109283020E947503AB01BC01EE248E
S1132F0000E014E020E030E081E00E94D20A8091E9
S1132F10440290914502019731F460E471E080E04D
S1132F2090E00E94531410922806109227061092E3
S1132F308802109287023F9AD2C483E093C08091A2
S1132F40C100877F8093C1008091C1008F7E8093F0
S1132F50C1008FB7F894992710927B02FFC3109297
S1132F606C0210926B028FB7F894992740916F020C
S1132F708FBF80917002811143E0209169023091EA
S1132F806A0280917102882309F0A9C480914D02DC
S1132F90882309F0A4C460918603709187036217A3
S1132FA0730709F09CC450C08FB7F89499272091F7
S1132FB0740230917502409195028FBF8FB7F894D7
S1132FC0E42FFF27EE0FFF1FE95BFD4F31832083C2
S1132FD020916702442311F02B7F01C02D7F2093A1
S1132FE067021092720299278FBF79C420914A0513
S1132FF0812F8223C1F0E92FFF27EE0FFF1FEA572D
S1133000FC4F4081518111821082812F80952823A9
S113301020934A05992339F463E0CA010E94980D6C
S1133020110F91E0E3CF9F5F983008F058C4110F5F
S1133030DDCF80914D02E82FFF27EE0FFF1FEA57E7
S1133040FC4F6081718141E00E94A90D48C44CE1AC
S11330506CEE75E08FEF9FEF0E940104882309F462
S11330603EC488E00E94CB013AC48091B302882315
S113307061F520913F053091400540914105509103
S11330804205EFB7F894FF2760918F027091900288
S11330908091910290919202E0904B05F0904C0542
S11330A000914D0510914E056E0D7F1D801F911FDF
S11330B0EFBF20933F053093400540934105509363
S11330C042051092B3020E94CE040E9475033FC0D1
S11330D00E9475035B016C018FB7F89499271092D5
S11330E0F7028FBF2FEF3FEF4FEF5FE760E0EFE8AE
S11330F0F3E0808581FF1CC080819181A281B3812E
S113310086017501E81AF90A0A0B1B0BD801C701DD
S1133110E480F58006811781E81AF90A0A0B1B0B73
S1133120E216F306040715071CF4A801970161E0F1
S1133130399603E0E33BF007E1F6662309F4CFC3D5
S113314012161306140615062CF0C601B5010E94CA
S11331506E14C5C320933F05309340054093410549
S11331605093420581E08093B302C601B5010E94E9
S1133170CE04B5C32FB7F89433278091B602809359
S1133180530282E080937C022FBF809153028823F4
S113319009F0A5C38091B7029091B8020E94F20190
S11331A0082F1127002309F49AC380E00E94F10A32
S11331B02091B7023091B80280915702882309F018
S11331C08EC360914305709144056217730709F03B
S11331D086C3402F80C3E0912804F091290420A5E0
S11331E031A510917D02123061F52115310519F0D8
S11331F080A980FF02C084E01FC0809122049091C6
S11332002304019690932304809322048217930746
S113321090F481E080937D0202A513A501151105A8
S113322091F00E947503AB01BC0122273327B1E062
S1133230EB2E82E070C085E080937D0210917D02C8
S113324026C0113021F582E080937D02409128044C
S1133250509129042FB7F89433278091B4028F5FDB
S11332608093B4022FBF8091F002882369F45093B5
S113327021044093200481E08093F00210921D0405
S11332808EE00E94CB0197C00E94BE139AC01430F6
S113329008F425C3232B51F0E0912804F09129046C
S11332A0809122049091230491A780A710927D021B
S11332B0E0902804F0902904F70182858F3309F007
S11332C00EC380E00E94F10A80915702882309F01E
S11332D006C360914305709144056E157F0509F09E
S11332E0FEC21450412FF7C28091F0021092F002F6
S11332F08530A1F48091440290914502019709F030
S1133300EEC20E947503AB01BC01EE2400E018E29A
S113331020E030E080E00E94D20AE1C2863009F465
S1133320DEC2873009F4DBC28093F002D8C22FB723
S1133330F89433278091B4028F5F8093B4022FBF37
S11333404091F002413071F580911D048F5F8093AC
S11333501D04863038F52091200430912104809199
S1133360F1028823C1F490E080911B04882309F4BE
S113337091E0992381F03093BC022093BB024093E7
S1133380F1028BED91E10E9452030E94790A10929E
S11333904F0583E004C085E080934F0582E080936D
S11333A0F00209C01092F0020E94BE1380914F05F2
S11333B0882321F406C00E94BE1391C28C5F8093BF
S11333C07D028CE04FCE8FB7F894282F332780915D
S11333D02405882309F482C2E0914805FF27EE0FF3
S11333E0FF1FE757FD4F0190F081E02DFB87EA872F
S11333F02FBF8285978126818F3309F008C16385A9
S1133400892F9927582F4427822F9927482B592BE6
S11334108FB7F894992720914E0230914F028FBFB5
S11334204217530721F04F5F5F4F09F00AC16D3314
S113343009F007C1EA85FB85808182513C96DF0152
S1133440A80FB11D3C97FB87EA878C918A3009F05D
S1133450F8C080A981FFF5C0FD012181E28083814C
S1133460A4809927AA27BB276624782E892E9A2E12
S1133470332744275527522F442733272227FF2455
S1133480002711278701FF24EE242E293F29402BF2
S1133490512BBB24CC24DD242A293B294C295D292A
S11334A0622A732A842A952AF0E06F16F0E07F06D8
S11334B0F0E08F06F0E89F0609F4C3C08A859B8577
S11334C00E94E202FC0120803180428053800E94ED
S11334D0B8027B018C010E9475032E183F08400A34
S11334E0510A3AE055944794379427943A95D1F782
S11334F02AE095948794779467942A95D1F7660E79
S1133500771E881E991E260C371C481C591CEA85F8
S1133510FB8584852585A684E784BB24CC24DD240F
S1133520DC2CCB2CBA2CAA249927AA27BB27B82F8A
S1133530AA2799278827332744275527A901332702
S11335402227822B932BA42BB52BFF240027112792
S11335508E299F29A02BB12BA82AB92ACA2ADB2A93
S11335608089E18822896388332744275527542F8B
S1133570432F322F22279927AA27BB27B82FAA2700
S113358099278827FF24002711278701FF24EE2489
S11335908E299F29A02BB12B77248824992486294E
S11335A09729A829B929282B392B4A2B5B2B30932F
S11335B0280620932706D601C50182199309A40978
S11335C0B5098093800290938102A0938202B09304
S11335D083025F924F923F922F92DF92CF92BF92DB
S11335E0AF92BF93AF939F938F938FE192E09F939A
S11335F08F930E94B2200E94EF0D0DB71EB7025F99
S11336001F4F0FB6F8941EBF0FBE0DBF1AC0892FEF
S11336109927582F4427822F9927482B592B8FB746
S1133620F894992720914E0230914F028FBF421790
S1133630530719F04F5F5F4F21F48FB7F894992720
S11336408FBF9FB7F89480914805E82FFF27EE0FAE
S1133650FF1FE757FD4F2A853B85318320838F5F0A
S113366080934805833010F010924805809124051A
S1133670815080932405892F99278FBFA4CE3FB70B
S11336803983F8942090F8023090F9024090FA02BD
S11336905090FB026624772488248EE4A82E03E845
S11336A0B02ECC24DD24EE24FF2400E010E0222DF3
S11336B0332D442D552D662D772D882D90E00E94B5
S11336C09E1E2A833B834C835D836E837F8388871E
S11336D09987822E932EA42EB52E2401350100E263
S11336E00E949C1FA22EB32EC42ED52EA30192019C
S11336F056954795379527952A0D3B1D4C1D5D1D05
S113370057FF05C05F772F5F3F4F4F4F5F4F2093A9
S1133710F8023093F9024093FA025093FB02698154
S1133720862F99278FBF8FB7F89499273093250454
S11337302093240413C08FB7F894992710921A0485
S1133740109219041092EA051092E905109286026B
S113375010928502109283031092820345CC2FB7F6
S1133760F8943327809107038093560282E0809374
S11337707E022FBF80915602882309F0B0C0209AA0
S1133780289A8091EB05882309F075C08EEF91E0AB
S1133790019701960197E1F716982F9886E090E03B
S11337A0019701960197E1F7169A289883EC8EBD4C
S11337B00DB407FEFDCF8EB51EBC0DB407FEFDCFC4
S11337C08EB5289A289882EC8EBD0DB407FEFDCFE5
S11337D08EB588E08EBD0DB407FEFDCF8EB5289A58
S11337E08EEF91E0019701960197E1F728988EEC0E
S11337F08EBD0DB407FEFDCF8EB58DE48EBD0DB428
S113380007FEFDCF8EB5289A289889EC8EBD0DB49D
S113381007FEFDCF8EB587EC8EBD0DB407FEFDCF40
S11338208EB5289A289885EC8EBD0DB407FEFDCF81
S11338308EB580E88EBD0DB407FEFDCF8EB5289AF7
S1133840109242038BE08093B502289888EC8EBDD9
S11338500DB407FEFDCF8EB58BE68EBD0DB407FE0D
S1133860FDCF8EB5289A2F9A81E08093EB0580E0F6
S11338700E94350234C00E94D21331C02091030348
S1133880812F8223C1F0E92FFF27EE0FFF1FED5B8D
S1133890FA4F4081518111821082812F8095282313
S11338A020930303992339F463E0CA010E94BD0104
S11338B0110F91E0E3CF9F5F983088F4110FDECFB2
S11338C080915702E82FFF27EE0FFF1FED5BFA4FA1
S11338D06081718141E00E94AD0E01C02FBF2B9623
S11338E00FB6F894DEBF0FBECDBFDF91CF911F910D
S11338F00F91FF90EF90DF90CF90BF90AF909F908B
S11339008F907F906F905F904F903F902F9008958D
S1133910809145058F3FB1F0282F3327F901E456F4
S1133920FD4F8081809345058F3F11F480932906D4
S11339308FEF80832F3F31F0822F0E94EF1581E0BB
S113394090E0089580E090E00895FF920F931F9314
S1133950FFB6F89414BE88E10FB6F8948093600023
S1133960109260000FBE46E150E06FEF70E08CE90A
S113397092E00E94AB208FEF809345058093290647
S113398056985E9854985C9880916F008F7D8093D0
S11339906F00209A289A279A2F980E9A169A8FE0E9
S11339A093E090939402809393021092FC028AE530
S11339B08093BA0281E08093810080E28093B60014
S11339C083E08093B10080918400909185004AE760
S11339D020918400309185002817390708F441505C
S11339E0442311F0C901F4CF9091B2008091B20048
S11339F08917E1F320918400309185009091B20001
S1133A008091B2008917E1F3809184009091850040
S1133A10821B930B4096F5E096958795FA95E1F70E
S1133A2090934705809346051092B1008091B100B0
S1133A3080938100809181008093B6001092B2003F
S1133A4010928500109284008FEF87BB87B386BBEA
S1133A508091B6008571E1F70A9A099A089A129A38
S1133A60119A109A18B88FEF87B90C98149810927D
S1133A7085001092840080916F00816080936F00B4
S1133A8080918100887F82608093810010929500EC
S1133A9010929400809171008160809371008091F4
S1133AA09100887F8260809391000E94881C882303
S1133AB0E1F78FEF8093050380E00E94870A20914D
S1133AC04402309145022F5F3F4FC901AA27BB270B
S1133AD08093F8029093F902A093FA02B093FB0248
S1133AE080E595E090938A0280938902C39690932F
S1133AF08C0280938B0286EB95E090938E028093E8
S1133B008D028FEF9FEF909335058093340590934A
S1133B103705809336059093390580933805909343
S1133B203B0580933A0590933D0580933C05809135
S1133B3044028295807F80937F028FEF8093B90245
S1133B408091B60080628093B6008091B60081FDBA
S1133B50FCCF82E08093B0008091B60080FDFCCF62
S1133B6083E08093B1008091B60083FDFCCF86EEA4
S1133B708093B300809170008260809370000E94F3
S1133B80420412E006E060914605709147058827DB
S1133B909927ECE0660F771F881F991FEA95D1F7E4
S1133BA020E031EE40E050E00E94332021503040CC
S1133BB02093C400832F99278093C5001093C000DD
S1133BC00093C2001092C1002093CC008093CD00DA
S1133BD01093C8000093CA001092C90084E490E0D6
S1133BE0909331058093300510920B0310920D03CE
S1133BF010921F04109204031092060310924905B8
S1133C0010922D0610922C061092210610928E030B
S1133C1010922B0510922A051092F202109227049A
S1133C2010923E051092F60210928B0310928A03B2
S1133C3010927B0310927A030E94881C8823E1F778
S1133C408F2D99278FBF789481E00E94CB018FB785
S1133C50F894482F552757C0809170009927837096
S1133C609070892B19F4E5E0F0E014C08091B6005F
S1133C708A71E1F78091B3009091B200891B8C3076
S1133C8038F08091B200853F18F4E3E0F0E002C020
S1133C90E2E0F0E080916E00867009F580916F009B
S1133CA08E72E9F4809171008E72C9F40CB407FC31
S1133CB016C08091C100887191F48091C900887107
S1133CC071F48091BC0082FD0AC080917A0087FF64
S1133CD003C081E090E005C085E090E002C080E090
S1133CE090E023B78E1708F4E82FFF27E850FD4F24
S1133CF0E491207F2160E22BE3BF78948895F894C7
S1133D0083B78E7F83BF809145058F3F09F4A4CF8D
S1133D10282F3327F901E456FD4F80818093450510
S1133D208F3F11F4809329068FEF80832F3F09F48E
S1133D3093CF4FBF822F0E94EF1589CFACE2B0E042
S1133D40E4EAFEE10C947420222E332E442E552EE8
S1133D50662E772E882E992EFE013196A8E01192B8
S1133D60AA95E9F729823A824B825C826D827E822F
S1133D708F829886FE013996B8E01192BA95E9F7D8
S1133D80A986BA86CB86DC86ED86FE860F87188BDD
S1133D9089819A81AB81BC8189A79AA7ABA7BCA76B
S1133DA07C018D018FEF9FEFA0E0B0E0E822F922C3
S1133DB00A231B2389A59AA5ABA5BCA51D014424F0
S1133DC0552489859A85AB85BC858DA39EA3AFA315
S1133DD0B8A75C016D018FEF9FEFA0E0B0E0A822CF
S1133DE0B922CA22DB228DA19EA1AFA1B8A53D01B3
S1133DF088249924C801B701A60195010E94552081
S1133E0069A37AA38BA39CA3C801B701A40193015E
S1133E100E9455207B018C01C201B101A6019501CC
S1133E200E9455205B016C01C201B101A401930100
S1133E300E9455203B014C01EA0CFB1C0C1D1D1D6E
S1133E4089A19AA1ABA1BCA19D01442755272E0DA0
S1133E503F1D401F511F2A153B054C055D0540F4CD
S1133E6080E090E0A1E0B0E0680E791E8A1E9B1EFF
S1133E70CA01AA27BB27860D971DA81DB91D8D8FC2
S1133E809E8FAF8FB8A3A9013327222789A19AA1B6
S1133E90ABA1BCA1A070B070280F391F4A1F5B1FD3
S1133EA0298F3A8F4B8F5C8FA98CBA8CCB8CDC8C8E
S1133EB0ED8CFE8C0F8D18A1FE01719698E0119285
S1133EC09A95E9F7ED8AFE8A0F8B188F2D813E8132
S1133ED04F8158856DA17EA18FA198A50E94552080
S1133EE03B014C012D853E854F85588969A57AA5EE
S1133EF08BA59CA50E9455202D893E894F89588DFC
S1133F00260F371F481F591F260D371D481D591DE1
S1133F102D8B3E8B4F8B588F6D887E888F88988C25
S1133F202A2D3B2D4C2D5D2D662D772D882D992D19
S1133F30E2E1AC960C949020A0E1B0E0E2EAFFE16B
S1133F400C947420222E332E442E552E662E772E5A
S1133F50882E992E002309F466C088E0FE0131966C
S1133F6011928A95E9F729833A834B835C836D83A5
S1133F707E838F829887E0E2E01B1E16CCF52D81AC
S1133F803E814F815885602F772767FD7095DA0150
S1133F90C901062E04C0B695A795979587950A94EE
S1133FA0D2F78D879E87AF87B88B04C0220F331F4B
S1133FB0441F551FEA95D2F789819A81AB81BC8150
S1133FC004C0B695A795979587956A95D2F7282B3F
S1133FD0392B4A2B5B2B29873A874B875C872984AB
S1133FE03A844B845C846D847E848F8498881BC05F
S1133FF01D861E861F86188A2E2F332727FD30958F
S1134000309521953F4F8D819E81AF81B88504C045
S1134010B695A795979587952A95D2F789879A8714
S1134020AB87BC87DCCF222D332D442D552D662D37
S1134030772D882D992DE2E160960C949020AA1B8F
S1134040BB1B51E107C0AA1FBB1FA617B70710F07F
S1134050A61BB70B881F991F5A95A9F780959095B1
S1134060BC01CD010895A1E21A2EAA1BBB1BFD01C0
S11340700DC0AA1FBB1FEE1FFF1FA217B307E40743
S1134080F50720F0A21BB30BE40BF50B661F771F9B
S1134090881F991F1A9469F760957095809590957B
S11340A09B01AC01BD01CF010895629FD001739FB4
S11340B0F001829FE00DF11D649FE00DF11D929FC0
S11340C0F00D839FF00D749FF00D659FF00D9927FF
S11340D0729FB00DE11DF91F639FB00DE11DF91F23
S11340E0BD01CF01112408952F923F924F925F9208
S11340F06F927F928F929F92AF92BF92CF92DF92F4
S1134100EF92FF920F931F93CF93DF93CDB7DEB758
S1134110CA1BDB0B0FB6F894DEBF0FBECDBF0994EC
S11341202A88398848885F846E847D848C849B8443
S1134130AA84B984C884DF80EE80FD800C811B8151
S1134140AA81B981CE0FD11D0FB6F894DEBF0FBE80
S1134150CDBFED010895DC0101C06D934150504085
S1134160E0F70895A2E0B0E0E8EBF0E20C948420DC
S1134170FE01379661917191FA83E983AF018091D1
S11341803706909138060E94FC20E2E022960C94B7
S1134190A0200F931F93CF93DF938C01E0913706F8
S11341A0F0913806838181FF1FC0C0E0D0E00AC0CF
S11341B0FD0120853185BD01F9010995892B11F097
S11341C0CFEFDFEFF80181918F01A0913706B09115
S11341D03806882369F7FD0120853185BD018AE011
S11341E0F9010995892B11F0CFEFDFEFCE01DF91B3
S11341F0CF911F910F910895ABE0B0E0E2E0F1E2BE
S11342000C9476203C014B016A01FC011782168252
S1134210838181FD03C08FEF9FEFDAC1F301338106
S1134220F40133FD859133FF81914F01882309F413
S1134230CCC1853239F433FD859133FF81914F012F
S1134240853229F4B30199270E940223E7CF00E0C5
S1134250442455244AE00032B0F48B3269F08C32A5
S113426028F4803251F0833271F40BC08D3239F06E
S1134270803349F4016028C00260046025C00860EE
S113428023C0006121C007FD29C0282F20532A30F4
S113429078F406FF06C0549EC0011124522E580E15
S11342A013C0449EC0011124422E480E00620CC06B
S11342B08E3221F406FD89C1006406C08C3611F4E7
S11342C0006802C0883651F4F40133FD859133FF50
S11342D081914F01882309F46FC0BDCF982F855475
S11342E0833018F08052833038F424E030E0C20E7A
S11342F0D31E8FE389830FC0933631F0933799F03F
S1134300933509F05BC023C0F6018081898322E0E4
S113431030E0C20ED31E7E010894E11CF11C51E072
S1134320A52EB12C12C0F601E080F18006FD03C079
S11343306FEF7FEF02C0652D772722E030E0C20ED9
S1134340D31EC7010E94F7225C010F7713C0F60148
S1134350E080F18006FD03C06FEF7FEF02C0652DA2
S1134360772722E030E0C20ED31EC7010E94EC2260
S11343705C01006803FF07C01BC0B30180E290E04A
S11343800E9402234A94842D9927A816B906A8F3FB
S11343900FC0F70107FD859107FF81917F01B301EC
S11343A099270E94022341104A940894A108B10855
S11343B0A114B10471F706C190E03EC0943611F027
S11343C0993691F507FF0AC0F601608171818281F7
S11343D0938124E030E0C20ED31E0DC0F60180812B
S11343E091819C01B901882777FD8095982F42E03F
S11343F050E0C40ED51E4FE6B42EB02297FF09C07C
S113440090958095709561957F4F8F4F9F4F50E8A1
S1134410B52A8E010F5F1F4F2AE030E0A8010E94E9
S11344202F23A82EA01A4DC0953731F43FEEF32E5A
S1134430F0222AE030E023C029EFF22EF0229F364A
S113444061F0903720F4983509F0BFC012C090375E
S113445039F0983709F0B9C005C028E030E00FC042
S113446080E1F82AF4FE02C094E0F92A20E130E069
S113447006C0F4FE02C0E6E0FE2A20E132E0F7FEC8
S11344800AC0F601608171818281938144E050E029
S1134490C40ED51E0BC0F60180819181AC01BA0116
S11344A088279927E2E0F0E0CE0EDF1E8E010F5F31
S11344B01F4FA8010E942F23A82EA01A8FE7B82E01
S11344C0BF20B6FE10C0FEEFBF22A51460F42B2D52
S11344D0332724FF1AC022FF02C0052D09C02FEE86
S11344E0B222052D01C00A2D2B2D332724FF0EC027
S11344F0FE01EA0DF11D8081803319F439EEB322F7
S113450009C00F5F22FF06C004C0052D822F8678E4
S113451009F00F5FEB2CFF24E3FC14C0E0FE0FC096
S1134520041510F05A2C0BC0542C501A5A0C042D9C
S113453006C0B30180E290E00E9402230F5F0415DD
S1134540C0F304C0041510F4401A01C04424E4FE6E
S113455010C0B30180E390E00E940223E2FE1EC07B
S1134560E1FE03C088E590E002C088E790E0B30173
S11345700CC08E2D867891F0E1FE02C08BE201C062
S113458080E2B7FC8DE2B30199270E94022306C0A2
S1134590B30180E390E00E9402235A94A514C0F36F
S11345A0AA94FE01EA0DF11D8181B30199270E94AD
S11345B00223AA2039F0F4CFB30180E290E00E94F4
S11345C002234A944420C1F729CEF30186819781BE
S11345D0E0E12B960C949220FC0105906150704010
S11345E00110D8F7809590958E0F9F1F0895FC01B8
S11345F06150704001900110D8F7809590958E0F0E
S11346009F1F08950F931F93CF93DF938C01EB01AA
S11346108B81992781FF1BC082FF0DC02E813F81B2
S11346208C819D812817390764F4E881F98101930D
S1134630F983E88306C0E885F985802F0995892BDD
S113464031F48E819F8101969F838E8302C00FEF88
S11346501FEFC801DF91CF911F910F910895FA01C7
S1134660AA27283051F1203181F1E8946F936E7FAD
S11346706E5F7F4F8F4F9F4FAF4FB1E03ED0B4E09E
S11346803CD0670F781F891F9A1FA11D680F791FDF
S11346908A1F911DA11D6A0F711D811D911DA11DF0
S11346A020D009F468943F912AE0269F1124301900
S11346B0305D3193DEF6CF010895462F4770405D9B
S11346C04193B3E00FD0C9F7F6CF462F4F70405D4A
S11346D04A3318F0495D31FD4052419302D0A9F7A5
S11346E0EACFB4E0A6959795879577956795BA959F
S11346F0C9F700976105710508959B01AC010A2E65
S113470006945795479537952795BA95C9F7620F3B
S10F4710731F841F951FA01D0895FFCF88
S113471C48656C6C6F00646F6573202564203D3DA7
S113472C2025640A0042495442414E474544006FD7
S113473C66667365743A20256C642C20676C6F6212
S113474C616C3A20256C642C206C6F63616C256C55
S113475C640A0A000100FFB303E603B3030101007A
S113476C22FFFFFFFFFFFF0100000002000000001A
S109477C670D00000000BF
S9030000FC
