S01700006275696C642F697269732F6D61696E2E7372656343
S11300000C947D010C949C010C949C010C949C0117
S11300100C949C010C949C010C949C010C949C01E8
S11300200C949C010C949C010C949C010C949C01D8
S11300300C949C010C94F0090C949C010C940B05F9
S11300400C94CF0B0C94060C0C94E3050C94EE0565
S11300500C94F9050C949C010C949C010C949C0147
S11300600C942C050C94E3070C949C010C946608E6
S11300700C949C010C949C010C949C010C94BD095F
S11300800C949C090C94A7090C94B2090C94D00903
S11300900C947F090C949C010C9491090C949C0180
S11300A00C949C010C949C010C949C010C949C0158
S11300B00C949C010C949C010C949C010C949C0148
S11300C00C949C010C949C010C949C01030E9A0EBC
S11300D0690F22144214E214151562157215BC1529
S11300E01B16C21626163A16C816A917C917CB1717
S11300F0D617161800002110422063308440A55002
S1130100C660E770088129914AA16BB18CC1ADD159
S1130110CEE1EFF13112100273325222B552944201
S1130120F772D662399318837BB35AA3BDD39CC3A9
S1130130FFF3DEE36224433420040114E664C7744D
S1130140A44485546AA54BB528850995EEE5CFF5F9
S1130150ACC58DD55336722611163006D776F666A1
S11301609556B4465BB77AA719973887DFF7FEE749
S11301709DD7BCC7C448E5588668A778400861186D
S113018002282338CCC9EDD98EE9AFF94889699999
S11301900AA92BB9F55AD44AB77A966A711A500A41
S11301A0333A122AFDDBDCCBBFFB9EEB799B588BE9
S11301B03BBB1AABA66C877CE44CC55C222C033C8D
S11301C0600C411CAEED8FFDECCDCDDD2AAD0BBD39
S11301D0688D499D977EB66ED55EF44E133E322EE1
S11301E0511E700E9FFFBEEFDDDFFCCF1BBF3AAF89
S11301F0599F788F8891A981CAB1EBA10CD12DC1E7
S11302004EF16FE18010A100C230E320045025407C
S113021046706760B9839893FBA3DAB33DC31CD3DC
S11302207FE35EF3B1029012F322D23235421452CC
S113023077625672EAB5CBA5A89589856EF54FE528
S11302402CD50DC5E234C324A0148104667447641C
S113025024540544DBA7FAB79987B8975FE77EF77C
S11302601DC73CD7D326F2369106B016576676766C
S1130270154634564CD96DC90EF92FE9C899E98948
S11302808AB9ABA94458654806782768C018E108BC
S11302908238A3287DCB5CDB3FEB1EFBF98BD89B1C
S11302A0BBAB9ABB754A545A376A167AF10AD01A0C
S11302B0B32A923A2EFD0FED6CDD4DCDAABD8BAD68
S11302C0E89DC98D267C076C645C454CA23C832C5C
S11302D0E01CC10C1FEF3EFF5DCF7CDF9BAFBABFBC
S11302E0D98FF89F176E367E554E745E932EB23EAC
S11302F0D10EF01E00020E060C0411241FBECFEF17
S1130300D1E2DEBFCDBF12E0A0E0B2E0EEE2FAE35C
S113031000E00BBF02C007900D92A231B107D9F7DC
S113032019E0A2E1B2E001C01D92AE34B107E1F7D9
S11303300E94AA180C94161D0C9400008FB7F89410
S1130340992708958FBF08958FB7F894992722B1FC
S113035031E0232722B98FBF0895282F9FB7F8943F
S1130360E82FFF27EE5BFD4F80818F3F81F4E09102
S11303704109E21771F40BC02093920804C0FF27CF
S1130380EE5BFD4F20832093410920E007C025E068
S113039005C0809192088F3F91F7EECF892F99275E
S11303A08FBF822F9927089580919F038A3021F46B
S11303B080917A02843021F081E0809315020895BF
S11303C080E10E94AD011092150208952FB7F894B0
S11303D033278093C600E0ECF0E080818064808362
S11303E02FBF0895FC016115710519F481E090E0B7
S11303F0089580918E0290918F02892B19F085E0E7
S113040090E008957093820860938108F0938F02BE
S1130410E0938E0210927C0210927B0281E0809322
S11304207D028091C00080648093C0008091C100EF
S113043080648093C100808121E030E030937C02AD
S113044020937B020E94E60180E090E008958FB73C
S1130450F8949927209126022E7F209326022EE7D6
S1130460209356028FBF61E070E086E592E00E941F
S1130470F201992708951F931FB7F89480913B09BF
S1130480882341F48EE00E94AD01882319F481E0B1
S113049080933B09812F99278FBF1F91089588234B
S11304A019F08CB5806402C08CB58F7B8CBD089527
S11304B02F923F924F925F926F927F928F929F9270
S11304C0AF92BF92CF92DF92EF92FF920F931F935E
S11304D0CF93DF93CDB7DEB729970FB6F894DEBF7D
S11304E00FBECDBF6FB76983F8942090800230901F
S11304F081024090820250908302662477248824EB
S11305002EE4A22E93E8B92ECC24DD24EE24FF247D
S113051000E010E0222D332D442D552D662D772D2E
S1130520882D90E00E94EF1A2A833B834C835D83DD
S11305306E837F8388879987822E932EA42EB52E6F
S11305402401350100E20E94ED1BA22EB32EC42E1D
S1130550D52EA301920156954795379527952A0DD7
S11305603B1D4C1D5D1D57FF05C05F772F5F3F4F3F
S11305704F4F5F4F20938002309381024093820259
S113058050938302E9818E2F99278FBFCA01B90145
S113059029960FB6F894DEBF0FBECDBFDF91CF9181
S11305A01F910F91FF90EF90DF90CF90BF90AF908D
S11305B09F908F907F906F905F904F903F902F907F
S11305C00895AC01EFB7F894209184003091850030
S11305D0C901841B950B03968617970720F0B90170
S11305E06D5F7F4F02C0640F751F6115710511F4B3
S11305F061E070E0615070407093890060938800FE
S113060082E086BB80916F00826080936F008E2FA2
S113061099278FBF0895EF92FF920F931F937C0148
S11306208FB7F89499270091A5031091A6030F5E44
S11306301E4F1093A6030093A503015111408FBFD1
S11306408AE00E94AD01C801B7010E94701C8A5D56
S11306509E4F1F910F91FF90EF9008957FB7F894EC
S11306606091B20020913D0230913E0240913F02E0
S113067050914002B99B11C08091B3009091B20097
S1130680280F311D411D511D2F5F3F4F4F4F5F4FAD
S1130690290F311D411D511D04C0260F311D411D5F
S11306A0511D872F99278FBFCA01B9010895DF9281
S11306B0EF92FF920F931F938FB7F894282F33274D
S11306C0D22E9091B3008091B20047B3981711F0E5
S11306D041FF02C02FBF71C080917F028823E1F1E6
S11306E00E942E03E0903502F0903602009137020A
S11306F010913802209198083091990840919A08F5
S113070050919B086E197F09800B910B6217730738
S11307108407950720F010927F0271E01EC02E0D11
S11307203F1D401F511F80913D0290913E02A091B8
S11307303F02B0914002281B390B4A0B5B0B273E4A
S113074031054105510540F4822F223010F070E04C
S113075005C070E082E002C070E086EE682F615050
S11307608091B60083FDFCCF8091B200681709F434
S11307706F5F20913D0230913E0240913F025091C3
S11307804002DA01C9010196A11DB11D860F911D18
S1130790A11DB11D82179307A407B50710F4622F9A
S11307A060958091B60083FDFCCF6093B300DFBEFB
S11307B0772319F085E00E94AD011F910F91FF90FE
S11307C0EF90DF900895AFB7F894BB27E1E0E09392
S11307D07F026093350270933602809337029093C0
S11307E03802209398083093990840939A085093BC
S11307F09B08AFBF0E9457030895882319F08CB556
S1130800806802C08CB58F778CBD08950F931F93B9
S113081080E00E944F020FB7F8941127229A239880
S1130820219A8CB580618CBD80E00E94FD038DB55A
S113083081608DBD8CB5877F8CBD8CB58B7F8CBD65
S11308408CB58E7F8CBD81E00E944F020FBF1F913B
S11308500F9108950F931F93CF93DF93182F0FB722
S1130860F89480911402882311F40E940604802FC6
S113087099278FBF8FB7F894C82FDD272C2F80912D
S11308801402882361F481E08093140210938D0292
S11308908DE00E94AD01CFBF80E090E021C0E12F48
S11308A0FF27E557FD4F80818F3F89F4E0910902CE
S11308B0E11789F40CC01093080204C0FF27E55720
S11308C0FD4F10831093090280E090E002C085E0A0
S11308D090E02FBF05C0809108028F3F79F7EBCFDE
S11308E0DF91CF911F910F9108958FB7F8942091C4
S11308F02003309121034091220350912303E0917E
S11309008400F0918500B09B08C02F5F3F4F4F4F8C
S11309105F4FE0918400F091850099278FBFC90152
S1130920772766279F0144275527622B732B842B37
S1130930952B0895FC0180A9826080AB08958C9664
S11309400895CF92DF92EF92FF920F931F938C0141
S11309506A017B010E949A04C8010E949F04FC0161
S1130960C082D182E282F3821F910F91FF90EF90B7
S1130970DF90CF900895FC0182819927982F8827D2
S113098021813327822B932B75E0969587957A9551
S1130990E1F7817090700895CF93DF93EC010E948A
S11309A0BB04882339F18A8129819927982F8827C4
S11309B03327822B932B87749C7C81549848D1F4E1
S11309C08F814E812FB7F894332760910202709182
S11309D003022FBF20E09927982F88275527842BBF
S11309E0952B8617970709F021E081E02827822FAD
S11309F0992702C080E090E0DF91CF910895FC0137
S1130A008181992780739070816498688183892F8C
S1130A109927828308951F920F920FB60F92112483
S1130A208F938091B0008093B0008091B60081FDD7
S1130A30FCCF8F910F900FBE0F901F9018951F93AE
S1130A40182F81E00E944F021EBD0DB407FEFDCF9A
S1130A508EB599271F9108951F920F920FB60F928A
S1130A6011248F929F92AF92BF92CF92DF92EF9216
S1130A70FF920F931F932F933F934F935F936F9323
S1130A807F938F939F93AF93BF93CF93DF93EF9312
S1130A90FF932EB5E0919903F0919A03309739F0C2
S1130AA080911C0390911D03E80FF91F208380910E
S1130AB01C0390911D03019690931D0380931C03C6
S1130AC080E00E94FD03C0911C03D0911D0380911E
S1130AD02A0290912B02C817D90708F046C000914A
S1130AE03609109137098090990390909A030F2E3C
S1130AF0FAE0AF2EBB24F02DAC0EBD1E8A159B056B
S1130B0008F45C016401CC0EDD1E7801EC0EFD1EC0
S1130B1015C00115110519F0F701808101C080E0AD
S1130B200E941F058114910411F0F601808321961F
S1130B300894C11CD11C0894E11CF11CC501019747
S1130B40C817D90730F381E00E94FD030115110590
S1130B5031F00C0F1D1FF80180818EBD01C01EBC39
S1130B60D0931D03C0931C0311C010929A031092DA
S1130B709903109237091092360910922B021092A1
S1130B802A0210921D0310921C038EB5FF91EF915F
S1130B90DF91CF91BF91AF919F918F917F916F9191
S1130BA05F914F913F912F911F910F91FF90EF9083
S1130BB0DF90CF90BF90AF909F908F900F900FBE1B
S1130BC00F901F90189578941F920F920FB60F9262
S1130BD011240F900FBE0F901F90189578941F92B8
S1130BE00F920FB60F9211240F900FBE0F901F900B
S1130BF0189578941F920F920FB60F9211242F9389
S1130C003F938F939F93AF93BF932FB7F89433275A
S1130C108091200390912103A0912203B09123039A
S1130C200196A11DB11D8093200390932103A093ED
S1130C302203B09323032FBFBF91AF919F918F9154
S1130C403F912F910F900FBE0F901F901895E4EFD6
S1130C50F0E06927660FF11DE60FF11DC895982F86
S1130C60802D3196C89590250895982F8091210262
S1130C70882389F5992379F531E030932102809115
S1130C800B028093220220911602822F817080939E
S1130C903B02809110029091110290932402809360
S1130CA02302809117028093250232273170267E19
S1130CB0E32FFF27EE0FFF1FE45FFD4F808191813B
S1130CC09093110280931002232B2093160283E148
S1130CD00E94AD0108958091160280FF02C08B7FAF
S1130CE001C08D7F8093160208950F931F93082FE0
S1130CF0162F80917A028130D9F0813038F0823019
S1130D0009F44AC0833009F027C159C0002309F40B
S1130D1057C110927A08109279081092A803109281
S1130D208D0810927E02109225031092240338C17C
S1130D30002309F045C180912403909125030E946A
S1130D402706909325038093240382E080937A02FC
S1130D5010938D08143409F0FFC024C1869586953C
S1130D6003C0809116028695817009F0F5C08091C8
S1130D701602992311F0846001C0826080931602E8
S1130D8080911602877E8860809316021092170263
S1130D908FEF80930B0214C1002309F0DDC0609330
S1130DA07E0280912403909125030E94270690934C
S1130DB025038093240383E080937A0201C1809108
S1130DC0A8038F3F09F4C8C0002309F460C082302F
S1130DD008F4C2C0E0917908EE2309F4EAC04E2F6A
S1130DE04150E42FFF27E758F74F82819927382F86
S1130DF02227442311F4E2E002C0E42FE150FF274C
S1130E00E758F74F82819927282B392B80912403A7
S1130E10909125032817390709F09EC080E00E94AD
S1130E20350630917E028091140320911503982F8A
S1130E309F5F963008F090E0921771F0E82FFF273B
S1130E40EC5EFC4F32838F5F80931403863010F086
S1130E50109214030E943B0210927A0810927908AF
S1130E6010927A021092A80310928D0810927E02BA
S1130E701092250310922403809126028D7F809383
S1130E80260280911502882309F49AC081C0823019
S1130E9008F44EC0E0917A08FF27E758F74F8281A3
S1130EA0482F5527342F20911602822F8695869538
S1130EB08695837099278130910519F00297F9F48A
S1130EC00EC0277E206120931602442311F485E08E
S1130ED001C080E08093170230930B0210C0809110
S1130EE01702833360F4E0911002F0911102E80FCD
S1130EF0F11D4083809117028F5F809317028091C8
S1130F007A08E82FFF27E758F74F62818F5F8093B5
S1130F107A08833010F010927A087727809124039E
S1130F20909125030E942706909325038093240320
S1130F3080917908E82FFF27E758F74F12838F5FD6
S1130F4080937908833010F0109279088091A80377
S1130F508F5F8093A80334C010927A0810927908A6
S1130F6010927A021092A80310928D0810927E02B9
S1130F701092250310922403809126028D7F809382
S1130F80260281E00E94350680911502882331F003
S1130F9084E080937A020E94D40112C0002381F07D
S1130FA081E00ACF80911602982F917080FDD6CEF1
S1130FB0D8CE80917D089927382F222742E01DCF73
S1130FC01F910F9108951F920F920FB60F92112443
S1130FD02F933F934F935F936F937F938F939F933D
S1130FE0AF93BF93EF93FF938091C00087FF42C0FC
S1130FF06091C600E0912603F0912703309719F120
S11310008091390990913A09E80FF91F608301969C
S113101090933A0980933909209146093091470900
S11310208217930738F110922703109226038091B8
S11310309E038330F9F08091C1008F778093C100C3
S113104010929E0317C06E3719F460E081E010C05F
S1131050809126026D3721F48260809326020AC0B3
S113106081FF05C08D7F8093260280E2682780E09F
S11310700E947506FF91EF91BF91AF919F918F915F
S11310807F916F915F914F913F912F910F900FBE80
S11310900F901F901895982F8D57823068F4809187
S11310A0260281608093260280E289278093A70329
S11310B08DE78093560202C09093560261E070E07F
S11310C086E592E00E94F2019927089578941F9290
S11310D00F920FB60F921124FF920F931F932F9329
S11310E03F934F935F936F937F938F939F93AF93AC
S11310F0BF93CF93DF93EF93FF9320917B023091C3
S11311007C0280918108909182082817390780F425
S1131110E0918E02F0918F02E20FF31F80812F5F26
S11311203F4F30937C0220937B020E94E601D1C0A2
S113113010928F0210928E0210927D028091C10053
S11311408F7B8093C100FFB6F8948091260280FFC4
S11311500EC08E7F809326028091A703809356024F
S113116061E070E086E592E00E94F201AFC08091F8
S11311709F03843009F48CC0853040F4823021F11F
S11311808330B8F5813009F09CC00DC0863009F475
S11311908DC0863008F483C0873009F48EC088304F
S11311A009F08FC091C080918C020E944B08082FD7
S11311B083E080939F0360918C0280914409909115
S11311C045090E94270610C0809196080E944B088A
S11311D0082F83E080939F036091960880914409CF
S11311E0909145090E9427069093450980934409EC
S11311F066C0E0912903FF27EE0FFF1FEE56FD4F57
S113120080810E944B08082F10912903C12FDD27EC
S1131210FE01EE0FFF1FEE56FD4F608180914409E1
S1131220909145090E9427069093450980934409AB
S113123020918A022F5F20938A02113039F5809120
S11312401D02E0911802F0911902E80FF11DE081EE
S11312508F5F80931D0290911C02981730F482E0F6
S11312608093930240E050E002C04E2F5527DE01E8
S1131270AA0FBB1FFD01EF56FD4F8081823031F074
S11312802F3F21F0AE56BD4F4C9319C084E012C0DD
S1131290809144090E944B08082F85E00BC080917F
S11312A045090E944B08082F86E004C00E942702CB
S11312B0082F87E080939F0302C088E003C00023C7
S11312C029F089E080939F030E943B028F2D992788
S11312D08FBFFF91EF91DF91CF91BF91AF919F911C
S11312E08F917F916F915F914F913F912F911F91BA
S11312F00F91FF900F900FBE0F901F9018951F92A3
S11313000F920FB60F9211248F938091C80087FF1C
S113131002C08091CE008F910F900FBE0F901F904E
S1131320189578941F920F920FB60F9211240F9074
S11313300FBE0F901F90189578941F920F920FB6BE
S11313400F9211240F900FBE0F901F901895789450
S11313501F920F920FB60F9211240F900FBE0F9091
S11313601F90189578941F920F920FB60F92112424
S11313700F900FBE0F901F90189578941F920F92A4
S11313800FB60F9211248F939F93809196009091A2
S113139097009F918F910F900FBE0F901F901895FB
S11313A078941F920F920FB60F9211242F933F93AC
S11313B08F939F932FB7F89433278091860290914F
S11313C08702019690938702809386022FBF9F9194
S11313D08F913F912F910F900FBE0F901F901895F2
S11313E01F920F920FB60F9211242F933F934F9396
S11313F05F936F937F938F939F93AF93BF93EF9379
S1131400FF938091B0008093B0008091B60081FD7D
S1131410FCCF8091B30099270196AA27BB2720917E
S11314203D0230913E0240913F0250914002280F0C
S1131430391F4A1F5B1F20933D0230933E024093A5
S11314403F025093400278940E945703FF91EF911A
S1131450BF91AF919F918F917F916F915F914F91C8
S11314603F912F910F900FBE0F901F9018951F93CF
S1131470982F1FB7F89480911202823099F58091C9
S11314800702891779F58091050220E030E08F3F4B
S113149011F421E030E0232BF1F49FEF9093070245
S11314A08F3F19F42FEF30E00DC0282F3327F901B7
S11314B0EC58FD4F8081809305028F3F11F4909387
S11314C0060290832093590281E08093120283E004
S11314D00E94AD0105C08FEF8093070210921202A3
S11314E021E001C020E0812F99278FBF90E02130B7
S11314F009F491E081E09827892F99271F91089595
S11315000F931F93982F1FB7F89480911402823081
S113151099F580910A02891779F58091080220E0F3
S113152030E08F3F11F421E030E0232BF1F49FEF02
S113153090930A028F3F19F42FEF30E00DC0282F4B
S11315403327F901E557FD4F8081809308028F3FCF
S113155011F490930902908320938D0281E080938B
S113156014028DE00E94AD0105C08FEF80930A0242
S11315701092140201E001C000E0812F99278FBF6F
S11315801FB7F89480911402882311F40E944F022B
S1131590812F99278FBF90E0013009F491E081E019
S11315A09827892F99271F910F9108958FB7F89441
S11315B0282F3327922F80910A02882331F48091B7
S11315C01402823011F42FBF13C09FBF8FB7F89459
S11315D0282F332780911402882369F482E08093B2
S11315E0140210920A022FBF0E940604209A289A1D
S11315F081E090E008952FBF80E00E942A0480E0FB
S113160090E00895FF920F931F93CF93DF93EC0123
S1131610FFB6F89480918502882321F580913402E5
S11316209927FC01EE0FFF1FE45AFD4F0081118141
S1131630D183C08301966CE070E00E94841C809387
S113164034022091A403281719F481E080938502C1
S113165080919708882349F40E94AD0181E080932A
S1131660970803C00E94A4018E018F2D99278FBF74
S1131670C801DF91CF911F910F91FF900895809140
S11316807802823031F481E08093780288E00E940D
S1131690AD01089580939C08882311F484E001C06F
S11316A081E08093780288E00E94AD010895CF9391
S11316B0DF93FC018FE38287809127028F5F809301
S11316C02702DF011196ED018A838091130288239A
S11316D019F085E090E022C080A591A5892B71F0D6
S11316E0ED0129813327322F2227818199278062B6
S11316F0282B392B2183232F33272983F093AA0303
S1131700E093A9031092A3031092A20381E08093B3
S1131710130284E00E94AD0180E090E0DF91CF915C
S11317200895EF92FF920F931F93E0913203E1FF2C
S11317302EC020912A0330912B0340912C03509109
S11317402D03E0902E03F0902F03009130031091AD
S11317503103621B730B840B950B6E157F05800799
S11317609107A8F0E0FF04C0ED7FE09332030CC0C2
S11317702E0D3F1D401F511F20932A0330932B032E
S113178040932C0350932D0384E00E94AD0186E026
S11317900E94AD011F910F91FF90EF9008957894EE
S11317A01F920F920FB60F9211242F933F934F93D2
S11317B05F936F937F938F939F93AF93BF93EF93B5
S11317C0FF93E6E8F0E080819181208131818FB739
S11317D0F8949927309389022093880221E020937A
S11317E07E088FBF82E00E94AD01FF91EF91BF910F
S11317F0AF919F918F917F916F915F914F913F91A5
S11318002F910F900FBE0F901F90189578941F92F0
S11318100F920FB60F9211242F933F934F935F9320
S11318206F937F938F939F93AF93BF93EF93FF93A4
S113183080916F008D7F80936F0078949FB7F894A8
S113184080919B03813019F482E080939B03892F5C
S113185099278FBF82E00E94AD01FF91EF91BF9164
S1131860AF919F918F917F916F915F914F913F9134
S11318702F910F900FBE0F901F9018954F925F926B
S11318806F927F928F929F92AF92BF92CF92DF928C
S1131890EF92FF920F931F93CF93DF932C018091CC
S11318A02802882309F085C180913809853009F020
S11318B080C10E94D60A882309F47BC180917E08E6
S11318C0882309F076C160E3862E912C840C951C44
S11318D0F20180A982FD02C090E003C0F20192A946
S11318E09F708091C802981781F09093C80228983D
S11318F085EC8EBD0DB407FEFDCF8EB590689EBD00
S11319000DB407FEFDCF8EB5289AE2012196898198
S1131910F201218140E09927982F88273327822BD1
S1131920932B87749C7C8154984809F441E04423A8
S113193001F1289886E88EBD0DB407FEFDCF8EB563
S11319401EBC0DB407FEFDCF8EB5289A99278F7162
S113195090702091840240917502240F312D311D25
S113196043E0359527954A95E1F7281739070CF494
S113197020C1289882EC8EBD0DB407FEFDCF8EB534
S113198089E08EBD0DB407FEFDCF8EB5289A0E9466
S113199075047B018C01D4018C9184FD03C0E0E0CB
S11319A0F0E005C0F20180818550E80FF11D289810
S11319B081E88EBD0DB407FEFDCF8EB51EBC0DB4FF
S11319C007FEFDCF8EB5289A8F71893079F028985B
S11319D082EC8EBD0DB407FEFDCF8EB586E08EBDC4
S11319E00DB407FEFDCF8EB5289AE3C08FB7F894E7
S11319F099272F9A20918400309185008FBF2F98CA
S1131A00289880E68EBDD2019C910DB407FEFDCFCF
S1131A108EB59EBD792F7250773010F4672F01C0B8
S1131A2067E0DE01962F4D910DB407FEFDCF8EB514
S1131A304EBD9150C1F76150C60FD11D6F5F219605
S1131A402E193F092E553F4F3901882477FC809485
S1131A50982C6E0C7F1C801E911E309719F4972FC2
S1131A60961B42C02081E1808281A3809927AA2706
S1131A70BB27BA2FA92F982F882733274427552708
S1131A80522F442733272227FF24002711278701B9
S1131A90FF24EE242E293F29402B512BBB24CC2498
S1131AA0DD242A293B294C295D29822B932BA42B45
S1131AB0B52B86199709A809B9098383292F3A2FC9
S1131AC04B2F552722839D014427552721838B2F94
S1131AD09927AA27BB278083C2CF28810DB407FE8C
S1131AE0FDCF21968EB52EBD9150B8F70DB407FEEB
S1131AF0FDCF8EB5289A289882EC8EBD0DB407FED2
S1131B00FDCF8EB586E08EBD0DB407FEFDCF8EB53C
S1131B10289A3097D1F12081E1808281A38099278E
S1131B20AA27BB27BA2FA92F982F88273327442702
S1131B305527522F442733272227FF240027112714
S1131B408701FF24EE242E293F29402B512BBB244F
S1131B50CC24DD242A293B294C295D29822B932B73
S1131B60A42BB52B860D971DA81DB91D8383292F82
S1131B703A2F4B2F552722839D0144275527218334
S1131B808B2F9927AA27BB278083C2010E949A041E
S1131B90C2010E949F04FC0160827182828293824E
S1131BA086E08093380984E08093280280E090E006
S1131BB002C085E090E0DF91CF911F910F91FF90DB
S1131BC0EF90DF90CF90BF90AF909F908F907F90D9
S1131BD06F905F904F900895CF92DF92EF92FF92B3
S1131BE00F931F93CF93DF93E82FFF27E431F10581
S1131BF010F00C948418EA59FF4FEE0FFF1F059064
S1131C00F491E02D09948FB7F894282F3327422FAD
S1131C10909134028091A403981739F4809185023D
S1131C20882319F41092970896C04FBFE091A4033B
S1131C30FF27EE0FFF1FE45AFD4F0190F081E02DC6
S1131C4080818D50482F5527642F40932803B385F6
S1131C507781A681818520859927982F8827332726
S1131C60822B932B3481359627E0EF0119922A9524
S1131C70E9F735978087892F992787833287E09101
S1131C80A403FF27EE0FFF1FE45AFD4F0190F081DC
S1131C90E02D6D3110F00C94EF17872F9927982FB2
S1131CA088272A2F3327822B932B8683892F9927E2
S1131CB08583B387418780911A0290911B02892BF7
S1131CC011F00C94EF172FB7F894332785E0809325
S1131CD01D0210921E02F0931902E093180282E092
S1131CE090E090931B0280931A02109220021092AB
S1131CF01F02645F60931C022FBF9FB7F89480910A
S1131D009302882311F020E006C081E080939302BF
S1131D101092940221E0892F99278FBF222311F476
S1131D200C9470180E943B028FB7F894992722B143
S1131D3032E0CBC08FB7F894282F3327422F9091ED
S1131D40290280914D09981749F480913302882320
S1131D5029F410922C022FBF0C9484184FBFE091E9
S1131D604D09FF27EE0FFF1FE450FD4FC081D181C5
S1131D70F984ED80DE800F8188851127102F0027DC
S1131D809927082B192BCB84CE010E94FF0419A696
S1131D9018A618AAFE0131960887012F1127098772
S1131DA02CE12F1508F46AC58181298140E0992727
S1131DB0982F88273327822B932B87749C7C8154FC
S1131DC0984809F441E0442319F4CE010E94FF0429
S1131DD04E2D5527542F44278D2D9927482B592BA9
S1131DE08DE0F80EF8822FB7F89433278091020221
S1131DF0909103022FBF8887892F992789872FB74E
S1131E00F8943327809104022FBF99278C831D8275
S1131E10CB864E83452F55274F838FB7F894282FB1
S1131E20332780911202882371F482E08093120296
S1131E30109207022FBFCE010E94570B9927182F2B
S1131E40882399F00FC02FBFD0935B02C0935A022E
S1131E508FB7F894C82FDD272C2F80911202882386
S1131E6099F406C080E00E94370A812F992725C083
S1131E7081E0809312021092590283E00E94AD0126
S1131E80CFBF80E090E019C0809174028F3F91F43D
S1131E90E0910602EE2371F00C947518109205027D
S1131EA004C0FF27EC58FD4F10821092060280E018
S1131EB090E002C085E090E02FBF892B09F0DEC4DA
S1131EC08FB7F894992722B134E0232722B90C94D0
S1131ED06E1880917E08882309F4F4C00E94D60A03
S1131EE0882309F4EFC08FB7F8949927C09188022A
S1131EF0D09189028FBF10927E0828988FE88EBDFA
S1131F000DB407FEFDCF8EB51EBC0DB407FEFDCF8C
S1131F108EB5289A982F80912802833011F087304B
S1131F2031F485E08093380988E080932802092FF2
S1131F30112702FF55C080912802863019F41092AF
S1131F40280203C0882309F04BC09430C1F52898B7
S1131F5086E88EBD0DB407FEFDCF8EB51EBC0DB454
S1131F6007FEFDCF2EB5289A2F7180917502982F08
S1131F7096959695E22FE91B8E0F80937502E0915A
S1131F803902F0913A0280A98B7F886080AB22AB42
S1131F900E947504DC01CB01C81BD90B2797AE0145
S1131FA0662757FD6095762F480F591F6A1F7B1FC0
S1131FB08091390290913A020E94A1040EC0E091EE
S1131FC03902F0913A0280A9877F80ABE09139020F
S1131FD0F0913A0280A98D7F80AB85E0809328023E
S1131FE003FF70C080912802843009F04EC085E060
S1131FF0809338091092280280913C02833019F4AE
S113200010923C025FC0C0914209D0914309CE01B5
S11320100E94BB04882389F18A8129819927982FFA
S113202088273327822B932B87749C7C8154984870
S113203021F58F812E819927982F88273327822B8A
S1132040932B8F5F9F4FC9F090E080919B0388236F
S113205009F491E0992389F012E01093900281E051
S113206080939B0380918400909185006CEC7AE0CE
S11320700E94E10210933C0225C010923C0210928F
S1132080790280E00E944A0B1DC08530D9F420916A
S11320908402289886E88EBD0DB407FEFDCF8EB568
S11320A01EBC0DB407FEFDCF8EB5289A8F71922FFA
S11320B096959695891B280F2093840289E0809336
S11320C0280208C090912802992309F4EFC299309C
S11320D009F01CC2289880E28EBD0DB407FEFDCF26
S11320E08EB51EBC0DB407FEFDCF8EB5482F552707
S11320F0433010F40C947D18842F99278A9714F098
S11321000C947D181EBCE0913902F0913A02408390
S1132110142F1250173010F4912F01C097E0BF0113
S11321206F5F7F4F292FFB0140E050E00DB407FEA5
S1132130FDCF8EB51EBC808381914827042E429525
S1132140407F4025052E542F42954F700426469516
S113215054274527440F440F440F4025215031F79D
S11321609150DB01A90FB11D9F5F1196E0913902D7
S1132170F0913A0281818770823009F421E02223B0
S113218049F020E030E080913C02823081F421E08B
S113219030E00DC08FB7F894282F332760E080918A
S11321A00F06833008F461E02FBF262F3327232B3B
S11321B009F45CC0191B912F18C00DB407FEFDCFA4
S11321C08EB51EBC8C938D914827042E4295407F7A
S11321D04025052E542F42954F70042646955427CA
S11321E04527440F440F440F4025915030F70DB458
S11321F007FEFDCF8EB51EBC9A012827022E22951C
S1132200207F2025032E322F22952F70022626951B
S113221032272327220F220F220F20250DB407FE79
S1132220FDCF8EB51EBC2827022E2295207F2025A7
S1132230032E322F22952F7002262695322723272C
S1132240220F220F220F20250DB407FEFDCF8EB5DD
S1132250E0913902F0913A0281AB289A15E010938B
S1132260380910922802232B31F01CC20DB407FE4A
S1132270FDCF8EB542C7E0903902F0903A02670173
S11322800894C11CD11CE701898190E0282F3327D1
S1132290277030702230310509F491E080913C02BE
S11322A0992319F1823009F02CC1F7019381E0914F
S11322B04209F09143098381981709F022C1223021
S11322C0310509F01EC180916F008D7F80936F00EE
S11322D010929B0380A9816080AB10923C02109203
S11322E0790280E00E944A0B0CC18823C9F4C7011B
S11322F00E94CC048823A1F01093C90282E0809349
S1132300CA021092CB02E7018B818093CC0289EC44
S113231092E00E943E0C882319F483E080933C02EF
S1132320C0918400D0918500C7010E94CC04882309
S113233011F0C45EDC4FD0931F03C0931E03809141
S1132340840090918500BE01681B790B1616170650
S1132350E4F4809179028823A9F490E080919B03AE
S1132360882309F491E0992381F081E0809390021D
S113237080939B0380918400909185000E94E102E8
S113238080E801C0806880937902F6018085278106
S11323909927582F44273327422B532B80914102EE
S11323A0282F3327F901EE0FFF1FED57F74F8081D8
S11323B0918170919C038417950769F4F901E45C99
S11323C0F64F8081871709F467C0872F8F5F80934A
S11323D09C0380831DC000E010E080E090E0C3E82F
S11323E0D8E0ECE3F9E0DF01682F9C018881998152
S11323F08417950779F42093410290919C038C9162
S1132400891709F449C0892F8F5F80939C038C93AB
S113241000E829C08081972F981B091710F4092F11
S1132420122F6F5FC901019611962296319685305D
S11324309105D1F66530B9F410934102A12FBB2761
S1132440FD01EE0FFF1FED57F74F5183408380913D
S11324509C038F5F80939C03FD01E45CF64F8083B3
S1132460A85BB64F1C9290919C03892F8F778F376E
S113247079F40F3768F0ECE3F9E0292F20788081B4
S11324808F6789132083319639E0E134F307B9F774
S113249080914102282F3327E6019A81A22FBB277E
S11324A0FD01E85BF64F808180FF07C0FD01E05F1E
S11324B0F94F8081981729F102C081608083A05F61
S11324C0B94F9C93DFB6F89480910F068330B0F433
S11324D0E0919508E80FE33008F0E350FF27EE0F92
S11324E0FF1FE35DFD4F00811181F182E0828F5F68
S11324F080930F0689E00E94AD0178018D2D992704
S11325008FBFF0923A02E0923902C3C0892F815002
S1132510833008F09CC081508230E0F43091380957
S11325203130C1F420E080919B03882309F421E039
S1132530222381F02F9883E08093900230939B03B1
S113254080918400909185006BE273E00E94E10227
S113255082E068C0933009F042C08091380983302A
S113256009F0A0C00E94D60A8823C9F128988FE8F0
S11325708EBD0DB407FEFDCF8EB51EBC0DB407FE97
S1132580FDCF8EB5289A809181008064809381006C
S113259080E286BB80916F00806280936F0090918F
S11325A05802289888EC8EBD0DB407FEFDCF8EB579
S11325B090669EBD0DB407FEFDCF8EB5289A28986F
S11325C082EC8EBD0DB407FEFDCF8EB586E08EBDC8
S11325D00DB407FEFDCF8EB5289A84E023C0809108
S11325E028028150823000F5809138098530E1F469
S11325F00E94D60A8823C1F0289882EC8EBD0DB4BF
S113260007FEFDCF8EB583E08EBD0DB407FEFDCF72
S11326108EB5289A80916F008F7D80936F00109201
S11326207E0883E08093380990912802913041F428
S1132630809138098330B1F52F9A9093380925C0D9
S1132640923039F580913809833061F51EC0973096
S113265001F50E94D60A8823E1F090915802289847
S113266088EC8EBD0DB407FEFDCF8EB590669EBD81
S11326700DB407FEFDCF8EB5289A809138098530B8
S113268021F484E08093380904C088E08093280210
S113269004C080912802883029F41092280287E02F
S11326A00E94AD0180912802882309F580913809A0
S11326B08530D1F480917E088823B1F480913C0266
S11326C0882391F480917902882371F490E08091B9
S11326D09B03882309F491E0992331F00E943F0B76
S11326E080912802882319F48BE00E94AD01809127
S11326F09B03823009F008C510929B03F09090026E
S1132700E2E0FE1609F47AC0F3E0FF1609F47EC095
S113271021E0F21609F0F8C480911E0390911F0382
S1132720609184007091850020917902203829F409
S1132730109279020E943F0BE7C48C01061B170B11
S113274027FF03C010161106ECF0C0917602D09159
S1132750770280913C028823A9F4CE010E943E0CAA
S11327609927882351F488A98E7F88ABF0923C0284
S1132770D0934309C09342093DC09927F82E88237A
S1132780C9F102C065E0F62E20917902822F9927C3
S11327908F770197B1F4207822602093790280E149
S11327A098E00E940B0321E02093900220939B0366
S11327B02091840030918500BC01C9010E94E1028E
S11327C0A3C427FF13C01016110684F480E8809375
S11327D0790281E08093900280939B03809184002E
S11327E090918500B8010E94E10202C01092790222
S11327F08F2D09C083E08093790286C410923C0235
S11328001092790280E00E944A0B7EC480913809BC
S1132810823019F4F0923809B9C2809128028630C6
S113282009F0B4C210922802289881E88EBD0DB434
S113283007FEFDCF8EB51EBC0DB407FEFDCF8EB5D1
S1132840289AA4C22FB7F894332780915902809311
S1132850070282E0809312022FBF8091070288232F
S113286009F052C480915A0290915B020E94570B66
S1132870882309F449C480E00E94370A0E94A40115
S113288081E0D1C3E091A903F091AA0320A531A569
S1132890109113021230E9F52115310519F080A9C0
S11328A080FF02C084E030C08091A2039091A30312
S11328B001969093A3038093A2038217930718F5BC
S11328C081E080931302C2A5D3A5209721F10E9431
S11328D02E0360932A0370932B0380932C0390930D
S11328E02D03CE01AA27BB2780932E0390932F0399
S11328F0A0933003B09331038091320383608093BB
S1132900320386E090C385E0809313021091130292
S113291019C01130B9F482E0809313022091A90305
S11329203091AA0380917802882309F01FC1309363
S1132930A1032093A00381E08093780210929D0369
S113294088E071C3143008F4DFC3232B51F0E09105
S1132950A903F091AA038091A2039091A30391A7E4
S113296080A710921302C091A903D091AA038A856B
S11329708F3309F0C9C380E00E94370A143009F08C
S11329807DCF3FB7F89420914D09E22FFF27EE0F3A
S1132990FF1FE450FD4F80819181C817D90771F45E
S11329A0822F8F5F80934D098C3010F010924D0967
S11329B080913302882311F010923302832F9927D8
S11329C08FBF5ECF80915702882361F520918E08D6
S11329D030918F084091900850919108EFB7F89486
S11329E0FF276091350270913602809137029091F1
S11329F03802E0909808F090990800919A08109194
S1132A009B086E0D7F1D801F911FEFBF20938E08C2
S1132A1030938F0840939008509391081092570276
S1132A200E94E3030E942E033AC00E942E037B01FE
S1132A308C018FB7F894992710927F028FBF8091F1
S1132A40320381FF61C380912A0390912B03A091EB
S1132A502C03B0912D03A8019701281B390B4A0BB5
S1132A605B0BDA01C90120912E0330912F034091B1
S1132A70300350913103281B390B4A0B5B0B2F3F5A
S1132A808FEF38078FEF48078FE7580709F43CC3E7
S1132A9012161306140615062CF0C801B7010E947D
S1132AA0910B32C320938E0830938F084093900883
S1132AB05093910881E080935702C801B7010E94A6
S1132AC0E30322C38091780210927802853019F4CE
S1132AD01092330219C3863009F416C3873009F4FF
S1132AE013C338C0109178021130B9F580919D0359
S1132AF08F5F80939D03863080F52091A0033091F1
S1132B00A10380917902882309F590E080919B03C9
S1132B10882309F491E09923C9F030937702209334
S1132B207602109379028BED91E10E940B03BC01B4
S1132B301093900210939B038091840090918500E0
S1132B400E94E10210929C0883E004C085E0809317
S1132B509C0882E080937802D7C210927802809118
S1132B609C08882319F08C5F8093130284E05BC275
S1132B700E94D401CFBFC8C28FB7F894282F33273F
S1132B8080910F06882309F4E6C8E0919508FF2791
S1132B90EE0FFF1FE35DFD4FA081B1812FBFED015B
S1132BA08A859F812E818F3381F4BD01645F7F4FBD
S1132BB08C918D50482F55278FB7F89499278FBF44
S1132BC0CD010E94020BDC011AC0892F9927582FCE
S1132BD04427822F9927482B592B8FB7F89499278C
S1132BE020910202309103028FBF4217530719F05C
S1132BF04F5F5F4F21F48FB7F89499278FBF9FB72A
S1132C00F89480919508E82FFF27EE0FFF1FE35DEE
S1132C10FD4FB183A0838F5F80939508833010F0BC
S1132C201092950880910F06815080930F06892F8A
S1132C3099278FBFA1CF0E9458022FB7F89433274A
S1132C407093A6036093A5030C94AB0E8FB7F8940E
S1132C50992710929A0310929903109237091092AF
S1132C60360910922B0210922A0210921D03109220
S1132C701C032DC92FB7F894332780918D028093BC
S1132C800A0282E0809314022FBF80910A028823F3
S1132C9009F03AC2209A289A80913809882309F0C9
S1132CA075C08EEF91E0019701960197E1F71698B0
S1132CB02F9886E090E0019701960197E1F7169A24
S1132CC0289883EC8EBD0DB407FEFDCF8EB51EBCD7
S1132CD00DB407FEFDCF8EB5289A289882EC8EBDE0
S1132CE00DB407FEFDCF8EB588E08EBD0DB407FE92
S1132CF0FDCF8EB5289A8EEF91E00197019601974A
S1132D00E1F728988EEC8EBD0DB407FEFDCF8EB58D
S1132D108DE48EBD0DB407FEFDCF8EB5289A28989C
S1132D2089EC8EBD0DB407FEFDCF8EB587EC8EBD4C
S1132D300DB407FEFDCF8EB5289A289885EC8EBD7C
S1132D400DB407FEFDCF8EB580E88EBD0DB407FE31
S1132D50FDCF8EB5289A1092C8028BE0809358025A
S1132D60289888EC8EBD0DB407FEFDCF8EB58BE69A
S1132D708EBD0DB407FEFDCF8EB5289A2F9A81E043
S1132D808093380980E00E94800ABEC182E04BC172
S1132D908FB7F89410923B0920919F0340E02830AC
S1132DA009F441E030E0293009F431E0442311F41E
S1132DB0332351F010929F03E0912903FF27EE0F74
S1132DC0FF1FEF56FD4F108299278FBF442311F444
S1132DD0332331F19FB7F894809196088F5F8093E5
S1132DE0960880918C02833479F4209115038091A4
S1132DF01403821779F0822F8F5F80931503863036
S1132E0048F01092150306C0A0E0442309F4A1E0A1
S1132E1071E002C0A0E070E0892F99278FBF06C03F
S1132E20222311F010E06CC0A0E070E08FB7F8949A
S1132E309927209115028FBF222341F08FB7F89470
S1132E4099272AE020939F038FBF42C08FB7F8943D
S1132E50992760919102409193028FBF8FB7F894A4
S1132E60282F332750E0909114038091150398176D
S1132E7009F451E02FBF552341F5662331F55FB7BF
S1132E80F89482E0809391028FB7F894282F332727
S1132E9040E09091140380911503981709F441E0E0
S1132EA02FBF442311F080E006C0E0911503FF27F3
S1132EB0EC5EFC4F82818093920283E480938C02C7
S1132EC010922903852F99270EC04150423010F0EB
S1132ED010E00BC08FB7F894992725E420938C0257
S1132EE021E0209329038FBF11E0772349F08FB7A6
S1132EF0F8949927A0931E028FBF82E10E94AD012E
S1132F008FB7F894C82FDD2780919F038A3009F486
S1132F102FCECFBF112309F4F7C02FB7F89433276E
S1132F20109245091092440910928A0281E080931C
S1132F309F032FBF0E942702882309F4E5C08FB79F
S1132F40F894992729E020939F038FBF0E943B02A6
S1132F50DBC08091C1008F7B8093C1008091C10050
S1132F608F778093C10010929E0310927D0280910E
S1132F70C10088608093C1008091C100806180930A
S1132F80C1008091C10080688093C10010928502C5
S1132F90BBC081E148C08091C100877F8093C1009C
S1132FA08091C1008F7E8093C100AEC010921B023D
S1132FB010921A028FB7F894992720911E028FBF9E
S1132FC080911F02811123E040911802509119024F
S1132FD080912002882309F097C0222319F00E94CF
S1132FE0A40120C03FB7F8942091A403E22FFF2747
S1132FF0EE0FFF1FE45AFD4F808191814817590756
S113300071F4822F8F5F8093A4038C3010F01092A0
S1133010A40380918502882311F010928502832FE6
S113302099278FBF80E00E94AD016EC08FB7F894DE
S1133030992720912202C0912302D0912402F0907A
S11330403B028FBF2223A1F5EFB6F894809133029F
S1133050882339F580912902E82FFF27EE0FFF1FFF
S1133060E450FD4F00811181D183C0838F5F809331
S113307029028C3010F0109229029091290280913B
S11330804D09981719F481E08093330280912C0242
S1133090882351F481E00E94AD0181E080932C02E9
S11330A003C00E94A4018E018E2D99278FBFE801D1
S11330B08FB7F894EF2DFF27EE0FFF1FE45FFD4F4E
S11330C0D183C08320911602FF2011F02B7F01C011
S11330D02D7F209316021092210299278FBF14C0CE
S11330E010921B0210921A027ACF809105028F3F30
S11330F011F00C94510F0C944E0F289A85E0809394
S1133100380910922802CECADF91CF911F910F91F6
S1133110FF90EF90DF90CF900895809192088F3FB9
S1133120B1F0282F3327F901EE5BFD4F80818093A6
S113313092088F3F11F4809341098FEF80832F3FD2
S113314031F0822F0E94EC0D81E090E0089580E040
S113315090E00895FF920F931F93FFB6F89414BE66
S113316088E10FB6F89480936000109260000FBE5F
S113317044E150E06FEF70E082E492E00E940F1DA2
S11331808FEF809392088093410956985E985498E3
S11331905C9880916F008F7D80936F00209A289AAD
S11331A0279A2F980E9A169A85E992E090933A02FC
S11331B080933902109284028AE58093750281E03B
S11331C08093810080E28093B60083E08093B10015
S11331D080918400909185004AE720918400309189
S11331E085002817390708F44150442311F0C90118
S11331F0F4CF9091B2008091B2008917E1F320914D
S11332008400309185009091B2008091B2008917BA
S1133210E1F38091840090918500821B930B40968A
S113322035E0969587953A95E1F7909394088093C5
S113323093081092B1008091B10080938100809135
S113324081008093B6001092B20010928500109213
S113325084008FEF87BB87B386BB8091B6008571EE
S1133260E1F70A9A099A089A129A119A109A18B8C8
S11332708FEF87B90C9814981092950010929400CF
S11332808091710081608093710080919100887FAA
S11332908260809391001092850010928400809146
S11332A06F00816080936F0080918100887F8260CD
S11332B0809381000E948D188823E1F712E006E0D4
S11332C06091930870919408882799272CE0660FE1
S11332D0771F881F991F2A95D1F720E031EE40E02F
S11332E050E00E94971C215030402093C400832F4B
S11332F099278093C5001093C0000093C2001092D8
S1133300C1002093CC008093CD001093C80000939B
S1133310CA001092C90084E490E0909380088093DE
S11333207F08109291021092930210929F031092C0
S11333308A0210928C0210929608109245091092FB
S1133340440910923B091092290310927A081092B2
S1133350790810927A021092A80310928D081092A4
S11333607E021092250310922403109215031092EA
S113337014038FEF80938B0280E00E942A04209133
S11333800002309101022F5F3F4FC901AA27BB27DA
S11333908093800290938102A0938202B09383026F
S11333A08DE998E090932E0280932D02C39690931A
S11333B0300280932F0283E099E09093320280934D
S11333C031028091B60080628093B6008091B6008D
S11333D081FDFCCF82E08093B0008091B60080FD37
S11333E0FCCF83E08093B1008091B60083FDFCCFD5
S11333F086EE8093B30080917000826080937000A9
S11334000E9457038FEF9FEF909384088093830863
S11334109093860880938508909388088093870802
S113342090938A088093890890938C0880938B08E2
S1133430809100028295807F809327028FEF809392
S113344074020E948D188823E1F78F2D99278FBF6E
S11334507894ECE5F2E085E196E081939193C3964C
S113346022E0E437F207C9F71092A4031092340261
S11334701092970881E080938502ECEFF2E08BEAEA
S113348093E081939193C39623E0E431F207C9F763
S113349010924D091092290210922C0281E080931F
S11334A03302809178028823E9F4809128028823EA
S11334B0C9F480913809813049F490E080919B03EC
S11334C0882309F491E0992369F003C0853009F455
S11334D083C083E08093280282E00E94AD0185E0EE
S11334E0809378028FE00E94AD018FB7F894482F43
S11334F0552757C080917000992783709070892B4D
S113350019F4E5E0F0E014C08091B6008A71E1F7A7
S11335108091B3009091B200891B8C3038F0809177
S1133520B200853F18F4E3E0F0E002C0E2E0F0E02E
S113353080916E00867009F580916F008E72E9F4B7
S1133540809171008E72C9F40CB407FC16C080918E
S1133550C100887191F48091C900887171F48091DF
S1133560BC0082FD0AC080917A0087FF03C081E01D
S113357090E005C085E090E002C080E090E023B7D1
S11335808E1708F4E82FFF27EC50FD4FE491207FBD
S11335902160E22BE3BF78948895F89483B78E7FFB
S11335A083BF809192088F3F09F4A4CF282F33273B
S11335B0F901EE5BFD4F8081809392088F3F11F4F7
S11335C0809341098FEF80832F3F09F493CF4FBF3E
S11335D0822F0E94EC0D89CF1092330283CFACE28C
S11335E0B0E0E5EFFAE10C94D81C222E332E442EE1
S11335F0552E662E772E882E992EFE013196A8E040
S11336001192AA95E9F729823A824B825C826D82F3
S11336107E828F829886FE013996B8E01192BA951F
S1133620E9F7A986BA86CB86DC86ED86FE860F8707
S1133630188B89819A81AB81BC8189A79AA7ABA792
S1133640BCA77C018D018FEF9FEFA0E0B0E0E822E2
S1133650F9220A231B2389A59AA5ABA5BCA51D01A4
S11336604424552489859A85AB85BC858DA39EA366
S1133670AFA3B8A75C016D018FEF9FEFA0E0B0E0AE
S1133680A822B922CA22DB228DA19EA1AFA1B8A58E
S11336903D0188249924C801B701A60195010E941F
S11336A0B91C69A37AA38BA39CA3C801B701A40185
S11336B093010E94B91C7B018C01C201B101A601D6
S11336C095010E94B91C5B016C01C201B101A40106
S11336D093010E94B91C3B014C01EA0CFB1C0C1D1C
S11336E01D1D89A19AA1ABA1BCA19D014427552709
S11336F02E0D3F1D401F511F2A153B054C055D052E
S113370040F480E090E0A1E0B0E0680E791E8A1EEB
S11337109B1ECA01AA27BB27860D971DA81DB91D8C
S11337208D8F9E8FAF8FB8A3A9013327222789A13C
S11337309AA1ABA1BCA1A070B070280F391F4A1F79
S11337405B1F298F3A8F4B8F5C8FA98CBA8CCB8CE3
S1133750DC8CED8CFE8C0F8D18A1FE01719698E027
S113376011929A95E9F7ED8AFE8A0F8B188F2D81B5
S11337703E814F8158856DA17EA18FA198A50E949D
S1133780B91C3B014C012D853E854F85588969A59F
S11337907AA58BA59CA50E94B91C2D893E894F89C9
S11337A0588D260F371F481F591F260D371D481DDA
S11337B0591D2D8B3E8B4F8B588F6D887E888F883B
S11337C0988C2A2D3B2D4C2D5D2D662D772D882D23
S11337D0992DE2E1AC960C94F41CA0E1B0E0E3EF87
S11337E0FBE10C94D81C222E332E442E552E662E2B
S11337F0772E882E992E002309F466C088E0FE01F6
S1133800319611928A95E9F729833A834B835C8335
S11338106D837E838F829887E0E2E01B1E16CCF5D1
S11338202D813E814F815885602F772767FD7095E4
S1133830DA01C901062E04C0B695A7959795879518
S11338400A94D2F78D879E87AF87B88B04C0220F66
S1133850331F441F551FEA95D2F789819A81AB81A2
S1133860BC8104C0B695A795979587956A95D2F7BC
S1133870282B392B4A2B5B2B29873A874B875C876C
S113388029843A844B845C846D847E848F849888F4
S11338901BC01D861E861F86188A2E2F332727FDE0
S11338A03095309521953F4F8D819E81AF81B885AC
S11338B004C0B695A795979587952A95D2F78987D9
S11338C09A87AB87BC87DCCF222D332D442D552D11
S11338D0662D772D882D992DE2E160960C94F41CC9
S11338E0AA1BBB1B51E107C0AA1FBB1FA617B70722
S11338F010F0A61BB70B881F991F5A95A9F780953E
S11339009095BC01CD01089597FB092E07260AD096
S113391077FD04D0E5DF06D000201AF47095619598
S11339207F4F0895F6F7909581959F4F0895A1E2F2
S11339301A2EAA1BBB1BFD010DC0AA1FBB1FEE1F25
S1133940FF1FA217B307E407F50720F0A21BB30B70
S1133950E40BF50B661F771F881F991F1A9469F7EC
S113396060957095809590959B01AC01BD01CF0148
S11339700895629FD001739FF001829FE00DF11DB5
S1133980649FE00DF11D929FF00D839FF00D749FD5
S1133990F00D659FF00D9927729FB00DE11DF91F81
S11339A0639FB00DE11DF91FBD01CF0111240895DE
S11339B02F923F924F925F926F927F928F929F923B
S11339C0AF92BF92CF92DF92EF92FF920F931F9329
S11339D0CF93DF93CDB7DEB7CA1BDB0B0FB6F894DA
S11339E0DEBF0FBECDBF09942A88398848885F841A
S11339F06E847D848C849B84AA84B984C884DF808B
S1133A00EE80FD800C811B81AA81B981CE0FD11D6E
S1133A100FB6F894DEBF0FBECDBFED010895DC01F3
S1113A2001C06D9341505040E0F70895FFCF70
S1133A2E0100010022FFFFFFFFFFFFFF33036603C8
S1053A3E33034C
S9030000FC
