S01700006275696C642F697269732F6D61696E2E7372656343
S11300000C9469000C9488000C9488000C9488006B
S11300100C9488000C9488000C9488000C9488003C
S11300200C9488000C9488000C9488000C9488002C
S11300300C9488000C9465050C9488000C94C703F8
S11300400C94C80E0C94FE0E0C949F040C94AA04F9
S11300500C94B5040C9488000C9488000C948800CB
S11300600C94E8030C9488000C9488000C94880089
S11300700C9488000C94E3040C9488000C9488007D
S11300800C9488000C9488000C9488000C948800CC
S11300900C9488000C9488000C9488000C948800BC
S11300A00C9488000C9488000C9488000C948800AC
S11300B00C9488000C9488000C9488000C9488009C
S11300C00C9488000C9488000C94880000020E069E
S11300D00C0411241FBECFEFD1E2DEBFCDBF12E06E
S11300E0A0E0B2E0E6E0FFE200E00BBF02C0079050
S11300F00D92AE30B107D9F713E0AEE0B2E001C023
S11301001D92AD3EB107E1F70E94BF130C94821714
S11301100C9400008FB7F894992708958FBF089521
S11301208FB7F894992722B132E0232722B98FBFE1
S113013008958FB7F894992722B134E0232722B980
S11301408FBF0895282F9FB7F894E82FFF27E75D06
S1130150FD4F80818F3F81F4E091E503E21771F454
S11301600BC02093390304C0FF27E75DFD4F2083B4
S11301702093E50320E007C025E005C08091390302
S11301808F3F91F7EECF892F99278FBF822F992721
S11301900895CF93DF93FC018FE38287809113024C
S11301A08F5F80931302DF011196ED018A838091A2
S11301B00F02882319F085E090E021C080A591A565
S11301C0892B71F0ED0129813327322F2227818178
S11301D099278062282B392B2183232F33272983C6
S11301E0F0931903E093180310921503109214036B
S11301F081E080930F020E94A20080E090E0DF91F2
S1130200CF91089580913D03882319F02FE150E0A8
S113021002C058E02EE1622F7FB7F8948091390232
S11302208E7F8093390280917C00982F9F718295F4
S113023086958695837019F080E090E00CC040E0CC
S11302403327892F99272817390709F041E081E0DE
S11302504827842F9927982F9170990F80913902FC
S11302608178262F2F71422F440F440F892B842B22
S113027080933902332720937C00583059F58091BC
S11302803A0390913B0321E08638920718F087E007
S113029090E01FC0833C910518F086E090E019C0FF
S11302A08136910518F085E090E013C08033910504
S11302B018F084E090E00DC08831910518F083E0D7
S11302C090E007C00C9718F082E090E002C080E054
S11302D090E0582F5770887D852B886D99278093DF
S11302E07A00872F99278FBF0895882319F08CB53A
S11302F0806402C08CB58F7B8CBD08950F931F93CF
S1130300982F1FB7F89480911002823099F580914C
S11303100A02891779F58091080220E030E08F3FC6
S113032011F421E030E0232BF1F49FEF90930A02C3
S11303308F3F19F42FEF30E00DC0282F3327F90138
S1130340ED57FD4F8081809308028F3F11F4909305
S1130350090290832093840281E0809310028AE052
S11303600E94A20005C08FEF80930A02109210022F
S113037001E001C000E0812F99278FBF1FB7F894D7
S113038080911002882311F40E947501812F99270E
S11303908FBF90E0013009F491E081E09827892F24
S11303A099271F910F910895882319F08CB58068BF
S11303B002C08CB58F778CBD08950F931F9380E096
S11303C00E9475010FB7F8941127229A2398219A55
S11303D08CB580618CBD80E00E94D4018DB58160B4
S11303E08DBD8CB5877F8CBD8CB58B7F8CBD8CB55A
S11303F08E7F8CBD81E00E9475010FBF1F910F910C
S113040008958FB7F8942091F4023091F502409149
S1130410F6025091F702E0918400F0918500B09BC0
S113042008C02F5F3F4F4F4F5F4FE0918400F09122
S1130430850099278FBFC901772766279F01442725
S11304405527622B732B842B952B0895FC0180A9CF
S1130450826080AB08958C960895FC01828199276F
S1130460982F882721813327822B932B75E096952B
S113047087957A95E1F7817090700895AC01EFB794
S1130480F8942091840030918500C901841B950B58
S113049003968617970720F0B9016D5F7F4F02C05E
S11304A0640F751F6115710511F461E070E061500E
S11304B07040709389006093880082E086BB8091CD
S11304C06F00826080936F008E2F99278FBF0895ED
S11304D080934303882311F484E001C081E0809376
S11304E0440285E00E94A2000895CF93DF93EC01BB
S11304F00E942D02882339F18A8129819927982F16
S113050088273327822B932B87749C7C81549848AB
S1130510D1F48F814E812FB7F89433276091020272
S1130520709103022FBF20E09927982F8827552721
S1130530842B952B8617970709F021E081E0282763
S1130540822F992702C080E090E0DF91CF91089537
S113055021E02093850220930D03209184003091A3
S11305608500BC01C9010E943E020895EF92FF92EA
S11305700F931F937C018FB7F8949927009116036A
S1130580109117030F5E1E4F109317030093160369
S1130590015111408FBF87E00E94A200C801B7013A
S11305A00E9411178A5D9E4F1F910F91FF90EF904B
S11305B00895EF920F931F93AE2D99E0899FF00158
S11305C01124E750FD4F4083518362837383048376
S11305D0158326833783A17080858E7F8A2B826062
S11305E0808783E00E94A2001F910F91EF900895ED
S11305F07FB7F8946091B2002091240230912502D3
S11306004091260250912702B99B11C08091B300FA
S11306109091B200280F311D411D511D2F5F3F4F96
S11306204F4F5F4F290F311D411D511D04C0260F2F
S1130630311D411D511D872F99278FBFCA01B90153
S11306400895DF92EF92FF920F931F938FB7F89460
S1130650282F3327D22E9091B3008091B20047B354
S1130660981711F041FF02C02FBF71C080917A0228
S11306708823E1F10E94F802E0901D02F0901E022E
S113068000911F021091200220913F0330914003FA
S113069040914103509142036E197F09800B910BE5
S11306A0621773078407950720F010927A0271E0AD
S11306B01EC02E0D3F1D401F511F8091240290919A
S11306C02502A0912602B0912702281B390B4A0B60
S11306D05B0B273E31054105510540F4822F223042
S11306E010F070E005C070E082E002C070E086EEB9
S11306F0682F61508091B60083FDFCCF8091B200D9
S1130700681709F46F5F209124023091250240910B
S1130710260250912702DA01C9010196A11DB11DDB
S1130720860F911DA11DB11D82179307A407B5075C
S113073010F4622F60958091B60083FDFCCF609326
S1130740B300DFBE772319F082E00E94A2001F915C
S11307500F91FF90EF90DF900895AFB7F894BB2707
S1130760E1E0E0937A0260931D0270931E0280938D
S11307701F029093200220933F0330934003409341
S1130780410350934203AFBF0E94210308951F9277
S11307900F920FB60F9211248F938091B000809323
S11307A0B0008091B60081FDFCCF8F910F900FBEF9
S11307B00F901F9018951F93182F81E00E947501C8
S11307C01EBD0DB407FEFDCF8EB599271F91089568
S11307D01F920F920FB60F9211248F929F92AF9295
S11307E0BF92CF92DF92EF92FF920F931F932F93BA
S11307F03F934F935F936F937F938F939F93AF93A5
S1130800BF93CF93DF93EF93FF932EB5E0910B0348
S1130810F0910C03309739F08091EE029091EF0241
S1130820E80FF91F20838091EE029091EF02019668
S11308309093EF028093EE0280E00E94D401C09175
S1130840EE02D091EF028091150290911602C81722
S1130850D90708F046C00091DD031091DE038090B3
S11308600B0390900C030F2EFAE0AF2EBB24F02D57
S1130870AC0EBD1E8A159B0508F45C016401CC0E08
S1130880DD1E7801EC0EFD1E15C00115110519F0D1
S1130890F701808101C080E00E94DB038114910490
S11308A011F0F601808321960894C11CD11C089490
S11308B0E11CF11CC5010197C817D90730F381E089
S11308C00E94D4010115110531F00C0F1D1FF80110
S11308D080818EBD01C01EBCD093EF02C093EE0296
S11308E011C010920C0310920B031092DE031092AD
S11308F0DD0310921602109215021092EF0210926C
S1130900EE028EB5FF91EF91DF91CF91BF91AF9140
S11309109F918F917F916F915F914F913F912F9113
S11309201F910F91FF90EF90DF90CF90BF90AF9009
S11309309F908F900F900FBE0F901F9018957894F2
S11309401F920F920FB60F9211240F900FBE0F90AB
S11309501F90189578941F920F920FB60F9211243E
S11309600F900FBE0F901F90189578941F920F92BE
S11309700FB60F9211242F933F938F939F93AF93AE
S1130980BF932FB7F89433278091F4029091F50226
S1130990A091F602B091F7020196A11DB11D8093BA
S11309A0F4029093F502A093F602B093F7022FBFDE
S11309B0BF91AF919F918F913F912F910F900FBE57
S11309C00F901F9018951F920F920FB60F9211243B
S11309D02F933F934F935F936F937F938F939F9343
S11309E0AF93BF93EF93FF934091780050917900B8
S11309F078948FB7F894992720913902322F36953D
S1130A00317021708FBF222329F580917A00877F6E
S1130A1080937A008091B902813021F0823009F00C
S1130A2043C00AC0332351F0509311034093100381
S1130A308CE00E94A20038C0332349F48DE790E093
S1130A40019701960197E1F70E9402012DC01092CF
S1130A50B9022AC08FB7F89499278FBF2FB7F8949B
S1130A60332780917A00582F5770482F4072987D11
S1130A70942B952B8074977B982B90619F77892F6B
S1130A80992780937A00887D842B852B87738061D6
S1130A90992780937A00887D842B852B877B8069B6
S1130AA0992780937A002FBFFF91EF91BF91AF9167
S1130AB09F918F917F916F915F914F913F912F9172
S1130AC00F900FBE0F901F9018951F920F920FB6A4
S1130AD00F9211242F933F934F935F936F937F93C0
S1130AE08F939F93AF93BF93EF93FF938091B00045
S1130AF08093B0008091B60081FDFCCF8091B3005B
S1130B0099270196AA27BB27209124023091250218
S1130B104091260250912702280F391F4A1F5B1F5C
S1130B2020932402309325024093260250932702F7
S1130B3078940E942103FF91EF91BF91AF919F910F
S1130B408F917F916F915F914F913F912F910F9072
S1130B500FBE0F901F9018951F93982F1FB7F894EE
S1130B6080910E02823099F580910702891779F5F8
S1130B708091050220E030E08F3F11F421E030E065
S1130B80232BF1F49FEF909307028F3F19F42FEF7B
S1130B9030E00DC0282F3327F901E15CFD4F80813F
S1130BA0809305028F3F11F4909306029083209363
S1130BB03C0281E080930E0280E00E94A20005C006
S1130BC08FEF8093070210920E0221E001C020E013
S1130BD0812F99278FBF90E0213009F491E081E0C3
S1130BE09827892F99271F9108951F93CF93DF93F7
S1130BF0182FFA01A22F2D3118F086E090E08EC054
S1130C00EA01219689812181B0E09927582F442750
S1130C103327422B532BCA0187749C7C81549848F8
S1130C2009F4B1E0BB2349F4CA0180739070816474
S1130C3098688183892F99278983A35FA0832FB71D
S1130C40F894332780910202909103022FBF80878A
S1130C50892F992781872FB7F8943327809104022D
S1130C602FBF99278483158213876683872F99273B
S1130C7087838FB7F894282F332780910E02882317
S1130C8071F482E080930E02109207022FBFCF010D
S1130C900E94C9009927182F882399F00FC02FBFED
S1130CA0F0933E02E0933D028FB7F894C82FDD27FE
S1130CB02C2F80910E02882399F406C080E00E94B4
S1130CC0AC05812F99272AC081E080930E021092EF
S1130CD03C0280E00E94A200CFBF80E090E01EC0F2
S1130CE080913F028F3F89F4E0910602EE2369F080
S1130CF010C01092050204C0FF27E15CFD4F108272
S1130D001092060280E090E002C085E090E02FBFE0
S1130D1005C0809105028F3F79F7EBCFDF91CF912A
S1130D201F9108950F931F93CF93DF93182F0FB73D
S1130D30F89480911002882311F40E94DD01802F21
S1130D4099278FBF8FB7F894C82FDD272C2F809158
S1130D501002882361F481E08093100210938402CE
S1130D608AE00E94A200CFBF80E090E021C0E12F82
S1130D70FF27ED57FD4F80818F3F89F4E0910902F1
S1130D80E11789F40CC01093080204C0FF27ED5743
S1130D90FD4F10831093090280E090E002C085E0CB
S1130DA090E02FBF05C0809108028F3F79F7EBCF09
S1130DB0DF91CF911F910F9108958FB7F894282F49
S1130DC03327922F80910A02882331F480911002F4
S1130DD0823011F42FBF13C09FBF8FB7F894282F10
S1130DE0332780911002882369F482E080931002F3
S1130DF010920A022FBF0E94DD01209A289A81E0F6
S1130E0090E008952FBF80E00E94920680E090E079
S1130E10089580914402823031F481E08093440249
S1130E2085E00E94A2000895AF92BF92CF92DF9214
S1130E30EF92FF920F931F935B016C01609101038A
S1130E4061FF1FC02091F9023091FA024091FB0228
S1130E505091FC02E090FD02F090FE020091FF022E
S1130E6010910003D601C501821B930BA40BB50B93
S1130E708E159F05A007B10720F0E9EFF2E090E09E
S1130E8021C0E2E0F3E060910A0361FF8EC020918B
S1130E900203309103034091040350910503E09051
S1130EA00603F09007030091080310910903A21AA6
S1130EB0B30AC40AD50AAE14BF04C006D10608F4A6
S1130EC074C091E060FF04C080858D7F808708C076
S1130ED02E0D3F1D401F511F2083318342835383B6
S1130EE0992321F0913009F060C004C081E00E9490
S1130EF0A2005BC010921A0383E080931D0310923A
S1130F001C0310921E0310921F03909320039093CE
S1130F1021039093220390931B03809179028823E9
S1130F2009F043C0A2E5B2E0EAE1F3E089E0019010
S1130F300D928150E1F78FEF80934C0280934D0224
S1130F4083E9809351028091F2029091F302892BFC
S1130F5031F546E452E05093F3024093F20286E105
S1130F608093460280910C028823A9F010920C020F
S1130F7029E06FEF7FEF83E90E94F5059927282F79
S1130F80882349F081E080930C021092F3021092BE
S1130F90F202222321F481E08093790206C0809139
S1130FA07902882311F40E94990083E00E94A20030
S1130FB01F910F91FF90EF90DF90CF90BF90AF9073
S1130FC008950F931F93182F042FE82FFF27EE0F78
S1130FD0FF1FEE50FD4F1182108210920C02E0911F
S1130FE0F202F091F302309721F080913E0380FFEA
S1130FF013C081E080930C0203C08EE00E94A20023
S11310001123E1F4002319F40E94900002C00E940D
S113101099001092790212C020812D5033276781E4
S11310207727762F662786819927682B792BAF013E
S113103083850E94F505882319F3DFCF1F910F9153
S113104008954F925F926F927F928F929F92AF9288
S1131050BF92CF92DF92EF92FF920F931F93CF93A1
S1131060DF932C0180911402882309F085C18091BB
S1131070DF03853009F080C10E94DD06882309F46E
S11310807BC180912A03882309F076C160E3862E10
S1131090912C840C951CF20180A982FD02C090E081
S11310A003C0F20192A99F708091BA02981781F04F
S11310B09093BA02289885EC8EBD0DB407FEFDCF3F
S11310C08EB590689EBD0DB407FEFDCF8EB5289AEF
S11310D0E20121968981F201218140E09927982F2C
S11310E088273327822B932B87749C7C81549848C0
S11310F009F441E0442301F1289886E88EBD0DB43B
S113110007FEFDCF8EB51EBC0DB407FEFDCF8EB518
S1131110289A99278F719070209180024091400203
S1131120240F312D311D43E0359527954A95E1F77C
S1131130281739070CF420C1289882EC8EBD0DB411
S113114007FEFDCF8EB589E08EBD0DB407FEFDCF41
S11311508EB5289A0E9401027B018C01D4018C91E6
S113116084FD03C0E0E0F0E005C0F2018081855019
S1131170E80FF11D289881E88EBD0DB407FEFDCF60
S11311808EB51EBC0DB407FEFDCF8EB5289A8F71A7
S1131190893079F0289882EC8EBD0DB407FEFDCF1E
S11311A08EB586E08EBD0DB407FEFDCF8EB5289AB0
S11311B0E3C08FB7F89499272F9A20918400309137
S11311C085008FBF2F98289880E68EBDD2019C9110
S11311D00DB407FEFDCF8EB59EBD792F72507730CA
S11311E010F4672F01C067E0DE01962F4D910DB416
S11311F007FEFDCF8EB54EBD9150C1F76150C60FAD
S1131200D11D6F5F21962E193F092E553F4F39018D
S1131210882477FC8094982C6E0C7F1C801E911E71
S1131220309719F4972F961B42C02081E180828168
S1131230A3809927AA27BB27BA2FA92F982F8827DD
S1131240332744275527522F442733272227FF24A7
S1131250002711278701FF24EE242E293F29402B44
S1131260512BBB24CC24DD242A293B294C295D297C
S1131270822B932BA42BB52B86199709A809B9099E
S11312808383292F3A2F4B2F552722839D014427EF
S1131290552721838B2F9927AA27BB278083C2CF69
S11312A028810DB407FEFDCF21968EB52EBD915039
S11312B0B8F70DB407FEFDCF8EB5289A289882ECB6
S11312C08EBD0DB407FEFDCF8EB586E08EBD0DB488
S11312D007FEFDCF8EB5289A3097D1F12081E180A9
S11312E08281A3809927AA27BB27BA2FA92F982FD9
S11312F08827332744275527522F4427332722276B
S1131300FF24002711278701FF24EE242E293F29DB
S1131310402B512BBB24CC24DD242A293B294C29E6
S11313205D29822B932BA42BB52B860D971DA81D0D
S1131330B91D8383292F3A2F4B2F552722839D01D3
S11313404427552721838B2F9927AA27BB278083DE
S1131350C2010E942602C2010E942B02FC0160828B
S113136071828282938286E08093DF0384E080939B
S1131370140280E090E002C085E090E0DF91CF911C
S11313801F910F91FF90EF90DF90CF90BF90AF909F
S11313909F908F907F906F905F904F900895AF9241
S11313A0BF92CF92DF92EF92FF920F931F93CF934E
S11313B0DF9380912A03882309F4FEC00E94DD068E
S11313C0882309F4F9C08FB7F8949927C091810252
S11313D0D09182028FBF10922A0328988FE88EBD85
S11313E00DB407FEFDCF8EB51EBC0DB407FEFDCFB8
S11313F08EB5289A982F80911402833011F087308B
S113140031F485E08093DF0388E080931402A92EF1
S1131410BB24A2FE5FC080911402863019F410929E
S1131420140203C0882309F055C0943009F041C068
S1131430289886E88EBD0DB407FEFDCF8EB51EBC80
S11314400DB407FEFDCF2EB5289A2F71809140026E
S1131450982F96959695322F391B830F80934002CF
S1131460E0912102F091220280A98B7F886080ABF9
S113147022AB0E9401026B017C01009121021091B8
S11314802202C8010E942602C8010E942B02FC010C
S1131490CC19DD092797CE01AA2797FDA095BA2F6D
S11314A08C0D9D1DAE1DBF1D80839183A283B383CC
S11314B00EC0E0912102F091220280A9877F80ABC7
S11314C0E0912102F091220280A98D7F80AB85E01A
S11314D080931402A3FE70C080911402843009F03A
S11314E04EC085E08093DF031092140280912302A2
S11314F0833019F4109223025FC0C091E603D091A7
S1131500E703CE010E942D02882389F18A81298173
S11315109927982F88273327822B932B87749C7CB9
S11315208154984821F58F812E819927982F8827F7
S11315303327822B932B8F5F9F4FC9F090E08091CC
S11315400D03882309F491E0992389F012E01093A4
S1131550850281E080930D03809184009091850041
S11315606CEC7AE00E943E021093230225C0109294
S113157023021092450280E00E9468021DC085305B
S1131580D9F420918002289886E88EBD0DB407FE18
S1131590FDCF8EB51EBC0DB407FEFDCF8EB5289AC7
S11315A08F71922F96959695891B280F2093800210
S11315B089E08093140208C090911402992309F4DD
S11315C0E5C2993009F012C2289880E28EBD0DB4AC
S11315D007FEFDCF8EB51EBC0DB407FEFDCF8EB544
S11315E0482F5527433008F496C3842F99278A97A8
S11315F00CF091C31EBCE0912102F09122024083C1
S1131600142F1250173010F4912F01C097E0BF012E
S11316106F5F7F4F292FFB0140E050E00DB407FEC0
S1131620FDCF8EB51EBC808381914827042E429540
S1131630407F4025052E542F42954F700426469531
S113164054274527440F440F440F4025215031F7B8
S11316509150DB01A90FB11D9F5F1196E09121020A
S1131660F091220281818770823009F421E02223E3
S113167049F020E030E080912302823081F421E0BF
S113168030E00DC08FB7F894282F332760E08091A5
S11316902403833008F461E02FBF262F3327232B44
S11316A009F45CC0191B912F18C00DB407FEFDCFBF
S11316B08EB51EBC8C938D914827042E4295407F95
S11316C04025052E542F42954F70042646955427E5
S11316D04527440F440F440F4025915030F70DB473
S11316E007FEFDCF8EB51EBC9A012827022E229537
S11316F0207F2025032E322F22952F700226269537
S113170032272327220F220F220F20250DB407FE94
S1131710FDCF8EB51EBC2827022E2295207F2025C2
S1131720032E322F22952F70022626953227232747
S1131730220F220F220F20250DB407FEFDCF8EB5F8
S1131740E0912102F091220281AB289A15E01093D6
S1131750DF0310921402232B31F014C20DB407FEE0
S1131760FDCF8EB5D8C2E0902102F090220267012D
S11317700894C11CD11CF701818190E0282F3327E4
S1131780277030702230310509F491E080912302F2
S1131790992319F1823009F024C1F7019381E09172
S11317A0E603F091E7038381981709F01AC1223008
S11317B0310509F016C180916F008D7F80936F0011
S11317C010920D0380A9816080AB109223021092C5
S11317D0450280E00E94680204C18823C9F4C7015D
S11317E00E9475028823A1F01093BB0282E08093CB
S11317F0BC021092BD02F70183818093BE028BEB81
S113180092E00E942108882319F483E08093230244
S11318100091840010918500C7010E9475028823FD
S113182011F0045E1C4F1093F1020093F0028091BA
S11318308400909185009801281B390B1216130619
S1131840A4F480914502882369F490E080910D030B
S1131850882309F491E0992341F0C9010E94A80268
S113186080E801C0806880934502F6018085278165
S11318709927582F44273327422B532B8091280232
S1131880282F3327F901EE0FFF1FE55DFC4F808100
S1131890918170910E038417950769F4F901E05260
S11318A0FC4F8081871709F467C0872F8F5F80936F
S11318B00E0380831DC000E010E080E090E0CBE2E6
S11318C0D3E0E0EEF3E0DF01682F9C018881998189
S11318D08417950779F42093280290910E038C9134
S11318E0891709F449C0892F8F5F80930E038C9365
S11318F000E829C08081972F981B091710F4092F3D
S1131900122F6F5FC9010196119622963196853088
S11319109105D1F66530B9F410932802A12FBB27A5
S1131920FD01EE0FFF1FE55DFC4F51834083809165
S11319300E038F5F80930E03FD01E052FC4F808302
S1131940A851BC4F1C9290910E03892F8F778F372B
S113195079F40F3768F0E0EEF3E0292F20788081E6
S11319608F6789132083319633E0E53EF307B9F797
S113197080912802282F3327F6019281A22FBB27BA
S1131980FD01E851FC4F808180FF07C0FD01EB5D44
S1131990FC4F8081981729F102C081608083AB5D80
S11319A0BC4F9C93DFB6F894809124038330B0F449
S11319B0E0913C03E80FE33008F0E350FF27EE0F1B
S11319C0FF1FE95EFD4F00811181F182E0828F5F8C
S11319D08093240386E00E94A20078018D2D99272C
S11319E08FBFF0922202E0922102C3C0892F81505E
S11319F0833008F09CC081508230E0F43091DF03E2
S1131A003130C1F420E080910D03882309F421E0F2
S1131A10222381F02F9883E08093850230930D0375
S1131A2080918400909185006BE273E00E943E02F5
S1131A3082E068C0933009F042C08091DF038330B4
S1131A4009F097C00E94DD068823C9F128988FE821
S1131A508EBD0DB407FEFDCF8EB51EBC0DB407FEC2
S1131A60FDCF8EB5289A8091810080648093810097
S1131A7080E286BB80916F00806280936F009091BA
S1131A803B02289888EC8EBD0DB407FEFDCF8EB5C1
S1131A9090669EBD0DB407FEFDCF8EB5289A28989A
S1131AA082EC8EBD0DB407FEFDCF8EB586E08EBDF3
S1131AB00DB407FEFDCF8EB5289A84E023C0809133
S1131AC014028150823000F58091DF038530E1F407
S1131AD00E94DD068823C1F0289882EC8EBD0DB4E7
S1131AE007FEFDCF8EB583E08EBD0DB407FEFDCF9E
S1131AF08EB5289A80916F008F7D80936F0010922D
S1131B002A0383E08093DF0390911402913041F41F
S1131B108091DF038330B1F52F9A9093DF0325C0C2
S1131B20923039F58091DF03833061F51EC0973020
S1131B3001F50E94DD068823E1F090913B0228988C
S1131B4088EC8EBD0DB407FEFDCF8EB590669EBDAC
S1131B500DB407FEFDCF8EB5289A8091DF03853042
S1131B6021F484E08093DF0304C088E080931402AE
S1131B7004C080911402883029F41092140284E085
S1131B800E94A20080911402882309F58091DF034A
S1131B908530D1F480912A038823B1F48091230203
S1131BA0882391F480914502882371F490E0809118
S1131BB00D03882309F491E0992331F00E94090769
S1131BC080911402882319F488E00E94A200809175
S1131BD00D03823009F092C010920D03C09085026B
S1131BE0F2E0CF1609F466C023E0C21609F46AC015
S1131BF031E0C31609F082C02091F0023091F10265
S1131C00809184009091850040914502403829F4E8
S1131C10109245020E94090771C08901081B190B23
S1131C2047FF03C010161106ECF0C0914102D09199
S1131C304202809123028823A9F4CE010E94210844
S1131C409927882351F488A98E7F88ABC0922302F8
S1131C50D093E703C093E60329C09927F82E88237D
S1131C6029F102C075E0F72E20914502822F9927B1
S1131C708F77019759F4207822602093450280E100
S1131C8098E00E94B6020E94A80238C027FF0AC04A
S1131C90101611063CF480E880934502C8010E94A6
S1131CA0A80202C0109245028F2D09C083E08093E0
S1131CB0450224C0109223021092450280E00E9443
S1131CC068021CC08091DF03823019F4C092DF03E4
S1131CD013C080911402863079F41092140228986B
S1131CE081E88EBD0DB407FEFDCF8EB51EBC0DB4CC
S1131CF007FEFDCF8EB5289A0E94B40E8FB7F894D4
S1131D00282F332780913A02813061F081E080935B
S1131D103A022FBF4ECB289A85E08093DF031092BE
S1131D20140230CF10923A022FBFDF91CF911F914E
S1131D300F91FF90EF90DF90CF90BF90AF900895F8
S1131D408FB7F894282F332780913A0281508093DB
S1131D503A02803811F02FBF089581E080933A024F
S1131D602FBF0E94CF0908958FB7F894282F3327E7
S1131D7080913A02882329F0806880933A022FBF29
S1131D80089581E080933A022FBF0E94CF090895FD
S1131D9078941F920F920FB60F9211242F933F93B2
S1131DA04F935F936F937F938F939F93AF93BF935F
S1131DB0EF93FF93E6E8F0E0808191812081318107
S1131DC08FB7F8949927309382022093810221E0FF
S1131DD020932A038FBF0E94B40EFF91EF91BF910D
S1131DE0AF919F918F917F916F915F914F913F91AF
S1131DF02F910F900FBE0F901F90189578941F92FB
S1131E000F920FB60F9211242F933F934F935F932A
S1131E106F937F938F939F93AF93BF93EF93FF93AE
S1131E2080916F008D7F80936F0078949FB7F894B2
S1131E3080910D03813019F482E080930D03892F82
S1131E4099278FBF0E94B40EFF91EF91BF91AF917C
S1131E509F918F917F916F915F914F913F912F91BE
S1131E600F900FBE0F901F9018952F923F924F9294
S1131E705F926F927F928F929F92AF92BF92CF9216
S1131E80DF92EF92FF920F931F93CF93DF93CDB71F
S1131E90DEB729970FB6F894DEBF0FBECDBF282F4B
S1131EA0873009F48FC2883098F4833009F41DC157
S1131EB0843038F4813009F459C0823008F0E2C02B
S1131EC024C0853009F4AFC1863008F0FAC18DC151
S1131ED08B3009F477C38C3038F4893009F4CEC2DE
S1131EE08A3008F0E0C267C38D3039F08D3008F4D1
S1131EF081C38E3009F00DC4EEC380913E03882364
S1131F0009F407C420E011E0C7C32FB7F8943327BE
S1131F1080913C028093070282E080930E022FBFDF
S1131F2080910702882309F0F4C380913D029091C7
S1131F303E020E94C900082F1127002309F4E9C3B7
S1131F4080E00E94AC0520913D0230913E028091D8
S1131F500C02882309F0DDC36091F2027091F30250
S1131F606217730709F0D5C3402F89C0E0911803A5
S1131F70F091190340A551A510910F02123069F593
S1131F804115510519F080A980FF02C084E020C0EA
S1131F9080911403909115030196909315038093F7
S1131FA014038417950798F420930F0202A513A530
S1131FB001151105A1F00E94F802AB01BC01222712
S1131FC03327E1E0EE2E80E00E94D902A2C385E02F
S1131FD080930F0210910F0226C0113021F582E088
S1131FE080930F0240911803509119032FB7F8946E
S1131FF0332780913A028F5F80933A022FBF8091FA
S11320004402882369F4509313034093120381E03C
S11320108093440210920F0385E00E94A20047C1FE
S11320200E94A00E4AC1143008F473C3452B51F02A
S1132030E0911803F0911903809114039091150312
S113204091A780A710920F02E0901803F090190353
S1132050F70182858F3309F05CC380E00E94AC05F0
S113206080910C02882309F054C36091F2027091AC
S1132070F3026E157F0509F04CC31450412F0E94E2
S1132080E10747C380913802882361F52091350325
S1132090309136034091370350913803EFB7F894E9
S11320A0FF2760911D0270911E0280911F02909182
S11320B02002E0903F03F09040030091410310910F
S11320C042036E0D7F1D801F911FEFBF20933503C8
S11320D030933603409337035093380310923802F9
S11320E00E94AD030E94F8026DC00E94F8025B01D9
S11320F06C018FB7F894992710927A028FBF809160
S1132100010381FF25C08091F9029091FA02A09108
S1132110FB02B091FC02A6019501281B390B4A0B66
S11321205B0BE090FD02F090FE020091FF02109123
S11321300003E21AF30A040B150B3FEFE3163FEF1B
S1132140F3063FEF03073FE7130711F061E009C00F
S11321509FEFE92E9FEFF92E9FEF092F9FE7192F8D
S113216060E080910A0381FF21C080910203909175
S11321700303A0910403B0910503A6019501281B54
S1132180390B4A0B5B0BDA01C9012091060330912C
S113219007034091080350910903281B390B4A0B8C
S11321A05B0B2E153F05400751072CF0662309F4FD
S11321B0B0C2A801970112161306140615062CF0D6
S11321C0C601B5010E941407A4C2209335033093BD
S11321D03603409337035093380381E080933802E9
S11321E0C601B5010E94AD0394C2809144021092CD
S11321F04402853079F40E94F802AB01BC01EE245C
S113220004EF11E020E030E081E00E94D902109256
S11322107B027FC2863009F47CC2873009F479C21C
S11322208093440276C22FB7F894332780913A0200
S11322308F5F80933A022FBF40914402413071F581
S113224080910F038F5F80930F03863038F52091C0
S1132250120330911303809145028823C1F490E066
S113226080910D03882309F491E0992381F0309340
S1132270420220934102409345028BED91E10E947A
S1132280B6020E94A8021092430383E004C085E0D2
S11322908093430382E08093440209C01092440275
S11322A00E94A00E80914303882321F406C00E945B
S11322B0A00E2FC28C5F80930F0281E00E94A200C7
S11322C028C28FB7F894282F3327809124038823BA
S11322D009F41EC2E0913C03FF27EE0FFF1FE95EE5
S11322E0FD4FC080D1802FBFF60182859781268162
S11322F08F3391F56385892F9927582F4427822F8F
S11323009927482B592B8FB7F894992720910202CB
S1132310309103028FBF4217530721F04F5F5F4F85
S113232009F034C0633909F031C00E94F802AB01EE
S1132330BC01EE2404EF11E020E030E081E00E94D3
S1132340D90210927B022FB7F894332782B191E01F
S1132350892782B92FBF1AC0892F9927582F44275C
S1132360822F9927482B592B8FB7F89499272091BE
S11323700202309103028FBF4217530719F04F5FD7
S11323805F4F21F48FB7F89499278FBF9FB7F894C4
S113239080913C03E82FFF27EE0FFF1FE95EFD4FFE
S11323A0D182C0828F5F80933C03833010F01092FF
S11323B03C0380912403815080932403892F99271F
S11323C08FBF7FCF3FB73983F89420907C02309041
S11323D07D0240907E0250907F02662477248824F8
S11323E0AEE4AA2EF3E8BF2ECC24DD24EE24FF2491
S11323F000E010E0222D332D442D552D662D772D30
S1132400882D90E00E9490152A833B834C835D8342
S11324106E837F8388879987822E932EA42EB52E70
S11324202401350100E20E948E16A22EB32EC42E82
S1132430D52EA301920156954795379527952A0DD8
S11324403B1D4C1D5D1D57FF05C05F772F5F3F4F40
S11324504F4F5F4F20937C0230937D0240937E0266
S113246050937F026981862F99278FBF8FB7F89485
S11324709927309317032093160313C08FB7F8944A
S1132480992710920C0310920B031092DE03109202
S1132490DD0310921602109215021092EF021092B0
S11324A0EE028FBF36C12FB7F89433278091840290
S11324B080930A0282E0809310022FBF80910A0267
S11324C0882309F026C1209A289A8091DF03882363
S11324D009F075C08EEF91E0019701960197E1F73D
S11324E016982F9886E090E0019701960197E1F7FE
S11324F0169A289883EC8EBD0DB407FEFDCF8EB5D9
S11325001EBC0DB407FEFDCF8EB5289A289882EC28
S11325108EBD0DB407FEFDCF8EB588E08EBD0DB423
S113252007FEFDCF8EB5289A8EEF91E001970196B4
S11325300197E1F728988EEC8EBD0DB407FEFDCF10
S11325408EB58DE48EBD0DB407FEFDCF8EB5289AF1
S1132550289889EC8EBD0DB407FEFDCF8EB587ECAF
S11325608EBD0DB407FEFDCF8EB5289A289885EC54
S11325708EBD0DB407FEFDCF8EB580E88EBD0DB4C3
S113258007FEFDCF8EB5289A1092BA028BE0809395
S11325903B02289888EC8EBD0DB407FEFDCF8EB5A6
S11325A08BE68EBD0DB407FEFDCF8EB5289A2F9A0B
S11325B081E08093DF0380E00E947E01AAC00E9434
S11325C0B40EA7C02FB7F8943327809123038093C8
S11325D00B0283E0809312022FBF80910B028823A9
S11325E009F097C081E08093B90210923D030E94E4
S11325F002018FC01092B90280913D03882309F033
S113260088C08FB7F894182F80911202833009F094
S113261040C080910B028823E1F58091F802882361
S113262009F070C064C09095A923A083609311023F
S113263025C06F5F7F4F6130710511F460E070E079
S1132640862F869586958695E82FFF27E850FD4FBF
S1132650A081462F55279A012770307081E090E0C1
S113266002C0880F991F2A95E2F7982F8A2F892391
S1132670D1F66E157F05E9F64FEF50E04093230342
S11326808FEF80930B0281E0809312028BE00E9413
S1132690A2001FBF3EC0110F90913E03812F8923DA
S11326A0B1F0E22FFF27EE0FFF1FEE50FD4F118216
S11326B01082812F8095982390933E03222339F42E
S11326C00E94990010927902110F21E0E5CF2F5F4B
S11326D0283008F31EC080910C02E82FFF27EE0F6C
S11326E0FF1FEE50FD4F6081718141E0C8CC81E055
S11326F080930B021092120280917A008F7780935C
S11327007A00C7CF80911102E82EFF24B70191CF40
S11327102FBF29960FB6F894DEBF0FBECDBFDF9151
S1132720CF911F910F91FF90EF90DF90CF90BF90CA
S1132730AF909F908F907F906F905F904F903F905D
S11327402F900895809139038F3FB1F0282F3327BC
S1132750F901E75DFD4F8081809339038F3F11F4C8
S11327608093E5038FEF80832F3F31F0822F0E9407
S1132770350F81E090E0089580E090E008951F9384
S11327801FB7F89414BE88E10FB6F89480936000E4
S1132790109260000FBE4FE050E06FEF70E089E2EE
S11327A092E00E947B178FEF809339038093E503B7
S11327B056985E9854985C9880916F008F7D8093B2
S11327C06F00209A289A279A2F980E9A169A86E8CC
S11327D092E09093220280932102109280028AE573
S11327E08093400281E08093810080E28093B60070
S11327F083E08093B10080918400909185004AE742
S113280020918400309185002817390708F441503D
S1132810442311F0C901F4CF9091B2008091B20029
S11328208917E1F320918400309185009091B200E2
S11328308091B2008917E1F3809184009091850022
S1132840821B930B4096F5E096958795FA95E1F7F0
S113285090933B0380933A031092B1008091B100AE
S113286080938100809181008093B6001092B20021
S113287010928500109284008FEF87BB87B386BBCC
S11328808091B6008571E1F70A9A099A089A129A1A
S1132890119A109A18B88FEF87B90C98149810925F
S11328A07A00109285001092840080916F008160FC
S11328B080936F0080918100887F82608093810083
S11328C00E94A2138823E1F71092F8028FEF8093FD
S11328D0830280E00E94920620910002309101025E
S11328E02F5F3F4FC901AA27BB2780937C02909397
S11328F07D02A0937E02B0937F0284E493E09093E0
S1132900180280931702C39690931A0280931902B7
S11329108AEA93E090931C0280931B028091B60094
S113292080628093B6008091B60081FDFCCF82E086
S11329308093B0008091B60080FDFCCF83E080934B
S1132940B1008091B60083FDFCCF86EE8093B30086
S1132950809170008260809370000E9421038FEF49
S11329609FEF90932C0380932B0390932E038093DB
S11329702D039093300380932F039093320380931D
S11329803103909334038093330380910002829542
S1132990807F809313028FEF80933F020E94A213E3
S11329A08823E1F7812F99278FBF789410921A0317
S11329B083E080931D0310921C0310921E03109257
S11329C01F03109220031092210381E080932203BD
S11329D080931B032FB7F894332780913A028F5FBB
S11329E080933A022FBF809144028823F1F48091AE
S11329F014028823D1F48091DF03813049F490E0FC
S1132A0080910D03882309F491E0992371F002C0A9
S1132A10853059F083E0809314020E94B40E85E05F
S1132A20809344020E94A00E04C00E94A00E0E9443
S1132A3099008FB7F894482F552757C0809170009C
S1132A40992783709070892B19F4E5E0F0E014C0A5
S1132A508091B6008A71E1F78091B3009091B20041
S1132A60891B8C3038F08091B200853F18F4E3E084
S1132A70F0E002C0E2E0F0E080916E00867009F5BB
S1132A8080916F008E72E9F4809171008E72C9F4A6
S1132A900CB407FC16C08091C100887191F4809138
S1132AA0C900887171F48091BC0082FD0AC08091D4
S1132AB07A0087FF03C081E090E005C085E090E0E4
S1132AC002C080E090E023B78E1708F4E82FFF27B8
S1132AD0E453FF4FE491207F2160E22BE3BF78941D
S1132AE08895F89483B78E7F83BF809139038F3F95
S1132AF009F4A4CF282F3327F901E75DFD4F808126
S1132B00809339038F3F11F48093E5038FEF808323
S1132B102F3F09F493CF4FBF822F0E94350F89CFE7
S1132B20ACE2B0E0E6E9F5E10C944417222E332E32
S1132B30442E552E662E772E882E992EFE01319620
S1132B40A8E01192AA95E9F729823A824B825C8225
S1132B506D827E828F829886FE013996B8E011924A
S1132B60BA95E9F7A986BA86CB86DC86ED86FE8619
S1132B700F87188B89819A81AB81BC8189A79AA719
S1132B80ABA7BCA77C018D018FEF9FEFA0E0B0E065
S1132B90E822F9220A231B2389A59AA5ABA5BCA583
S1132BA01D014424552489859A85AB85BC858DA354
S1132BB09EA3AFA3B8A75C016D018FEF9FEFA0E0C8
S1132BC0B0E0A822B922CA22DB228DA19EA1AFA126
S1132BD0B8A53D0188249924C801B701A60195012F
S1132BE00E94251769A37AA38BA39CA3C801B701EC
S1132BF0A40193010E9425177B018C01C201B1013C
S1132C00A60195010E9425175B016C01C201B10167
S1132C10A40193010E9425173B014C01EA0CFB1C03
S1132C200C1D1D1D89A19AA1ABA1BCA19D01442726
S1132C3055272E0D3F1D401F511F2A153B054C05DE
S1132C405D0540F480E090E0A1E0B0E0680E791EFC
S1132C508A1E9B1ECA01AA27BB27860D971DA81D85
S1132C60B91D8D8F9E8FAF8FB8A3A901332722275B
S1132C7089A19AA1ABA1BCA1A070B070280F391F83
S1132C804A1F5B1F298F3A8F4B8F5C8FA98CBA8C9C
S1132C90CB8CDC8CED8CFE8C0F8D18A1FE01719613
S1132CA098E011929A95E9F7ED8AFE8A0F8B188FB6
S1132CB02D813E814F8158856DA17EA18FA198A55C
S1132CC00E9425173B014C012D853E854F8558896F
S1132CD069A57AA58BA59CA50E9425172D893E89F7
S1132CE04F89588D260F371F481F591F260D371D32
S1132CF0481D591D2D8B3E8B4F8B588F6D887E88B8
S1132D008F88988C2A2D3B2D4C2D5D2D662D772D8B
S1132D10882D992DE2E1AC960C946017A0E1B0E007
S1132D20E4E9F6E10C944417222E332E442E552E5A
S1132D30662E772E882E992E002309F466C088E02B
S1132D40FE01319611928A95E9F729833A834B83E0
S1132D505C836D837E838F829887E0E2E01B1E167E
S1132D60CCF52D813E814F815885602F772767FDF3
S1132D707095DA01C901062E04C0B695A7959795FA
S1132D8087950A94D2F78D879E87AF87B88B04C046
S1132D90220F331F441F551FEA95D2F789819A8168
S1132DA0AB81BC8104C0B695A795979587956A9524
S1132DB0D2F7282B392B4A2B5B2B29873A874B8751
S1132DC05C8729843A844B845C846D847E848F84FC
S1132DD098881BC01D861E861F86188A2E2F3327AF
S1132DE027FD3095309521953F4F8D819E81AF8190
S1132DF0B88504C0B695A795979587952A95D2F777
S1132E0089879A87AB87BC87DCCF222D332D442D4D
S1132E10552D662D772D882D992DE2E160960C9421
S1132E206017AA1BBB1B51E107C0AA1FBB1FA61733
S1132E30B70710F0A61BB70B881F991F5A95A9F75F
S1132E4080959095BC01CD010895629FD001739F38
S1132E50F001829FE00DF11D649FE00DF11D929F32
S1132E60F00D839FF00D749FF00D659FF00D992771
S1132E70729FB00DE11DF91F639FB00DE11DF91F95
S1132E80BD01CF01112408952F923F924F925F927A
S1132E906F927F928F929F92AF92BF92CF92DF9266
S1132EA0EF92FF920F931F93CF93DF93CDB7DEB7CB
S1132EB0CA1BDB0B0FB6F894DEBF0FBECDBF09945F
S1132EC02A88398848885F846E847D848C849B84B6
S1132ED0AA84B984C884DF80EE80FD800C811B81C4
S1132EE0AA81B981CE0FD11D0FB6F894DEBF0FBEF3
S1132EF0CDBFED010895DC0101C06D9341505040F8
S1092F00E0F70895FFCF85
S1112F060100010022FFFFFFFFFFFF01010099
S9030000FC
