:100000000C947F010C949E010C949E010C949E0113
:100010000C949E010C949E010C949E010C949E01E4
:100020000C949E010C949E010C949E010C949E01D4
:100030000C949E010C9464090C949E010C94B10ADA
:100040000C9460150C9496150C946D0A0C94780A17
:100050000C94830A0C949E010C949E010C949E01B6
:100060000C94B8090C9457070C949E010C94DA0771
:100070000C949E010C949E010C949E010C943109E9
:100080000C9410090C941B090C9426090C94440937
:100090000C94F3080C949E010C9405090C949E0199
:1000A0000C949E010C949E010C949E010C949E0154
:1000B0000C949E010C949E010C949E010C949E0144
:1000C0000C949E010C949E010C949E010516E91659
:1000D00059175B176B179017F515D517E317F1171D
:1000E00024187618A7182C194F199B19CB1AC31B63
:1000F000271B3B1BFD15EC1B000021104220633029
:100100008440A550C660E770088129914AA16BB16F
:100110008CC1ADD1CEE1EFF1311210027332522217
:10012000B5529442F772D662399318837BB35AA3BF
:10013000BDD39CC3FFF3DEE36224433420040114E7
:10014000E664C774A44485546AA54BB5288509950F
:10015000EEE5CFF5ACC58DD55336722611163006B7
:10016000D776F6669556B4465BB77AA7199738875F
:10017000DFF7FEE79DD7BCC7C448E5588668A77877
:100180004008611802282338CCC9EDD98EE9AFF9AF
:10019000488969990AA92BB9F55AD44AB77A966A57
:1001A000711A500A333A122AFDDBDCCBBFFB9EEBFF
:1001B000799B588B3BBB1AABA66C877CE44CC55C27
:1001C000222C033C600C411CAEED8FFDECCDCDDD4F
:1001D0002AAD0BBD688D499D977EB66ED55EF44EF7
:1001E000133E322E511E700E9FFFBEEFDDDFFCCF9F
:1001F0001BBF3AAF599F788F8891A981CAB1EBA1F3
:100200000CD12DC14EF16FE18010A100C230E3206E
:100210000450254046706760B9839893FBA3DAB316
:100220003DC31CD37FE35EF3B1029012F322D232BE
:100230003542145277625672EAB5CBA5A8958985E6
:100240006EF54FE52CD50DC5E234C324A01481040E
:100250006674476424540544DBA7FAB79987B897B6
:100260005FE77EF71DC73CD7D326F2369106B0165E
:1002700057667676154634564CD96DC90EF92FE976
:10028000C899E9898AB9ABA94458654806782768AE
:10029000C018E1088238A3287DCB5CDB3FEB1EFB56
:1002A000F98BD89BBBAB9ABB754A545A376A167AFE
:1002B000F10AD01AB32A923A2EFD0FED6CDD4DCD26
:1002C000AABD8BADE89DC98D267C076C645C454C4E
:1002D000A23C832CE01CC10C1FEF3EFF5DCF7CDFF6
:1002E0009BAFBABFD98FF89F176E367E554E745E9E
:1002F000932EB23ED10EF01E00020E060C04112405
:100300001FBECFEFD1E2DEBFCDBF12E0A0E0B2E072
:10031000E4E3F6E400E00BBF02C007900D92AE37B5
:10032000B107D9F716E0AEE7B2E001C01D92A234E2
:10033000B107E1F70E94311C0C9419230C940000C2
:100340008FB7F894992708958FBF08959FB7F894B1
:10035000282F332720FF02C0129801C0129A21FFD4
:1003600002C0119801C0119A22FF02C0109801C06A
:10037000109A892F99278FBF0895FC01808182519F
:10038000E80FF11D84858A3029F4662319F081E095
:100390000E94A6010895282F9FB7F894E82FFF2701
:1003A000EF51FD4F80818F3F81F4E0913006E217DD
:1003B00071F40BC020934E0504C0FF27EF51FD4F91
:1003C00020832093300620E007C025E005C08091FF
:1003D0004E058F3F91F7EECF892F99278FBF822F40
:1003E00099270895CF93DF93FC018FE38287809153
:1003F00097028F5F80939702DF011196ED018A8348
:1004000080919502882319F085E090E022C080A5B4
:1004100091A5892B71F0ED0129813327322F2227F5
:10042000818199278062282B392B2183232F332721
:100430002983F0933204E093310410922C0410923B
:100440002B0481E0809395028CE00E94CB0180E038
:1004500090E0DF91CF910895882319F08CB58064E6
:1004600002C08CB58F7B8CBD08950F931F93982F7E
:100470001FB7F89480919602823099F580916D02B1
:10048000891779F580916B0220E030E08F3F11F4FD
:1004900021E030E0232BF1F49FEF90936D028F3F2A
:1004A00019F42FEF30E00DC0282F3327F901E55E56
:1004B000FC4F808180936B028F3F11F490936C020C
:1004C000908320931D0381E08093960283E10E9434
:1004D000CB0105C08FEF80936D021092960201E070
:1004E00001C000E0812F99278FBF1FB7F89480913A
:1004F0009602882311F40E942C02812F99278FBF26
:1005000090E0013009F491E081E09827892F992744
:100510001F910F910895882319F08CB5806802C04F
:100520008CB58F778CBD08950F931F9380E00E9448
:100530002C020FB7F8941127229A2398219A8CB590
:1005400080618CBD80E00E948B028DB581608DBD85
:100550008CB5877F8CBD8CB58B7F8CBD8CB58E7F29
:100560008CBD81E00E942C020FBF1F910F91089556
:100570008FB7F89420911303309114034091150321
:1005800050911603E0918400F0918500B09B08C063
:100590002F5F3F4F4F4F5F4FE0918400F0918500F8
:1005A00099278FBFC901772766279F0144275527C1
:1005B000622B732B842B952B0895FC0180A98260FC
:1005C00080AB08958C960895FC0182819927982F1D
:1005D000882721813327822B932B75E09695879569
:1005E0007A95E1F7817090700895AC01EFB7F894B7
:1005F0002091840030918500C901841B950B0396DE
:100600008617970720F0B9016D5F7F4F02C0640F16
:10061000751F6115710511F461E070E06150704063
:10062000709389006093880082E086BB80916F00A0
:10063000826080936F008E2F99278FBF0895CF938C
:10064000DF93EC010E94E402882339F18A81298139
:100650009927982F88273327822B932B87749C7C8C
:1006600081549848D1F48F814E812FB7F894332765
:1006700060916502709166022FBF20E09927982F44
:1006800088275527842B952B8617970709F021E09B
:1006900081E02827822F992702C080E090E0DF9137
:1006A000CF91089521E020932003209324042091EA
:1006B000840030918500BC01C9010E94F5020895B3
:1006C000EF92FF920F931F937C018FB7F8949927B5
:1006D00000912D0410912E040F5E1E4F10932E04D6
:1006E00000932D04015111408FBF80E10E94CB0186
:1006F000C801B7010E94AB1F8A5D9E4F1F910F91E9
:10070000FF90EF900895EF920F931F93AE2D99E015
:10071000899FF0011124EF55FC4F40835183628380
:1007200073830483158326833783A17080858E7F2E
:100730008A2B826080878AE00E94CB011F910F91F3
:10074000EF9008957FB7F8946091B2002091DC0299
:100750003091DD024091DE025091DF02B99B11C061
:100760008091B3009091B200280F311D411D511DA1
:100770002F5F3F4F4F4F5F4F290F311D411D511DBF
:1007800004C0260F311D411D511D872F99278FBF92
:10079000CA01B90108951F931FB7F89480912A06E2
:1007A000882339F40E94CB01882319F481E08093D7
:1007B0002A06812F99278FBF1F910895382FFA019C
:1007C000422F2D3118F082E090E008956683872F44
:1007D00099278583338721878091830290918402B2
:1007E000892B19F085E090E008952FB7F89433270E
:1007F00085E08093860210928702F0938202E09354
:10080000810282E090E090938402809383021092B0
:10081000890210928802445F409385022FBF9FB7E0
:10082000F89480912303882311F020E006C081E032
:10083000809323031092240321E0892F99278FBFEF
:10084000222329F00E94CB0380E090E008951092CB
:1008500084021092830281E090E00895CF93DF93A9
:10086000DB01FB0135968183892F9927EB018D836D
:1008700084E686838091980390919903892B19F0DF
:1008800085E090E029C070939903609398034483B6
:1008900080916402882319F480E090E01DC0868175
:1008A000EB016D817727762F662721813327622B15
:1008B000732B10926402242FAD010E94DE0399274E
:1008C000282F882339F081E08093640210929903E5
:1008D00010929803822F9927DF91CF910895AF92BC
:1008E000BF92CF92DF92EF92FF920F931F93F82E59
:1008F0005A016B010E94A203AB01BC0131E0E32E5F
:10090000960185018F2D0E9483031F910F91FF9007
:10091000EF90DF90CF90BF90AF900895DF92EF926D
:10092000FF920F931F938FB7F894282F3327D22E5F
:100930009091B3008091B20047B3981711F041FF36
:1009400002C02FBF71C080910D038823E1F10E9486
:10095000A203E090A102F090A2020091A3021091E4
:10096000A4022091540530915505409156055091AF
:1009700057056E197F09800B910B62177307840767
:10098000950720F010920D0371E01EC02E0D3F1D43
:10099000401F511F8091DC029091DD02A091DE0288
:1009A000B091DF02281B390B4A0B5B0B273E310548
:1009B0004105510540F4822F223010F070E005C04F
:1009C00070E082E002C070E086EE682F6150809196
:1009D000B60083FDFCCF8091B200681709F46F5F09
:1009E0002091DC023091DD024091DE025091DF0265
:1009F000DA01C9010196A11DB11D860F911DA11D2E
:100A0000B11D82179307A407B50710F4622F6095F4
:100A10008091B60083FDFCCF6093B300DFBE7723E7
:100A200019F089E00E94CB011F910F91FF90EF9088
:100A3000DF900895AFB7F894BB27E1E0E0930D0392
:100A40006093A1027093A2028093A3029093A402E8
:100A50002093540530935505409356055093570500
:100A6000AFBF0E948E040895809128048A3021F43B
:100A700080910803843021F081E080937E02089504
:100A800082E00E94CB0110927E0208952FB7F89465
:100A900033278093C600E0ECF0E08081806480839F
:100AA0002FBF0895FC016115710519F481E090E0F4
:100AB000089580911E0390911F03892B19F085E002
:100AC00090E0089570933C0560933B05F0931F03FD
:100AD000E0931E0310920A031092090381E08093B1
:100AE0000B038091C00080648093C0008091C1009E
:100AF00080648093C100808121E030E030930A035C
:100B0000209309030E94460580E090E008958FB786
:100B1000F894992720918F022E7F20938F022EE741
:100B20002093F7028FBF61E070E087EF92E00E94B0
:100B3000520599270895E8EFF0E06927660FF11D47
:100B4000E60FF11DC895982F802D3196C8959025F8
:100B50000895982F80918A02882389F5992379F541
:100B600031E030938A0280915D0280938B02209164
:100B70007F02822F81708093A70280916202909100
:100B8000630290938D0280938C0280918002809307
:100B90008E0232273170267EE32FFF27EE0FFF1FD4
:100BA000E25AFD4F808191819093630280936202AB
:100BB000232B20937F0285E00E94CB010895809132
:100BC0007F0280FF02C08B7F01C08D7F80937F02F8
:100BD00008950F931F93082F162F809108038130DB
:100BE000D9F0813038F0823009F44AC0833009F0FE
:100BF00027C159C0002309F457C11092340510923F
:100C00003305109230041092470510920C03109295
:100C10009D0310929C0338C1002309F045C18091C7
:100C20009C0390919D030E949B0590939D0380934C
:100C30009C0382E08093080310934705143409F065
:100C4000FFC024C18695869503C080917F0286955A
:100C5000817009F0F5C080917F02992311F08460C2
:100C600001C0826080937F0280917F02877E8860CE
:100C700080937F02109280028FEF80935D0214C1F7
:100C8000002309F0DDC060930C0380919C039091D8
:100C90009D030E949B0590939D0380939C0383E09A
:100CA0008093080301C1809130048F3F09F4C8C0CC
:100CB000002309F460C0823008F4C2C0E09133051B
:100CC000EE2309F4EAC04E2F4150E42FFF27ED5CDC
:100CD000FA4F82819927382F2227442311F4E2E02A
:100CE00002C0E42FE150FF27ED5CFA4F8281992783
:100CF000282B392B80919C0390919D03281739074D
:100D000009F09EC080E00E94A90530910C038091FB
:100D10008C0320918D03982F9F5F963008F090E010
:100D2000921771F0E82FFF27E457FC4F32838F5F53
:100D300080938C03863010F010928C030E94CB03BA
:100D4000109234051092330510920803109230046B
:100D50001092470510920C0310929D0310929C0371
:100D600080918F028D7F80938F0280917E028823F5
:100D700009F49AC081C0823008F44EC0E091340575
:100D8000FF27ED5CFA4F8281482F5527342F2091A1
:100D90007F02822F8695869586958370992781306C
:100DA000910519F00297F9F40EC0277E2061209377
:100DB0007F02442311F485E001C080E0809380022B
:100DC00030935D0210C080918002833360F4E09123
:100DD0006202F0916302E80FF11D4083809180026E
:100DE0008F5F8093800280913405E82FFF27ED5CB0
:100DF000FA4F62818F5F80933405833010F0109238
:100E00003405772780919C0390919D030E949B0558
:100E100090939D0380939C0380913305E82FFF27D7
:100E2000ED5CFA4F12838F5F80933305833010F0AF
:100E300010923305809130048F5F8093300434C06A
:100E4000109234051092330510920803109230046A
:100E50001092470510920C0310929D0310929C0370
:100E600080918F028D7F80938F0281E00E94A9057F
:100E700080917E02882331F084E0809308030E94F1
:100E8000340512C0002381F081E00ACF80917F02F7
:100E9000982F917080FDD6CED8CE809137059927B6
:100EA000382F222742E01DCF1F910F9108951F92E6
:100EB0000F920FB60F9211242F933F934F935F938E
:100EC0006F937F938F939F93AF93BF93EF93FF9312
:100ED0008091C00087FF42C06091C600E0919E03F0
:100EE000F0919F03309719F180912806909129067F
:100EF000E80FF91F608301969093290680932806D6
:100F000020913506309136068217930738F11092FA
:100F10009F0310929E03809127048330F9F0809103
:100F2000C1008F778093C1001092270417C06E37DD
:100F300019F460E081E010C080918F026D3721F4D8
:100F4000826080938F020AC081FF05C08D7F8093ED
:100F50008F0280E2682780E00E94E905FF91EF910F
:100F6000BF91AF919F918F917F916F915F914F91C1
:100F70003F912F910F900FBE0F901F901895982FB3
:100F80008D57823068F480918F02816080938F0248
:100F900080E2892780932F048DE78093F70202C0B7
:100FA0009093F70261E070E087EF92E00E945205B3
:100FB0009927089578941F920F920FB60F921124DB
:100FC000FF920F931F932F933F934F935F936F93D2
:100FD0007F938F939F93AF93BF93CF93DF93EF93C1
:100FE000FF932091090330910A0380913B05909172
:100FF0003C052817390780F4E0911E03F0911F0388
:10100000E20FF31F80812F5F3F4F30930A0320933D
:1010100009030E944605D1C010921F0310921E03BF
:1010200010920B038091C1008F7B8093C100FFB6AB
:10103000F89480918F0280FF0EC08E7F80938F0284
:1010400080912F048093F70261E070E087EF92E0D7
:101050000E945205AFC080912804843009F48CC0EE
:10106000853040F4823021F18330B8F5813009F0C9
:101070009CC00DC0863009F48DC0863008F483C052
:10108000873009F48EC0883009F08FC091C08091FC
:101090001C030E94BF07082F83E0809328046091FF
:1010A0001C0380913306909134060E949B0510C06A
:1010B000809152050E94BF07082F83E08093280487
:1010C0006091520580913306909134060E949B05F1
:1010D000909334068093330666C0E091A003FF2707
:1010E000EE0FFF1FEE5DFC4F80810E94BF07082FAF
:1010F0001091A003C12FDD27FE01EE0FFF1FEE5D53
:10110000FC4F608180913306909134060E949B05CC
:10111000909334068093330620911A032F5F209317
:101120001A03113039F580918602E0918102F09125
:101130008202E80FF11DE0818F5F8093860290911B
:101140008502981730F482E08093230340E050E05A
:1011500002C04E2F5527DE01AA0FBB1FFD01EF5D18
:10116000FC4F8081823031F02F3F21F0AE5DBC4FCB
:101170004C9319C084E012C0809133060E94BF07CF
:10118000082F85E00BC0809134060E94BF07082F0E
:1011900086E004C00E948705082F87E0809328041A
:1011A00002C088E003C0002329F089E0809328046E
:1011B0000E94CB038F2D99278FBFFF91EF91DF9175
:1011C000CF91BF91AF919F918F917F916F915F91DF
:1011D0004F913F912F911F910F91FF900F900FBE54
:1011E0000F901F9018951F920F920FB60F92112417
:1011F0008F938091C80087FF02C08091CE008F91AD
:101200000F900FBE0F901F90189578941F920F9219
:101210000FB60F9211240F900FBE0F901F901895CC
:1012200078941F920F920FB60F9211240F900FBE59
:101230000F901F90189578941F920F920FB60F92EF
:1012400011240F900FBE0F901F90189578941F9245
:101250000F920FB60F9211240F900FBE0F901F9098
:10126000189578941F920F920FB60F9211248F93B6
:101270009F9380919600909197009F918F910F90EE
:101280000FBE0F901F90189578941F920F920FB673
:101290000F9211242F933F938F939F932FB7F8941E
:1012A000332780919A0390919B03019690939B031F
:1012B00080939A032FBF9F918F913F912F910F9011
:1012C0000FBE0F901F9018951F920F920FB60F929E
:1012D00011242F933F934F935F936F937F938F933B
:1012E0009F93AF93BF93EF93FF938091B000809350
:1012F000B0008091B60081FDFCCF8091B3009927AA
:101300000196AA27BB272091DC023091DD02409193
:10131000DE025091DF02280F391F4A1F5B1F209306
:10132000DC023093DD024093DE025093DF027894BA
:101330000E948E04FF91EF91BF91AF919F918F9189
:101340007F916F915F914F913F912F910F900FBEC1
:101350000F901F9018951F93182F81E00E942C0268
:101360001EBD0DB407FEFDCF8EB599271F910895C0
:101370001F920F920FB60F9211248F929F92AF92ED
:10138000BF92CF92DF92EF92FF920F931F932F9312
:101390003F934F935F936F937F938F939F93AF93FD
:1013A000BF93CF93DF93EF93FF932EB5E091220489
:1013B000F0912304309739F0809194039091950334
:1013C000E80FF91F20838091940390919503019673
:1013D000909395038093940380E00E948B02C091C8
:1013E0009403D09195038091990290919A02C81725
:1013F000D90708F044C00091F2051091F3058090E0
:101400002204909023042AE0A22EB12CAC0EBD1E23
:101410008A159B0508F45C016401CC0EDD1E780181
:10142000EC0EFD1E15C00115110519F0F7018081A4
:1014300001C080E00E94AB098114910411F0F60113
:10144000808321960894C11CD11C0894E11CF11CD6
:10145000C5010197C817D90730F381E00E948B02BC
:101460000115110531F00C0F1D1FF80180818EBD93
:1014700001C01EBCD0939503C093940311C0109279
:101480002304109222041092F3051092F205109298
:101490009A021092990210929503109294038EB5BD
:1014A000FF91EF91DF91CF91BF91AF919F918F917C
:1014B0007F916F915F914F913F912F911F910F916C
:1014C000FF90EF90DF90CF90BF90AF909F908F9064
:1014D0000F900FBE0F901F90189578941F920F9247
:1014E0000FB60F9211240F900FBE0F901F901895FA
:1014F00078941F920F920FB60F9211240F900FBE87
:101500000F901F90189578941F920F920FB60F921C
:1015100011242F933F938F939F93AF93BF932FB734
:10152000F89433278091130390911403A09115032D
:10153000B09116030196A11DB11D809313039093E2
:101540001403A0931503B09316032FBFBF91AF915F
:101550009F918F913F912F910F900FBE0F901F90F1
:1015600018951F920F920FB60F9211248F938091AE
:10157000B0008093B0008091B60081FDFCCF8F91C8
:101580000F900FBE0F901F9018951F93982F1FB7A5
:10159000F89480919402823099F580916A028917BB
:1015A00079F58091680220E030E08F3F11F421E06E
:1015B00030E0232BF1F49FEF90936A028F3F19F4F0
:1015C0002FEF30E00DC0282F3327F901E250FD4FF7
:1015D0008081809368028F3F11F490936902908319
:1015E0002093FB0281E0809394028BE00E94CB0168
:1015F00005C08FEF80936A021092940221E001C02F
:1016000020E0812F99278FBF90E0213009F491E0ED
:1016100081E09827892F99271F9108951F93CF93D1
:10162000DF93182FFA01A22F2D3118F086E090E0F9
:101630008EC0EA01219689812181B0E09927582F37
:1016400044273327422B532BCA0187749C7C815437
:10165000984809F4B1E0BB2349F4CA018073907043
:10166000816498688183892F99278983A35FA083E8
:101670002FB7F894332780916502909166022FBFAF
:101680008087892F992781872FB7F89433278091F6
:1016900067022FBF99278483158213876683872F5C
:1016A000992787838FB7F894282F33278091940246
:1016B000882371F482E08093940210926A022FBF13
:1016C000CF010E94F2019927182F882399F00FC0AB
:1016D0002FBFF093FD02E093FC028FB7F894C82F60
:1016E000DD272C2F80919402882399F406C080E096
:1016F0000E94C50A812F99272AC081E08093940215
:101700001092FB028BE00E94CB01CFBF80E090E003
:101710001EC08091FE028F3F89F4E0916902EE23A2
:1017200069F010C01092680204C0FF27E250FD4F1C
:1017300010821092690280E090E002C085E090E0A3
:101740002FBF05C0809168028F3F79F7EBCFDF9103
:10175000CF911F9108950F931F93CF93DF93182F6D
:10176000EB01042FE82FFF27EE0FFF1FE45BFA4F7A
:101770001182108210926E02E0914C05F0914D059D
:10178000309721F08091190380FF0EC081E0809393
:101790006E0203C085E10E94CB011123B9F4602FD2
:1017A000CE010E94BD0112C020812D5033276781D8
:1017B0007727762F662786819927682B792BAF01AB
:1017C00083850E940E0B882341F3E4CFDF91CF91F4
:1017D0001F910F9108950F931F93CF93DF93182FAD
:1017E0000FB7F89480919602882311F40E94940216
:1017F000802F99278FBF8FB7F894C82FDD272C2F04
:1018000080919602882361F481E080939602109380
:101810001D0383E10E94CB01CFBF80E090E021C097
:10182000E12FFF27E55EFC4F80818F3F89F4E09137
:101830006C02E11789F40CC010936B0204C0FF27FF
:10184000E55EFC4F108310936C0280E090E002C0D4
:1018500085E090E02FBF05C080916B028F3F79F744
:10186000EBCFDF91CF911F910F9108958FB7F8942F
:10187000282F3327922F80916D02882331F4809195
:101880009602823011F42FBF13C09FBF8FB7F89418
:10189000282F332780919602882369F482E0809371
:1018A000960210926D022FBF0E949402209A289AED
:1018B00081E090E008952FBF80E00E94EB0B80E074
:1018C00090E008954F925F926F927F928F929F92D5
:1018D000AF92BF92CF92DF92EF92FF920F931F933E
:1018E000CF93DF932C0180919802882309F085C162
:1018F0008091F405853009F080C10E94360C882360
:1019000009F47BC180913805882309F076C160E332
:10191000862E912C840C951CF20180A982FD02C0B8
:1019200090E003C0F20192A99F708091580398172C
:1019300081F090935803289885EC8EBD0DB407FE76
:10194000FDCF8EB590689EBD0DB407FEFDCF8EB560
:10195000289AE20121968981F201218140E09927AC
:10196000982F88273327822B932B87749C7C815454
:10197000984809F441E0442301F1289886E88EBD97
:101980000DB407FEFDCF8EB51EBC0DB407FEFDCF16
:101990008EB5289A99278F719070209112034091EB
:1019A000FF02240F312D311D43E0359527954A95CF
:1019B000E1F7281739070CF420C1289882EC8EBD76
:1019C0000DB407FEFDCF8EB589E08EBD0DB407FEC8
:1019D000FDCF8EB5289A0E94B8027B018C01D401FC
:1019E0008C9184FD03C0E0E0F0E005C0F20180814D
:1019F0008550E80FF11D289881E88EBD0DB407FED3
:101A0000FDCF8EB51EBC0DB407FEFDCF8EB5289A56
:101A10008F71893079F0289882EC8EBD0DB407FE65
:101A2000FDCF8EB586E08EBD0DB407FEFDCF8EB521
:101A3000289AE3C08FB7F89499272F9A20918400B1
:101A4000309185008FBF2F98289880E68EBDD201F7
:101A50009C910DB407FEFDCF8EB59EBD792F7250BF
:101A6000773010F4672F01C067E0DE01962F4D91AB
:101A70000DB407FEFDCF8EB54EBD9150C1F761503C
:101A8000C60FD11D6F5F21962E193F092E553F4F6E
:101A90003901882477FC8094982C6E0C7F1C801E62
:101AA000911E309719F4972F961B42C02081E18038
:101AB0008281A3809927AA27BB27BA2FA92F982F05
:101AC0008827332744275527522F44273327222797
:101AD000FF24002711278701FF24EE242E293F2908
:101AE000402B512BBB24CC24DD242A293B294C2913
:101AF0005D29822B932BA42BB52B86199709A80956
:101B0000B9098383292F3A2F4B2F552722839D0113
:101B10004427552721838B2F9927AA27BB2780830A
:101B2000C2CF28810DB407FEFDCF21968EB52EBD04
:101B30009150B8F70DB407FEFDCF8EB5289A2898BE
:101B400082EC8EBD0DB407FEFDCF8EB586E08EBD56
:101B50000DB407FEFDCF8EB5289A3097D1F12081C4
:101B6000E1808281A3809927AA27BB27BA2FA92FBA
:101B7000982F8827332744275527522F4427332768
:101B80002227FF24002711278701FF24EE242E2976
:101B90003F29402B512BBB24CC24DD242A293B296F
:101BA0004C295D29822B932BA42BB52B860D971DD9
:101BB000A81DB91D8383292F3A2F4B2F5527228328
:101BC0009D014427552721838B2F9927AA27BB27BF
:101BD0008083C2010E94DD02C2010E94E202FC0178
:101BE000608271828282938286E08093F40584E031
:101BF0008093980280E090E002C085E090E0DF9161
:101C0000CF911F910F91FF90EF90DF90CF90BF90F9
:101C1000AF909F908F907F906F905F904F900895BE
:101C2000809192028C3118F04CE150E002C0482FB4
:101C300055278CE1E1E0F6E011928A95E9F7909161
:101C400092028091900220E030E0A1E0B6E00FC067
:101C5000E82FFF27ED5CFB4FE081992329F08F5F90
:101C60008A3F09F480E09150ED932F5F3F4F241796
:101C7000350771F790939202809390024CE165EFE3
:101C800075E08FEF9FEF0E942E04882319F088E003
:101C90000E94CB0108951F93182F809193028130E9
:101CA00049F4809192028D3728F082E0809393026C
:101CB0000E94100E8FB7F894282F3327909192022C
:101CC0009A3FA8F480919102E82FFF27ED5CFB4F2B
:101CD00010838F5F809391028A3F11F410929102DA
:101CE0009F5F909392022FBF80E090E003C02FBFD0
:101CF0008FEF9FEF1F910895662359F48091920210
:101D0000882319F00E94100E089581E080939302B9
:101D1000089588E00E94CB010895EF92FF920F93FF
:101D20001F93CF93DF93182F7B01042FE82FFF27FA
:101D3000EE0FFF1FE856FC4F1182108210926402D2
:101D4000A0919803B0919903109721F080915305C9
:101D500080FF0EC081E08093640203C087E00E9490
:101D6000CB011123C9F4602FC7010E947C0E14C05F
:101D7000FD01359624813327ED016D817727762F7C
:101D8000662781819927682B792BAD0186810E9476
:101D9000DE03882331F3E2CFDF91CF911F910F91C2
:101DA000FF90EF9008958FB7F894282F33278091F4
:101DB0009302823021F42FBF80E090E0089590E0FC
:101DC00080919202882309F491E0992321F02FBF9A
:101DD00081E090E0089582E0809393022FBF0E94FB
:101DE000100E80E090E0089580910603823031F477
:101DF00081E0809306038EE00E94CB0108958093DA
:101E00005805882311F484E001C081E08093060323
:101E10008EE00E94CB0108952F923F924F925F92E5
:101E20006F927F928F929F92AF92BF92CF92DF92EA
:101E3000EF92FF920F931F93CF93DF93CDB7DEB74F
:101E400024970FB6F894DEBF0FBECDBF5B016C01C7
:101E500088249924E1EAF3E0782D608561FF13C1BD
:101E60002081318142815381E480F5800681178190
:101E7000D601C501821B930BA40BB50B8E159F05D4
:101E8000A007B10708F4FFC060FF03C06D7F608743
:101E900008C02E0D3F1D401F511F208331834283F8
:101EA0005383713009F484C0713020F0723009F02E
:101EB000F3C0E5C00E94A2037B018C016093B702CE
:101EC000BB27A92F982F872F8093B602C801AA2776
:101ED000BB278093B502812F9927AA27BB27809320
:101EE000B4020E94A2035B016C010E94B802EA18CE
:101EF000FB080C091D09EAE0EE0CFF1C001F111F76
:101F0000EA95D1F7E60EF71E081F191F8AE08093A5
:101F1000B802E092BC02BB27A12F902F8F2D809397
:101F2000BB02C801AA27BB278093BA02E12EFF2477
:101F300000271127E092B90248EA52E08091D802C6
:101F400080618093D8028FEF8093AE028093AF02BE
:101F50008DE38093B30280914C0590914D05892BC0
:101F600019F550934D0540934C0586E18093A802E6
:101F700080916E02882309F48FC010926E0229E0CE
:101F80006FEF7FEF8DE30E940E0B9927282F882398
:101F900009F482C081E080936E0210924D05109288
:101FA0004C05222309F478C081E00E94A60174C088
:101FB0000E94A20369837A838B839C83A090000391
:101FC000B0900103C0900203D0900303A60EB71E89
:101FD000C81ED91ED601C5014AE0B695A7959795AA
:101FE00087954A95D1F787700E94A601612C3CEF36
:101FF000732E3FEF832E3FEF932E6A207B208C20A1
:102000009D2080E094E0A0E0B0E0680E791E8A1E7A
:102010009B1E130124012A183B084C085D0821E08F
:10202000E22E9201810149815A816B817C8181E09C
:102030000E9483035F924F923F922F92DF92CF9242
:10204000BF92AF929F928F927F926F9289819A8175
:10205000AB81BC81BF93AF939F938F9380E092E05D
:102060009F938F930E943E200E94D30EADB7BEB7C0
:1020700052960FB6F894BEBF0FBEADBF0DC08CE038
:102080000E94CB0109C00894811C911C3996B3E0D1
:102090008B16910409F0E0CE8AE00E94CB012496D1
:1020A0000FB6F894DEBF0FBECDBFDF91CF911F9169
:1020B0000F91FF90EF90DF90CF90BF90AF909F90E7
:1020C0008F907F906F905F904F903F902F900895EA
:1020D000AF92BF92CF92DF92EF92FF920F931F9336
:1020E000CF93DF9380913805882309F4FEC00E94C6
:1020F000360C882309F4F9C08FB7F8949927C0915A
:102100001703D09118038FBF1092380528988FE8D5
:102110008EBD0DB407FEFDCF8EB51EBC0DB407FEFF
:10212000FDCF8EB5289A982F80919802833011F0B8
:10213000873031F485E08093F40588E0809398023D
:10214000A92EBB24A2FE5FC080919802863019F4AC
:102150001092980203C0882309F055C0943009F00A
:1021600041C0289886E88EBD0DB407FEFDCF8EB520
:102170001EBC0DB407FEFDCF2EB5289A2F7180919D
:10218000FF02982F96959695322F391B830F8093D7
:10219000FF02E091A502F091A60280A98B7F8860E2
:1021A00080AB22AB0E94B8026B017C010091A502BA
:1021B0001091A602C8010E94DD02C8010E94E2023D
:1021C000FC01CC19DD092797CE01AA2797FDA09520
:1021D000BA2F8C0D9D1DAE1DBF1D80839183A283E0
:1021E000B3830EC0E091A502F091A60280A9877F7B
:1021F00080ABE091A502F091A60280A98D7F80AB13
:1022000085E080939802A3FE70C08091980284308C
:1022100009F04EC085E08093F405109298028091F9
:10222000DB02833019F41092DB025FC0C0913106EB
:10223000D0913206CE010E94E402882389F18A817E
:1022400029819927982F88273327822B932B8774EE
:102250009C7C8154984821F58F812E819927982F55
:1022600088273327822B932B8F5F9F4FC9F090E0F5
:1022700080912404882309F491E0992389F012E0E5
:102280001093200381E08093240480918400909136
:1022900085006CEC7AE00E94F5021093DB0225C009
:1022A0001092DB021092070380E00E94FF0E1DC017
:1022B0008530D9F420911203289886E88EBD0DB49C
:1022C00007FEFDCF8EB51EBC0DB407FEFDCF8EB54B
:1022D000289A8F71922F96959695891B280F209397
:1022E000120389E08093980208C090919802992384
:1022F00009F4E4C2993009F011C2289880E28EBD39
:102300000DB407FEFDCF8EB51EBC0DB407FEFDCF8C
:102310008EB5482F5527433008F495C3842F99274D
:102320008A970CF090C31EBCE091A502F091A60222
:102330004083542F5250573010F4452F01C047E0CE
:10234000DF011196242FFD0160E070E00DB407FE5F
:10235000FDCF8EB51EBC992781936827062E629506
:10236000607F6025072E762F62956F700626669532
:1023700076276727660F660F660F6025215031F7B5
:102380004150A40FB11D4F5F1196E091A502F0914D
:10239000A602818190E08770823009F491E0992350
:1023A00049F020E030E08091DB02823081F421E0CE
:1023B00030E00DC08FB7F894282F332790E080913C
:1023C0002D05833008F491E02FBF292F3327232BCD
:1023D00009F45CC0952F941B18C00DB407FEFDCF07
:1023E0008EB51EBC8C938D916827062E6295607FFA
:1023F0006025072E762F62956F70062666957627E4
:102400006727660F660F660F6025915030F70DB491
:1024100007FEFDCF8EB51EBC9B012827022E2295FC
:10242000207F2025032E322F22952F7002262695FD
:1024300032272327220F220F220F20250DB407FE5B
:10244000FDCF8EB51EBC2827022E2295207F202589
:10245000032E322F22952F7002262695322723270E
:10246000220F220F220F20250DB407FEFDCF8EB5BF
:10247000E091A502F091A60281AB289A15E0109395
:10248000F40510929802232B31F014C20DB407FE0C
:10249000FDCF8EB5D8C2E090A502F090A6026701EC
:1024A0000894C11CD11CF701818190E0282F3327AB
:1024B000277030702230310509F491E08091DB0201
:1024C000992319F1823009F024C1F7019381E09139
:1024D0003106F09132068381981709F01AC1223033
:1024E000310509F016C180916F008D7F80936F00D8
:1024F0001092240480A9816080AB1092DB021092BC
:10250000070380E00E94FF0E04C18823C9F4C701BD
:102510000E941F038823A1F01093590382E0809347
:102520005A0310925B03F701838180935C0389E572
:1025300093E00E94620C882319F483E08093DB020D
:102540000091840010918500C7010E941F03882319
:1025500011F0045E1C4F1093970300939603809133
:102560008400909185009801281B390B12161306E0
:10257000A4F480910703882369F490E080912404F7
:10258000882309F491E0992341F0C9010E94520384
:1025900080E801C0806880930703F6018085278169
:1025A0009927582F44273327422B532B8091E00241
:1025B000282F3327F901EE0FFF1FE35CFA4F8081CC
:1025C0009181709125048417950769F4F901E55DFF
:1025D000F94F8081871709F467C0872F8F5F809339
:1025E000250480831DC000E010E080E090E0CDE392
:1025F000D5E0EBE2F6E0DF01682F9C01888199814C
:102600008417950779F42093E002909125048C912A
:10261000891709F449C0892F8F5F809325048C9313
:1026200000E829C08081972F981B091710F4092F03
:10263000122F6F5FC901019611962296319685304F
:102640009105D1F66530B9F41093E002A12FBB27B4
:10265000FD01EE0FFF1FE35CFA4F51834083809131
:1026600025048F5F80932504FD01E55DF94F80838C
:10267000A95CB94F1C9290912504892F8F778F37D1
:1026800079F40F3768F0EBE2F6E0292F20788081AB
:102690008F6789132083319636E0E033F307B9F76B
:1026A0008091E002282F3327F6019281A22FBB27C9
:1026B000FD01E95CF94F808180FF07C0FD01E25D0B
:1026C000FA4F8081981729F102C081608083A25D52
:1026D000BA4F9C93DFB6F89480912D058330B0F407
:1026E000E0915105E80FE33008F0E350FF27EE0FCB
:1026F000FF1FE556FD4F00811181F182E0828F5F5F
:1027000080932D058FE00E94CB0178018D2D9927B4
:102710008FBFF092A602E092A502C3C0892F81501C
:10272000833008F09CC081508230E0F43091F40591
:102730003130C1F420E080912404882309F421E0A1
:10274000222381F02F9883E0809320033093240488
:1027500080918400909185006BE273E00E94F50205
:1027600082E068C0933009F042C08091F405833064
:1027700009F097C00E94360C8823C9F128988FE889
:102780008EBD0DB407FEFDCF8EB51EBC0DB407FE89
:10279000FDCF8EB5289A809181008064809381005E
:1027A00080E286BB80916F00806280936F00909181
:1027B000FA02289888EC8EBD0DB407FEFDCF8EB5C9
:1027C00090669EBD0DB407FEFDCF8EB5289A289861
:1027D00082EC8EBD0DB407FEFDCF8EB586E08EBDBA
:1027E0000DB407FEFDCF8EB5289A84E023C08091FA
:1027F00098028150823000F58091F4058530E1F433
:102800000E94360C8823C1F0289882EC8EBD0DB44E
:1028100007FEFDCF8EB583E08EBD0DB407FEFDCF64
:102820008EB5289A80916F008F7D80936F001092F3
:10283000380583E08093F40590919802913041F43B
:102840008091F4058330B1F52F9A9093F40525C05B
:10285000923039F58091F405833061F51EC09730D0
:1028600001F50E94360C8823E1F09091FA02289835
:1028700088EC8EBD0DB407FEFDCF8EB590669EBD73
:102880000DB407FEFDCF8EB5289A8091F4058530F2
:1028900021F484E08093F40504C088E080939802DA
:1028A00004C080919802883029F4109298028DE03B
:1028B0000E94CB0180919802882309F58091F4054C
:1028C0008530D1F4809138058823B1F48091DB0202
:1028D000882391F480910703882371F490E080911C
:1028E0002404882309F491E0992331F00E94F40E26
:1028F00080919802882319F481E10E94CB01809194
:102900002404823009F092C010922404C090200365
:10291000F2E0CF1609F466C023E0C21609F46AC0DB
:1029200031E0C31609F082C02091960330919703DD
:10293000809184009091850040910703403829F4EC
:10294000109207030E94F40E71C08901081B190B35
:1029500047FF03C010161106ECF0C0910403D0919C
:1029600005038091DB028823A9F4CE010E94620C4A
:102970009927882351F488A98E7F88ABC092DB0207
:10298000D0933206C093310629C09927F82E8823A8
:1029900029F102C085E0F82E20910703822F9927A4
:1029A0008F77019759F4207822602093070380E104
:1029B00098E00E9460030E94520338C027FF0AC0BB
:1029C000101611063CF480E880930703C8010E94AA
:1029D000520302C0109207038F2D09C083E0809339
:1029E000070324C01092DB021092070380E00E94CC
:1029F000FF0E1CC08091F405823019F4C092F405DA
:102A000013C080919802863079F410929802289829
:102A100081E88EBD0DB407FEFDCF8EB51EBC0DB492
:102A200007FEFDCF8EB5289A0E944C158FB7F894FB
:102A3000282F33278091F902813061F081E0809363
:102A4000F9022FBF4FCB289A85E08093F4051092AE
:102A5000980230CF1092F9022FBFDF91CF911F91D2
:102A60000F91FF90EF90DF90CF90BF90AF900895BF
:102A70008FB7F894282F33278091F90281508093E3
:102A8000F902803811F02FBF089581E08093F90298
:102A90002FBF0E94681008958FB7F894282F33270E
:102AA0008091F902882329F080688093F9022FBF72
:102AB000089581E08093F9022FBF0E946810089565
:102AC00078941F920F920FB60F9211242F933F9379
:102AD0004F935F936F937F938F939F93AF93BF9326
:102AE000EF93FF93E6E8F0E08081918120813181CE
:102AF0008FB7F8949927309318032093170321E098
:102B0000209338058FBF0E944C15FF91EF91BF9124
:102B1000AF919F918F917F916F915F914F913F9175
:102B20002F910F900FBE0F901F90189578941F92C1
:102B30000F920FB60F9211242F933F934F935F93F1
:102B40006F937F938F939F93AF93BF93EF93FF9375
:102B500080916F008D7F80936F0078949FB7F89479
:102B600080912404813019F482E080932404892F19
:102B700099278FBF0E944C15FF91EF91BF91AF91A4
:102B80009F918F917F916F915F914F913F912F9185
:102B90000F900FBE0F901F9018952F923F924F925B
:102BA0005F926F927F928F929F92AF92BF92CF92DD
:102BB000DF92EF92FF920F931F93CF93DF93CDB7E6
:102BC000DEB729970FB6F894DEBF0FBECDBFE82F52
:102BD000FF27E631F10508F00EC6EA59FF4FEE0F68
:102BE000FF1F0590F491E02D0994809153058823EF
:102BF00009F401C690E011E0B5C180911903882362
:102C000009F4F9C590E011E0C5C58FB7F8941092AA
:102C10002A062091280440E0283009F441E030E001
:102C2000293009F431E0442311F4332351F0109298
:102C30002804E091A003FF27EE0FFF1FEF5DFC4F7C
:102C4000108299278FBF442311F4332331F19FB7AA
:102C5000F894809152058F5F8093520580911C03F8
:102C6000833479F420918D0380918C03821779F05D
:102C7000822F8F5F80938D03863048F010928D03F2
:102C800006C0A0E0442309F4A1E071E002C0A0E086
:102C900070E0892F99278FBF06C0222311F010E022
:102CA0006CC0A0E070E08FB7F894992720917E0265
:102CB0008FBF222341F08FB7F89499272AE0209301
:102CC00028048FBF42C08FB7F894992760912103E1
:102CD000409123038FBF8FB7F894282F332750E0FC
:102CE00090918C0380918D03981709F451E02FBFC8
:102CF000552341F5662331F55FB7F89482E0809360
:102D000021038FB7F894282F332740E090918C034C
:102D100080918D03981709F441E02FBF442311F0EF
:102D200080E006C0E0918D03FF27E457FC4F8281CD
:102D30008093220383E480931C031092A003852FC9
:102D400099270EC04150423010F010E00BC08FB7F1
:102D5000F894992725E420931C0321E02093A003F5
:102D60008FBF11E0772349F08FB7F8949927A0938C
:102D700087028FBF84E00E94CB018FB7F894E82EC2
:102D8000FF24809128048A3021F40E943405EFBE8C
:102D900032C5EFBE112309F42EC52FB7F89433279F
:102DA000109234061092330610921A0381E0809339
:102DB00028042FBF0E948705882309F41CC58FB7FC
:102DC000F894992729E0209328048FBF0E94CB0311
:102DD00012C58091C1008F7B8093C1008091C1009A
:102DE0008F778093C1001092270410920B0380917B
:102DF000C10088608093C1008091C1008061809390
:102E0000C1008091C10080688093C10080919302CD
:102E1000882309F0F0C48FE692E090933F068093F8
:102E20003E068FB7F894992721E0209393028FBF35
:102E300081E00E94CB0180E392E00E9455200E9435
:102E4000D30E2FB7F89433278091F9028F5F8093C8
:102E5000F9022FBF809106038823D9F4809198024C
:102E60008823B9F48091F405813049F490E0809191
:102E70002404882309F491E0992359F002C0853095
:102E800041F083E0809398020E944C1585E0809386
:102E900006030E943815109200031092010310924D
:102EA00002031092030340E054E060E070E081E030
:102EB00077C183E093C08091C100877F8093C10078
:102EC0008091C1008F7E8093C1008FB7F8949927BD
:102ED00010929302CFC310928402109283028FB794
:102EE000F8949927409187028FBF809188028111C1
:102EF00043E02091810230918202809189028823EF
:102F000009F079C480916402882309F074C4609147
:102F10009803709199036217730709F06CC450C04D
:102F20008FB7F894992720918C0230918D024091AF
:102F3000A7028FBF8FB7F894E42FFF27EE0FFF1F74
:102F4000E25AFD4F3183208320917F02442311F008
:102F50002B7F01C02D7F20937F0210928A02992738
:102F60008FBF49C420915305812F8223C1F0E92FDF
:102F7000FF27EE0FFF1FE856FC4F40815181118261
:102F80001082812F8095282320935305992339F4AB
:102F900063E0CA010E947C0E110F91E0E3CF9F5FB6
:102FA000983008F028C4110FDDCF80916402E82F1B
:102FB000FF27EE0FFF1FE856FC4F6081718141E053
:102FC0000E948D0E18C44CE165EF75E08FEF9FEF06
:102FD0000E942E04882309F40EC488E00E94CB01CD
:102FE0000AC48091F802882361F520914805309148
:102FF000490540914A0550914B05EFB7F894FF27DA
:103000006091A1027091A2028091A3029091A4020A
:10301000E0905405F0905505009156051091570524
:103020006E0D7F1D801F911FEFBF209348053093C9
:10303000490540934A0550934B051092F8020E94AF
:103040001A050E94A2033FC00E94A2035B016C010B
:103050008FB7F894992710920D038FBF2FEF3FEF92
:103060004FEF5FE760E0E1EAF3E0808581FF1CC09D
:1030700080819181A281B38186017501E81AF90AE4
:103080000A0B1B0BD801C701E480F580068117816C
:10309000E81AF90A0A0B1B0BE216F30604071507D8
:1030A0001CF4A801970161E0399603E0EC3BF007BE
:1030B000E1F6662309F49FC31216130614061506DB
:1030C0002CF0C601B5010E940C0F95C32093480552
:1030D0003093490540934A0550934B0581E0809316
:1030E000F802C601B5010E941A0585C32FB7F894EE
:1030F00033278091FB0280936A0282E080939402DE
:103100002FBF80916A02882309F075C38091FC0269
:103110009091FD020E94F201082F1127002309F46B
:103120006AC380E00E94C50A2091FC023091FD0232
:1031300080916E02882309F05EC360914C05709106
:103140004D056217730709F056C3402F50C3E09135
:103150003104F091320420A531A51091950212306E
:1031600041F52115310519F080A980FF02C084E0E6
:103170001BC080912B0490912C04019690932C04F9
:1031800080932B048217930770F481E0809395025B
:1031900042A553A54115510571F06627772782E0B6
:1031A0000E946F0428C385E08093950210919502D8
:1031B00026C0113021F582E08093950240913104C0
:1031C000509132042FB7F89433278091F9028F5F22
:1031D0008093F9022FBF80910603882369F45093EE
:1031E0002A044093290481E0809306031092260468
:1031F0008EE00E94CB0197C00E9438159AC014300F
:1032000008F4F9C2232B51F0E0913104F09132041B
:1032100080912B0490912C0491A780A71092950285
:10322000E0903104F0903204F70182858F3309F089
:10323000E2C280E00E94C50A80916E02882309F0F4
:10324000DAC260914C0570914D056E157F0509F04D
:10325000D2C21450412FCBC28091060310920603B4
:103260008530A1F480915B0290915C02019709F096
:10327000C2C20E94A203AB01BC01EE2400E018E22E
:1032800020E030E080E00E948303B5C2863009F47C
:10329000B2C2873009F4AFC280930603ACC22FB725
:1032A000F89433278091F9028F5F8093F9022FBF42
:1032B00040910603413071F5809126048F5F809321
:1032C0002604863038F52091290430912A04809113
:1032D00007038823C1F490E080912404882309F433
:1032E00091E0992381F030930503209304034093E8
:1032F00007038BED91E10E9460030E94520310923C
:10330000580583E004C085E08093580582E08093EF
:10331000060309C0109206030E94381580915805D3
:10332000882321F406C00E94381565C28C5F809303
:1033300095028CE053CE8FB7F894282F33278091D5
:103340002D05882309F456C2E0915105FF27EE0FA1
:10335000FF1FE556FD4F408051802FBFF20182854F
:10336000978126818F3309F0E0C06385892F9927E3
:10337000582F4427822F9927482B592B8FB7F89421
:10338000992720916502309166028FBF421753073B
:1033900021F04F5F5F4F09F0E2C06D3309F0DFC0ED
:1033A000F201808182519CE0E92EF12C4E0C5F1CD1
:1033B000D201A80FB11D04EF1FEF400E511E8C91DA
:1033C0008A3009F0CCC0F20180A981FFC8C0FD019C
:1033D0002181E2808381A4809927AA27BB276624C4
:1033E000782E892E9A2E332744275527522F44278B
:1033F00033272227FF24002711278701FF24EE24EB
:103400002E293F29402B512BBB24CC24DD242A29F3
:103410003B294C295D29622A732A842A952AF0E0E7
:103420006F16F0E07F06F0E08F06F0E89F0609F4E3
:1034300096C0C2010E94E202FC01A080B180C2805D
:10344000D3800E94B8027B018C010E94A203AE18B7
:10345000BF08C00AD10AAAE0D594C794B794A7942C
:10346000AA95D1F7FAE09594879477946794FA95A2
:10347000D1F7660E771E881E991EA60CB71CC81CB5
:10348000D91CF2018485E584268567843327442787
:103490005527542F432F322F22279927AA27BB279E
:1034A000B82FAA2799278827FF24002711278701EB
:1034B000FF24EE248E299F29A02BB12B772488246A
:1034C000992486299729A829B929282B392B4A2BF1
:1034D0005B2BDA01C9018A199B09AC09BD098093EC
:1034E000000390930103A0930203B0930303DF92C0
:1034F000CF92BF92AF925F934F933F932F93BF931F
:10350000AF939F938F9387E392E09F938F930E9453
:103510003E200E94D30E0DB71EB7025F1F4F0FB69D
:10352000F8941EBF0FBE0DBF1AC0892F9927582FC0
:103530004427822F9927482B592B8FB7F894992726
:1035400020916502309166028FBF4217530719F030
:103550004F5F5F4F21F48FB7F89499278FBF9FB7C4
:10356000F89480915105E82FFF27EE0FFF1FE556D5
:10357000FD4F518240828F5F80935105833010F060
:103580001092510580912D05815080932D05892F32
:1035900099278FBFD0CE2FB72983F89420900E03A0
:1035A00030900F034090100350901103662477244D
:1035B00088248EE4A82E03E8B02ECC24DD24EE244B
:1035C000FF2400E010E0222D332D442D552D662DD3
:1035D000772D882D90E00E942A1E2A833B834C83FE
:1035E0005D836E837F8388879987822E932EA42E96
:1035F000B52E2401350100E20E94281FA22EB32E11
:10360000C42ED52EA301920156954795379527953F
:103610002A0D3B1D4C1D5D1D57FF05C05F772F5FB9
:103620003F4F4F4F5F4F20930E0330930F03409354
:103630001003509311036981862F99278FBF8FB78D
:10364000F894992730932E0420932D0413C08FB73C
:10365000F894992710922304109222041092F305F3
:103660001092F20510929A0210929902109295030C
:103670001092940375CC2FB7F894332780911D03D3
:1036800080936D0282E0809396022FBF80916D023D
:10369000882309F0B0C0209A289A8091F4058823E5
:1036A00009F075C08EEF91E0019701960197E1F75F
:1036B00016982F9886E090E0019701960197E1F720
:1036C000169A289883EC8EBD0DB407FEFDCF8EB5FB
:1036D0001EBC0DB407FEFDCF8EB5289A289882EC4B
:1036E0008EBD0DB407FEFDCF8EB588E08EBD0DB446
:1036F00007FEFDCF8EB5289A8EEF91E001970196D7
:103700000197E1F728988EEC8EBD0DB407FEFDCF32
:103710008EB58DE48EBD0DB407FEFDCF8EB5289A13
:10372000289889EC8EBD0DB407FEFDCF8EB587ECD1
:103730008EBD0DB407FEFDCF8EB5289A289885EC76
:103740008EBD0DB407FEFDCF8EB580E88EBD0DB4E5
:1037500007FEFDCF8EB5289A109258038BE0809318
:10376000FA02289888EC8EBD0DB407FEFDCF8EB509
:103770008BE68EBD0DB407FEFDCF8EB5289A2F9A2D
:1037800081E08093F40580E00E94350234C00E94FD
:103790004C1531C020911903812F8223C1F0E92FEC
:1037A000FF27EE0FFF1FE45BFA4F4081518111822A
:1037B0001082812F8095282320931903992339F4AF
:1037C00063E0CA010E94BD01110F91E0E3CF9F5F4A
:1037D000983088F4110FDECF80916E02E82FFF271A
:1037E000EE0FFF1FE45BFA4F6081718141E00E94A0
:1037F000AB0B01C02FBF29960FB6F894DEBF0FBEEA
:10380000CDBFDF91CF911F910F91FF90EF90DF908F
:10381000CF90BF90AF909F908F907F906F905F9070
:103820004F903F902F90089580914E058F3FB1F0BB
:10383000282F3327F901EF51FD4F808180934E05EA
:103840008F3F11F4809330068FEF80832F3F31F04C
:10385000822F0E94CD1581E090E0089580E090E0F5
:103860000895FF920F931F93FFB6F89414BE88E15A
:103870000FB6F89480936000109260000FBE46E18E
:1038800050E06FEF70E081EE92E00E9437208FEF02
:1038900080934E058093300656985E9854985C98B5
:1038A00080916F008F7D80936F00209A289A279ACD
:1038B0002F980E9A169A85E293E09093A602809331
:1038C000A502109212038AE58093FF0281E08093A3
:1038D000810080E28093B60083E08093B100809104
:1038E0008400909185004AE7209184003091850002
:1038F0002817390708F44150442311F0C901F4CFC7
:103900009091B2008091B2008917E1F32091840078
:10391000309185009091B2008091B2008917E1F357
:103920008091840090918500821B930B409635E036
:10393000969587953A95E1F79093500580934F05BA
:103940001092B1008091B10080938100809181003C
:103950008093B6001092B2001092850010928400FD
:103960008FEF87BB87B386BB8091B6008571E1F787
:103970000A9A099A089A129A119A109A18B88FEF0F
:1039800087B90C9814981092850010928400809149
:103990006F00816080936F0080918100887F8260DA
:1039A0008093810010929500109294008091710094
:1039B00081608093710080919100887F8260809304
:1039C00091000E94141C8823E1F78FEF80931B0362
:1039D00080E00E94EB0B20915B0230915C022F5F34
:1039E0003F4FC901AA27BB2780930E0390930F0373
:1039F000A0931003B093110389E595E090939C0286
:103A000080939B02C39690939E0280939D028FEBBE
:103A100095E09093A00280939F028FEF9FEF909389
:103A20003E0580933D059093400580933F0590931C
:103A300042058093410590934405809343059093FC
:103A400046058093450580915B028295807F809337
:103A500097028FEF8093FE028091B6008062809380
:103A6000B6008091B60081FDFCCF82E08093B0006B
:103A70008091B60080FDFCCF83E08093B1008091FF
:103A8000B60083FDFCCF86EE8093B300809170007A
:103A90008260809370000E948E0412E006E06091C4
:103AA0004F0570915005882799272CE0660F771FE6
:103AB000881F991F2A95D1F720E031EE40E050E0B1
:103AC0000E94BF1F215030402093C400832F9927AC
:103AD0008093C5001093C0000093C2001092C100F3
:103AE0002093CC008093CD001093C8000093CA00AF
:103AF0001092C90084E490E090933A0580933905D0
:103B000010922103109223031092280410921A039A
:103B100010921C0310925205109234061092330634
:103B200010922A061092A0031092340510923305C9
:103B300010920803109230041092470510920C0363
:103B400010929D0310929C0310928D0310928C038F
:103B50000E94141C8823E1F78F2D99278FBF78943A
:103B600081E00E94CB018FB7F894482F552757C0AA
:103B700080917000992783709070892B19F4E5E08B
:103B8000F0E014C08091B6008A71E1F78091B30033
:103B90009091B200891B8C3038F08091B200853F43
:103BA00018F4E3E0F0E002C0E2E0F0E080916E00A3
:103BB000867009F580916F008E72E9F48091710032
:103BC0008E72C9F40CB407FC16C08091C1008871D4
:103BD00091F48091C900887171F48091BC0082FDDC
:103BE0000AC080917A0087FF03C081E090E005C0A1
:103BF00085E090E002C080E090E023B78E1708F4E3
:103C0000E82FFF27E850FD4FE491207F2160E22B51
:103C1000E3BF78948895F89483B78E7F83BF8091B3
:103C20004E058F3F09F4A4CF282F3327F901EF5118
:103C3000FD4F808180934E058F3F11F480933006B5
:103C40008FEF80832F3F09F493CF4FBF822F0E94C5
:103C5000CD1589CFACE2B0E0E0E3FEE10C940020AA
:103C6000222E332E442E552E662E772E882E992EF8
:103C7000FE013196A8E01192AA95E9F729823A82CD
:103C80004B825C826D827E828F829886FE0139969D
:103C9000B8E01192BA95E9F7A986BA86CB86DC8698
:103CA000ED86FE860F87188B89819A81AB81BC8156
:103CB00089A79AA7ABA7BCA77C018D018FEF9FEFC7
:103CC000A0E0B0E0E822F9220A231B2389A59AA5E7
:103CD000ABA5BCA51D014424552489859A85AB85D7
:103CE000BC858DA39EA3AFA3B8A75C016D018FEF28
:103CF0009FEFA0E0B0E0A822B922CA22DB228DA16A
:103D00009EA1AFA1B8A53D0188249924C801B7019F
:103D1000A60195010E94E11F69A37AA38BA39CA32E
:103D2000C801B701A40193010E94E11F7B018C012E
:103D3000C201B101A60195010E94E11F5B016C0166
:103D4000C201B101A40193010E94E11F3B014C019A
:103D5000EA0CFB1C0C1D1D1D89A19AA1ABA1BCA1E5
:103D60009D01442755272E0D3F1D401F511F2A1529
:103D70003B054C055D0540F480E090E0A1E0B0E03B
:103D8000680E791E8A1E9B1ECA01AA27BB27860DB4
:103D9000971DA81DB91D8D8F9E8FAF8FB8A3A90148
:103DA0003327222789A19AA1ABA1BCA1A070B07032
:103DB000280F391F4A1F5B1F298F3A8F4B8F5C8F4B
:103DC000A98CBA8CCB8CDC8CED8CFE8C0F8D18A161
:103DD000FE01719698E011929A95E9F7ED8AFE8AB4
:103DE0000F8B188F2D813E814F8158856DA17EA14B
:103DF0008FA198A50E94E11F3B014C012D853E85B6
:103E00004F85588969A57AA58BA59CA50E94E11FBD
:103E10002D893E894F89588D260F371F481F591FFE
:103E2000260D371D481D591D2D8B3E8B4F8B588FEE
:103E30006D887E888F88988C2A2D3B2D4C2D5D2D8A
:103E4000662D772D882D992DE2E1AC960C941C20DF
:103E5000A0E1B0E0EEE2FFE10C940020222E332E30
:103E6000442E552E662E772E882E992E002309F487
:103E700066C088E0FE01319611928A95E9F72983A0
:103E80003A834B835C836D837E838F829887E0E2E5
:103E9000E01B1E16CCF52D813E814F815885602F89
:103EA000772767FD7095DA01C901062E04C0B69523
:103EB000A795979587950A94D2F78D879E87AF87A8
:103EC000B88B04C0220F331F441F551FEA95D2F749
:103ED00089819A81AB81BC8104C0B695A7959795DD
:103EE00087956A95D2F7282B392B4A2B5B2B29878C
:103EF0003A874B875C8729843A844B845C846D8441
:103F00007E848F8498881BC01D861E861F86188A13
:103F10002E2F332727FD3095309521953F4F8D81EA
:103F20009E81AF81B88504C0B695A7959795879572
:103F30002A95D2F789879A87AB87BC87DCCF222D59
:103F4000332D442D552D662D772D882D992DE2E1A9
:103F500060960C941C20AA1BBB1B51E107C0AA1F32
:103F6000BB1FA617B70710F0A61BB70B881F991F1A
:103F70005A95A9F780959095BC01CD010895A1E2CD
:103F80001A2EAA1BBB1BFD010DC0AA1FBB1FEE1FD3
:103F9000FF1FA217B307E407F50720F0A21BB30B1E
:103FA000E40BF50B661F771F881F991F1A9469F79A
:103FB00060957095809590959B01AC01BD01CF01F6
:103FC0000895629FD001739FF001829FE00DF11D63
:103FD000649FE00DF11D929FF00D839FF00D749F83
:103FE000F00D659FF00D9927729FB00DE11DF91F2F
:103FF000639FB00DE11DF91FBD01CF01112408958C
:104000002F923F924F925F926F927F928F929F92E8
:10401000AF92BF92CF92DF92EF92FF920F931F93D6
:10402000CF93DF93CDB7DEB7CA1BDB0B0FB6F89487
:10403000DEBF0FBECDBF09942A88398848885F84C7
:104040006E847D848C849B84AA84B984C884DF8038
:10405000EE80FD800C811B81AA81B981CE0FD11D1C
:104060000FB6F894DEBF0FBECDBFED010895DC01A1
:1040700001C06D9341505040E0F70895A2E0B0E0D8
:10408000E4E4F0E20C941020FE0137966191719106
:10409000FA83E983AF0180913E0690913F060E942A
:1040A0008820E2E022960C942C200F931F93CF934C
:1040B000DF938C01E0913E06F0913F06838181FF02
:1040C0001FC0C0E0D0E00AC0FD0120853185BD01E0
:1040D000F9010995892B11F0CFEFDFEFF8018191FC
:1040E0008F01A0913E06B0913F06882369F7FD013C
:1040F00020853185BD018AE0F9010995892B11F0F0
:10410000CFEFDFEFCE01DF91CF911F910F91089597
:10411000ABE0B0E0EEE8F0E20C9402203C014B0191
:104120006A01FC0117821682838181FD03C08FEF33
:104130009FEFDAC1F3013381F40133FD859133FF41
:1041400081914F01882309F4CCC1853239F433FDC4
:10415000859133FF81914F01853229F4B30199276D
:104160000E948E22E7CF00E0442455244AE000322A
:10417000B0F48B3269F08C3228F4803251F0833203
:1041800071F40BC08D3239F0803349F4016028C0DE
:104190000260046025C0086023C0006121C007FDE3
:1041A00029C0282F20532A3078F406FF06C0549ED9
:1041B000C0011124522E580E13C0449EC001112478
:1041C000422E480E00620CC08E3221F406FD89C1D9
:1041D000006406C08C3611F4006802C0883651F4C1
:1041E000F40133FD859133FF81914F01882309F458
:1041F0006FC0BDCF982F8554833018F08052833024
:1042000038F424E030E0C20ED31E8FE389830FC060
:10421000933631F0933799F0933509F05BC023C0A2
:10422000F6018081898322E030E0C20ED31E7E0138
:104230000894E11CF11C51E0A52EB12C12C0F6012E
:10424000E080F18006FD03C06FEF7FEF02C0652DB7
:10425000772722E030E0C20ED31EC7010E948322DE
:104260005C010F7713C0F601E080F18006FD03C00A
:104270006FEF7FEF02C0652D772722E030E0C20E9E
:10428000D31EC7010E9478225C01006803FF07C0AB
:104290001BC0B30180E290E00E948E224A94842DDC
:1042A0009927A816B906A8F30FC0F70107FD859155
:1042B00007FF81917F01B30199270E948E2241104F
:1042C0004A940894A108B108A114B10471F706C179
:1042D00090E03EC0943611F0993691F507FF0AC080
:1042E000F601608171818281938124E030E0C20E09
:1042F000D31E0DC0F601808191819C01B9018827F0
:1043000077FD8095982F42E050E0C40ED51E4FE611
:10431000B42EB02297FF09C0909580957095619555
:104320007F4F8F4F9F4F50E8B52A8E010F5F1F4F71
:104330002AE030E0A8010E94BB22A82EA01A4DC09E
:10434000953731F43FEEF32EF0222AE030E023C01F
:1043500029EFF22EF0229F3661F0903720F4983545
:1043600009F0BFC012C0903739F0983709F0B9C0D2
:1043700005C028E030E00FC080E1F82AF4FE02C05A
:1043800094E0F92A20E130E006C0F4FE02C0E6E045
:10439000FE2A20E132E0F7FE0AC0F6016081718159
:1043A0008281938144E050E0C40ED51E0BC0F6011B
:1043B00080819181AC01BA0188279927E2E0F0E081
:1043C000CE0EDF1E8E010F5F1F4FA8010E94BB2281
:1043D000A82EA01A8FE7B82EBF20B6FE10C0FEEFA1
:1043E000BF22A51460F42B2D332724FF1AC022FF0F
:1043F00002C0052D09C02FEEB222052D01C00A2DE5
:104400002B2D332724FF0EC0FE01EA0DF11D808104
:10441000803319F439EEB32209C00F5F22FF06C0C2
:1044200004C0052D822F867809F00F5FEB2CFF2446
:10443000E3FC14C0E0FE0FC0041510F05A2C0BC0B2
:10444000542C501A5A0C042D06C0B30180E290E09F
:104450000E948E220F5F0415C0F304C0041510F4EF
:10446000401A01C04424E4FE10C0B30180E390E090
:104470000E948E22E2FE1EC0E1FE03C088E590E0AD
:1044800002C088E790E0B3010CC08E2D867891F0D1
:10449000E1FE02C08BE201C080E2B7FC8DE2B30115
:1044A00099270E948E2206C0B30180E390E00E940B
:1044B0008E225A94A514C0F3AA94FE01EA0DF11DB0
:1044C0008181B30199270E948E22AA2039F0F4CF6E
:1044D000B30180E290E00E948E224A944420C1F70A
:1044E00029CEF30186819781E0E12B960C941E2062
:1044F000FC010590615070400110D8F780959095AF
:104500008E0F9F1F0895FC016150704001900110B3
:10451000D8F7809590958E0F9F1F08950F931F9346
:10452000CF93DF938C01EB018B81992781FF1BC017
:1045300082FF0DC02E813F818C819D812817390714
:1045400064F4E881F9810193F983E88306C0E88582
:10455000F985802F0995892B31F48E819F810196F1
:104560009F838E8302C00FEF1FEFC801DF91CF91B1
:104570001F910F910895FA01AA27283051F1203197
:1045800081F1E8946F936E7F6E5F7F4F8F4F9F4FE7
:10459000AF4FB1E03ED0B4E03CD0670F781F891F29
:1045A0009A1FA11D680F791F8A1F911DA11D6A0FF7
:1045B000711D811D911DA11D20D009F468943F91AA
:1045C0002AE0269F11243019305D3193DEF6CF01A9
:1045D0000895462F4770405D4193B3E00FD0C9F76F
:1045E000F6CF462F4F70405D4A3318F0495D31FDDC
:1045F0004052419302D0A9F7EACFB4E0A69597952F
:10460000879577956795BA95C9F700976105710504
:1046100008959B01AC010A2E06945795479537954E
:104620002795BA95C9F7620F731F841F951FA01DA8
:044630000895FFCF1B
:104634006C6F63616C3A20256C752C206E65787400
:104644003A20256C752C20676C6F62616C3A2025CA
:104654006C752C2064656C74613A20256C750A00B5
:10466400426F6F746564006F66667365743A2025E3
:104674006C642C20676C6F62616C3A20256C642C2E
:10468400206C6F63616C256C640A000100FFBC033D
:10469400EF03BC0301010022FFFFFFFFFFFF010046
:0E46A400000002000000004B0E0000000000AD
:00000001FF
